{
  "abi": [
    {
      "inputs": [],
      "stateMutability": "nonpayable",
      "type": "constructor"
    },
    {
      "anonymous": false,
      "inputs": [
        {
          "indexed": true,
          "internalType": "address",
          "name": "user",
          "type": "address"
        },
        {
          "indexed": true,
          "internalType": "uint256",
          "name": "quizId",
          "type": "uint256"
        },
        {
          "indexed": false,
          "internalType": "uint256",
          "name": "score",
          "type": "uint256"
        },
        {
          "indexed": false,
          "internalType": "string",
          "name": "badgeLevel",
          "type": "string"
        },
        {
          "indexed": false,
          "internalType": "bool",
          "name": "isNewHighScore",
          "type": "bool"
        },
        {
          "indexed": false,
          "internalType": "bool",
          "name": "isFirstAttempt",
          "type": "bool"
        },
        {
          "indexed": false,
          "internalType": "uint256",
          "name": "timestamp",
          "type": "uint256"
        }
      ],
      "name": "BadgeEarned",
      "type": "event"
    },
    {
      "anonymous": false,
      "inputs": [
        {
          "indexed": true,
          "internalType": "address",
          "name": "user",
          "type": "address"
        },
        {
          "indexed": true,
          "internalType": "uint256",
          "name": "quizId",
          "type": "uint256"
        },
        {
          "indexed": false,
          "internalType": "uint256",
          "name": "newScore",
          "type": "uint256"
        },
        {
          "indexed": false,
          "internalType": "uint256",
          "name": "previousScore",
          "type": "uint256"
        },
        {
          "indexed": false,
          "internalType": "string",
          "name": "badgeLevel",
          "type": "string"
        },
        {
          "indexed": false,
          "internalType": "uint256",
          "name": "timestamp",
          "type": "uint256"
        }
      ],
      "name": "HighScoreAchieved",
      "type": "event"
    },
    {
      "anonymous": false,
      "inputs": [
        {
          "indexed": true,
          "internalType": "address",
          "name": "user",
          "type": "address"
        },
        {
          "indexed": true,
          "internalType": "uint256",
          "name": "quizId",
          "type": "uint256"
        },
        {
          "indexed": false,
          "internalType": "uint256",
          "name": "score",
          "type": "uint256"
        },
        {
          "indexed": false,
          "internalType": "uint256",
          "name": "totalQuestions",
          "type": "uint256"
        },
        {
          "indexed": false,
          "internalType": "string",
          "name": "badgeLevel",
          "type": "string"
        },
        {
          "indexed": false,
          "internalType": "bool",
          "name": "isHighScore",
          "type": "bool"
        },
        {
          "indexed": false,
          "internalType": "bool",
          "name": "isFirstAttempt",
          "type": "bool"
        },
        {
          "indexed": false,
          "internalType": "uint256",
          "name": "timestamp",
          "type": "uint256"
        }
      ],
      "name": "KwalaBadgeRequest",
      "type": "event"
    },
    {
      "anonymous": false,
      "inputs": [
        {
          "indexed": true,
          "internalType": "address",
          "name": "user",
          "type": "address"
        },
        {
          "indexed": true,
          "internalType": "uint256",
          "name": "quizId",
          "type": "uint256"
        },
        {
          "indexed": false,
          "internalType": "uint256",
          "name": "timestamp",
          "type": "uint256"
        },
        {
          "indexed": false,
          "internalType": "string",
          "name": "specialBadge",
          "type": "string"
        }
      ],
      "name": "PerfectScoreAchieved",
      "type": "event"
    },
    {
      "anonymous": false,
      "inputs": [
        {
          "indexed": true,
          "internalType": "address",
          "name": "user",
          "type": "address"
        },
        {
          "indexed": true,
          "internalType": "uint256",
          "name": "quizId",
          "type": "uint256"
        },
        {
          "indexed": false,
          "internalType": "uint256",
          "name": "score",
          "type": "uint256"
        },
        {
          "indexed": false,
          "internalType": "uint256",
          "name": "totalQuestions",
          "type": "uint256"
        },
        {
          "indexed": false,
          "internalType": "string",
          "name": "badgeLevel",
          "type": "string"
        },
        {
          "indexed": false,
          "internalType": "uint256",
          "name": "timestamp",
          "type": "uint256"
        },
        {
          "indexed": false,
          "internalType": "bool",
          "name": "isHighScore",
          "type": "bool"
        }
      ],
      "name": "QuizCompleted",
      "type": "event"
    },
    {
      "inputs": [],
      "name": "badgeMinterContract",
      "outputs": [
        {
          "internalType": "address",
          "name": "",
          "type": "address"
        }
      ],
      "stateMutability": "view",
      "type": "function"
    },
    {
      "inputs": [
        {
          "internalType": "uint256",
          "name": "_score",
          "type": "uint256"
        }
      ],
      "name": "getBadgeLevelForScore",
      "outputs": [
        {
          "internalType": "string",
          "name": "",
          "type": "string"
        }
      ],
      "stateMutability": "pure",
      "type": "function"
    },
    {
      "inputs": [],
      "name": "getContractStats",
      "outputs": [
        {
          "internalType": "uint256",
          "name": "",
          "type": "uint256"
        },
        {
          "internalType": "uint256",
          "name": "",
          "type": "uint256"
        }
      ],
      "stateMutability": "view",
      "type": "function"
    },
    {
      "inputs": [
        {
          "internalType": "address",
          "name": "_user",
          "type": "address"
        }
      ],
      "name": "getLatestQuizResult",
      "outputs": [
        {
          "components": [
            {
              "internalType": "uint256",
              "name": "quizId",
              "type": "uint256"
            },
            {
              "internalType": "uint256",
              "name": "score",
              "type": "uint256"
            },
            {
              "internalType": "uint256",
              "name": "totalQuestions",
              "type": "uint256"
            },
            {
              "internalType": "uint256",
              "name": "timestamp",
              "type": "uint256"
            },
            {
              "internalType": "string",
              "name": "badgeLevel",
              "type": "string"
            },
            {
              "internalType": "bool",
              "name": "badgeMinted",
              "type": "bool"
            }
          ],
          "internalType": "struct QuizProgress.QuizResult",
          "name": "",
          "type": "tuple"
        }
      ],
      "stateMutability": "view",
      "type": "function"
    },
    {
      "inputs": [
        {
          "internalType": "address",
          "name": "_user",
          "type": "address"
        },
        {
          "internalType": "uint256",
          "name": "_quizId",
          "type": "uint256"
        }
      ],
      "name": "getUserBestScore",
      "outputs": [
        {
          "internalType": "uint256",
          "name": "",
          "type": "uint256"
        }
      ],
      "stateMutability": "view",
      "type": "function"
    },
    {
      "inputs": [
        {
          "internalType": "address",
          "name": "_user",
          "type": "address"
        }
      ],
      "name": "getUserQuizCount",
      "outputs": [
        {
          "internalType": "uint256",
          "name": "",
          "type": "uint256"
        }
      ],
      "stateMutability": "view",
      "type": "function"
    },
    {
      "inputs": [
        {
          "internalType": "address",
          "name": "_user",
          "type": "address"
        }
      ],
      "name": "getUserQuizResults",
      "outputs": [
        {
          "components": [
            {
              "internalType": "uint256",
              "name": "quizId",
              "type": "uint256"
            },
            {
              "internalType": "uint256",
              "name": "score",
              "type": "uint256"
            },
            {
              "internalType": "uint256",
              "name": "totalQuestions",
              "type": "uint256"
            },
            {
              "internalType": "uint256",
              "name": "timestamp",
              "type": "uint256"
            },
            {
              "internalType": "string",
              "name": "badgeLevel",
              "type": "string"
            },
            {
              "internalType": "bool",
              "name": "badgeMinted",
              "type": "bool"
            }
          ],
          "internalType": "struct QuizProgress.QuizResult[]",
          "name": "",
          "type": "tuple[]"
        }
      ],
      "stateMutability": "view",
      "type": "function"
    },
    {
      "inputs": [
        {
          "internalType": "address",
          "name": "",
          "type": "address"
        }
      ],
      "name": "hasPlayedQuiz",
      "outputs": [
        {
          "internalType": "bool",
          "name": "",
          "type": "bool"
        }
      ],
      "stateMutability": "view",
      "type": "function"
    },
    {
      "inputs": [
        {
          "internalType": "address",
          "name": "",
          "type": "address"
        },
        {
          "internalType": "uint256",
          "name": "",
          "type": "uint256"
        }
      ],
      "name": "hasUserAttemptedQuiz",
      "outputs": [
        {
          "internalType": "bool",
          "name": "",
          "type": "bool"
        }
      ],
      "stateMutability": "view",
      "type": "function"
    },
    {
      "inputs": [
        {
          "internalType": "address",
          "name": "_user",
          "type": "address"
        },
        {
          "internalType": "uint256",
          "name": "_quizId",
          "type": "uint256"
        }
      ],
      "name": "hasUserPlayedQuiz",
      "outputs": [
        {
          "internalType": "bool",
          "name": "",
          "type": "bool"
        }
      ],
      "stateMutability": "view",
      "type": "function"
    },
    {
      "inputs": [
        {
          "internalType": "address",
          "name": "_user",
          "type": "address"
        },
        {
          "internalType": "uint256",
          "name": "_resultIndex",
          "type": "uint256"
        }
      ],
      "name": "markBadgeAsMinted",
      "outputs": [],
      "stateMutability": "nonpayable",
      "type": "function"
    },
    {
      "inputs": [],
      "name": "owner",
      "outputs": [
        {
          "internalType": "address",
          "name": "",
          "type": "address"
        }
      ],
      "stateMutability": "view",
      "type": "function"
    },
    {
      "inputs": [
        {
          "internalType": "address",
          "name": "_badgeMinter",
          "type": "address"
        }
      ],
      "name": "setBadgeMinterContract",
      "outputs": [],
      "stateMutability": "nonpayable",
      "type": "function"
    },
    {
      "inputs": [
        {
          "internalType": "uint256",
          "name": "_quizId",
          "type": "uint256"
        },
        {
          "internalType": "uint256",
          "name": "_score",
          "type": "uint256"
        },
        {
          "internalType": "uint256",
          "name": "_totalQuestions",
          "type": "uint256"
        },
        {
          "internalType": "string",
          "name": "_badgeLevel",
          "type": "string"
        }
      ],
      "name": "submitQuizResult",
      "outputs": [],
      "stateMutability": "nonpayable",
      "type": "function"
    },
    {
      "inputs": [],
      "name": "totalQuizzesTaken",
      "outputs": [
        {
          "internalType": "uint256",
          "name": "",
          "type": "uint256"
        }
      ],
      "stateMutability": "view",
      "type": "function"
    },
    {
      "inputs": [],
      "name": "totalUsers",
      "outputs": [
        {
          "internalType": "uint256",
          "name": "",
          "type": "uint256"
        }
      ],
      "stateMutability": "view",
      "type": "function"
    },
    {
      "inputs": [
        {
          "internalType": "address",
          "name": "",
          "type": "address"
        },
        {
          "internalType": "uint256",
          "name": "",
          "type": "uint256"
        }
      ],
      "name": "userBestScores",
      "outputs": [
        {
          "internalType": "uint256",
          "name": "",
          "type": "uint256"
        }
      ],
      "stateMutability": "view",
      "type": "function"
    },
    {
      "inputs": [
        {
          "internalType": "address",
          "name": "",
          "type": "address"
        },
        {
          "internalType": "uint256",
          "name": "",
          "type": "uint256"
        }
      ],
      "name": "userQuizResults",
      "outputs": [
        {
          "internalType": "uint256",
          "name": "quizId",
          "type": "uint256"
        },
        {
          "internalType": "uint256",
          "name": "score",
          "type": "uint256"
        },
        {
          "internalType": "uint256",
          "name": "totalQuestions",
          "type": "uint256"
        },
        {
          "internalType": "uint256",
          "name": "timestamp",
          "type": "uint256"
        },
        {
          "internalType": "string",
          "name": "badgeLevel",
          "type": "string"
        },
        {
          "internalType": "bool",
          "name": "badgeMinted",
          "type": "bool"
        }
      ],
      "stateMutability": "view",
      "type": "function"
    }
  ],
  "devdoc": {
    "kind": "dev",
    "methods": {},
    "version": 1
  },
  "evm": {
    "assembly": "    /* \"QuizProgress.sol\":289:7024  contract QuizProgress {... */\n  mstore(0x40, 0x80)\n    /* \"QuizProgress.sol\":1042:1091  constructor() {... */\n  callvalue\n  dup1\n  iszero\n  tag_1\n  jumpi\n  0x00\n  dup1\n  revert\ntag_1:\n  pop\n    /* \"QuizProgress.sol\":1066:1071  owner */\n  0x07\n    /* \"QuizProgress.sol\":1066:1084  owner = msg.sender */\n  dup1\n  sload\n  not(sub(shl(0xa0, 0x01), 0x01))\n  and\n    /* \"QuizProgress.sol\":1074:1084  msg.sender */\n  caller\n    /* \"QuizProgress.sol\":1066:1084  owner = msg.sender */\n  or\n  swap1\n  sstore\n    /* \"QuizProgress.sol\":289:7024  contract QuizProgress {... */\n  dataSize(sub_0)\n  dup1\n  dataOffset(sub_0)\n  0x00\n  codecopy\n  0x00\n  return\nstop\n\nsub_0: assembly {\n        /* \"QuizProgress.sol\":289:7024  contract QuizProgress {... */\n      mstore(0x40, 0x80)\n      callvalue\n      dup1\n      iszero\n      tag_1\n      jumpi\n      0x00\n      dup1\n      revert\n    tag_1:\n      pop\n      jumpi(tag_2, lt(calldatasize, 0x04))\n      shr(0xe0, calldataload(0x00))\n      dup1\n      0x8a7675b7\n      gt\n      tag_21\n      jumpi\n      dup1\n      0xb03cffd1\n      gt\n      tag_22\n      jumpi\n      dup1\n      0xc64251b9\n      gt\n      tag_23\n      jumpi\n      dup1\n      0xc64251b9\n      eq\n      tag_18\n      jumpi\n      dup1\n      0xdfe6b5d6\n      eq\n      tag_19\n      jumpi\n      dup1\n      0xfc4f59b9\n      eq\n      tag_20\n      jumpi\n      0x00\n      dup1\n      revert\n    tag_23:\n      dup1\n      0xb03cffd1\n      eq\n      tag_16\n      jumpi\n      dup1\n      0xbff1f9e1\n      eq\n      tag_17\n      jumpi\n      0x00\n      dup1\n      revert\n    tag_22:\n      dup1\n      0x8a7675b7\n      eq\n      tag_12\n      jumpi\n      dup1\n      0x8cfea35d\n      eq\n      tag_13\n      jumpi\n      dup1\n      0x8da5cb5b\n      eq\n      tag_14\n      jumpi\n      dup1\n      0x9af909b5\n      eq\n      tag_15\n      jumpi\n      0x00\n      dup1\n      revert\n    tag_21:\n      dup1\n      0x4d1052fb\n      gt\n      tag_24\n      jumpi\n      dup1\n      0x69074273\n      gt\n      tag_25\n      jumpi\n      dup1\n      0x69074273\n      eq\n      tag_9\n      jumpi\n      dup1\n      0x706f0436\n      eq\n      tag_10\n      jumpi\n      dup1\n      0x88a3c332\n      eq\n      tag_11\n      jumpi\n      0x00\n      dup1\n      revert\n    tag_25:\n      dup1\n      0x4d1052fb\n      eq\n      tag_7\n      jumpi\n      dup1\n      0x52173b39\n      eq\n      tag_8\n      jumpi\n      0x00\n      dup1\n      revert\n    tag_24:\n      dup1\n      0x2cc71fc1\n      eq\n      tag_3\n      jumpi\n      dup1\n      0x36249916\n      eq\n      tag_4\n      jumpi\n      dup1\n      0x3d15d682\n      eq\n      tag_5\n      jumpi\n      dup1\n      0x446aeb7e\n      eq\n      tag_6\n      jumpi\n    tag_2:\n      0x00\n      dup1\n      revert\n        /* \"QuizProgress.sol\":5795:5921  function getUserQuizCount(address _user) external view returns (uint256) {... */\n    tag_3:\n      tag_26\n      tag_27\n      calldatasize\n      0x04\n      tag_28\n      jump\t// in\n    tag_27:\n      sub(shl(0xa0, 0x01), 0x01)\n        /* \"QuizProgress.sol\":5885:5907  userQuizResults[_user] */\n      and\n        /* \"QuizProgress.sol\":5859:5866  uint256 */\n      0x00\n        /* \"QuizProgress.sol\":5885:5907  userQuizResults[_user] */\n      swap1\n      dup2\n      mstore\n      0x20\n      dup2\n      swap1\n      mstore\n      0x40\n      swap1\n      keccak256\n        /* \"QuizProgress.sol\":5885:5914  userQuizResults[_user].length */\n      sload\n      swap1\n        /* \"QuizProgress.sol\":5795:5921  function getUserQuizCount(address _user) external view returns (uint256) {... */\n      jump\n    tag_26:\n      mload(0x40)\n        /* \"#utility.yul\":552:577   */\n      swap1\n      dup2\n      mstore\n        /* \"#utility.yul\":540:542   */\n      0x20\n        /* \"#utility.yul\":525:543   */\n      add\n        /* \"QuizProgress.sol\":5795:5921  function getUserQuizCount(address _user) external view returns (uint256) {... */\n    tag_30:\n      mload(0x40)\n      dup1\n      swap2\n      sub\n      swap1\n      return\n        /* \"QuizProgress.sol\":568:637  mapping(address => mapping(uint256 => uint256)) public userBestScores */\n    tag_4:\n      tag_26\n      tag_33\n      calldatasize\n      0x04\n      tag_34\n      jump\t// in\n    tag_33:\n      0x01\n      0x20\n      swap1\n      dup2\n      mstore\n      0x00\n      swap3\n      dup4\n      mstore\n      0x40\n      dup1\n      dup5\n      keccak256\n      swap1\n      swap2\n      mstore\n      swap1\n      dup3\n      mstore\n      swap1\n      keccak256\n      sload\n      dup2\n      jump\n        /* \"QuizProgress.sol\":5135:5500  function markBadgeAsMinted(address _user, uint256 _resultIndex) external {... */\n    tag_5:\n      tag_37\n      tag_38\n      calldatasize\n      0x04\n      tag_34\n      jump\t// in\n    tag_38:\n      tag_39\n      jump\t// in\n    tag_37:\n      stop\n        /* \"QuizProgress.sol\":5645:5789  function getUserBestScore(address _user, uint256 _quizId) external view returns (uint256) {... */\n    tag_6:\n      tag_26\n      tag_41\n      calldatasize\n      0x04\n      tag_34\n      jump\t// in\n    tag_41:\n      tag_42\n      jump\t// in\n        /* \"QuizProgress.sol\":726:758  uint256 public totalQuizzesTaken */\n    tag_7:\n      tag_26\n      sload(0x03)\n      dup2\n      jump\n        /* \"QuizProgress.sol\":507:562  mapping(address => QuizResult[]) public userQuizResults */\n    tag_8:\n      tag_47\n      tag_48\n      calldatasize\n      0x04\n      tag_34\n      jump\t// in\n    tag_48:\n      tag_49\n      jump\t// in\n    tag_47:\n      mload(0x40)\n      tag_30\n      swap7\n      swap6\n      swap5\n      swap4\n      swap3\n      swap2\n      swap1\n      tag_51\n      jump\t// in\n        /* \"QuizProgress.sol\":795:840  mapping(address => bool) public hasPlayedQuiz */\n    tag_9:\n      tag_52\n      tag_53\n      calldatasize\n      0x04\n      tag_28\n      jump\t// in\n    tag_53:\n      mstore(0x20, 0x05)\n      0x00\n      swap1\n      dup2\n      mstore\n      0x40\n      swap1\n      keccak256\n      sload\n      0xff\n      and\n      dup2\n      jump\n    tag_52:\n      mload(0x40)\n        /* \"#utility.yul\":1900:1914   */\n      swap1\n      iszero\n        /* \"#utility.yul\":1893:1915   */\n      iszero\n        /* \"#utility.yul\":1875:1916   */\n      dup2\n      mstore\n        /* \"#utility.yul\":1863:1865   */\n      0x20\n        /* \"#utility.yul\":1848:1866   */\n      add\n        /* \"QuizProgress.sol\":795:840  mapping(address => bool) public hasPlayedQuiz */\n      tag_30\n        /* \"#utility.yul\":1735:1922   */\n      jump\n        /* \"QuizProgress.sol\":643:715  mapping(address => mapping(uint256 => bool)) public hasUserAttemptedQuiz */\n    tag_10:\n      tag_52\n      tag_58\n      calldatasize\n      0x04\n      tag_34\n      jump\t// in\n    tag_58:\n      0x02\n      0x20\n      swap1\n      dup2\n      mstore\n      0x00\n      swap3\n      dup4\n      mstore\n      0x40\n      dup1\n      dup5\n      keccak256\n      swap1\n      swap2\n      mstore\n      swap1\n      dup3\n      mstore\n      swap1\n      keccak256\n      sload\n      0xff\n      and\n      dup2\n      jump\n        /* \"QuizProgress.sol\":5506:5639  function getUserQuizResults(address _user) external view returns (QuizResult[] memory) {... */\n    tag_11:\n      tag_61\n      tag_62\n      calldatasize\n      0x04\n      tag_28\n      jump\t// in\n    tag_62:\n      tag_63\n      jump\t// in\n    tag_61:\n      mload(0x40)\n      tag_30\n      swap2\n      swap1\n      tag_65\n      jump\t// in\n        /* \"QuizProgress.sol\":2347:5129  function submitQuizResult(... */\n    tag_12:\n      tag_37\n      tag_67\n      calldatasize\n      0x04\n      tag_68\n      jump\t// in\n    tag_67:\n      tag_69\n      jump\t// in\n        /* \"QuizProgress.sol\":851:885  address public badgeMinterContract */\n    tag_13:\n      sload(0x06)\n      tag_70\n      swap1\n      sub(shl(0xa0, 0x01), 0x01)\n      and\n      dup2\n      jump\n    tag_70:\n      mload(0x40)\n      sub(shl(0xa0, 0x01), 0x01)\n        /* \"#utility.yul\":4730:4785   */\n      swap1\n      swap2\n      and\n        /* \"#utility.yul\":4712:4786   */\n      dup2\n      mstore\n        /* \"#utility.yul\":4700:4702   */\n      0x20\n        /* \"#utility.yul\":4685:4703   */\n      add\n        /* \"QuizProgress.sol\":851:885  address public badgeMinterContract */\n      tag_30\n        /* \"#utility.yul\":4566:4792   */\n      jump\n        /* \"QuizProgress.sol\":891:911  address public owner */\n    tag_14:\n      sload(0x07)\n      tag_70\n      swap1\n      sub(shl(0xa0, 0x01), 0x01)\n      and\n      dup2\n      jump\n        /* \"QuizProgress.sol\":6624:6772  function hasUserPlayedQuiz(address _user, uint256 _quizId) external view returns (bool) {... */\n    tag_15:\n      tag_52\n      tag_78\n      calldatasize\n      0x04\n      tag_34\n      jump\t// in\n    tag_78:\n      sub(shl(0xa0, 0x01), 0x01)\n        /* \"QuizProgress.sol\":6729:6756  hasUserAttemptedQuiz[_user] */\n      swap2\n      swap1\n      swap2\n      and\n        /* \"QuizProgress.sol\":6706:6710  bool */\n      0x00\n        /* \"QuizProgress.sol\":6729:6756  hasUserAttemptedQuiz[_user] */\n      swap1\n      dup2\n      mstore\n        /* \"QuizProgress.sol\":6729:6749  hasUserAttemptedQuiz */\n      0x02\n        /* \"QuizProgress.sol\":6729:6756  hasUserAttemptedQuiz[_user] */\n      0x20\n      swap1\n      dup2\n      mstore\n      0x40\n      dup1\n      dup4\n      keccak256\n        /* \"QuizProgress.sol\":6729:6765  hasUserAttemptedQuiz[_user][_quizId] */\n      swap4\n      dup4\n      mstore\n      swap3\n      swap1\n      mstore\n      keccak256\n      sload\n      0xff\n      and\n      swap1\n        /* \"QuizProgress.sol\":6624:6772  function hasUserPlayedQuiz(address _user, uint256 _quizId) external view returns (bool) {... */\n      jump\n        /* \"QuizProgress.sol\":6057:6618  function getBadgeLevelForScore(uint256 _score) public pure returns (string memory) {... */\n    tag_16:\n      tag_81\n      tag_82\n      calldatasize\n      0x04\n      tag_83\n      jump\t// in\n    tag_82:\n      tag_84\n      jump\t// in\n    tag_81:\n      mload(0x40)\n      tag_30\n      swap2\n      swap1\n      tag_86\n      jump\t// in\n        /* \"QuizProgress.sol\":764:789  uint256 public totalUsers */\n    tag_17:\n      tag_26\n      sload(0x04)\n      dup2\n      jump\n        /* \"QuizProgress.sol\":2217:2341  function setBadgeMinterContract(address _badgeMinter) external onlyOwner {... */\n    tag_18:\n      tag_37\n      tag_91\n      calldatasize\n      0x04\n      tag_28\n      jump\t// in\n    tag_91:\n      tag_92\n      jump\t// in\n        /* \"QuizProgress.sol\":5927:6051  function getContractStats() external view returns (uint256, uint256) {... */\n    tag_19:\n        /* \"QuizProgress.sol\":6014:6031  totalQuizzesTaken */\n      sload(0x03)\n        /* \"QuizProgress.sol\":6033:6043  totalUsers */\n      sload(0x04)\n        /* \"QuizProgress.sol\":5927:6051  function getContractStats() external view returns (uint256, uint256) {... */\n      0x40\n      dup1\n      mload\n        /* \"#utility.yul\":5381:5406   */\n      swap3\n      dup4\n      mstore\n        /* \"#utility.yul\":5437:5439   */\n      0x20\n        /* \"#utility.yul\":5422:5440   */\n      dup4\n      add\n        /* \"#utility.yul\":5415:5449   */\n      swap2\n      swap1\n      swap2\n      mstore\n        /* \"#utility.yul\":5354:5372   */\n      add\n        /* \"QuizProgress.sol\":5927:6051  function getContractStats() external view returns (uint256, uint256) {... */\n      tag_30\n        /* \"#utility.yul\":5207:5455   */\n      jump\n        /* \"QuizProgress.sol\":6778:7022  function getLatestQuizResult(address _user) external view returns (QuizResult memory) {... */\n    tag_20:\n      tag_97\n      tag_98\n      calldatasize\n      0x04\n      tag_28\n      jump\t// in\n    tag_98:\n      tag_99\n      jump\t// in\n    tag_97:\n      mload(0x40)\n      tag_30\n      swap2\n      swap1\n      tag_101\n      jump\t// in\n        /* \"QuizProgress.sol\":5135:5500  function markBadgeAsMinted(address _user, uint256 _resultIndex) external {... */\n    tag_39:\n        /* \"QuizProgress.sol\":5240:5259  badgeMinterContract */\n      and(sub(shl(0xa0, 0x01), 0x01), sload(0x06))\n        /* \"QuizProgress.sol\":5226:5236  msg.sender */\n      caller\n        /* \"QuizProgress.sol\":5226:5259  msg.sender == badgeMinterContract */\n      eq\n      dup1\n        /* \"QuizProgress.sol\":5226:5282  msg.sender == badgeMinterContract || msg.sender == owner */\n      tag_104\n      jumpi\n      pop\n        /* \"QuizProgress.sol\":5277:5282  owner */\n      and(sub(shl(0xa0, 0x01), 0x01), sload(0x07))\n        /* \"QuizProgress.sol\":5263:5273  msg.sender */\n      caller\n        /* \"QuizProgress.sol\":5263:5282  msg.sender == owner */\n      eq\n        /* \"QuizProgress.sol\":5226:5282  msg.sender == badgeMinterContract || msg.sender == owner */\n    tag_104:\n        /* \"QuizProgress.sol\":5218:5332  require(msg.sender == badgeMinterContract || msg.sender == owner, \"Only badge minter or owner can mark as minted\") */\n      tag_105\n      jumpi\n      mload(0x40)\n      shl(0xe5, 0x461bcd)\n      dup2\n      mstore\n        /* \"#utility.yul\":5930:5932   */\n      0x20\n        /* \"QuizProgress.sol\":5218:5332  require(msg.sender == badgeMinterContract || msg.sender == owner, \"Only badge minter or owner can mark as minted\") */\n      0x04\n      dup3\n      add\n        /* \"#utility.yul\":5912:5933   */\n      mstore\n        /* \"#utility.yul\":5969:5971   */\n      0x2d\n        /* \"#utility.yul\":5949:5967   */\n      0x24\n      dup3\n      add\n        /* \"#utility.yul\":5942:5972   */\n      mstore\n        /* \"#utility.yul\":6008:6042   */\n      0x4f6e6c79206261646765206d696e746572206f72206f776e65722063616e206d\n        /* \"#utility.yul\":5988:6006   */\n      0x44\n      dup3\n      add\n        /* \"#utility.yul\":5981:6043   */\n      mstore\n        /* \"#utility.yul\":6079:6094   */\n      0x61726b206173206d696e74656400000000000000000000000000000000000000\n        /* \"#utility.yul\":6059:6077   */\n      0x64\n      dup3\n      add\n        /* \"#utility.yul\":6052:6095   */\n      mstore\n        /* \"#utility.yul\":6112:6131   */\n      0x84\n      add\n        /* \"QuizProgress.sol\":5218:5332  require(msg.sender == badgeMinterContract || msg.sender == owner, \"Only badge minter or owner can mark as minted\") */\n    tag_106:\n      mload(0x40)\n      dup1\n      swap2\n      sub\n      swap1\n      revert\n    tag_105:\n      sub(shl(0xa0, 0x01), 0x01)\n        /* \"QuizProgress.sol\":5365:5387  userQuizResults[_user] */\n      dup3\n      and\n        /* \"QuizProgress.sol\":5365:5380  userQuizResults */\n      0x00\n        /* \"QuizProgress.sol\":5365:5387  userQuizResults[_user] */\n      swap1\n      dup2\n      mstore\n      0x20\n      dup2\n      swap1\n      mstore\n      0x40\n      swap1\n      keccak256\n        /* \"QuizProgress.sol\":5365:5394  userQuizResults[_user].length */\n      sload\n        /* \"QuizProgress.sol\":5350:5394  _resultIndex < userQuizResults[_user].length */\n      dup2\n      lt\n        /* \"QuizProgress.sol\":5342:5419  require(_resultIndex < userQuizResults[_user].length, \"Invalid result index\") */\n      tag_108\n      jumpi\n      mload(0x40)\n      shl(0xe5, 0x461bcd)\n      dup2\n      mstore\n        /* \"#utility.yul\":6344:6346   */\n      0x20\n        /* \"QuizProgress.sol\":5342:5419  require(_resultIndex < userQuizResults[_user].length, \"Invalid result index\") */\n      0x04\n      dup3\n      add\n        /* \"#utility.yul\":6326:6347   */\n      mstore\n        /* \"#utility.yul\":6383:6385   */\n      0x14\n        /* \"#utility.yul\":6363:6381   */\n      0x24\n      dup3\n      add\n        /* \"#utility.yul\":6356:6386   */\n      mstore\n        /* \"#utility.yul\":6422:6444   */\n      0x496e76616c696420726573756c7420696e646578000000000000000000000000\n        /* \"#utility.yul\":6402:6420   */\n      0x44\n      dup3\n      add\n        /* \"#utility.yul\":6395:6445   */\n      mstore\n        /* \"#utility.yul\":6462:6480   */\n      0x64\n      add\n        /* \"QuizProgress.sol\":5342:5419  require(_resultIndex < userQuizResults[_user].length, \"Invalid result index\") */\n      tag_106\n        /* \"#utility.yul\":6142:6486   */\n      jump\n        /* \"QuizProgress.sol\":5342:5419  require(_resultIndex < userQuizResults[_user].length, \"Invalid result index\") */\n    tag_108:\n      sub(shl(0xa0, 0x01), 0x01)\n        /* \"QuizProgress.sol\":5438:5460  userQuizResults[_user] */\n      dup3\n      and\n        /* \"QuizProgress.sol\":5438:5453  userQuizResults */\n      0x00\n        /* \"QuizProgress.sol\":5438:5460  userQuizResults[_user] */\n      swap1\n      dup2\n      mstore\n      0x20\n      dup2\n      swap1\n      mstore\n      0x40\n      swap1\n      keccak256\n        /* \"QuizProgress.sol\":5438:5474  userQuizResults[_user][_resultIndex] */\n      dup1\n      sload\n        /* \"QuizProgress.sol\":5489:5493  true */\n      0x01\n      swap2\n        /* \"QuizProgress.sol\":5438:5460  userQuizResults[_user] */\n      swap1\n        /* \"QuizProgress.sol\":5461:5473  _resultIndex */\n      dup4\n      swap1\n        /* \"QuizProgress.sol\":5438:5474  userQuizResults[_user][_resultIndex] */\n      dup2\n      lt\n      tag_112\n      jumpi\n      tag_112\n      tag_113\n      jump\t// in\n    tag_112:\n      0x00\n      swap2\n      dup3\n      mstore\n      0x20\n      swap1\n      swap2\n      keccak256\n      0x06\n      swap1\n      swap2\n      mul\n      add\n        /* \"QuizProgress.sol\":5438:5486  userQuizResults[_user][_resultIndex].badgeMinted */\n      0x05\n      add\n        /* \"QuizProgress.sol\":5438:5493  userQuizResults[_user][_resultIndex].badgeMinted = true */\n      dup1\n      sload\n      not(0xff)\n      and\n      swap2\n      iszero\n      iszero\n      swap2\n      swap1\n      swap2\n      or\n      swap1\n      sstore\n      pop\n      pop\n        /* \"QuizProgress.sol\":5135:5500  function markBadgeAsMinted(address _user, uint256 _resultIndex) external {... */\n      jump\t// out\n        /* \"QuizProgress.sol\":5645:5789  function getUserBestScore(address _user, uint256 _quizId) external view returns (uint256) {... */\n    tag_42:\n      sub(shl(0xa0, 0x01), 0x01)\n        /* \"QuizProgress.sol\":5752:5773  userBestScores[_user] */\n      dup3\n      and\n        /* \"QuizProgress.sol\":5726:5733  uint256 */\n      0x00\n        /* \"QuizProgress.sol\":5752:5773  userBestScores[_user] */\n      swap1\n      dup2\n      mstore\n        /* \"QuizProgress.sol\":5752:5766  userBestScores */\n      0x01\n        /* \"QuizProgress.sol\":5752:5773  userBestScores[_user] */\n      0x20\n      swap1\n      dup2\n      mstore\n      0x40\n      dup1\n      dup4\n      keccak256\n        /* \"QuizProgress.sol\":5752:5782  userBestScores[_user][_quizId] */\n      dup5\n      dup5\n      mstore\n      swap1\n      swap2\n      mstore\n      swap1\n      keccak256\n      sload\n        /* \"QuizProgress.sol\":5645:5789  function getUserBestScore(address _user, uint256 _quizId) external view returns (uint256) {... */\n    tag_115:\n      swap3\n      swap2\n      pop\n      pop\n      jump\t// out\n        /* \"QuizProgress.sol\":507:562  mapping(address => QuizResult[]) public userQuizResults */\n    tag_49:\n      mstore(0x20, 0x00)\n      dup2\n      0x00\n      mstore\n      keccak256(0x00, 0x40)\n      dup2\n      dup2\n      sload\n      dup2\n      lt\n      tag_116\n      jumpi\n      0x00\n      dup1\n      revert\n    tag_116:\n      swap1\n      0x00\n      mstore\n      keccak256(0x00, 0x20)\n      swap1\n      0x06\n      mul\n      add\n      0x00\n      swap2\n      pop\n      swap2\n      pop\n      pop\n      dup1\n      0x00\n      add\n      sload\n      swap1\n      dup1\n      0x01\n      add\n      sload\n      swap1\n      dup1\n      0x02\n      add\n      sload\n      swap1\n      dup1\n      0x03\n      add\n      sload\n      swap1\n      dup1\n      0x04\n      add\n      dup1\n      sload\n      tag_118\n      swap1\n      tag_119\n      jump\t// in\n    tag_118:\n      dup1\n      0x1f\n      add\n      0x20\n      dup1\n      swap2\n      div\n      mul\n      0x20\n      add\n      mload(0x40)\n      swap1\n      dup2\n      add\n      0x40\n      mstore\n      dup1\n      swap3\n      swap2\n      swap1\n      dup2\n      dup2\n      mstore\n      0x20\n      add\n      dup3\n      dup1\n      sload\n      tag_120\n      swap1\n      tag_119\n      jump\t// in\n    tag_120:\n      dup1\n      iszero\n      tag_121\n      jumpi\n      dup1\n      0x1f\n      lt\n      tag_122\n      jumpi\n      0x0100\n      dup1\n      dup4\n      sload\n      div\n      mul\n      dup4\n      mstore\n      swap2\n      0x20\n      add\n      swap2\n      jump(tag_121)\n    tag_122:\n      dup3\n      add\n      swap2\n      swap1\n      0x00\n      mstore\n      keccak256(0x00, 0x20)\n      swap1\n    tag_123:\n      dup2\n      sload\n      dup2\n      mstore\n      swap1\n      0x01\n      add\n      swap1\n      0x20\n      add\n      dup1\n      dup4\n      gt\n      tag_123\n      jumpi\n      dup3\n      swap1\n      sub\n      0x1f\n      and\n      dup3\n      add\n      swap2\n    tag_121:\n      pop\n      pop\n      pop\n      0x05\n      swap1\n      swap4\n      add\n      sload\n      swap2\n      swap3\n      pop\n      pop\n      0xff\n      and\n      dup7\n      jump\t// out\n        /* \"QuizProgress.sol\":5506:5639  function getUserQuizResults(address _user) external view returns (QuizResult[] memory) {... */\n    tag_63:\n      sub(shl(0xa0, 0x01), 0x01)\n        /* \"QuizProgress.sol\":5610:5632  userQuizResults[_user] */\n      dup2\n      and\n        /* \"QuizProgress.sol\":5610:5625  userQuizResults */\n      0x00\n        /* \"QuizProgress.sol\":5610:5632  userQuizResults[_user] */\n      swap1\n      dup2\n      mstore\n      0x20\n      dup2\n      dup2\n      mstore\n      0x40\n      dup1\n      dup4\n      keccak256\n        /* \"QuizProgress.sol\":5603:5632  return userQuizResults[_user] */\n      dup1\n      sload\n      dup3\n      mload\n      dup2\n      dup6\n      mul\n      dup2\n      add\n      dup6\n      add\n      swap1\n      swap4\n      mstore\n      dup1\n      dup4\n      mstore\n        /* \"QuizProgress.sol\":5572:5591  QuizResult[] memory */\n      0x60\n      swap5\n        /* \"QuizProgress.sol\":5603:5632  return userQuizResults[_user] */\n      swap3\n      swap4\n        /* \"QuizProgress.sol\":5610:5632  userQuizResults[_user] */\n      swap2\n      swap3\n        /* \"QuizProgress.sol\":5603:5632  return userQuizResults[_user] */\n      swap1\n      swap2\n      dup5\n      add\n    tag_125:\n      dup3\n      dup3\n      lt\n      iszero\n      tag_126\n      jumpi\n      dup4\n      dup3\n      swap1\n      0x00\n      mstore\n      keccak256(0x00, 0x20)\n      swap1\n      0x06\n      mul\n      add\n      mload(0x40)\n      dup1\n      0xc0\n      add\n      0x40\n      mstore\n      swap1\n      dup2\n      0x00\n      dup3\n      add\n      sload\n      dup2\n      mstore\n      0x20\n      add\n      0x01\n      dup3\n      add\n      sload\n      dup2\n      mstore\n      0x20\n      add\n      0x02\n      dup3\n      add\n      sload\n      dup2\n      mstore\n      0x20\n      add\n      0x03\n      dup3\n      add\n      sload\n      dup2\n      mstore\n      0x20\n      add\n      0x04\n      dup3\n      add\n      dup1\n      sload\n      tag_128\n      swap1\n      tag_119\n      jump\t// in\n    tag_128:\n      dup1\n      0x1f\n      add\n      0x20\n      dup1\n      swap2\n      div\n      mul\n      0x20\n      add\n      mload(0x40)\n      swap1\n      dup2\n      add\n      0x40\n      mstore\n      dup1\n      swap3\n      swap2\n      swap1\n      dup2\n      dup2\n      mstore\n      0x20\n      add\n      dup3\n      dup1\n      sload\n      tag_129\n      swap1\n      tag_119\n      jump\t// in\n    tag_129:\n      dup1\n      iszero\n      tag_130\n      jumpi\n      dup1\n      0x1f\n      lt\n      tag_131\n      jumpi\n      0x0100\n      dup1\n      dup4\n      sload\n      div\n      mul\n      dup4\n      mstore\n      swap2\n      0x20\n      add\n      swap2\n      jump(tag_130)\n    tag_131:\n      dup3\n      add\n      swap2\n      swap1\n      0x00\n      mstore\n      keccak256(0x00, 0x20)\n      swap1\n    tag_132:\n      dup2\n      sload\n      dup2\n      mstore\n      swap1\n      0x01\n      add\n      swap1\n      0x20\n      add\n      dup1\n      dup4\n      gt\n      tag_132\n      jumpi\n      dup3\n      swap1\n      sub\n      0x1f\n      and\n      dup3\n      add\n      swap2\n    tag_130:\n      pop\n      pop\n      pop\n      swap2\n      dup4\n      mstore\n      pop\n      pop\n      0x05\n      swap2\n      swap1\n      swap2\n      add\n      sload\n      0xff\n      and\n      iszero\n      iszero\n      0x20\n      swap2\n      dup3\n      add\n      mstore\n      swap1\n      dup3\n      mstore\n      0x01\n      swap3\n      swap1\n      swap3\n      add\n      swap2\n      add\n      jump(tag_125)\n    tag_126:\n      pop\n      pop\n      pop\n      pop\n      swap1\n      pop\n        /* \"QuizProgress.sol\":5506:5639  function getUserQuizResults(address _user) external view returns (QuizResult[] memory) {... */\n      swap2\n      swap1\n      pop\n      jump\t// out\n        /* \"QuizProgress.sol\":2347:5129  function submitQuizResult(... */\n    tag_69:\n        /* \"QuizProgress.sol\":2533:2548  _totalQuestions */\n      dup2\n        /* \"QuizProgress.sol\":2523:2529  _score */\n      dup4\n        /* \"QuizProgress.sol\":2523:2548  _score <= _totalQuestions */\n      gt\n      iszero\n        /* \"QuizProgress.sol\":2515:2588  require(_score <= _totalQuestions, \"Score cannot exceed total questions\") */\n      tag_134\n      jumpi\n      mload(0x40)\n      shl(0xe5, 0x461bcd)\n      dup2\n      mstore\n        /* \"#utility.yul\":7210:7212   */\n      0x20\n        /* \"QuizProgress.sol\":2515:2588  require(_score <= _totalQuestions, \"Score cannot exceed total questions\") */\n      0x04\n      dup3\n      add\n        /* \"#utility.yul\":7192:7213   */\n      mstore\n        /* \"#utility.yul\":7249:7251   */\n      0x23\n        /* \"#utility.yul\":7229:7247   */\n      0x24\n      dup3\n      add\n        /* \"#utility.yul\":7222:7252   */\n      mstore\n        /* \"#utility.yul\":7288:7322   */\n      0x53636f72652063616e6e6f742065786365656420746f74616c20717565737469\n        /* \"#utility.yul\":7268:7286   */\n      0x44\n      dup3\n      add\n        /* \"#utility.yul\":7261:7323   */\n      mstore\n      shl(0xe8, 0x6f6e73)\n        /* \"#utility.yul\":7339:7357   */\n      0x64\n      dup3\n      add\n        /* \"#utility.yul\":7332:7365   */\n      mstore\n        /* \"#utility.yul\":7382:7401   */\n      0x84\n      add\n        /* \"QuizProgress.sol\":2515:2588  require(_score <= _totalQuestions, \"Score cannot exceed total questions\") */\n      tag_106\n        /* \"#utility.yul\":7008:7407   */\n      jump\n        /* \"QuizProgress.sol\":2515:2588  require(_score <= _totalQuestions, \"Score cannot exceed total questions\") */\n    tag_134:\n        /* \"QuizProgress.sol\":2624:2625  0 */\n      0x00\n        /* \"QuizProgress.sol\":2606:2621  _totalQuestions */\n      dup3\n        /* \"QuizProgress.sol\":2606:2625  _totalQuestions > 0 */\n      gt\n        /* \"QuizProgress.sol\":2598:2668  require(_totalQuestions > 0, \"Total questions must be greater than 0\") */\n      tag_137\n      jumpi\n      mload(0x40)\n      shl(0xe5, 0x461bcd)\n      dup2\n      mstore\n        /* \"#utility.yul\":7614:7616   */\n      0x20\n        /* \"QuizProgress.sol\":2598:2668  require(_totalQuestions > 0, \"Total questions must be greater than 0\") */\n      0x04\n      dup3\n      add\n        /* \"#utility.yul\":7596:7617   */\n      mstore\n        /* \"#utility.yul\":7653:7655   */\n      0x26\n        /* \"#utility.yul\":7633:7651   */\n      0x24\n      dup3\n      add\n        /* \"#utility.yul\":7626:7656   */\n      mstore\n        /* \"#utility.yul\":7692:7726   */\n      0x546f74616c207175657374696f6e73206d757374206265206772656174657220\n        /* \"#utility.yul\":7672:7690   */\n      0x44\n      dup3\n      add\n        /* \"#utility.yul\":7665:7727   */\n      mstore\n        /* \"#utility.yul\":7763:7771   */\n      0x7468616e20300000000000000000000000000000000000000000000000000000\n        /* \"#utility.yul\":7743:7761   */\n      0x64\n      dup3\n      add\n        /* \"#utility.yul\":7736:7772   */\n      mstore\n        /* \"#utility.yul\":7789:7808   */\n      0x84\n      add\n        /* \"QuizProgress.sol\":2598:2668  require(_totalQuestions > 0, \"Total questions must be greater than 0\") */\n      tag_106\n        /* \"#utility.yul\":7412:7814   */\n      jump\n        /* \"QuizProgress.sol\":2598:2668  require(_totalQuestions > 0, \"Total questions must be greater than 0\") */\n    tag_137:\n        /* \"QuizProgress.sol\":2737:2747  msg.sender */\n      caller\n        /* \"QuizProgress.sol\":2723:2748  hasPlayedQuiz[msg.sender] */\n      0x00\n      swap1\n      dup2\n      mstore\n        /* \"QuizProgress.sol\":2723:2736  hasPlayedQuiz */\n      0x05\n        /* \"QuizProgress.sol\":2723:2748  hasPlayedQuiz[msg.sender] */\n      0x20\n      mstore\n      0x40\n      swap1\n      keccak256\n      sload\n      0xff\n      and\n        /* \"QuizProgress.sol\":2718:2833  if (!hasPlayedQuiz[msg.sender]) {... */\n      tag_140\n      jumpi\n        /* \"QuizProgress.sol\":2778:2788  msg.sender */\n      caller\n        /* \"QuizProgress.sol\":2764:2789  hasPlayedQuiz[msg.sender] */\n      0x00\n      swap1\n      dup2\n      mstore\n        /* \"QuizProgress.sol\":2764:2777  hasPlayedQuiz */\n      0x05\n        /* \"QuizProgress.sol\":2764:2789  hasPlayedQuiz[msg.sender] */\n      0x20\n      mstore\n      0x40\n      dup2\n      keccak256\n        /* \"QuizProgress.sol\":2764:2796  hasPlayedQuiz[msg.sender] = true */\n      dup1\n      sload\n      not(0xff)\n      and\n        /* \"QuizProgress.sol\":2792:2796  true */\n      0x01\n        /* \"QuizProgress.sol\":2764:2796  hasPlayedQuiz[msg.sender] = true */\n      or\n      swap1\n      sstore\n        /* \"QuizProgress.sol\":2810:2820  totalUsers */\n      0x04\n        /* \"QuizProgress.sol\":2810:2822  totalUsers++ */\n      dup1\n      sload\n      swap2\n      tag_141\n      dup4\n      tag_142\n      jump\t// in\n    tag_141:\n      swap2\n      swap1\n      pop\n      sstore\n      pop\n        /* \"QuizProgress.sol\":2718:2833  if (!hasPlayedQuiz[msg.sender]) {... */\n    tag_140:\n        /* \"QuizProgress.sol\":2947:2957  msg.sender */\n      caller\n        /* \"QuizProgress.sol\":2903:2922  bool isFirstAttempt */\n      0x00\n        /* \"QuizProgress.sol\":2926:2958  hasUserAttemptedQuiz[msg.sender] */\n      dup2\n      dup2\n      mstore\n        /* \"QuizProgress.sol\":2926:2946  hasUserAttemptedQuiz */\n      0x02\n        /* \"QuizProgress.sol\":2926:2958  hasUserAttemptedQuiz[msg.sender] */\n      0x20\n      swap1\n      dup2\n      mstore\n      0x40\n      dup1\n      dup4\n      keccak256\n        /* \"QuizProgress.sol\":2926:2967  hasUserAttemptedQuiz[msg.sender][_quizId] */\n      dup9\n      dup5\n      mstore\n      dup3\n      mstore\n      dup1\n      dup4\n      keccak256\n      dup1\n      sload\n      0x01\n      not(0xff)\n        /* \"QuizProgress.sol\":2977:3025  hasUserAttemptedQuiz[msg.sender][_quizId] = true */\n      dup3\n      and\n      dup2\n      or\n      swap1\n      swap3\n      sstore\n        /* \"QuizProgress.sol\":3113:3139  userBestScores[msg.sender] */\n      swap5\n      dup5\n      mstore\n      dup3\n      mstore\n      dup1\n      dup4\n      keccak256\n        /* \"QuizProgress.sol\":3113:3148  userBestScores[msg.sender][_quizId] */\n      dup9\n      dup5\n      mstore\n      swap1\n      swap2\n      mstore\n      swap1\n      keccak256\n      sload\n        /* \"QuizProgress.sol\":2926:2967  hasUserAttemptedQuiz[msg.sender][_quizId] */\n      0xff\n      swap1\n      swap2\n      and\n        /* \"QuizProgress.sol\":2925:2967  !hasUserAttemptedQuiz[msg.sender][_quizId] */\n      iszero\n      swap1\n        /* \"QuizProgress.sol\":3180:3206  _score > previousBestScore */\n      dup1\n      dup6\n      gt\n        /* \"QuizProgress.sol\":3258:3584  if (isNewHighScore) {... */\n      dup1\n      iszero\n      tag_143\n      jumpi\n        /* \"QuizProgress.sol\":3307:3317  msg.sender */\n      caller\n        /* \"QuizProgress.sol\":3292:3318  userBestScores[msg.sender] */\n      0x00\n      dup2\n      dup2\n      mstore\n        /* \"QuizProgress.sol\":3292:3306  userBestScores */\n      0x01\n        /* \"QuizProgress.sol\":3292:3318  userBestScores[msg.sender] */\n      0x20\n      swap1\n      dup2\n      mstore\n      0x40\n      dup1\n      dup4\n      keccak256\n        /* \"QuizProgress.sol\":3292:3327  userBestScores[msg.sender][_quizId] */\n      dup12\n      dup5\n      mstore\n      swap1\n      swap2\n      mstore\n      swap1\n      dup2\n      swap1\n      keccak256\n        /* \"QuizProgress.sol\":3292:3336  userBestScores[msg.sender][_quizId] = _score */\n      dup9\n      swap1\n      sstore\n        /* \"QuizProgress.sol\":3368:3573  HighScoreAchieved(... */\n      mload\n        /* \"QuizProgress.sol\":3319:3326  _quizId */\n      dup9\n      swap2\n        /* \"QuizProgress.sol\":3307:3317  msg.sender */\n      swap1\n        /* \"QuizProgress.sol\":3368:3573  HighScoreAchieved(... */\n      0x0918fee28c0515343b14ff4c58d50a188f3d297d4e09272dedfe18de1f059258\n      swap1\n      tag_144\n      swap1\n        /* \"QuizProgress.sol\":3330:3336  _score */\n      dup11\n      swap1\n        /* \"QuizProgress.sol\":3480:3497  previousBestScore */\n      dup8\n      swap1\n        /* \"QuizProgress.sol\":3515:3526  _badgeLevel */\n      dup11\n      swap1\n        /* \"QuizProgress.sol\":3544:3559  block.timestamp */\n      timestamp\n      swap1\n        /* \"QuizProgress.sol\":3368:3573  HighScoreAchieved(... */\n      tag_145\n      jump\t// in\n    tag_144:\n      mload(0x40)\n      dup1\n      swap2\n      sub\n      swap1\n      log3\n        /* \"QuizProgress.sol\":3258:3584  if (isNewHighScore) {... */\n    tag_143:\n        /* \"QuizProgress.sol\":3657:3889  QuizResult({... */\n      0x40\n      dup1\n      mload\n      0xc0\n      dup2\n      add\n      dup3\n      mstore\n      dup9\n      dup2\n      mstore\n      0x20\n      dup1\n      dup3\n      add\n      dup10\n      dup2\n      mstore\n      dup3\n      dup5\n      add\n      dup10\n      dup2\n      mstore\n        /* \"QuizProgress.sol\":3794:3809  block.timestamp */\n      timestamp\n        /* \"QuizProgress.sol\":3657:3889  QuizResult({... */\n      0x60\n      dup6\n      add\n      swap1\n      dup2\n      mstore\n      0x80\n      dup6\n      add\n      dup11\n      dup2\n      mstore\n        /* \"QuizProgress.sol\":3627:3654  QuizResult memory newResult */\n      0x00\n        /* \"QuizProgress.sol\":3657:3889  QuizResult({... */\n      0xa0\n      dup8\n      add\n      dup2\n      swap1\n      mstore\n        /* \"QuizProgress.sol\":3916:3926  msg.sender */\n      caller\n        /* \"QuizProgress.sol\":3900:3927  userQuizResults[msg.sender] */\n      dup2\n      mstore\n      dup1\n      dup7\n      mstore\n      swap7\n      dup8\n      keccak256\n        /* \"QuizProgress.sol\":3900:3943  userQuizResults[msg.sender].push(newResult) */\n      dup1\n      sload\n        /* \"QuizProgress.sol\":3657:3889  QuizResult({... */\n      0x01\n        /* \"QuizProgress.sol\":3900:3943  userQuizResults[msg.sender].push(newResult) */\n      dup2\n      dup2\n      add\n      dup4\n      sstore\n      swap2\n      dup10\n      mstore\n      swap6\n      swap1\n      swap8\n      keccak256\n      dup7\n      mload\n      0x06\n      swap1\n      swap7\n      mul\n      add\n      swap5\n      dup6\n      sstore\n      swap3\n      mload\n      swap6\n      dup5\n      add\n      swap6\n      swap1\n      swap6\n      sstore\n      mload\n      0x02\n      dup4\n      add\n      sstore\n      swap3\n      mload\n      0x03\n      dup3\n      add\n      sstore\n      swap2\n      mload\n        /* \"QuizProgress.sol\":3657:3889  QuizResult({... */\n      swap1\n      swap2\n      dup3\n      swap2\n        /* \"QuizProgress.sol\":3900:3943  userQuizResults[msg.sender].push(newResult) */\n      0x04\n      dup3\n      add\n      swap1\n      tag_147\n      swap1\n      dup3\n      tag_148\n      jump\t// in\n    tag_147:\n      pop\n      0xa0\n      swap2\n      swap1\n      swap2\n      add\n      mload\n      0x05\n      swap1\n      swap2\n      add\n      dup1\n      sload\n      not(0xff)\n      and\n      swap2\n      iszero\n      iszero\n      swap2\n      swap1\n      swap2\n      or\n      swap1\n      sstore\n        /* \"QuizProgress.sol\":3953:3970  totalQuizzesTaken */\n      0x03\n        /* \"QuizProgress.sol\":3953:3972  totalQuizzesTaken++ */\n      dup1\n      sload\n      swap1\n      0x00\n      tag_149\n      dup4\n      tag_142\n      jump\t// in\n    tag_149:\n      swap2\n      swap1\n      pop\n      sstore\n      pop\n        /* \"QuizProgress.sol\":4085:4092  _quizId */\n      dup8\n        /* \"QuizProgress.sol\":4061:4071  msg.sender */\n      caller\n      sub(shl(0xa0, 0x01), 0x01)\n        /* \"QuizProgress.sol\":4034:4233  QuizCompleted(... */\n      and\n      0x11c4d0e2af71b7def63b6e29d79aabee401b6389d4a0617987425414319046fe\n        /* \"QuizProgress.sol\":4106:4112  _score */\n      dup10\n        /* \"QuizProgress.sol\":4126:4141  _totalQuestions */\n      dup10\n        /* \"QuizProgress.sol\":4155:4166  _badgeLevel */\n      dup10\n        /* \"QuizProgress.sol\":4180:4195  block.timestamp */\n      timestamp\n        /* \"QuizProgress.sol\":4209:4223  isNewHighScore */\n      dup9\n        /* \"QuizProgress.sol\":4034:4233  QuizCompleted(... */\n      mload(0x40)\n      tag_150\n      swap6\n      swap5\n      swap4\n      swap3\n      swap2\n      swap1\n      tag_151\n      jump\t// in\n    tag_150:\n      mload(0x40)\n      dup1\n      swap2\n      sub\n      swap1\n      log3\n        /* \"QuizProgress.sol\":4369:4376  _quizId */\n      dup8\n        /* \"QuizProgress.sol\":4345:4355  msg.sender */\n      caller\n      sub(shl(0xa0, 0x01), 0x01)\n        /* \"QuizProgress.sol\":4320:4516  BadgeEarned(... */\n      and\n      0x5fb39ee9995efa7bcdb81e72cbd405112ab8d854ca6d8c0bdcf1eedacd5eead9\n        /* \"QuizProgress.sol\":4390:4396  _score */\n      dup10\n        /* \"QuizProgress.sol\":4410:4421  _badgeLevel */\n      dup9\n        /* \"QuizProgress.sol\":4435:4449  isNewHighScore */\n      dup7\n        /* \"QuizProgress.sol\":4463:4477  isFirstAttempt */\n      dup10\n        /* \"QuizProgress.sol\":4491:4506  block.timestamp */\n      timestamp\n        /* \"QuizProgress.sol\":4320:4516  BadgeEarned(... */\n      mload(0x40)\n      tag_152\n      swap6\n      swap5\n      swap4\n      swap3\n      swap2\n      swap1\n      tag_153\n      jump\t// in\n    tag_152:\n      mload(0x40)\n      dup1\n      swap2\n      sub\n      swap1\n      log3\n        /* \"QuizProgress.sol\":4664:4671  _quizId */\n      dup8\n        /* \"QuizProgress.sol\":4640:4650  msg.sender */\n      caller\n      sub(shl(0xa0, 0x01), 0x01)\n        /* \"QuizProgress.sol\":4609:4840  KwalaBadgeRequest(... */\n      and\n      0x1081541882782845a3064e40756bc59c16f4d35ca1bdf3dfff024083a6c130f3\n        /* \"QuizProgress.sol\":4685:4691  _score */\n      dup10\n        /* \"QuizProgress.sol\":4705:4720  _totalQuestions */\n      dup10\n        /* \"QuizProgress.sol\":4734:4745  _badgeLevel */\n      dup10\n        /* \"QuizProgress.sol\":4759:4773  isNewHighScore */\n      dup8\n        /* \"QuizProgress.sol\":4787:4801  isFirstAttempt */\n      dup11\n        /* \"QuizProgress.sol\":4815:4830  block.timestamp */\n      timestamp\n        /* \"QuizProgress.sol\":4609:4840  KwalaBadgeRequest(... */\n      mload(0x40)\n      tag_154\n      swap7\n      swap6\n      swap5\n      swap4\n      swap3\n      swap2\n      swap1\n      tag_155\n      jump\t// in\n    tag_154:\n      mload(0x40)\n      dup1\n      swap2\n      sub\n      swap1\n      log3\n        /* \"QuizProgress.sol\":4909:4924  _totalQuestions */\n      dup6\n        /* \"QuizProgress.sol\":4899:4905  _score */\n      dup8\n        /* \"QuizProgress.sol\":4899:4924  _score == _totalQuestions */\n      sub\n        /* \"QuizProgress.sol\":4895:5123  if (_score == _totalQuestions) {... */\n      tag_156\n      jumpi\n        /* \"QuizProgress.sol\":5011:5018  _quizId */\n      dup8\n        /* \"QuizProgress.sol\":4983:4993  msg.sender */\n      caller\n      sub(shl(0xa0, 0x01), 0x01)\n        /* \"QuizProgress.sol\":4945:5112  PerfectScoreAchieved(... */\n      and\n      0xf1707c7149f55e5b139cef4599c6f836b0159cb5d8175099d58d40e68868f954\n        /* \"QuizProgress.sol\":5036:5051  block.timestamp */\n      timestamp\n        /* \"QuizProgress.sol\":4945:5112  PerfectScoreAchieved(... */\n      mload(0x40)\n      tag_157\n      swap2\n        /* \"#utility.yul\":12571:12596   */\n      dup2\n      mstore\n        /* \"#utility.yul\":12632:12634   */\n      0x40\n        /* \"#utility.yul\":12627:12629   */\n      0x20\n        /* \"#utility.yul\":12612:12630   */\n      dup3\n      add\n        /* \"#utility.yul\":12605:12635   */\n      dup2\n      swap1\n      mstore\n        /* \"#utility.yul\":12671:12673   */\n      0x1b\n        /* \"#utility.yul\":12651:12669   */\n      swap1\n      dup3\n      add\n        /* \"#utility.yul\":12644:12674   */\n      mstore\n        /* \"#utility.yul\":12710:12739   */\n      0x506572666563742053636f7265204469616d6f6e642042616467650000000000\n        /* \"#utility.yul\":12705:12707   */\n      0x60\n        /* \"#utility.yul\":12690:12708   */\n      dup3\n      add\n        /* \"#utility.yul\":12683:12740   */\n      mstore\n        /* \"#utility.yul\":12772:12775   */\n      0x80\n        /* \"#utility.yul\":12757:12776   */\n      add\n      swap1\n        /* \"#utility.yul\":12359:12782   */\n      jump\n        /* \"QuizProgress.sol\":4945:5112  PerfectScoreAchieved(... */\n    tag_157:\n      mload(0x40)\n      dup1\n      swap2\n      sub\n      swap1\n      log3\n        /* \"QuizProgress.sol\":4895:5123  if (_score == _totalQuestions) {... */\n    tag_156:\n        /* \"QuizProgress.sol\":2505:5129  {... */\n      pop\n      pop\n      pop\n      pop\n        /* \"QuizProgress.sol\":2347:5129  function submitQuizResult(... */\n      pop\n      pop\n      pop\n      pop\n      jump\t// out\n        /* \"QuizProgress.sol\":6057:6618  function getBadgeLevelForScore(uint256 _score) public pure returns (string memory) {... */\n    tag_84:\n        /* \"QuizProgress.sol\":6125:6138  string memory */\n      0x60\n        /* \"QuizProgress.sol\":6164:6166  10 */\n      0x0a\n        /* \"QuizProgress.sol\":6154:6160  _score */\n      dup3\n        /* \"QuizProgress.sol\":6154:6166  _score >= 10 */\n      lt\n        /* \"QuizProgress.sol\":6150:6190  if (_score >= 10) return \"Perfect Score\" */\n      tag_161\n      jumpi\n      pop\n      pop\n        /* \"QuizProgress.sol\":6168:6190  return \"Perfect Score\" */\n      0x40\n      dup1\n      mload\n      dup1\n      dup3\n      add\n      swap1\n      swap2\n      mstore\n      0x0d\n      dup2\n      mstore\n      0x506572666563742053636f726500000000000000000000000000000000000000\n      0x20\n      dup3\n      add\n      mstore\n      swap1\n        /* \"QuizProgress.sol\":6057:6618  function getBadgeLevelForScore(uint256 _score) public pure returns (string memory) {... */\n      jump\t// out\n        /* \"QuizProgress.sol\":6150:6190  if (_score >= 10) return \"Perfect Score\" */\n    tag_161:\n        /* \"QuizProgress.sol\":6214:6215  9 */\n      0x09\n        /* \"QuizProgress.sol\":6204:6210  _score */\n      dup3\n        /* \"QuizProgress.sol\":6204:6215  _score >= 9 */\n      lt\n        /* \"QuizProgress.sol\":6200:6235  if (_score >= 9) return \"Excellent\" */\n      tag_162\n      jumpi\n      pop\n      pop\n        /* \"QuizProgress.sol\":6217:6235  return \"Excellent\" */\n      0x40\n      dup1\n      mload\n      dup1\n      dup3\n      add\n      swap1\n      swap2\n      mstore\n      0x09\n      dup2\n      mstore\n      0x457863656c6c656e740000000000000000000000000000000000000000000000\n      0x20\n      dup3\n      add\n      mstore\n      swap1\n        /* \"QuizProgress.sol\":6057:6618  function getBadgeLevelForScore(uint256 _score) public pure returns (string memory) {... */\n      jump\t// out\n        /* \"QuizProgress.sol\":6200:6235  if (_score >= 9) return \"Excellent\" */\n    tag_162:\n        /* \"QuizProgress.sol\":6259:6260  8 */\n      0x08\n        /* \"QuizProgress.sol\":6249:6255  _score */\n      dup3\n        /* \"QuizProgress.sol\":6249:6260  _score >= 8 */\n      lt\n        /* \"QuizProgress.sol\":6245:6276  if (_score >= 8) return \"Great\" */\n      tag_163\n      jumpi\n      pop\n      pop\n        /* \"QuizProgress.sol\":6262:6276  return \"Great\" */\n      0x40\n      dup1\n      mload\n      dup1\n      dup3\n      add\n      swap1\n      swap2\n      mstore\n      0x05\n      dup2\n      mstore\n      0x4772656174000000000000000000000000000000000000000000000000000000\n      0x20\n      dup3\n      add\n      mstore\n      swap1\n        /* \"QuizProgress.sol\":6057:6618  function getBadgeLevelForScore(uint256 _score) public pure returns (string memory) {... */\n      jump\t// out\n        /* \"QuizProgress.sol\":6245:6276  if (_score >= 8) return \"Great\" */\n    tag_163:\n        /* \"QuizProgress.sol\":6300:6301  7 */\n      0x07\n        /* \"QuizProgress.sol\":6290:6296  _score */\n      dup3\n        /* \"QuizProgress.sol\":6290:6301  _score >= 7 */\n      lt\n        /* \"QuizProgress.sol\":6286:6316  if (_score >= 7) return \"Good\" */\n      tag_164\n      jumpi\n      pop\n      pop\n        /* \"QuizProgress.sol\":6303:6316  return \"Good\" */\n      0x40\n      dup1\n      mload\n      dup1\n      dup3\n      add\n      swap1\n      swap2\n      mstore\n      0x04\n      dup2\n      mstore\n      shl(0xe2, 0x11dbdbd9)\n      0x20\n      dup3\n      add\n      mstore\n      swap1\n        /* \"QuizProgress.sol\":6057:6618  function getBadgeLevelForScore(uint256 _score) public pure returns (string memory) {... */\n      jump\t// out\n        /* \"QuizProgress.sol\":6286:6316  if (_score >= 7) return \"Good\" */\n    tag_164:\n        /* \"QuizProgress.sol\":6340:6341  6 */\n      0x06\n        /* \"QuizProgress.sol\":6330:6336  _score */\n      dup3\n        /* \"QuizProgress.sol\":6330:6341  _score >= 6 */\n      lt\n        /* \"QuizProgress.sol\":6326:6365  if (_score >= 6) return \"Above Average\" */\n      tag_165\n      jumpi\n      pop\n      pop\n        /* \"QuizProgress.sol\":6343:6365  return \"Above Average\" */\n      0x40\n      dup1\n      mload\n      dup1\n      dup3\n      add\n      swap1\n      swap2\n      mstore\n      0x0d\n      dup2\n      mstore\n      0x41626f7665204176657261676500000000000000000000000000000000000000\n      0x20\n      dup3\n      add\n      mstore\n      swap1\n        /* \"QuizProgress.sol\":6057:6618  function getBadgeLevelForScore(uint256 _score) public pure returns (string memory) {... */\n      jump\t// out\n        /* \"QuizProgress.sol\":6326:6365  if (_score >= 6) return \"Above Average\" */\n    tag_165:\n        /* \"QuizProgress.sol\":6389:6390  5 */\n      0x05\n        /* \"QuizProgress.sol\":6379:6385  _score */\n      dup3\n        /* \"QuizProgress.sol\":6379:6390  _score >= 5 */\n      lt\n        /* \"QuizProgress.sol\":6375:6408  if (_score >= 5) return \"Average\" */\n      tag_166\n      jumpi\n      pop\n      pop\n        /* \"QuizProgress.sol\":6392:6408  return \"Average\" */\n      0x40\n      dup1\n      mload\n      dup1\n      dup3\n      add\n      swap1\n      swap2\n      mstore\n      0x07\n      dup2\n      mstore\n      0x4176657261676500000000000000000000000000000000000000000000000000\n      0x20\n      dup3\n      add\n      mstore\n      swap1\n        /* \"QuizProgress.sol\":6057:6618  function getBadgeLevelForScore(uint256 _score) public pure returns (string memory) {... */\n      jump\t// out\n        /* \"QuizProgress.sol\":6375:6408  if (_score >= 5) return \"Average\" */\n    tag_166:\n        /* \"QuizProgress.sol\":6432:6433  4 */\n      0x04\n        /* \"QuizProgress.sol\":6422:6428  _score */\n      dup3\n        /* \"QuizProgress.sol\":6422:6433  _score >= 4 */\n      lt\n        /* \"QuizProgress.sol\":6418:6448  if (_score >= 4) return \"Fair\" */\n      tag_167\n      jumpi\n      pop\n      pop\n        /* \"QuizProgress.sol\":6435:6448  return \"Fair\" */\n      0x40\n      dup1\n      mload\n      dup1\n      dup3\n      add\n      swap1\n      swap2\n      mstore\n      0x04\n      dup2\n      mstore\n      shl(0xe1, 0x2330b4b9)\n      0x20\n      dup3\n      add\n      mstore\n      swap1\n        /* \"QuizProgress.sol\":6057:6618  function getBadgeLevelForScore(uint256 _score) public pure returns (string memory) {... */\n      jump\t// out\n        /* \"QuizProgress.sol\":6418:6448  if (_score >= 4) return \"Fair\" */\n    tag_167:\n        /* \"QuizProgress.sol\":6472:6473  3 */\n      0x03\n        /* \"QuizProgress.sol\":6462:6468  _score */\n      dup3\n        /* \"QuizProgress.sol\":6462:6473  _score >= 3 */\n      lt\n        /* \"QuizProgress.sol\":6458:6497  if (_score >= 3) return \"Below Average\" */\n      tag_168\n      jumpi\n      pop\n      pop\n        /* \"QuizProgress.sol\":6475:6497  return \"Below Average\" */\n      0x40\n      dup1\n      mload\n      dup1\n      dup3\n      add\n      swap1\n      swap2\n      mstore\n      0x0d\n      dup2\n      mstore\n      0x42656c6f77204176657261676500000000000000000000000000000000000000\n      0x20\n      dup3\n      add\n      mstore\n      swap1\n        /* \"QuizProgress.sol\":6057:6618  function getBadgeLevelForScore(uint256 _score) public pure returns (string memory) {... */\n      jump\t// out\n        /* \"QuizProgress.sol\":6458:6497  if (_score >= 3) return \"Below Average\" */\n    tag_168:\n        /* \"QuizProgress.sol\":6521:6522  2 */\n      0x02\n        /* \"QuizProgress.sol\":6511:6517  _score */\n      dup3\n        /* \"QuizProgress.sol\":6511:6522  _score >= 2 */\n      lt\n        /* \"QuizProgress.sol\":6507:6537  if (_score >= 2) return \"Poor\" */\n      tag_169\n      jumpi\n      pop\n      pop\n        /* \"QuizProgress.sol\":6524:6537  return \"Poor\" */\n      0x40\n      dup1\n      mload\n      dup1\n      dup3\n      add\n      swap1\n      swap2\n      mstore\n      0x04\n      dup2\n      mstore\n      shl(0xe1, 0x2837b7b9)\n      0x20\n      dup3\n      add\n      mstore\n      swap1\n        /* \"QuizProgress.sol\":6057:6618  function getBadgeLevelForScore(uint256 _score) public pure returns (string memory) {... */\n      jump\t// out\n        /* \"QuizProgress.sol\":6507:6537  if (_score >= 2) return \"Poor\" */\n    tag_169:\n        /* \"QuizProgress.sol\":6561:6562  1 */\n      0x01\n        /* \"QuizProgress.sol\":6551:6557  _score */\n      dup3\n        /* \"QuizProgress.sol\":6551:6562  _score >= 1 */\n      lt\n        /* \"QuizProgress.sol\":6547:6578  if (_score >= 1) return \"Basic\" */\n      tag_170\n      jumpi\n      pop\n      pop\n        /* \"QuizProgress.sol\":6564:6578  return \"Basic\" */\n      0x40\n      dup1\n      mload\n      dup1\n      dup3\n      add\n      swap1\n      swap2\n      mstore\n      0x05\n      dup2\n      mstore\n      0x4261736963000000000000000000000000000000000000000000000000000000\n      0x20\n      dup3\n      add\n      mstore\n      swap1\n        /* \"QuizProgress.sol\":6057:6618  function getBadgeLevelForScore(uint256 _score) public pure returns (string memory) {... */\n      jump\t// out\n        /* \"QuizProgress.sol\":6547:6578  if (_score >= 1) return \"Basic\" */\n    tag_170:\n      pop\n      pop\n        /* \"QuizProgress.sol\":6588:6611  return \"No Achievement\" */\n      0x40\n      dup1\n      mload\n      dup1\n      dup3\n      add\n      swap1\n      swap2\n      mstore\n      0x0e\n      dup2\n      mstore\n      0x4e6f20416368696576656d656e74000000000000000000000000000000000000\n      0x20\n      dup3\n      add\n      mstore\n      swap1\n        /* \"QuizProgress.sol\":6057:6618  function getBadgeLevelForScore(uint256 _score) public pure returns (string memory) {... */\n      jump\t// out\n        /* \"QuizProgress.sol\":2217:2341  function setBadgeMinterContract(address _badgeMinter) external onlyOwner {... */\n    tag_92:\n        /* \"QuizProgress.sol\":975:980  owner */\n      and(sub(shl(0xa0, 0x01), 0x01), sload(0x07))\n        /* \"QuizProgress.sol\":961:971  msg.sender */\n      caller\n        /* \"QuizProgress.sol\":961:980  msg.sender == owner */\n      eq\n        /* \"QuizProgress.sol\":953:1018  require(msg.sender == owner, \"Only owner can call this function\") */\n      tag_172\n      jumpi\n      mload(0x40)\n      shl(0xe5, 0x461bcd)\n      dup2\n      mstore\n        /* \"#utility.yul\":12989:12991   */\n      0x20\n        /* \"QuizProgress.sol\":953:1018  require(msg.sender == owner, \"Only owner can call this function\") */\n      0x04\n      dup3\n      add\n        /* \"#utility.yul\":12971:12992   */\n      mstore\n        /* \"#utility.yul\":13028:13030   */\n      0x21\n        /* \"#utility.yul\":13008:13026   */\n      0x24\n      dup3\n      add\n        /* \"#utility.yul\":13001:13031   */\n      mstore\n        /* \"#utility.yul\":13067:13101   */\n      0x4f6e6c79206f776e65722063616e2063616c6c20746869732066756e6374696f\n        /* \"#utility.yul\":13047:13065   */\n      0x44\n      dup3\n      add\n        /* \"#utility.yul\":13040:13102   */\n      mstore\n      shl(0xf9, 0x37)\n        /* \"#utility.yul\":13118:13136   */\n      0x64\n      dup3\n      add\n        /* \"#utility.yul\":13111:13142   */\n      mstore\n        /* \"#utility.yul\":13159:13178   */\n      0x84\n      add\n        /* \"QuizProgress.sol\":953:1018  require(msg.sender == owner, \"Only owner can call this function\") */\n      tag_106\n        /* \"#utility.yul\":12787:13184   */\n      jump\n        /* \"QuizProgress.sol\":953:1018  require(msg.sender == owner, \"Only owner can call this function\") */\n    tag_172:\n        /* \"QuizProgress.sol\":2300:2319  badgeMinterContract */\n      0x06\n        /* \"QuizProgress.sol\":2300:2334  badgeMinterContract = _badgeMinter */\n      dup1\n      sload\n      0xffffffffffffffffffffffff0000000000000000000000000000000000000000\n      and\n      sub(shl(0xa0, 0x01), 0x01)\n      swap3\n      swap1\n      swap3\n      and\n      swap2\n      swap1\n      swap2\n      or\n      swap1\n      sstore\n        /* \"QuizProgress.sol\":2217:2341  function setBadgeMinterContract(address _badgeMinter) external onlyOwner {... */\n      jump\t// out\n        /* \"QuizProgress.sol\":6778:7022  function getLatestQuizResult(address _user) external view returns (QuizResult memory) {... */\n    tag_99:\n        /* \"QuizProgress.sol\":6845:6862  QuizResult memory */\n      tag_177\n      mload(0x40)\n      dup1\n      0xc0\n      add\n      0x40\n      mstore\n      dup1\n      0x00\n      dup2\n      mstore\n      0x20\n      add\n      0x00\n      dup2\n      mstore\n      0x20\n      add\n      0x00\n      dup2\n      mstore\n      0x20\n      add\n      0x00\n      dup2\n      mstore\n      0x20\n      add\n      0x60\n      dup2\n      mstore\n      0x20\n      add\n      iszero(iszero(0x00))\n      dup2\n      mstore\n      pop\n      swap1\n      jump\n    tag_177:\n      sub(shl(0xa0, 0x01), 0x01)\n        /* \"QuizProgress.sol\":6882:6904  userQuizResults[_user] */\n      dup3\n      and\n        /* \"QuizProgress.sol\":6914:6915  0 */\n      0x00\n        /* \"QuizProgress.sol\":6882:6904  userQuizResults[_user] */\n      swap1\n      dup2\n      mstore\n      0x20\n      dup2\n      swap1\n      mstore\n      0x40\n      swap1\n      keccak256\n        /* \"QuizProgress.sol\":6882:6911  userQuizResults[_user].length */\n      sload\n        /* \"QuizProgress.sol\":6874:6941  require(userQuizResults[_user].length > 0, \"No quiz results found\") */\n      tag_180\n      jumpi\n      mload(0x40)\n      shl(0xe5, 0x461bcd)\n      dup2\n      mstore\n        /* \"#utility.yul\":13391:13393   */\n      0x20\n        /* \"QuizProgress.sol\":6874:6941  require(userQuizResults[_user].length > 0, \"No quiz results found\") */\n      0x04\n      dup3\n      add\n        /* \"#utility.yul\":13373:13394   */\n      mstore\n        /* \"#utility.yul\":13430:13432   */\n      0x15\n        /* \"#utility.yul\":13410:13428   */\n      0x24\n      dup3\n      add\n        /* \"#utility.yul\":13403:13433   */\n      mstore\n        /* \"#utility.yul\":13469:13492   */\n      0x4e6f207175697a20726573756c747320666f756e640000000000000000000000\n        /* \"#utility.yul\":13449:13467   */\n      0x44\n      dup3\n      add\n        /* \"#utility.yul\":13442:13493   */\n      mstore\n        /* \"#utility.yul\":13510:13528   */\n      0x64\n      add\n        /* \"QuizProgress.sol\":6874:6941  require(userQuizResults[_user].length > 0, \"No quiz results found\") */\n      tag_106\n        /* \"#utility.yul\":13189:13534   */\n      jump\n        /* \"QuizProgress.sol\":6874:6941  require(userQuizResults[_user].length > 0, \"No quiz results found\") */\n    tag_180:\n      sub(shl(0xa0, 0x01), 0x01)\n        /* \"QuizProgress.sol\":6958:6980  userQuizResults[_user] */\n      dup3\n      and\n        /* \"QuizProgress.sol\":6958:6973  userQuizResults */\n      0x00\n        /* \"QuizProgress.sol\":6958:6980  userQuizResults[_user] */\n      swap1\n      dup2\n      mstore\n      0x20\n      dup2\n      swap1\n      mstore\n      0x40\n      swap1\n      keccak256\n        /* \"QuizProgress.sol\":6981:7010  userQuizResults[_user].length */\n      dup1\n      sload\n        /* \"QuizProgress.sol\":6981:7014  userQuizResults[_user].length - 1 */\n      tag_183\n      swap1\n        /* \"QuizProgress.sol\":7013:7014  1 */\n      0x01\n      swap1\n        /* \"QuizProgress.sol\":6981:7014  userQuizResults[_user].length - 1 */\n      tag_184\n      jump\t// in\n    tag_183:\n        /* \"QuizProgress.sol\":6958:7015  userQuizResults[_user][userQuizResults[_user].length - 1] */\n      dup2\n      sload\n      dup2\n      lt\n      tag_186\n      jumpi\n      tag_186\n      tag_113\n      jump\t// in\n    tag_186:\n      swap1\n      0x00\n      mstore\n      keccak256(0x00, 0x20)\n      swap1\n      0x06\n      mul\n      add\n        /* \"QuizProgress.sol\":6951:7015  return userQuizResults[_user][userQuizResults[_user].length - 1] */\n      mload(0x40)\n      dup1\n      0xc0\n      add\n      0x40\n      mstore\n      swap1\n      dup2\n      0x00\n      dup3\n      add\n      sload\n      dup2\n      mstore\n      0x20\n      add\n      0x01\n      dup3\n      add\n      sload\n      dup2\n      mstore\n      0x20\n      add\n      0x02\n      dup3\n      add\n      sload\n      dup2\n      mstore\n      0x20\n      add\n      0x03\n      dup3\n      add\n      sload\n      dup2\n      mstore\n      0x20\n      add\n      0x04\n      dup3\n      add\n      dup1\n      sload\n      tag_188\n      swap1\n      tag_119\n      jump\t// in\n    tag_188:\n      dup1\n      0x1f\n      add\n      0x20\n      dup1\n      swap2\n      div\n      mul\n      0x20\n      add\n      mload(0x40)\n      swap1\n      dup2\n      add\n      0x40\n      mstore\n      dup1\n      swap3\n      swap2\n      swap1\n      dup2\n      dup2\n      mstore\n      0x20\n      add\n      dup3\n      dup1\n      sload\n      tag_189\n      swap1\n      tag_119\n      jump\t// in\n    tag_189:\n      dup1\n      iszero\n      tag_190\n      jumpi\n      dup1\n      0x1f\n      lt\n      tag_191\n      jumpi\n      0x0100\n      dup1\n      dup4\n      sload\n      div\n      mul\n      dup4\n      mstore\n      swap2\n      0x20\n      add\n      swap2\n      jump(tag_190)\n    tag_191:\n      dup3\n      add\n      swap2\n      swap1\n      0x00\n      mstore\n      keccak256(0x00, 0x20)\n      swap1\n    tag_192:\n      dup2\n      sload\n      dup2\n      mstore\n      swap1\n      0x01\n      add\n      swap1\n      0x20\n      add\n      dup1\n      dup4\n      gt\n      tag_192\n      jumpi\n      dup3\n      swap1\n      sub\n      0x1f\n      and\n      dup3\n      add\n      swap2\n    tag_190:\n      pop\n      pop\n      pop\n      swap2\n      dup4\n      mstore\n      pop\n      pop\n      0x05\n      swap2\n      swap1\n      swap2\n      add\n      sload\n      0xff\n      and\n      iszero\n      iszero\n      0x20\n      swap1\n      swap2\n      add\n      mstore\n      swap3\n        /* \"QuizProgress.sol\":6778:7022  function getLatestQuizResult(address _user) external view returns (QuizResult memory) {... */\n      swap2\n      pop\n      pop\n      jump\t// out\n        /* \"#utility.yul\":14:210   */\n    tag_193:\n        /* \"#utility.yul\":82:102   */\n      dup1\n      calldataload\n      sub(shl(0xa0, 0x01), 0x01)\n        /* \"#utility.yul\":131:185   */\n      dup2\n      and\n        /* \"#utility.yul\":121:186   */\n      dup2\n      eq\n        /* \"#utility.yul\":111:204   */\n      tag_203\n      jumpi\n        /* \"#utility.yul\":200:201   */\n      0x00\n        /* \"#utility.yul\":197:198   */\n      dup1\n        /* \"#utility.yul\":190:202   */\n      revert\n        /* \"#utility.yul\":111:204   */\n    tag_203:\n        /* \"#utility.yul\":14:210   */\n      swap2\n      swap1\n      pop\n      jump\t// out\n        /* \"#utility.yul\":215:401   */\n    tag_28:\n        /* \"#utility.yul\":274:280   */\n      0x00\n        /* \"#utility.yul\":327:329   */\n      0x20\n        /* \"#utility.yul\":315:324   */\n      dup3\n        /* \"#utility.yul\":306:313   */\n      dup5\n        /* \"#utility.yul\":302:325   */\n      sub\n        /* \"#utility.yul\":298:330   */\n      slt\n        /* \"#utility.yul\":295:347   */\n      iszero\n      tag_205\n      jumpi\n        /* \"#utility.yul\":343:344   */\n      0x00\n        /* \"#utility.yul\":340:341   */\n      dup1\n        /* \"#utility.yul\":333:345   */\n      revert\n        /* \"#utility.yul\":295:347   */\n    tag_205:\n        /* \"#utility.yul\":366:395   */\n      tag_206\n        /* \"#utility.yul\":385:394   */\n      dup3\n        /* \"#utility.yul\":366:395   */\n      tag_193\n      jump\t// in\n    tag_206:\n        /* \"#utility.yul\":356:395   */\n      swap4\n        /* \"#utility.yul\":215:401   */\n      swap3\n      pop\n      pop\n      pop\n      jump\t// out\n        /* \"#utility.yul\":588:842   */\n    tag_34:\n        /* \"#utility.yul\":656:662   */\n      0x00\n        /* \"#utility.yul\":664:670   */\n      dup1\n        /* \"#utility.yul\":717:719   */\n      0x40\n        /* \"#utility.yul\":705:714   */\n      dup4\n        /* \"#utility.yul\":696:703   */\n      dup6\n        /* \"#utility.yul\":692:715   */\n      sub\n        /* \"#utility.yul\":688:720   */\n      slt\n        /* \"#utility.yul\":685:737   */\n      iszero\n      tag_209\n      jumpi\n        /* \"#utility.yul\":733:734   */\n      0x00\n        /* \"#utility.yul\":730:731   */\n      dup1\n        /* \"#utility.yul\":723:735   */\n      revert\n        /* \"#utility.yul\":685:737   */\n    tag_209:\n        /* \"#utility.yul\":756:785   */\n      tag_210\n        /* \"#utility.yul\":775:784   */\n      dup4\n        /* \"#utility.yul\":756:785   */\n      tag_193\n      jump\t// in\n    tag_210:\n        /* \"#utility.yul\":746:785   */\n      swap5\n        /* \"#utility.yul\":832:834   */\n      0x20\n        /* \"#utility.yul\":817:835   */\n      swap4\n      swap1\n      swap4\n      add\n        /* \"#utility.yul\":804:836   */\n      calldataload\n      swap4\n      pop\n      pop\n      pop\n        /* \"#utility.yul\":588:842   */\n      jump\t// out\n        /* \"#utility.yul\":847:1136   */\n    tag_194:\n        /* \"#utility.yul\":889:892   */\n      0x00\n        /* \"#utility.yul\":927:932   */\n      dup2\n        /* \"#utility.yul\":921:933   */\n      mload\n        /* \"#utility.yul\":954:960   */\n      dup1\n        /* \"#utility.yul\":949:952   */\n      dup5\n        /* \"#utility.yul\":942:961   */\n      mstore\n        /* \"#utility.yul\":1010:1016   */\n      dup1\n        /* \"#utility.yul\":1003:1007   */\n      0x20\n        /* \"#utility.yul\":996:1001   */\n      dup5\n        /* \"#utility.yul\":992:1008   */\n      add\n        /* \"#utility.yul\":985:989   */\n      0x20\n        /* \"#utility.yul\":980:983   */\n      dup7\n        /* \"#utility.yul\":976:990   */\n      add\n        /* \"#utility.yul\":970:1017   */\n      mcopy\n        /* \"#utility.yul\":1062:1063   */\n      0x00\n        /* \"#utility.yul\":1055:1059   */\n      0x20\n        /* \"#utility.yul\":1046:1052   */\n      dup3\n        /* \"#utility.yul\":1041:1044   */\n      dup7\n        /* \"#utility.yul\":1037:1053   */\n      add\n        /* \"#utility.yul\":1033:1060   */\n      add\n        /* \"#utility.yul\":1026:1064   */\n      mstore\n        /* \"#utility.yul\":1125:1129   */\n      0x20\n        /* \"#utility.yul\":1118:1120   */\n      0x1f\n        /* \"#utility.yul\":1114:1121   */\n      not\n        /* \"#utility.yul\":1109:1111   */\n      0x1f\n        /* \"#utility.yul\":1101:1107   */\n      dup4\n        /* \"#utility.yul\":1097:1112   */\n      add\n        /* \"#utility.yul\":1093:1122   */\n      and\n        /* \"#utility.yul\":1088:1091   */\n      dup6\n        /* \"#utility.yul\":1084:1123   */\n      add\n        /* \"#utility.yul\":1080:1130   */\n      add\n        /* \"#utility.yul\":1073:1130   */\n      swap2\n      pop\n      pop\n        /* \"#utility.yul\":847:1136   */\n      swap3\n      swap2\n      pop\n      pop\n      jump\t// out\n        /* \"#utility.yul\":1141:1730   */\n    tag_51:\n        /* \"#utility.yul\":1424:1430   */\n      dup7\n        /* \"#utility.yul\":1413:1422   */\n      dup2\n        /* \"#utility.yul\":1406:1431   */\n      mstore\n        /* \"#utility.yul\":1467:1473   */\n      dup6\n        /* \"#utility.yul\":1462:1464   */\n      0x20\n        /* \"#utility.yul\":1451:1460   */\n      dup3\n        /* \"#utility.yul\":1447:1465   */\n      add\n        /* \"#utility.yul\":1440:1474   */\n      mstore\n        /* \"#utility.yul\":1510:1516   */\n      dup5\n        /* \"#utility.yul\":1505:1507   */\n      0x40\n        /* \"#utility.yul\":1494:1503   */\n      dup3\n        /* \"#utility.yul\":1490:1508   */\n      add\n        /* \"#utility.yul\":1483:1517   */\n      mstore\n        /* \"#utility.yul\":1553:1559   */\n      dup4\n        /* \"#utility.yul\":1548:1550   */\n      0x60\n        /* \"#utility.yul\":1537:1546   */\n      dup3\n        /* \"#utility.yul\":1533:1551   */\n      add\n        /* \"#utility.yul\":1526:1560   */\n      mstore\n        /* \"#utility.yul\":1597:1600   */\n      0xc0\n        /* \"#utility.yul\":1591:1594   */\n      0x80\n        /* \"#utility.yul\":1580:1589   */\n      dup3\n        /* \"#utility.yul\":1576:1595   */\n      add\n        /* \"#utility.yul\":1569:1601   */\n      mstore\n        /* \"#utility.yul\":1387:1391   */\n      0x00\n        /* \"#utility.yul\":1618:1664   */\n      tag_213\n        /* \"#utility.yul\":1659:1662   */\n      0xc0\n        /* \"#utility.yul\":1648:1657   */\n      dup4\n        /* \"#utility.yul\":1644:1663   */\n      add\n        /* \"#utility.yul\":1636:1642   */\n      dup6\n        /* \"#utility.yul\":1618:1664   */\n      tag_194\n      jump\t// in\n    tag_213:\n        /* \"#utility.yul\":1610:1664   */\n      swap1\n      pop\n        /* \"#utility.yul\":1715:1721   */\n      dup3\n        /* \"#utility.yul\":1708:1722   */\n      iszero\n        /* \"#utility.yul\":1701:1723   */\n      iszero\n        /* \"#utility.yul\":1695:1698   */\n      0xa0\n        /* \"#utility.yul\":1684:1693   */\n      dup4\n        /* \"#utility.yul\":1680:1699   */\n      add\n        /* \"#utility.yul\":1673:1724   */\n      mstore\n        /* \"#utility.yul\":1141:1730   */\n      swap8\n      swap7\n      pop\n      pop\n      pop\n      pop\n      pop\n      pop\n      pop\n      jump\t// out\n        /* \"#utility.yul\":1927:2446   */\n    tag_195:\n        /* \"#utility.yul\":2016:2021   */\n      dup1\n        /* \"#utility.yul\":2010:2022   */\n      mload\n        /* \"#utility.yul\":2005:2008   */\n      dup3\n        /* \"#utility.yul\":1998:2023   */\n      mstore\n        /* \"#utility.yul\":2072:2076   */\n      0x20\n        /* \"#utility.yul\":2065:2070   */\n      dup2\n        /* \"#utility.yul\":2061:2077   */\n      add\n        /* \"#utility.yul\":2055:2078   */\n      mload\n        /* \"#utility.yul\":2048:2052   */\n      0x20\n        /* \"#utility.yul\":2043:2046   */\n      dup4\n        /* \"#utility.yul\":2039:2053   */\n      add\n        /* \"#utility.yul\":2032:2079   */\n      mstore\n        /* \"#utility.yul\":2128:2132   */\n      0x40\n        /* \"#utility.yul\":2121:2126   */\n      dup2\n        /* \"#utility.yul\":2117:2133   */\n      add\n        /* \"#utility.yul\":2111:2134   */\n      mload\n        /* \"#utility.yul\":2104:2108   */\n      0x40\n        /* \"#utility.yul\":2099:2102   */\n      dup4\n        /* \"#utility.yul\":2095:2109   */\n      add\n        /* \"#utility.yul\":2088:2135   */\n      mstore\n        /* \"#utility.yul\":2184:2188   */\n      0x60\n        /* \"#utility.yul\":2177:2182   */\n      dup2\n        /* \"#utility.yul\":2173:2189   */\n      add\n        /* \"#utility.yul\":2167:2190   */\n      mload\n        /* \"#utility.yul\":2160:2164   */\n      0x60\n        /* \"#utility.yul\":2155:2158   */\n      dup4\n        /* \"#utility.yul\":2151:2165   */\n      add\n        /* \"#utility.yul\":2144:2191   */\n      mstore\n        /* \"#utility.yul\":1980:1983   */\n      0x00\n        /* \"#utility.yul\":2237:2241   */\n      0x80\n        /* \"#utility.yul\":2230:2235   */\n      dup3\n        /* \"#utility.yul\":2226:2242   */\n      add\n        /* \"#utility.yul\":2220:2243   */\n      mload\n        /* \"#utility.yul\":2275:2279   */\n      0xc0\n        /* \"#utility.yul\":2268:2272   */\n      0x80\n        /* \"#utility.yul\":2263:2266   */\n      dup6\n        /* \"#utility.yul\":2259:2273   */\n      add\n        /* \"#utility.yul\":2252:2280   */\n      mstore\n        /* \"#utility.yul\":2301:2348   */\n      tag_216\n        /* \"#utility.yul\":2342:2346   */\n      0xc0\n        /* \"#utility.yul\":2337:2340   */\n      dup6\n        /* \"#utility.yul\":2333:2347   */\n      add\n        /* \"#utility.yul\":2319:2331   */\n      dup3\n        /* \"#utility.yul\":2301:2348   */\n      tag_194\n      jump\t// in\n    tag_216:\n        /* \"#utility.yul\":2411:2415   */\n      0xa0\n        /* \"#utility.yul\":2400:2416   */\n      swap4\n      dup5\n      add\n        /* \"#utility.yul\":2394:2417   */\n      mload\n        /* \"#utility.yul\":2387:2418   */\n      iszero\n        /* \"#utility.yul\":2380:2419   */\n      iszero\n        /* \"#utility.yul\":2364:2378   */\n      swap5\n      swap1\n      swap4\n      add\n        /* \"#utility.yul\":2357:2420   */\n      swap4\n      swap1\n      swap4\n      mstore\n      pop\n        /* \"#utility.yul\":2289:2348   */\n      swap2\n        /* \"#utility.yul\":1927:2446   */\n      swap1\n      pop\n      jump\t// out\n        /* \"#utility.yul\":2451:3297   */\n    tag_65:\n        /* \"#utility.yul\":2645:2649   */\n      0x00\n        /* \"#utility.yul\":2674:2676   */\n      0x20\n        /* \"#utility.yul\":2714:2716   */\n      dup1\n        /* \"#utility.yul\":2703:2712   */\n      dup4\n        /* \"#utility.yul\":2699:2717   */\n      add\n        /* \"#utility.yul\":2744:2746   */\n      0x20\n        /* \"#utility.yul\":2733:2742   */\n      dup5\n        /* \"#utility.yul\":2726:2747   */\n      mstore\n        /* \"#utility.yul\":2767:2773   */\n      dup1\n        /* \"#utility.yul\":2802:2808   */\n      dup6\n        /* \"#utility.yul\":2796:2809   */\n      mload\n        /* \"#utility.yul\":2833:2839   */\n      dup1\n        /* \"#utility.yul\":2825:2831   */\n      dup4\n        /* \"#utility.yul\":2818:2840   */\n      mstore\n        /* \"#utility.yul\":2871:2873   */\n      0x40\n        /* \"#utility.yul\":2860:2869   */\n      dup7\n        /* \"#utility.yul\":2856:2874   */\n      add\n        /* \"#utility.yul\":2849:2874   */\n      swap2\n      pop\n        /* \"#utility.yul\":2933:2935   */\n      0x40\n        /* \"#utility.yul\":2923:2929   */\n      dup2\n        /* \"#utility.yul\":2920:2921   */\n      0x05\n        /* \"#utility.yul\":2916:2930   */\n      shl\n        /* \"#utility.yul\":2905:2914   */\n      dup8\n        /* \"#utility.yul\":2901:2931   */\n      add\n        /* \"#utility.yul\":2897:2936   */\n      add\n        /* \"#utility.yul\":2883:2936   */\n      swap3\n      pop\n        /* \"#utility.yul\":2971:2973   */\n      0x20\n        /* \"#utility.yul\":2963:2969   */\n      dup8\n        /* \"#utility.yul\":2959:2974   */\n      add\n        /* \"#utility.yul\":2992:2993   */\n      0x00\n        /* \"#utility.yul\":3002:3268   */\n    tag_218:\n        /* \"#utility.yul\":3016:3022   */\n      dup3\n        /* \"#utility.yul\":3013:3014   */\n      dup2\n        /* \"#utility.yul\":3010:3023   */\n      lt\n        /* \"#utility.yul\":3002:3268   */\n      iszero\n      tag_220\n      jumpi\n        /* \"#utility.yul\":3109:3111   */\n      0x3f\n        /* \"#utility.yul\":3105:3112   */\n      not\n        /* \"#utility.yul\":3093:3102   */\n      dup9\n        /* \"#utility.yul\":3085:3091   */\n      dup7\n        /* \"#utility.yul\":3081:3103   */\n      sub\n        /* \"#utility.yul\":3077:3113   */\n      add\n        /* \"#utility.yul\":3072:3075   */\n      dup5\n        /* \"#utility.yul\":3065:3114   */\n      mstore\n        /* \"#utility.yul\":3137:3188   */\n      tag_221\n        /* \"#utility.yul\":3181:3187   */\n      dup6\n        /* \"#utility.yul\":3172:3178   */\n      dup4\n        /* \"#utility.yul\":3166:3179   */\n      mload\n        /* \"#utility.yul\":3137:3188   */\n      tag_195\n      jump\t// in\n    tag_221:\n        /* \"#utility.yul\":3127:3188   */\n      swap5\n      pop\n        /* \"#utility.yul\":3246:3258   */\n      swap3\n      dup6\n      add\n      swap3\n        /* \"#utility.yul\":3211:3226   */\n      swap1\n      dup6\n      add\n      swap1\n        /* \"#utility.yul\":3038:3039   */\n      0x01\n        /* \"#utility.yul\":3031:3040   */\n      add\n        /* \"#utility.yul\":3002:3268   */\n      jump(tag_218)\n    tag_220:\n      pop\n        /* \"#utility.yul\":3285:3291   */\n      swap3\n      swap8\n        /* \"#utility.yul\":2451:3297   */\n      swap7\n      pop\n      pop\n      pop\n      pop\n      pop\n      pop\n      pop\n      jump\t// out\n        /* \"#utility.yul\":3302:3429   */\n    tag_196:\n        /* \"#utility.yul\":3363:3373   */\n      0x4e487b71\n        /* \"#utility.yul\":3358:3361   */\n      0xe0\n        /* \"#utility.yul\":3354:3374   */\n      shl\n        /* \"#utility.yul\":3351:3352   */\n      0x00\n        /* \"#utility.yul\":3344:3375   */\n      mstore\n        /* \"#utility.yul\":3394:3398   */\n      0x41\n        /* \"#utility.yul\":3391:3392   */\n      0x04\n        /* \"#utility.yul\":3384:3399   */\n      mstore\n        /* \"#utility.yul\":3418:3422   */\n      0x24\n        /* \"#utility.yul\":3415:3416   */\n      0x00\n        /* \"#utility.yul\":3408:3423   */\n      revert\n        /* \"#utility.yul\":3434:4561   */\n    tag_68:\n        /* \"#utility.yul\":3530:3536   */\n      0x00\n        /* \"#utility.yul\":3538:3544   */\n      dup1\n        /* \"#utility.yul\":3546:3552   */\n      0x00\n        /* \"#utility.yul\":3554:3560   */\n      dup1\n        /* \"#utility.yul\":3607:3610   */\n      0x80\n        /* \"#utility.yul\":3595:3604   */\n      dup6\n        /* \"#utility.yul\":3586:3593   */\n      dup8\n        /* \"#utility.yul\":3582:3605   */\n      sub\n        /* \"#utility.yul\":3578:3611   */\n      slt\n        /* \"#utility.yul\":3575:3628   */\n      iszero\n      tag_224\n      jumpi\n        /* \"#utility.yul\":3624:3625   */\n      0x00\n        /* \"#utility.yul\":3621:3622   */\n      dup1\n        /* \"#utility.yul\":3614:3626   */\n      revert\n        /* \"#utility.yul\":3575:3628   */\n    tag_224:\n        /* \"#utility.yul\":3660:3669   */\n      dup5\n        /* \"#utility.yul\":3647:3670   */\n      calldataload\n        /* \"#utility.yul\":3637:3670   */\n      swap4\n      pop\n        /* \"#utility.yul\":3717:3719   */\n      0x20\n        /* \"#utility.yul\":3706:3715   */\n      dup6\n        /* \"#utility.yul\":3702:3720   */\n      add\n        /* \"#utility.yul\":3689:3721   */\n      calldataload\n        /* \"#utility.yul\":3679:3721   */\n      swap3\n      pop\n        /* \"#utility.yul\":3768:3770   */\n      0x40\n        /* \"#utility.yul\":3757:3766   */\n      dup6\n        /* \"#utility.yul\":3753:3771   */\n      add\n        /* \"#utility.yul\":3740:3772   */\n      calldataload\n        /* \"#utility.yul\":3730:3772   */\n      swap2\n      pop\n        /* \"#utility.yul\":3823:3825   */\n      0x60\n        /* \"#utility.yul\":3812:3821   */\n      dup6\n        /* \"#utility.yul\":3808:3826   */\n      add\n        /* \"#utility.yul\":3795:3827   */\n      calldataload\n        /* \"#utility.yul\":3846:3864   */\n      0xffffffffffffffff\n        /* \"#utility.yul\":3887:3889   */\n      dup1\n        /* \"#utility.yul\":3879:3885   */\n      dup3\n        /* \"#utility.yul\":3876:3890   */\n      gt\n        /* \"#utility.yul\":3873:3907   */\n      iszero\n      tag_225\n      jumpi\n        /* \"#utility.yul\":3903:3904   */\n      0x00\n        /* \"#utility.yul\":3900:3901   */\n      dup1\n        /* \"#utility.yul\":3893:3905   */\n      revert\n        /* \"#utility.yul\":3873:3907   */\n    tag_225:\n        /* \"#utility.yul\":3941:3947   */\n      dup2\n        /* \"#utility.yul\":3930:3939   */\n      dup8\n        /* \"#utility.yul\":3926:3948   */\n      add\n        /* \"#utility.yul\":3916:3948   */\n      swap2\n      pop\n        /* \"#utility.yul\":3986:3993   */\n      dup8\n        /* \"#utility.yul\":3979:3983   */\n      0x1f\n        /* \"#utility.yul\":3975:3977   */\n      dup4\n        /* \"#utility.yul\":3971:3984   */\n      add\n        /* \"#utility.yul\":3967:3994   */\n      slt\n        /* \"#utility.yul\":3957:4012   */\n      tag_226\n      jumpi\n        /* \"#utility.yul\":4008:4009   */\n      0x00\n        /* \"#utility.yul\":4005:4006   */\n      dup1\n        /* \"#utility.yul\":3998:4010   */\n      revert\n        /* \"#utility.yul\":3957:4012   */\n    tag_226:\n        /* \"#utility.yul\":4044:4046   */\n      dup2\n        /* \"#utility.yul\":4031:4047   */\n      calldataload\n        /* \"#utility.yul\":4066:4068   */\n      dup2\n        /* \"#utility.yul\":4062:4064   */\n      dup2\n        /* \"#utility.yul\":4059:4069   */\n      gt\n        /* \"#utility.yul\":4056:4092   */\n      iszero\n      tag_228\n      jumpi\n        /* \"#utility.yul\":4072:4090   */\n      tag_228\n      tag_196\n      jump\t// in\n    tag_228:\n        /* \"#utility.yul\":4147:4149   */\n      0x40\n        /* \"#utility.yul\":4141:4150   */\n      mload\n        /* \"#utility.yul\":4115:4117   */\n      0x1f\n        /* \"#utility.yul\":4201:4214   */\n      dup3\n      add\n      not(0x1f)\n        /* \"#utility.yul\":4197:4219   */\n      swap1\n      dup2\n      and\n        /* \"#utility.yul\":4221:4223   */\n      0x3f\n        /* \"#utility.yul\":4193:4224   */\n      add\n        /* \"#utility.yul\":4189:4229   */\n      and\n        /* \"#utility.yul\":4177:4230   */\n      dup2\n      add\n      swap1\n        /* \"#utility.yul\":4245:4263   */\n      dup4\n      dup3\n      gt\n        /* \"#utility.yul\":4265:4287   */\n      dup2\n      dup4\n      lt\n        /* \"#utility.yul\":4242:4288   */\n      or\n        /* \"#utility.yul\":4239:4311   */\n      iszero\n      tag_230\n      jumpi\n        /* \"#utility.yul\":4291:4309   */\n      tag_230\n      tag_196\n      jump\t// in\n    tag_230:\n        /* \"#utility.yul\":4331:4341   */\n      dup2\n        /* \"#utility.yul\":4327:4329   */\n      0x40\n        /* \"#utility.yul\":4320:4342   */\n      mstore\n        /* \"#utility.yul\":4366:4368   */\n      dup3\n        /* \"#utility.yul\":4358:4364   */\n      dup2\n        /* \"#utility.yul\":4351:4369   */\n      mstore\n        /* \"#utility.yul\":4406:4413   */\n      dup11\n        /* \"#utility.yul\":4401:4403   */\n      0x20\n        /* \"#utility.yul\":4396:4398   */\n      dup5\n        /* \"#utility.yul\":4392:4394   */\n      dup8\n        /* \"#utility.yul\":4388:4399   */\n      add\n        /* \"#utility.yul\":4384:4404   */\n      add\n        /* \"#utility.yul\":4381:4414   */\n      gt\n        /* \"#utility.yul\":4378:4431   */\n      iszero\n      tag_231\n      jumpi\n        /* \"#utility.yul\":4427:4428   */\n      0x00\n        /* \"#utility.yul\":4424:4425   */\n      dup1\n        /* \"#utility.yul\":4417:4429   */\n      revert\n        /* \"#utility.yul\":4378:4431   */\n    tag_231:\n        /* \"#utility.yul\":4483:4485   */\n      dup3\n        /* \"#utility.yul\":4478:4480   */\n      0x20\n        /* \"#utility.yul\":4474:4476   */\n      dup7\n        /* \"#utility.yul\":4470:4481   */\n      add\n        /* \"#utility.yul\":4465:4467   */\n      0x20\n        /* \"#utility.yul\":4457:4463   */\n      dup4\n        /* \"#utility.yul\":4453:4468   */\n      add\n        /* \"#utility.yul\":4440:4486   */\n      calldatacopy\n        /* \"#utility.yul\":4528:4529   */\n      0x00\n        /* \"#utility.yul\":4523:4525   */\n      0x20\n        /* \"#utility.yul\":4518:4520   */\n      dup5\n        /* \"#utility.yul\":4510:4516   */\n      dup4\n        /* \"#utility.yul\":4506:4521   */\n      add\n        /* \"#utility.yul\":4502:4526   */\n      add\n        /* \"#utility.yul\":4495:4530   */\n      mstore\n        /* \"#utility.yul\":4549:4555   */\n      dup1\n        /* \"#utility.yul\":4539:4555   */\n      swap6\n      pop\n      pop\n      pop\n      pop\n      pop\n      pop\n        /* \"#utility.yul\":3434:4561   */\n      swap3\n      swap6\n      swap2\n      swap5\n      pop\n      swap3\n      pop\n      jump\t// out\n        /* \"#utility.yul\":4797:4977   */\n    tag_83:\n        /* \"#utility.yul\":4856:4862   */\n      0x00\n        /* \"#utility.yul\":4909:4911   */\n      0x20\n        /* \"#utility.yul\":4897:4906   */\n      dup3\n        /* \"#utility.yul\":4888:4895   */\n      dup5\n        /* \"#utility.yul\":4884:4907   */\n      sub\n        /* \"#utility.yul\":4880:4912   */\n      slt\n        /* \"#utility.yul\":4877:4929   */\n      iszero\n      tag_234\n      jumpi\n        /* \"#utility.yul\":4925:4926   */\n      0x00\n        /* \"#utility.yul\":4922:4923   */\n      dup1\n        /* \"#utility.yul\":4915:4927   */\n      revert\n        /* \"#utility.yul\":4877:4929   */\n    tag_234:\n      pop\n        /* \"#utility.yul\":4948:4971   */\n      calldataload\n      swap2\n        /* \"#utility.yul\":4797:4977   */\n      swap1\n      pop\n      jump\t// out\n        /* \"#utility.yul\":4982:5202   */\n    tag_86:\n        /* \"#utility.yul\":5131:5133   */\n      0x20\n        /* \"#utility.yul\":5120:5129   */\n      dup2\n        /* \"#utility.yul\":5113:5134   */\n      mstore\n        /* \"#utility.yul\":5094:5098   */\n      0x00\n        /* \"#utility.yul\":5151:5196   */\n      tag_206\n        /* \"#utility.yul\":5192:5194   */\n      0x20\n        /* \"#utility.yul\":5181:5190   */\n      dup4\n        /* \"#utility.yul\":5177:5195   */\n      add\n        /* \"#utility.yul\":5169:5175   */\n      dup5\n        /* \"#utility.yul\":5151:5196   */\n      tag_194\n      jump\t// in\n        /* \"#utility.yul\":5460:5723   */\n    tag_101:\n        /* \"#utility.yul\":5641:5643   */\n      0x20\n        /* \"#utility.yul\":5630:5639   */\n      dup2\n        /* \"#utility.yul\":5623:5644   */\n      mstore\n        /* \"#utility.yul\":5604:5608   */\n      0x00\n        /* \"#utility.yul\":5661:5717   */\n      tag_206\n        /* \"#utility.yul\":5713:5715   */\n      0x20\n        /* \"#utility.yul\":5702:5711   */\n      dup4\n        /* \"#utility.yul\":5698:5716   */\n      add\n        /* \"#utility.yul\":5690:5696   */\n      dup5\n        /* \"#utility.yul\":5661:5717   */\n      tag_195\n      jump\t// in\n        /* \"#utility.yul\":6491:6618   */\n    tag_113:\n        /* \"#utility.yul\":6552:6562   */\n      0x4e487b71\n        /* \"#utility.yul\":6547:6550   */\n      0xe0\n        /* \"#utility.yul\":6543:6563   */\n      shl\n        /* \"#utility.yul\":6540:6541   */\n      0x00\n        /* \"#utility.yul\":6533:6564   */\n      mstore\n        /* \"#utility.yul\":6583:6587   */\n      0x32\n        /* \"#utility.yul\":6580:6581   */\n      0x04\n        /* \"#utility.yul\":6573:6588   */\n      mstore\n        /* \"#utility.yul\":6607:6611   */\n      0x24\n        /* \"#utility.yul\":6604:6605   */\n      0x00\n        /* \"#utility.yul\":6597:6612   */\n      revert\n        /* \"#utility.yul\":6623:7003   */\n    tag_119:\n        /* \"#utility.yul\":6702:6703   */\n      0x01\n        /* \"#utility.yul\":6698:6710   */\n      dup2\n      dup2\n      shr\n      swap1\n        /* \"#utility.yul\":6745:6757   */\n      dup3\n      and\n      dup1\n        /* \"#utility.yul\":6766:6827   */\n      tag_244\n      jumpi\n        /* \"#utility.yul\":6820:6824   */\n      0x7f\n        /* \"#utility.yul\":6812:6818   */\n      dup3\n        /* \"#utility.yul\":6808:6825   */\n      and\n        /* \"#utility.yul\":6798:6825   */\n      swap2\n      pop\n        /* \"#utility.yul\":6766:6827   */\n    tag_244:\n        /* \"#utility.yul\":6873:6875   */\n      0x20\n        /* \"#utility.yul\":6865:6871   */\n      dup3\n        /* \"#utility.yul\":6862:6876   */\n      lt\n        /* \"#utility.yul\":6842:6860   */\n      dup2\n        /* \"#utility.yul\":6839:6877   */\n      sub\n        /* \"#utility.yul\":6836:6997   */\n      tag_245\n      jumpi\n        /* \"#utility.yul\":6919:6929   */\n      0x4e487b71\n        /* \"#utility.yul\":6914:6917   */\n      0xe0\n        /* \"#utility.yul\":6910:6930   */\n      shl\n        /* \"#utility.yul\":6907:6908   */\n      0x00\n        /* \"#utility.yul\":6900:6931   */\n      mstore\n        /* \"#utility.yul\":6954:6958   */\n      0x22\n        /* \"#utility.yul\":6951:6952   */\n      0x04\n        /* \"#utility.yul\":6944:6959   */\n      mstore\n        /* \"#utility.yul\":6982:6986   */\n      0x24\n        /* \"#utility.yul\":6979:6980   */\n      0x00\n        /* \"#utility.yul\":6972:6987   */\n      revert\n        /* \"#utility.yul\":6836:6997   */\n    tag_245:\n      pop\n        /* \"#utility.yul\":6623:7003   */\n      swap2\n      swap1\n      pop\n      jump\t// out\n        /* \"#utility.yul\":7819:7946   */\n    tag_197:\n        /* \"#utility.yul\":7880:7890   */\n      0x4e487b71\n        /* \"#utility.yul\":7875:7878   */\n      0xe0\n        /* \"#utility.yul\":7871:7891   */\n      shl\n        /* \"#utility.yul\":7868:7869   */\n      0x00\n        /* \"#utility.yul\":7861:7892   */\n      mstore\n        /* \"#utility.yul\":7911:7915   */\n      0x11\n        /* \"#utility.yul\":7908:7909   */\n      0x04\n        /* \"#utility.yul\":7901:7916   */\n      mstore\n        /* \"#utility.yul\":7935:7939   */\n      0x24\n        /* \"#utility.yul\":7932:7933   */\n      0x00\n        /* \"#utility.yul\":7925:7940   */\n      revert\n        /* \"#utility.yul\":7951:8086   */\n    tag_142:\n        /* \"#utility.yul\":7990:7993   */\n      0x00\n        /* \"#utility.yul\":8011:8028   */\n      0x01\n      dup3\n      add\n        /* \"#utility.yul\":8008:8051   */\n      tag_251\n      jumpi\n        /* \"#utility.yul\":8031:8049   */\n      tag_251\n      tag_197\n      jump\t// in\n    tag_251:\n      pop\n        /* \"#utility.yul\":8078:8079   */\n      0x01\n        /* \"#utility.yul\":8067:8080   */\n      add\n      swap1\n        /* \"#utility.yul\":7951:8086   */\n      jump\t// out\n        /* \"#utility.yul\":8091:8526   */\n    tag_145:\n        /* \"#utility.yul\":8324:8330   */\n      dup5\n        /* \"#utility.yul\":8313:8322   */\n      dup2\n        /* \"#utility.yul\":8306:8331   */\n      mstore\n        /* \"#utility.yul\":8367:8373   */\n      dup4\n        /* \"#utility.yul\":8362:8364   */\n      0x20\n        /* \"#utility.yul\":8351:8360   */\n      dup3\n        /* \"#utility.yul\":8347:8365   */\n      add\n        /* \"#utility.yul\":8340:8374   */\n      mstore\n        /* \"#utility.yul\":8410:8413   */\n      0x80\n        /* \"#utility.yul\":8405:8407   */\n      0x40\n        /* \"#utility.yul\":8394:8403   */\n      dup3\n        /* \"#utility.yul\":8390:8408   */\n      add\n        /* \"#utility.yul\":8383:8414   */\n      mstore\n        /* \"#utility.yul\":8287:8291   */\n      0x00\n        /* \"#utility.yul\":8431:8477   */\n      tag_253\n        /* \"#utility.yul\":8472:8475   */\n      0x80\n        /* \"#utility.yul\":8461:8470   */\n      dup4\n        /* \"#utility.yul\":8457:8476   */\n      add\n        /* \"#utility.yul\":8449:8455   */\n      dup6\n        /* \"#utility.yul\":8431:8477   */\n      tag_194\n      jump\t// in\n    tag_253:\n        /* \"#utility.yul\":8423:8477   */\n      swap1\n      pop\n        /* \"#utility.yul\":8513:8519   */\n      dup3\n        /* \"#utility.yul\":8508:8510   */\n      0x60\n        /* \"#utility.yul\":8497:8506   */\n      dup4\n        /* \"#utility.yul\":8493:8511   */\n      add\n        /* \"#utility.yul\":8486:8520   */\n      mstore\n        /* \"#utility.yul\":8091:8526   */\n      swap6\n      swap5\n      pop\n      pop\n      pop\n      pop\n      pop\n      jump\t// out\n        /* \"#utility.yul\":8657:9175   */\n    tag_199:\n        /* \"#utility.yul\":8759:8761   */\n      0x1f\n        /* \"#utility.yul\":8754:8757   */\n      dup3\n        /* \"#utility.yul\":8751:8762   */\n      gt\n        /* \"#utility.yul\":8748:9169   */\n      iszero\n      tag_256\n      jumpi\n        /* \"#utility.yul\":8795:8800   */\n      dup1\n        /* \"#utility.yul\":8792:8793   */\n      0x00\n        /* \"#utility.yul\":8785:8801   */\n      mstore\n        /* \"#utility.yul\":8839:8843   */\n      0x20\n        /* \"#utility.yul\":8836:8837   */\n      0x00\n        /* \"#utility.yul\":8826:8844   */\n      keccak256\n        /* \"#utility.yul\":8909:8911   */\n      0x1f\n        /* \"#utility.yul\":8897:8907   */\n      dup5\n        /* \"#utility.yul\":8893:8912   */\n      add\n        /* \"#utility.yul\":8890:8891   */\n      0x05\n        /* \"#utility.yul\":8886:8913   */\n      shr\n        /* \"#utility.yul\":8880:8884   */\n      dup2\n        /* \"#utility.yul\":8876:8914   */\n      add\n        /* \"#utility.yul\":8945:8949   */\n      0x20\n        /* \"#utility.yul\":8933:8943   */\n      dup6\n        /* \"#utility.yul\":8930:8950   */\n      lt\n        /* \"#utility.yul\":8927:8974   */\n      iszero\n      tag_257\n      jumpi\n      pop\n        /* \"#utility.yul\":8968:8972   */\n      dup1\n        /* \"#utility.yul\":8927:8974   */\n    tag_257:\n        /* \"#utility.yul\":9023:9025   */\n      0x1f\n        /* \"#utility.yul\":9018:9021   */\n      dup5\n        /* \"#utility.yul\":9014:9026   */\n      add\n        /* \"#utility.yul\":9011:9012   */\n      0x05\n        /* \"#utility.yul\":9007:9027   */\n      shr\n        /* \"#utility.yul\":9001:9005   */\n      dup3\n        /* \"#utility.yul\":8997:9028   */\n      add\n        /* \"#utility.yul\":8987:9028   */\n      swap2\n      pop\n        /* \"#utility.yul\":9078:9159   */\n    tag_258:\n        /* \"#utility.yul\":9096:9098   */\n      dup2\n        /* \"#utility.yul\":9089:9094   */\n      dup2\n        /* \"#utility.yul\":9086:9099   */\n      lt\n        /* \"#utility.yul\":9078:9159   */\n      iszero\n      tag_260\n      jumpi\n        /* \"#utility.yul\":9155:9156   */\n      0x00\n        /* \"#utility.yul\":9141:9157   */\n      dup2\n      sstore\n        /* \"#utility.yul\":9122:9123   */\n      0x01\n        /* \"#utility.yul\":9111:9124   */\n      add\n        /* \"#utility.yul\":9078:9159   */\n      jump(tag_258)\n    tag_260:\n        /* \"#utility.yul\":9082:9085   */\n      pop\n      pop\n        /* \"#utility.yul\":8748:9169   */\n    tag_256:\n        /* \"#utility.yul\":8657:9175   */\n      pop\n      pop\n      pop\n      jump\t// out\n        /* \"#utility.yul\":9351:10696   */\n    tag_148:\n        /* \"#utility.yul\":9477:9480   */\n      dup2\n        /* \"#utility.yul\":9471:9481   */\n      mload\n        /* \"#utility.yul\":9504:9522   */\n      0xffffffffffffffff\n        /* \"#utility.yul\":9496:9502   */\n      dup2\n        /* \"#utility.yul\":9493:9523   */\n      gt\n        /* \"#utility.yul\":9490:9546   */\n      iszero\n      tag_264\n      jumpi\n        /* \"#utility.yul\":9526:9544   */\n      tag_264\n      tag_196\n      jump\t// in\n    tag_264:\n        /* \"#utility.yul\":9555:9652   */\n      tag_265\n        /* \"#utility.yul\":9645:9651   */\n      dup2\n        /* \"#utility.yul\":9605:9643   */\n      tag_266\n        /* \"#utility.yul\":9637:9641   */\n      dup5\n        /* \"#utility.yul\":9631:9642   */\n      sload\n        /* \"#utility.yul\":9605:9643   */\n      tag_119\n      jump\t// in\n    tag_266:\n        /* \"#utility.yul\":9599:9603   */\n      dup5\n        /* \"#utility.yul\":9555:9652   */\n      tag_199\n      jump\t// in\n    tag_265:\n        /* \"#utility.yul\":9707:9711   */\n      0x20\n      dup1\n        /* \"#utility.yul\":9764:9766   */\n      0x1f\n        /* \"#utility.yul\":9753:9767   */\n      dup4\n      gt\n        /* \"#utility.yul\":9781:9782   */\n      0x01\n        /* \"#utility.yul\":9776:10439   */\n      dup2\n      eq\n      tag_268\n      jumpi\n        /* \"#utility.yul\":10483:10484   */\n      0x00\n        /* \"#utility.yul\":10500:10506   */\n      dup5\n        /* \"#utility.yul\":10497:10586   */\n      iszero\n      tag_269\n      jumpi\n      pop\n        /* \"#utility.yul\":10552:10571   */\n      dup6\n      dup4\n      add\n        /* \"#utility.yul\":10546:10572   */\n      mload\n        /* \"#utility.yul\":10497:10586   */\n    tag_269:\n      not(0x00)\n        /* \"#utility.yul\":9308:9309   */\n      0x03\n        /* \"#utility.yul\":9304:9315   */\n      dup7\n      swap1\n      shl\n        /* \"#utility.yul\":9300:9324   */\n      shr\n        /* \"#utility.yul\":9296:9325   */\n      not\n        /* \"#utility.yul\":9286:9326   */\n      and\n        /* \"#utility.yul\":9332:9333   */\n      0x01\n        /* \"#utility.yul\":9328:9339   */\n      dup6\n      swap1\n      shl\n        /* \"#utility.yul\":9283:9340   */\n      or\n        /* \"#utility.yul\":10599:10680   */\n      dup6\n      sstore\n        /* \"#utility.yul\":9746:10690   */\n      jump(tag_267)\n        /* \"#utility.yul\":9776:10439   */\n    tag_268:\n        /* \"#utility.yul\":8604:8605   */\n      0x00\n        /* \"#utility.yul\":8597:8611   */\n      dup6\n      dup2\n      mstore\n        /* \"#utility.yul\":8641:8645   */\n      0x20\n        /* \"#utility.yul\":8628:8646   */\n      dup2\n      keccak256\n      not(0x1f)\n        /* \"#utility.yul\":9812:9832   */\n      dup7\n      and\n      swap2\n        /* \"#utility.yul\":9930:10166   */\n    tag_272:\n        /* \"#utility.yul\":9944:9951   */\n      dup3\n        /* \"#utility.yul\":9941:9942   */\n      dup2\n        /* \"#utility.yul\":9938:9952   */\n      lt\n        /* \"#utility.yul\":9930:10166   */\n      iszero\n      tag_274\n      jumpi\n        /* \"#utility.yul\":10033:10052   */\n      dup9\n      dup7\n      add\n        /* \"#utility.yul\":10027:10053   */\n      mload\n        /* \"#utility.yul\":10012:10054   */\n      dup3\n      sstore\n        /* \"#utility.yul\":10125:10152   */\n      swap5\n      dup5\n      add\n      swap5\n        /* \"#utility.yul\":10093:10094   */\n      0x01\n        /* \"#utility.yul\":10081:10095   */\n      swap1\n      swap2\n      add\n      swap1\n        /* \"#utility.yul\":9960:9979   */\n      dup5\n      add\n        /* \"#utility.yul\":9930:10166   */\n      jump(tag_272)\n    tag_274:\n        /* \"#utility.yul\":9934:9937   */\n      pop\n        /* \"#utility.yul\":10194:10200   */\n      dup6\n        /* \"#utility.yul\":10185:10192   */\n      dup3\n        /* \"#utility.yul\":10182:10201   */\n      lt\n        /* \"#utility.yul\":10179:10380   */\n      iszero\n      tag_275\n      jumpi\n        /* \"#utility.yul\":10255:10274   */\n      dup8\n      dup6\n      add\n        /* \"#utility.yul\":10249:10275   */\n      mload\n      not(0x00)\n        /* \"#utility.yul\":10338:10339   */\n      0x03\n        /* \"#utility.yul\":10334:10348   */\n      dup9\n      swap1\n      shl\n        /* \"#utility.yul\":10350:10353   */\n      0xf8\n        /* \"#utility.yul\":10330:10354   */\n      and\n        /* \"#utility.yul\":10326:10363   */\n      shr\n        /* \"#utility.yul\":10322:10364   */\n      not\n        /* \"#utility.yul\":10307:10365   */\n      and\n        /* \"#utility.yul\":10292:10366   */\n      dup2\n      sstore\n        /* \"#utility.yul\":10179:10380   */\n    tag_275:\n      pop\n      pop\n        /* \"#utility.yul\":10426:10427   */\n      0x01\n        /* \"#utility.yul\":10417:10423   */\n      dup5\n        /* \"#utility.yul\":10414:10415   */\n      0x01\n        /* \"#utility.yul\":10410:10424   */\n      shl\n        /* \"#utility.yul\":10406:10428   */\n      add\n        /* \"#utility.yul\":10400:10404   */\n      dup6\n        /* \"#utility.yul\":10393:10429   */\n      sstore\n        /* \"#utility.yul\":9746:10690   */\n    tag_267:\n      pop\n      pop\n      pop\n      pop\n        /* \"#utility.yul\":9351:10696   */\n      pop\n      pop\n      jump\t// out\n        /* \"#utility.yul\":10701:11218   */\n    tag_151:\n        /* \"#utility.yul\":10956:10962   */\n      dup6\n        /* \"#utility.yul\":10945:10954   */\n      dup2\n        /* \"#utility.yul\":10938:10963   */\n      mstore\n        /* \"#utility.yul\":10999:11005   */\n      dup5\n        /* \"#utility.yul\":10994:10996   */\n      0x20\n        /* \"#utility.yul\":10983:10992   */\n      dup3\n        /* \"#utility.yul\":10979:10997   */\n      add\n        /* \"#utility.yul\":10972:11006   */\n      mstore\n        /* \"#utility.yul\":11042:11045   */\n      0xa0\n        /* \"#utility.yul\":11037:11039   */\n      0x40\n        /* \"#utility.yul\":11026:11035   */\n      dup3\n        /* \"#utility.yul\":11022:11040   */\n      add\n        /* \"#utility.yul\":11015:11046   */\n      mstore\n        /* \"#utility.yul\":10919:10923   */\n      0x00\n        /* \"#utility.yul\":11063:11109   */\n      tag_277\n        /* \"#utility.yul\":11104:11107   */\n      0xa0\n        /* \"#utility.yul\":11093:11102   */\n      dup4\n        /* \"#utility.yul\":11089:11108   */\n      add\n        /* \"#utility.yul\":11081:11087   */\n      dup7\n        /* \"#utility.yul\":11063:11109   */\n      tag_194\n      jump\t// in\n    tag_277:\n        /* \"#utility.yul\":11140:11142   */\n      0x60\n        /* \"#utility.yul\":11125:11143   */\n      dup4\n      add\n        /* \"#utility.yul\":11118:11152   */\n      swap5\n      swap1\n      swap5\n      mstore\n      pop\n        /* \"#utility.yul\":11196:11210   */\n      swap1\n      iszero\n        /* \"#utility.yul\":11189:11211   */\n      iszero\n        /* \"#utility.yul\":11183:11186   */\n      0x80\n        /* \"#utility.yul\":11168:11187   */\n      swap1\n      swap2\n      add\n        /* \"#utility.yul\":11161:11212   */\n      mstore\n        /* \"#utility.yul\":11055:11109   */\n      swap4\n        /* \"#utility.yul\":10701:11218   */\n      swap3\n      pop\n      pop\n      pop\n      jump\t// out\n        /* \"#utility.yul\":11223:11750   */\n    tag_153:\n        /* \"#utility.yul\":11472:11478   */\n      dup6\n        /* \"#utility.yul\":11461:11470   */\n      dup2\n        /* \"#utility.yul\":11454:11479   */\n      mstore\n        /* \"#utility.yul\":11515:11518   */\n      0xa0\n        /* \"#utility.yul\":11510:11512   */\n      0x20\n        /* \"#utility.yul\":11499:11508   */\n      dup3\n        /* \"#utility.yul\":11495:11513   */\n      add\n        /* \"#utility.yul\":11488:11519   */\n      mstore\n        /* \"#utility.yul\":11435:11439   */\n      0x00\n        /* \"#utility.yul\":11536:11582   */\n      tag_279\n        /* \"#utility.yul\":11577:11580   */\n      0xa0\n        /* \"#utility.yul\":11566:11575   */\n      dup4\n        /* \"#utility.yul\":11562:11581   */\n      add\n        /* \"#utility.yul\":11554:11560   */\n      dup8\n        /* \"#utility.yul\":11536:11582   */\n      tag_194\n      jump\t// in\n    tag_279:\n        /* \"#utility.yul\":11625:11639   */\n      swap5\n      iszero\n        /* \"#utility.yul\":11618:11640   */\n      iszero\n        /* \"#utility.yul\":11613:11615   */\n      0x40\n        /* \"#utility.yul\":11598:11616   */\n      dup4\n      add\n        /* \"#utility.yul\":11591:11641   */\n      mstore\n      pop\n        /* \"#utility.yul\":11684:11698   */\n      swap2\n      iszero\n        /* \"#utility.yul\":11677:11699   */\n      iszero\n        /* \"#utility.yul\":11672:11674   */\n      0x60\n        /* \"#utility.yul\":11657:11675   */\n      dup4\n      add\n        /* \"#utility.yul\":11650:11700   */\n      mstore\n        /* \"#utility.yul\":11731:11734   */\n      0x80\n        /* \"#utility.yul\":11716:11735   */\n      swap1\n      swap2\n      add\n        /* \"#utility.yul\":11709:11744   */\n      mstore\n        /* \"#utility.yul\":11528:11582   */\n      swap3\n        /* \"#utility.yul\":11223:11750   */\n      swap2\n      pop\n      pop\n      jump\t// out\n        /* \"#utility.yul\":11755:12354   */\n    tag_155:\n        /* \"#utility.yul\":12032:12038   */\n      dup7\n        /* \"#utility.yul\":12021:12030   */\n      dup2\n        /* \"#utility.yul\":12014:12039   */\n      mstore\n        /* \"#utility.yul\":12075:12081   */\n      dup6\n        /* \"#utility.yul\":12070:12072   */\n      0x20\n        /* \"#utility.yul\":12059:12068   */\n      dup3\n        /* \"#utility.yul\":12055:12073   */\n      add\n        /* \"#utility.yul\":12048:12082   */\n      mstore\n        /* \"#utility.yul\":12118:12121   */\n      0xc0\n        /* \"#utility.yul\":12113:12115   */\n      0x40\n        /* \"#utility.yul\":12102:12111   */\n      dup3\n        /* \"#utility.yul\":12098:12116   */\n      add\n        /* \"#utility.yul\":12091:12122   */\n      mstore\n        /* \"#utility.yul\":11995:11999   */\n      0x00\n        /* \"#utility.yul\":12139:12185   */\n      tag_281\n        /* \"#utility.yul\":12180:12183   */\n      0xc0\n        /* \"#utility.yul\":12169:12178   */\n      dup4\n        /* \"#utility.yul\":12165:12184   */\n      add\n        /* \"#utility.yul\":12157:12163   */\n      dup8\n        /* \"#utility.yul\":12139:12185   */\n      tag_194\n      jump\t// in\n    tag_281:\n        /* \"#utility.yul\":12228:12242   */\n      swap5\n      iszero\n        /* \"#utility.yul\":12221:12243   */\n      iszero\n        /* \"#utility.yul\":12216:12218   */\n      0x60\n        /* \"#utility.yul\":12201:12219   */\n      dup4\n      add\n        /* \"#utility.yul\":12194:12244   */\n      mstore\n      pop\n        /* \"#utility.yul\":12288:12302   */\n      swap2\n      iszero\n        /* \"#utility.yul\":12281:12303   */\n      iszero\n        /* \"#utility.yul\":12275:12278   */\n      0x80\n        /* \"#utility.yul\":12260:12279   */\n      dup4\n      add\n        /* \"#utility.yul\":12253:12304   */\n      mstore\n        /* \"#utility.yul\":12335:12338   */\n      0xa0\n        /* \"#utility.yul\":12320:12339   */\n      swap1\n      swap2\n      add\n        /* \"#utility.yul\":12313:12348   */\n      mstore\n        /* \"#utility.yul\":12131:12185   */\n      swap4\n        /* \"#utility.yul\":11755:12354   */\n      swap3\n      pop\n      pop\n      pop\n      jump\t// out\n        /* \"#utility.yul\":13539:13667   */\n    tag_184:\n        /* \"#utility.yul\":13606:13615   */\n      dup2\n      dup2\n      sub\n        /* \"#utility.yul\":13627:13638   */\n      dup2\n      dup2\n      gt\n        /* \"#utility.yul\":13624:13661   */\n      iszero\n      tag_115\n      jumpi\n        /* \"#utility.yul\":13641:13659   */\n      tag_115\n      tag_197\n      jump\t// in\n\n    auxdata: 0xa2646970667358221220e9cdd36736e08835813e7b0f50678d4710b358b5ab49927eeee86000a3f7ce8164736f6c63430008190033\n}\n",
    "bytecode": {
      "linkReferences": {},
      "object": "6080604052348015600e575f80fd5b50600780546001600160a01b031916331790556114dc8061002e5f395ff3fe608060405234801561000f575f80fd5b506004361061012f575f3560e01c80638a7675b7116100ad578063b03cffd11161007d578063c64251b911610063578063c64251b91461031f578063dfe6b5d614610332578063fc4f59b91461034d575f80fd5b8063b03cffd1146102f6578063bff1f9e114610316575f80fd5b80638a7675b71461026d5780638cfea35d146102805780638da5cb5b146102ab5780639af909b5146102be575f80fd5b80634d1052fb1161010257806369074273116100e857806369074273146101ee578063706f04361461022057806388a3c3321461024d575f80fd5b80634d1052fb146101c057806352173b39146101c9575f80fd5b80632cc71fc114610133578063362499161461016e5780633d15d68214610198578063446aeb7e146101ad575b5f80fd5b61015b610141366004610fb9565b6001600160a01b03165f9081526020819052604090205490565b6040519081526020015b60405180910390f35b61015b61017c366004610fd9565b600160209081525f928352604080842090915290825290205481565b6101ab6101a6366004610fd9565b61036d565b005b61015b6101bb366004610fd9565b6104bf565b61015b60035481565b6101dc6101d7366004610fd9565b6104e9565b6040516101659695949392919061102f565b6102106101fc366004610fb9565b60056020525f908152604090205460ff1681565b6040519015158152602001610165565b61021061022e366004610fd9565b600260209081525f928352604080842090915290825290205460ff1681565b61026061025b366004610fb9565b6105c3565b60405161016591906110c0565b6101ab61027b366004611136565b6106fc565b600654610293906001600160a01b031681565b6040516001600160a01b039091168152602001610165565b600754610293906001600160a01b031681565b6102106102cc366004610fd9565b6001600160a01b03919091165f908152600260209081526040808320938352929052205460ff1690565b6103096103043660046111fd565b610ad2565b6040516101659190611214565b61015b60045481565b6101ab61032d366004610fb9565b610d4c565b60035460045460408051928352602083019190915201610165565b61036061035b366004610fb9565b610dea565b6040516101659190611226565b6006546001600160a01b031633148061039057506007546001600160a01b031633145b6104075760405162461bcd60e51b815260206004820152602d60248201527f4f6e6c79206261646765206d696e746572206f72206f776e65722063616e206d60448201527f61726b206173206d696e7465640000000000000000000000000000000000000060648201526084015b60405180910390fd5b6001600160a01b0382165f90815260208190526040902054811061046d5760405162461bcd60e51b815260206004820152601460248201527f496e76616c696420726573756c7420696e64657800000000000000000000000060448201526064016103fe565b6001600160a01b0382165f9081526020819052604090208054600191908390811061049a5761049a611238565b5f9182526020909120600690910201600501805460ff19169115159190911790555050565b6001600160a01b0382165f9081526001602090815260408083208484529091529020545b92915050565b5f602052815f5260405f208181548110610501575f80fd5b905f5260205f2090600602015f9150915050805f0154908060010154908060020154908060030154908060040180546105399061124c565b80601f01602080910402602001604051908101604052809291908181526020018280546105659061124c565b80156105b05780601f10610587576101008083540402835291602001916105b0565b820191905f5260205f20905b81548152906001019060200180831161059357829003601f168201915b5050506005909301549192505060ff1686565b6001600160a01b0381165f90815260208181526040808320805482518185028101850190935280835260609492939192909184015b828210156106f1578382905f5260205f2090600602016040518060c00160405290815f82015481526020016001820154815260200160028201548152602001600382015481526020016004820180546106509061124c565b80601f016020809104026020016040519081016040528092919081815260200182805461067c9061124c565b80156106c75780601f1061069e576101008083540402835291602001916106c7565b820191905f5260205f20905b8154815290600101906020018083116106aa57829003601f168201915b50505091835250506005919091015460ff16151560209182015290825260019290920191016105f8565b505050509050919050565b818311156107585760405162461bcd60e51b815260206004820152602360248201527f53636f72652063616e6e6f742065786365656420746f74616c207175657374696044820152626f6e7360e81b60648201526084016103fe565b5f82116107cd5760405162461bcd60e51b815260206004820152602660248201527f546f74616c207175657374696f6e73206d75737420626520677265617465722060448201527f7468616e2030000000000000000000000000000000000000000000000000000060648201526084016103fe565b335f9081526005602052604090205460ff1661081057335f908152600560205260408120805460ff19166001179055600480549161080a83611298565b91905055505b335f81815260026020908152604080832088845282528083208054600160ff1982168117909255948452825280832088845290915290205460ff909116159080851180156108b657335f8181526001602090815260408083208b845290915290819020889055518891907f0918fee28c0515343b14ff4c58d50a188f3d297d4e09272dedfe18de1f059258906108ad908a9087908a9042906112b0565b60405180910390a35b6040805160c08101825288815260208082018981528284018981524260608501908152608085018a81525f60a08701819052338152808652968720805460018181018355918952959097208651600690960201948555925195840195909555516002830155925160038201559151909182916004820190610937908261132b565b5060a091909101516005909101805460ff191691151591909117905560038054905f61096283611298565b919050555087336001600160a01b03167f11c4d0e2af71b7def63b6e29d79aabee401b6389d4a0617987425414319046fe89898942886040516109a99594939291906113eb565b60405180910390a387336001600160a01b03167f5fb39ee9995efa7bcdb81e72cbd405112ab8d854ca6d8c0bdcf1eedacd5eead989888689426040516109f3959493929190611422565b60405180910390a387336001600160a01b03167f1081541882782845a3064e40756bc59c16f4d35ca1bdf3dfff024083a6c130f3898989878a42604051610a3f96959493929190611457565b60405180910390a3858703610ac85787336001600160a01b03167ff1707c7149f55e5b139cef4599c6f836b0159cb5d8175099d58d40e68868f95442604051610abf918152604060208201819052601b908201527f506572666563742053636f7265204469616d6f6e642042616467650000000000606082015260800190565b60405180910390a35b5050505050505050565b6060600a8210610b1557505060408051808201909152600d81527f506572666563742053636f726500000000000000000000000000000000000000602082015290565b60098210610b5657505060408051808201909152600981527f457863656c6c656e740000000000000000000000000000000000000000000000602082015290565b60088210610b9757505060408051808201909152600581527f4772656174000000000000000000000000000000000000000000000000000000602082015290565b60078210610bbf57505060408051808201909152600481526311dbdbd960e21b602082015290565b60068210610c0057505060408051808201909152600d81527f41626f7665204176657261676500000000000000000000000000000000000000602082015290565b60058210610c4157505060408051808201909152600781527f4176657261676500000000000000000000000000000000000000000000000000602082015290565b60048210610c695750506040805180820190915260048152632330b4b960e11b602082015290565b60038210610caa57505060408051808201909152600d81527f42656c6f77204176657261676500000000000000000000000000000000000000602082015290565b60028210610cd25750506040805180820190915260048152632837b7b960e11b602082015290565b60018210610d1357505060408051808201909152600581527f4261736963000000000000000000000000000000000000000000000000000000602082015290565b505060408051808201909152600e81527f4e6f20416368696576656d656e74000000000000000000000000000000000000602082015290565b6007546001600160a01b03163314610db05760405162461bcd60e51b815260206004820152602160248201527f4f6e6c79206f776e65722063616e2063616c6c20746869732066756e6374696f6044820152603760f91b60648201526084016103fe565b600680547fffffffffffffffffffffffff0000000000000000000000000000000000000000166001600160a01b0392909216919091179055565b610e206040518060c001604052805f81526020015f81526020015f81526020015f8152602001606081526020015f151581525090565b6001600160a01b0382165f90815260208190526040902054610e845760405162461bcd60e51b815260206004820152601560248201527f4e6f207175697a20726573756c747320666f756e64000000000000000000000060448201526064016103fe565b6001600160a01b0382165f9081526020819052604090208054610ea990600190611493565b81548110610eb957610eb9611238565b905f5260205f2090600602016040518060c00160405290815f8201548152602001600182015481526020016002820154815260200160038201548152602001600482018054610f079061124c565b80601f0160208091040260200160405190810160405280929190818152602001828054610f339061124c565b8015610f7e5780601f10610f5557610100808354040283529160200191610f7e565b820191905f5260205f20905b815481529060010190602001808311610f6157829003601f168201915b50505091835250506005919091015460ff16151560209091015292915050565b80356001600160a01b0381168114610fb4575f80fd5b919050565b5f60208284031215610fc9575f80fd5b610fd282610f9e565b9392505050565b5f8060408385031215610fea575f80fd5b610ff383610f9e565b946020939093013593505050565b5f81518084528060208401602086015e5f602082860101526020601f19601f83011685010191505092915050565b86815285602082015284604082015283606082015260c060808201525f61105960c0830185611001565b905082151560a0830152979650505050505050565b805182526020810151602083015260408101516040830152606081015160608301525f608082015160c060808501526110aa60c0850182611001565b60a0938401511515949093019390935250919050565b5f60208083016020845280855180835260408601915060408160051b8701019250602087015f5b8281101561111557603f1988860301845261110385835161106e565b945092850192908501906001016110e7565b5092979650505050505050565b634e487b7160e01b5f52604160045260245ffd5b5f805f8060808587031215611149575f80fd5b843593506020850135925060408501359150606085013567ffffffffffffffff80821115611175575f80fd5b818701915087601f830112611188575f80fd5b81358181111561119a5761119a611122565b604051601f8201601f19908116603f011681019083821181831017156111c2576111c2611122565b816040528281528a60208487010111156111da575f80fd5b826020860160208301375f60208483010152809550505050505092959194509250565b5f6020828403121561120d575f80fd5b5035919050565b602081525f610fd26020830184611001565b602081525f610fd2602083018461106e565b634e487b7160e01b5f52603260045260245ffd5b600181811c9082168061126057607f821691505b60208210810361127e57634e487b7160e01b5f52602260045260245ffd5b50919050565b634e487b7160e01b5f52601160045260245ffd5b5f600182016112a9576112a9611284565b5060010190565b848152836020820152608060408201525f6112ce6080830185611001565b905082606083015295945050505050565b601f82111561132657805f5260205f20601f840160051c810160208510156113045750805b601f840160051c820191505b81811015611323575f8155600101611310565b50505b505050565b815167ffffffffffffffff81111561134557611345611122565b61135981611353845461124c565b846112df565b602080601f83116001811461138c575f84156113755750858301515b5f19600386901b1c1916600185901b1785556113e3565b5f85815260208120601f198616915b828110156113ba5788860151825594840194600190910190840161139b565b50858210156113d757878501515f19600388901b60f8161c191681555b505060018460011b0185555b505050505050565b85815284602082015260a060408201525f61140960a0830186611001565b6060830194909452509015156080909101529392505050565b85815260a060208201525f61143a60a0830187611001565b941515604083015250911515606083015260809091015292915050565b86815285602082015260c060408201525f61147560c0830187611001565b941515606083015250911515608083015260a0909101529392505050565b818103818111156104e3576104e361128456fea2646970667358221220e9cdd36736e08835813e7b0f50678d4710b358b5ab49927eeee86000a3f7ce8164736f6c63430008190033",
      "opcodes": "PUSH1 0x80 PUSH1 0x40 MSTORE CALLVALUE DUP1 ISZERO PUSH1 0xE JUMPI PUSH0 DUP1 REVERT JUMPDEST POP PUSH1 0x7 DUP1 SLOAD PUSH1 0x1 PUSH1 0x1 PUSH1 0xA0 SHL SUB NOT AND CALLER OR SWAP1 SSTORE PUSH2 0x14DC DUP1 PUSH2 0x2E PUSH0 CODECOPY PUSH0 RETURN INVALID PUSH1 0x80 PUSH1 0x40 MSTORE CALLVALUE DUP1 ISZERO PUSH2 0xF JUMPI PUSH0 DUP1 REVERT JUMPDEST POP PUSH1 0x4 CALLDATASIZE LT PUSH2 0x12F JUMPI PUSH0 CALLDATALOAD PUSH1 0xE0 SHR DUP1 PUSH4 0x8A7675B7 GT PUSH2 0xAD JUMPI DUP1 PUSH4 0xB03CFFD1 GT PUSH2 0x7D JUMPI DUP1 PUSH4 0xC64251B9 GT PUSH2 0x63 JUMPI DUP1 PUSH4 0xC64251B9 EQ PUSH2 0x31F JUMPI DUP1 PUSH4 0xDFE6B5D6 EQ PUSH2 0x332 JUMPI DUP1 PUSH4 0xFC4F59B9 EQ PUSH2 0x34D JUMPI PUSH0 DUP1 REVERT JUMPDEST DUP1 PUSH4 0xB03CFFD1 EQ PUSH2 0x2F6 JUMPI DUP1 PUSH4 0xBFF1F9E1 EQ PUSH2 0x316 JUMPI PUSH0 DUP1 REVERT JUMPDEST DUP1 PUSH4 0x8A7675B7 EQ PUSH2 0x26D JUMPI DUP1 PUSH4 0x8CFEA35D EQ PUSH2 0x280 JUMPI DUP1 PUSH4 0x8DA5CB5B EQ PUSH2 0x2AB JUMPI DUP1 PUSH4 0x9AF909B5 EQ PUSH2 0x2BE JUMPI PUSH0 DUP1 REVERT JUMPDEST DUP1 PUSH4 0x4D1052FB GT PUSH2 0x102 JUMPI DUP1 PUSH4 0x69074273 GT PUSH2 0xE8 JUMPI DUP1 PUSH4 0x69074273 EQ PUSH2 0x1EE JUMPI DUP1 PUSH4 0x706F0436 EQ PUSH2 0x220 JUMPI DUP1 PUSH4 0x88A3C332 EQ PUSH2 0x24D JUMPI PUSH0 DUP1 REVERT JUMPDEST DUP1 PUSH4 0x4D1052FB EQ PUSH2 0x1C0 JUMPI DUP1 PUSH4 0x52173B39 EQ PUSH2 0x1C9 JUMPI PUSH0 DUP1 REVERT JUMPDEST DUP1 PUSH4 0x2CC71FC1 EQ PUSH2 0x133 JUMPI DUP1 PUSH4 0x36249916 EQ PUSH2 0x16E JUMPI DUP1 PUSH4 0x3D15D682 EQ PUSH2 0x198 JUMPI DUP1 PUSH4 0x446AEB7E EQ PUSH2 0x1AD JUMPI JUMPDEST PUSH0 DUP1 REVERT JUMPDEST PUSH2 0x15B PUSH2 0x141 CALLDATASIZE PUSH1 0x4 PUSH2 0xFB9 JUMP JUMPDEST PUSH1 0x1 PUSH1 0x1 PUSH1 0xA0 SHL SUB AND PUSH0 SWAP1 DUP2 MSTORE PUSH1 0x20 DUP2 SWAP1 MSTORE PUSH1 0x40 SWAP1 KECCAK256 SLOAD SWAP1 JUMP JUMPDEST PUSH1 0x40 MLOAD SWAP1 DUP2 MSTORE PUSH1 0x20 ADD JUMPDEST PUSH1 0x40 MLOAD DUP1 SWAP2 SUB SWAP1 RETURN JUMPDEST PUSH2 0x15B PUSH2 0x17C CALLDATASIZE PUSH1 0x4 PUSH2 0xFD9 JUMP JUMPDEST PUSH1 0x1 PUSH1 0x20 SWAP1 DUP2 MSTORE PUSH0 SWAP3 DUP4 MSTORE PUSH1 0x40 DUP1 DUP5 KECCAK256 SWAP1 SWAP2 MSTORE SWAP1 DUP3 MSTORE SWAP1 KECCAK256 SLOAD DUP2 JUMP JUMPDEST PUSH2 0x1AB PUSH2 0x1A6 CALLDATASIZE PUSH1 0x4 PUSH2 0xFD9 JUMP JUMPDEST PUSH2 0x36D JUMP JUMPDEST STOP JUMPDEST PUSH2 0x15B PUSH2 0x1BB CALLDATASIZE PUSH1 0x4 PUSH2 0xFD9 JUMP JUMPDEST PUSH2 0x4BF JUMP JUMPDEST PUSH2 0x15B PUSH1 0x3 SLOAD DUP2 JUMP JUMPDEST PUSH2 0x1DC PUSH2 0x1D7 CALLDATASIZE PUSH1 0x4 PUSH2 0xFD9 JUMP JUMPDEST PUSH2 0x4E9 JUMP JUMPDEST PUSH1 0x40 MLOAD PUSH2 0x165 SWAP7 SWAP6 SWAP5 SWAP4 SWAP3 SWAP2 SWAP1 PUSH2 0x102F JUMP JUMPDEST PUSH2 0x210 PUSH2 0x1FC CALLDATASIZE PUSH1 0x4 PUSH2 0xFB9 JUMP JUMPDEST PUSH1 0x5 PUSH1 0x20 MSTORE PUSH0 SWAP1 DUP2 MSTORE PUSH1 0x40 SWAP1 KECCAK256 SLOAD PUSH1 0xFF AND DUP2 JUMP JUMPDEST PUSH1 0x40 MLOAD SWAP1 ISZERO ISZERO DUP2 MSTORE PUSH1 0x20 ADD PUSH2 0x165 JUMP JUMPDEST PUSH2 0x210 PUSH2 0x22E CALLDATASIZE PUSH1 0x4 PUSH2 0xFD9 JUMP JUMPDEST PUSH1 0x2 PUSH1 0x20 SWAP1 DUP2 MSTORE PUSH0 SWAP3 DUP4 MSTORE PUSH1 0x40 DUP1 DUP5 KECCAK256 SWAP1 SWAP2 MSTORE SWAP1 DUP3 MSTORE SWAP1 KECCAK256 SLOAD PUSH1 0xFF AND DUP2 JUMP JUMPDEST PUSH2 0x260 PUSH2 0x25B CALLDATASIZE PUSH1 0x4 PUSH2 0xFB9 JUMP JUMPDEST PUSH2 0x5C3 JUMP JUMPDEST PUSH1 0x40 MLOAD PUSH2 0x165 SWAP2 SWAP1 PUSH2 0x10C0 JUMP JUMPDEST PUSH2 0x1AB PUSH2 0x27B CALLDATASIZE PUSH1 0x4 PUSH2 0x1136 JUMP JUMPDEST PUSH2 0x6FC JUMP JUMPDEST PUSH1 0x6 SLOAD PUSH2 0x293 SWAP1 PUSH1 0x1 PUSH1 0x1 PUSH1 0xA0 SHL SUB AND DUP2 JUMP JUMPDEST PUSH1 0x40 MLOAD PUSH1 0x1 PUSH1 0x1 PUSH1 0xA0 SHL SUB SWAP1 SWAP2 AND DUP2 MSTORE PUSH1 0x20 ADD PUSH2 0x165 JUMP JUMPDEST PUSH1 0x7 SLOAD PUSH2 0x293 SWAP1 PUSH1 0x1 PUSH1 0x1 PUSH1 0xA0 SHL SUB AND DUP2 JUMP JUMPDEST PUSH2 0x210 PUSH2 0x2CC CALLDATASIZE PUSH1 0x4 PUSH2 0xFD9 JUMP JUMPDEST PUSH1 0x1 PUSH1 0x1 PUSH1 0xA0 SHL SUB SWAP2 SWAP1 SWAP2 AND PUSH0 SWAP1 DUP2 MSTORE PUSH1 0x2 PUSH1 0x20 SWAP1 DUP2 MSTORE PUSH1 0x40 DUP1 DUP4 KECCAK256 SWAP4 DUP4 MSTORE SWAP3 SWAP1 MSTORE KECCAK256 SLOAD PUSH1 0xFF AND SWAP1 JUMP JUMPDEST PUSH2 0x309 PUSH2 0x304 CALLDATASIZE PUSH1 0x4 PUSH2 0x11FD JUMP JUMPDEST PUSH2 0xAD2 JUMP JUMPDEST PUSH1 0x40 MLOAD PUSH2 0x165 SWAP2 SWAP1 PUSH2 0x1214 JUMP JUMPDEST PUSH2 0x15B PUSH1 0x4 SLOAD DUP2 JUMP JUMPDEST PUSH2 0x1AB PUSH2 0x32D CALLDATASIZE PUSH1 0x4 PUSH2 0xFB9 JUMP JUMPDEST PUSH2 0xD4C JUMP JUMPDEST PUSH1 0x3 SLOAD PUSH1 0x4 SLOAD PUSH1 0x40 DUP1 MLOAD SWAP3 DUP4 MSTORE PUSH1 0x20 DUP4 ADD SWAP2 SWAP1 SWAP2 MSTORE ADD PUSH2 0x165 JUMP JUMPDEST PUSH2 0x360 PUSH2 0x35B CALLDATASIZE PUSH1 0x4 PUSH2 0xFB9 JUMP JUMPDEST PUSH2 0xDEA JUMP JUMPDEST PUSH1 0x40 MLOAD PUSH2 0x165 SWAP2 SWAP1 PUSH2 0x1226 JUMP JUMPDEST PUSH1 0x6 SLOAD PUSH1 0x1 PUSH1 0x1 PUSH1 0xA0 SHL SUB AND CALLER EQ DUP1 PUSH2 0x390 JUMPI POP PUSH1 0x7 SLOAD PUSH1 0x1 PUSH1 0x1 PUSH1 0xA0 SHL SUB AND CALLER EQ JUMPDEST PUSH2 0x407 JUMPI PUSH1 0x40 MLOAD PUSH3 0x461BCD PUSH1 0xE5 SHL DUP2 MSTORE PUSH1 0x20 PUSH1 0x4 DUP3 ADD MSTORE PUSH1 0x2D PUSH1 0x24 DUP3 ADD MSTORE PUSH32 0x4F6E6C79206261646765206D696E746572206F72206F776E65722063616E206D PUSH1 0x44 DUP3 ADD MSTORE PUSH32 0x61726B206173206D696E74656400000000000000000000000000000000000000 PUSH1 0x64 DUP3 ADD MSTORE PUSH1 0x84 ADD JUMPDEST PUSH1 0x40 MLOAD DUP1 SWAP2 SUB SWAP1 REVERT JUMPDEST PUSH1 0x1 PUSH1 0x1 PUSH1 0xA0 SHL SUB DUP3 AND PUSH0 SWAP1 DUP2 MSTORE PUSH1 0x20 DUP2 SWAP1 MSTORE PUSH1 0x40 SWAP1 KECCAK256 SLOAD DUP2 LT PUSH2 0x46D JUMPI PUSH1 0x40 MLOAD PUSH3 0x461BCD PUSH1 0xE5 SHL DUP2 MSTORE PUSH1 0x20 PUSH1 0x4 DUP3 ADD MSTORE PUSH1 0x14 PUSH1 0x24 DUP3 ADD MSTORE PUSH32 0x496E76616C696420726573756C7420696E646578000000000000000000000000 PUSH1 0x44 DUP3 ADD MSTORE PUSH1 0x64 ADD PUSH2 0x3FE JUMP JUMPDEST PUSH1 0x1 PUSH1 0x1 PUSH1 0xA0 SHL SUB DUP3 AND PUSH0 SWAP1 DUP2 MSTORE PUSH1 0x20 DUP2 SWAP1 MSTORE PUSH1 0x40 SWAP1 KECCAK256 DUP1 SLOAD PUSH1 0x1 SWAP2 SWAP1 DUP4 SWAP1 DUP2 LT PUSH2 0x49A JUMPI PUSH2 0x49A PUSH2 0x1238 JUMP JUMPDEST PUSH0 SWAP2 DUP3 MSTORE PUSH1 0x20 SWAP1 SWAP2 KECCAK256 PUSH1 0x6 SWAP1 SWAP2 MUL ADD PUSH1 0x5 ADD DUP1 SLOAD PUSH1 0xFF NOT AND SWAP2 ISZERO ISZERO SWAP2 SWAP1 SWAP2 OR SWAP1 SSTORE POP POP JUMP JUMPDEST PUSH1 0x1 PUSH1 0x1 PUSH1 0xA0 SHL SUB DUP3 AND PUSH0 SWAP1 DUP2 MSTORE PUSH1 0x1 PUSH1 0x20 SWAP1 DUP2 MSTORE PUSH1 0x40 DUP1 DUP4 KECCAK256 DUP5 DUP5 MSTORE SWAP1 SWAP2 MSTORE SWAP1 KECCAK256 SLOAD JUMPDEST SWAP3 SWAP2 POP POP JUMP JUMPDEST PUSH0 PUSH1 0x20 MSTORE DUP2 PUSH0 MSTORE PUSH1 0x40 PUSH0 KECCAK256 DUP2 DUP2 SLOAD DUP2 LT PUSH2 0x501 JUMPI PUSH0 DUP1 REVERT JUMPDEST SWAP1 PUSH0 MSTORE PUSH1 0x20 PUSH0 KECCAK256 SWAP1 PUSH1 0x6 MUL ADD PUSH0 SWAP2 POP SWAP2 POP POP DUP1 PUSH0 ADD SLOAD SWAP1 DUP1 PUSH1 0x1 ADD SLOAD SWAP1 DUP1 PUSH1 0x2 ADD SLOAD SWAP1 DUP1 PUSH1 0x3 ADD SLOAD SWAP1 DUP1 PUSH1 0x4 ADD DUP1 SLOAD PUSH2 0x539 SWAP1 PUSH2 0x124C JUMP JUMPDEST DUP1 PUSH1 0x1F ADD PUSH1 0x20 DUP1 SWAP2 DIV MUL PUSH1 0x20 ADD PUSH1 0x40 MLOAD SWAP1 DUP2 ADD PUSH1 0x40 MSTORE DUP1 SWAP3 SWAP2 SWAP1 DUP2 DUP2 MSTORE PUSH1 0x20 ADD DUP3 DUP1 SLOAD PUSH2 0x565 SWAP1 PUSH2 0x124C JUMP JUMPDEST DUP1 ISZERO PUSH2 0x5B0 JUMPI DUP1 PUSH1 0x1F LT PUSH2 0x587 JUMPI PUSH2 0x100 DUP1 DUP4 SLOAD DIV MUL DUP4 MSTORE SWAP2 PUSH1 0x20 ADD SWAP2 PUSH2 0x5B0 JUMP JUMPDEST DUP3 ADD SWAP2 SWAP1 PUSH0 MSTORE PUSH1 0x20 PUSH0 KECCAK256 SWAP1 JUMPDEST DUP2 SLOAD DUP2 MSTORE SWAP1 PUSH1 0x1 ADD SWAP1 PUSH1 0x20 ADD DUP1 DUP4 GT PUSH2 0x593 JUMPI DUP3 SWAP1 SUB PUSH1 0x1F AND DUP3 ADD SWAP2 JUMPDEST POP POP POP PUSH1 0x5 SWAP1 SWAP4 ADD SLOAD SWAP2 SWAP3 POP POP PUSH1 0xFF AND DUP7 JUMP JUMPDEST PUSH1 0x1 PUSH1 0x1 PUSH1 0xA0 SHL SUB DUP2 AND PUSH0 SWAP1 DUP2 MSTORE PUSH1 0x20 DUP2 DUP2 MSTORE PUSH1 0x40 DUP1 DUP4 KECCAK256 DUP1 SLOAD DUP3 MLOAD DUP2 DUP6 MUL DUP2 ADD DUP6 ADD SWAP1 SWAP4 MSTORE DUP1 DUP4 MSTORE PUSH1 0x60 SWAP5 SWAP3 SWAP4 SWAP2 SWAP3 SWAP1 SWAP2 DUP5 ADD JUMPDEST DUP3 DUP3 LT ISZERO PUSH2 0x6F1 JUMPI DUP4 DUP3 SWAP1 PUSH0 MSTORE PUSH1 0x20 PUSH0 KECCAK256 SWAP1 PUSH1 0x6 MUL ADD PUSH1 0x40 MLOAD DUP1 PUSH1 0xC0 ADD PUSH1 0x40 MSTORE SWAP1 DUP2 PUSH0 DUP3 ADD SLOAD DUP2 MSTORE PUSH1 0x20 ADD PUSH1 0x1 DUP3 ADD SLOAD DUP2 MSTORE PUSH1 0x20 ADD PUSH1 0x2 DUP3 ADD SLOAD DUP2 MSTORE PUSH1 0x20 ADD PUSH1 0x3 DUP3 ADD SLOAD DUP2 MSTORE PUSH1 0x20 ADD PUSH1 0x4 DUP3 ADD DUP1 SLOAD PUSH2 0x650 SWAP1 PUSH2 0x124C JUMP JUMPDEST DUP1 PUSH1 0x1F ADD PUSH1 0x20 DUP1 SWAP2 DIV MUL PUSH1 0x20 ADD PUSH1 0x40 MLOAD SWAP1 DUP2 ADD PUSH1 0x40 MSTORE DUP1 SWAP3 SWAP2 SWAP1 DUP2 DUP2 MSTORE PUSH1 0x20 ADD DUP3 DUP1 SLOAD PUSH2 0x67C SWAP1 PUSH2 0x124C JUMP JUMPDEST DUP1 ISZERO PUSH2 0x6C7 JUMPI DUP1 PUSH1 0x1F LT PUSH2 0x69E JUMPI PUSH2 0x100 DUP1 DUP4 SLOAD DIV MUL DUP4 MSTORE SWAP2 PUSH1 0x20 ADD SWAP2 PUSH2 0x6C7 JUMP JUMPDEST DUP3 ADD SWAP2 SWAP1 PUSH0 MSTORE PUSH1 0x20 PUSH0 KECCAK256 SWAP1 JUMPDEST DUP2 SLOAD DUP2 MSTORE SWAP1 PUSH1 0x1 ADD SWAP1 PUSH1 0x20 ADD DUP1 DUP4 GT PUSH2 0x6AA JUMPI DUP3 SWAP1 SUB PUSH1 0x1F AND DUP3 ADD SWAP2 JUMPDEST POP POP POP SWAP2 DUP4 MSTORE POP POP PUSH1 0x5 SWAP2 SWAP1 SWAP2 ADD SLOAD PUSH1 0xFF AND ISZERO ISZERO PUSH1 0x20 SWAP2 DUP3 ADD MSTORE SWAP1 DUP3 MSTORE PUSH1 0x1 SWAP3 SWAP1 SWAP3 ADD SWAP2 ADD PUSH2 0x5F8 JUMP JUMPDEST POP POP POP POP SWAP1 POP SWAP2 SWAP1 POP JUMP JUMPDEST DUP2 DUP4 GT ISZERO PUSH2 0x758 JUMPI PUSH1 0x40 MLOAD PUSH3 0x461BCD PUSH1 0xE5 SHL DUP2 MSTORE PUSH1 0x20 PUSH1 0x4 DUP3 ADD MSTORE PUSH1 0x23 PUSH1 0x24 DUP3 ADD MSTORE PUSH32 0x53636F72652063616E6E6F742065786365656420746F74616C20717565737469 PUSH1 0x44 DUP3 ADD MSTORE PUSH3 0x6F6E73 PUSH1 0xE8 SHL PUSH1 0x64 DUP3 ADD MSTORE PUSH1 0x84 ADD PUSH2 0x3FE JUMP JUMPDEST PUSH0 DUP3 GT PUSH2 0x7CD JUMPI PUSH1 0x40 MLOAD PUSH3 0x461BCD PUSH1 0xE5 SHL DUP2 MSTORE PUSH1 0x20 PUSH1 0x4 DUP3 ADD MSTORE PUSH1 0x26 PUSH1 0x24 DUP3 ADD MSTORE PUSH32 0x546F74616C207175657374696F6E73206D757374206265206772656174657220 PUSH1 0x44 DUP3 ADD MSTORE PUSH32 0x7468616E20300000000000000000000000000000000000000000000000000000 PUSH1 0x64 DUP3 ADD MSTORE PUSH1 0x84 ADD PUSH2 0x3FE JUMP JUMPDEST CALLER PUSH0 SWAP1 DUP2 MSTORE PUSH1 0x5 PUSH1 0x20 MSTORE PUSH1 0x40 SWAP1 KECCAK256 SLOAD PUSH1 0xFF AND PUSH2 0x810 JUMPI CALLER PUSH0 SWAP1 DUP2 MSTORE PUSH1 0x5 PUSH1 0x20 MSTORE PUSH1 0x40 DUP2 KECCAK256 DUP1 SLOAD PUSH1 0xFF NOT AND PUSH1 0x1 OR SWAP1 SSTORE PUSH1 0x4 DUP1 SLOAD SWAP2 PUSH2 0x80A DUP4 PUSH2 0x1298 JUMP JUMPDEST SWAP2 SWAP1 POP SSTORE POP JUMPDEST CALLER PUSH0 DUP2 DUP2 MSTORE PUSH1 0x2 PUSH1 0x20 SWAP1 DUP2 MSTORE PUSH1 0x40 DUP1 DUP4 KECCAK256 DUP9 DUP5 MSTORE DUP3 MSTORE DUP1 DUP4 KECCAK256 DUP1 SLOAD PUSH1 0x1 PUSH1 0xFF NOT DUP3 AND DUP2 OR SWAP1 SWAP3 SSTORE SWAP5 DUP5 MSTORE DUP3 MSTORE DUP1 DUP4 KECCAK256 DUP9 DUP5 MSTORE SWAP1 SWAP2 MSTORE SWAP1 KECCAK256 SLOAD PUSH1 0xFF SWAP1 SWAP2 AND ISZERO SWAP1 DUP1 DUP6 GT DUP1 ISZERO PUSH2 0x8B6 JUMPI CALLER PUSH0 DUP2 DUP2 MSTORE PUSH1 0x1 PUSH1 0x20 SWAP1 DUP2 MSTORE PUSH1 0x40 DUP1 DUP4 KECCAK256 DUP12 DUP5 MSTORE SWAP1 SWAP2 MSTORE SWAP1 DUP2 SWAP1 KECCAK256 DUP9 SWAP1 SSTORE MLOAD DUP9 SWAP2 SWAP1 PUSH32 0x918FEE28C0515343B14FF4C58D50A188F3D297D4E09272DEDFE18DE1F059258 SWAP1 PUSH2 0x8AD SWAP1 DUP11 SWAP1 DUP8 SWAP1 DUP11 SWAP1 TIMESTAMP SWAP1 PUSH2 0x12B0 JUMP JUMPDEST PUSH1 0x40 MLOAD DUP1 SWAP2 SUB SWAP1 LOG3 JUMPDEST PUSH1 0x40 DUP1 MLOAD PUSH1 0xC0 DUP2 ADD DUP3 MSTORE DUP9 DUP2 MSTORE PUSH1 0x20 DUP1 DUP3 ADD DUP10 DUP2 MSTORE DUP3 DUP5 ADD DUP10 DUP2 MSTORE TIMESTAMP PUSH1 0x60 DUP6 ADD SWAP1 DUP2 MSTORE PUSH1 0x80 DUP6 ADD DUP11 DUP2 MSTORE PUSH0 PUSH1 0xA0 DUP8 ADD DUP2 SWAP1 MSTORE CALLER DUP2 MSTORE DUP1 DUP7 MSTORE SWAP7 DUP8 KECCAK256 DUP1 SLOAD PUSH1 0x1 DUP2 DUP2 ADD DUP4 SSTORE SWAP2 DUP10 MSTORE SWAP6 SWAP1 SWAP8 KECCAK256 DUP7 MLOAD PUSH1 0x6 SWAP1 SWAP7 MUL ADD SWAP5 DUP6 SSTORE SWAP3 MLOAD SWAP6 DUP5 ADD SWAP6 SWAP1 SWAP6 SSTORE MLOAD PUSH1 0x2 DUP4 ADD SSTORE SWAP3 MLOAD PUSH1 0x3 DUP3 ADD SSTORE SWAP2 MLOAD SWAP1 SWAP2 DUP3 SWAP2 PUSH1 0x4 DUP3 ADD SWAP1 PUSH2 0x937 SWAP1 DUP3 PUSH2 0x132B JUMP JUMPDEST POP PUSH1 0xA0 SWAP2 SWAP1 SWAP2 ADD MLOAD PUSH1 0x5 SWAP1 SWAP2 ADD DUP1 SLOAD PUSH1 0xFF NOT AND SWAP2 ISZERO ISZERO SWAP2 SWAP1 SWAP2 OR SWAP1 SSTORE PUSH1 0x3 DUP1 SLOAD SWAP1 PUSH0 PUSH2 0x962 DUP4 PUSH2 0x1298 JUMP JUMPDEST SWAP2 SWAP1 POP SSTORE POP DUP8 CALLER PUSH1 0x1 PUSH1 0x1 PUSH1 0xA0 SHL SUB AND PUSH32 0x11C4D0E2AF71B7DEF63B6E29D79AABEE401B6389D4A0617987425414319046FE DUP10 DUP10 DUP10 TIMESTAMP DUP9 PUSH1 0x40 MLOAD PUSH2 0x9A9 SWAP6 SWAP5 SWAP4 SWAP3 SWAP2 SWAP1 PUSH2 0x13EB JUMP JUMPDEST PUSH1 0x40 MLOAD DUP1 SWAP2 SUB SWAP1 LOG3 DUP8 CALLER PUSH1 0x1 PUSH1 0x1 PUSH1 0xA0 SHL SUB AND PUSH32 0x5FB39EE9995EFA7BCDB81E72CBD405112AB8D854CA6D8C0BDCF1EEDACD5EEAD9 DUP10 DUP9 DUP7 DUP10 TIMESTAMP PUSH1 0x40 MLOAD PUSH2 0x9F3 SWAP6 SWAP5 SWAP4 SWAP3 SWAP2 SWAP1 PUSH2 0x1422 JUMP JUMPDEST PUSH1 0x40 MLOAD DUP1 SWAP2 SUB SWAP1 LOG3 DUP8 CALLER PUSH1 0x1 PUSH1 0x1 PUSH1 0xA0 SHL SUB AND PUSH32 0x1081541882782845A3064E40756BC59C16F4D35CA1BDF3DFFF024083A6C130F3 DUP10 DUP10 DUP10 DUP8 DUP11 TIMESTAMP PUSH1 0x40 MLOAD PUSH2 0xA3F SWAP7 SWAP6 SWAP5 SWAP4 SWAP3 SWAP2 SWAP1 PUSH2 0x1457 JUMP JUMPDEST PUSH1 0x40 MLOAD DUP1 SWAP2 SUB SWAP1 LOG3 DUP6 DUP8 SUB PUSH2 0xAC8 JUMPI DUP8 CALLER PUSH1 0x1 PUSH1 0x1 PUSH1 0xA0 SHL SUB AND PUSH32 0xF1707C7149F55E5B139CEF4599C6F836B0159CB5D8175099D58D40E68868F954 TIMESTAMP PUSH1 0x40 MLOAD PUSH2 0xABF SWAP2 DUP2 MSTORE PUSH1 0x40 PUSH1 0x20 DUP3 ADD DUP2 SWAP1 MSTORE PUSH1 0x1B SWAP1 DUP3 ADD MSTORE PUSH32 0x506572666563742053636F7265204469616D6F6E642042616467650000000000 PUSH1 0x60 DUP3 ADD MSTORE PUSH1 0x80 ADD SWAP1 JUMP JUMPDEST PUSH1 0x40 MLOAD DUP1 SWAP2 SUB SWAP1 LOG3 JUMPDEST POP POP POP POP POP POP POP POP JUMP JUMPDEST PUSH1 0x60 PUSH1 0xA DUP3 LT PUSH2 0xB15 JUMPI POP POP PUSH1 0x40 DUP1 MLOAD DUP1 DUP3 ADD SWAP1 SWAP2 MSTORE PUSH1 0xD DUP2 MSTORE PUSH32 0x506572666563742053636F726500000000000000000000000000000000000000 PUSH1 0x20 DUP3 ADD MSTORE SWAP1 JUMP JUMPDEST PUSH1 0x9 DUP3 LT PUSH2 0xB56 JUMPI POP POP PUSH1 0x40 DUP1 MLOAD DUP1 DUP3 ADD SWAP1 SWAP2 MSTORE PUSH1 0x9 DUP2 MSTORE PUSH32 0x457863656C6C656E740000000000000000000000000000000000000000000000 PUSH1 0x20 DUP3 ADD MSTORE SWAP1 JUMP JUMPDEST PUSH1 0x8 DUP3 LT PUSH2 0xB97 JUMPI POP POP PUSH1 0x40 DUP1 MLOAD DUP1 DUP3 ADD SWAP1 SWAP2 MSTORE PUSH1 0x5 DUP2 MSTORE PUSH32 0x4772656174000000000000000000000000000000000000000000000000000000 PUSH1 0x20 DUP3 ADD MSTORE SWAP1 JUMP JUMPDEST PUSH1 0x7 DUP3 LT PUSH2 0xBBF JUMPI POP POP PUSH1 0x40 DUP1 MLOAD DUP1 DUP3 ADD SWAP1 SWAP2 MSTORE PUSH1 0x4 DUP2 MSTORE PUSH4 0x11DBDBD9 PUSH1 0xE2 SHL PUSH1 0x20 DUP3 ADD MSTORE SWAP1 JUMP JUMPDEST PUSH1 0x6 DUP3 LT PUSH2 0xC00 JUMPI POP POP PUSH1 0x40 DUP1 MLOAD DUP1 DUP3 ADD SWAP1 SWAP2 MSTORE PUSH1 0xD DUP2 MSTORE PUSH32 0x41626F7665204176657261676500000000000000000000000000000000000000 PUSH1 0x20 DUP3 ADD MSTORE SWAP1 JUMP JUMPDEST PUSH1 0x5 DUP3 LT PUSH2 0xC41 JUMPI POP POP PUSH1 0x40 DUP1 MLOAD DUP1 DUP3 ADD SWAP1 SWAP2 MSTORE PUSH1 0x7 DUP2 MSTORE PUSH32 0x4176657261676500000000000000000000000000000000000000000000000000 PUSH1 0x20 DUP3 ADD MSTORE SWAP1 JUMP JUMPDEST PUSH1 0x4 DUP3 LT PUSH2 0xC69 JUMPI POP POP PUSH1 0x40 DUP1 MLOAD DUP1 DUP3 ADD SWAP1 SWAP2 MSTORE PUSH1 0x4 DUP2 MSTORE PUSH4 0x2330B4B9 PUSH1 0xE1 SHL PUSH1 0x20 DUP3 ADD MSTORE SWAP1 JUMP JUMPDEST PUSH1 0x3 DUP3 LT PUSH2 0xCAA JUMPI POP POP PUSH1 0x40 DUP1 MLOAD DUP1 DUP3 ADD SWAP1 SWAP2 MSTORE PUSH1 0xD DUP2 MSTORE PUSH32 0x42656C6F77204176657261676500000000000000000000000000000000000000 PUSH1 0x20 DUP3 ADD MSTORE SWAP1 JUMP JUMPDEST PUSH1 0x2 DUP3 LT PUSH2 0xCD2 JUMPI POP POP PUSH1 0x40 DUP1 MLOAD DUP1 DUP3 ADD SWAP1 SWAP2 MSTORE PUSH1 0x4 DUP2 MSTORE PUSH4 0x2837B7B9 PUSH1 0xE1 SHL PUSH1 0x20 DUP3 ADD MSTORE SWAP1 JUMP JUMPDEST PUSH1 0x1 DUP3 LT PUSH2 0xD13 JUMPI POP POP PUSH1 0x40 DUP1 MLOAD DUP1 DUP3 ADD SWAP1 SWAP2 MSTORE PUSH1 0x5 DUP2 MSTORE PUSH32 0x4261736963000000000000000000000000000000000000000000000000000000 PUSH1 0x20 DUP3 ADD MSTORE SWAP1 JUMP JUMPDEST POP POP PUSH1 0x40 DUP1 MLOAD DUP1 DUP3 ADD SWAP1 SWAP2 MSTORE PUSH1 0xE DUP2 MSTORE PUSH32 0x4E6F20416368696576656D656E74000000000000000000000000000000000000 PUSH1 0x20 DUP3 ADD MSTORE SWAP1 JUMP JUMPDEST PUSH1 0x7 SLOAD PUSH1 0x1 PUSH1 0x1 PUSH1 0xA0 SHL SUB AND CALLER EQ PUSH2 0xDB0 JUMPI PUSH1 0x40 MLOAD PUSH3 0x461BCD PUSH1 0xE5 SHL DUP2 MSTORE PUSH1 0x20 PUSH1 0x4 DUP3 ADD MSTORE PUSH1 0x21 PUSH1 0x24 DUP3 ADD MSTORE PUSH32 0x4F6E6C79206F776E65722063616E2063616C6C20746869732066756E6374696F PUSH1 0x44 DUP3 ADD MSTORE PUSH1 0x37 PUSH1 0xF9 SHL PUSH1 0x64 DUP3 ADD MSTORE PUSH1 0x84 ADD PUSH2 0x3FE JUMP JUMPDEST PUSH1 0x6 DUP1 SLOAD PUSH32 0xFFFFFFFFFFFFFFFFFFFFFFFF0000000000000000000000000000000000000000 AND PUSH1 0x1 PUSH1 0x1 PUSH1 0xA0 SHL SUB SWAP3 SWAP1 SWAP3 AND SWAP2 SWAP1 SWAP2 OR SWAP1 SSTORE JUMP JUMPDEST PUSH2 0xE20 PUSH1 0x40 MLOAD DUP1 PUSH1 0xC0 ADD PUSH1 0x40 MSTORE DUP1 PUSH0 DUP2 MSTORE PUSH1 0x20 ADD PUSH0 DUP2 MSTORE PUSH1 0x20 ADD PUSH0 DUP2 MSTORE PUSH1 0x20 ADD PUSH0 DUP2 MSTORE PUSH1 0x20 ADD PUSH1 0x60 DUP2 MSTORE PUSH1 0x20 ADD PUSH0 ISZERO ISZERO DUP2 MSTORE POP SWAP1 JUMP JUMPDEST PUSH1 0x1 PUSH1 0x1 PUSH1 0xA0 SHL SUB DUP3 AND PUSH0 SWAP1 DUP2 MSTORE PUSH1 0x20 DUP2 SWAP1 MSTORE PUSH1 0x40 SWAP1 KECCAK256 SLOAD PUSH2 0xE84 JUMPI PUSH1 0x40 MLOAD PUSH3 0x461BCD PUSH1 0xE5 SHL DUP2 MSTORE PUSH1 0x20 PUSH1 0x4 DUP3 ADD MSTORE PUSH1 0x15 PUSH1 0x24 DUP3 ADD MSTORE PUSH32 0x4E6F207175697A20726573756C747320666F756E640000000000000000000000 PUSH1 0x44 DUP3 ADD MSTORE PUSH1 0x64 ADD PUSH2 0x3FE JUMP JUMPDEST PUSH1 0x1 PUSH1 0x1 PUSH1 0xA0 SHL SUB DUP3 AND PUSH0 SWAP1 DUP2 MSTORE PUSH1 0x20 DUP2 SWAP1 MSTORE PUSH1 0x40 SWAP1 KECCAK256 DUP1 SLOAD PUSH2 0xEA9 SWAP1 PUSH1 0x1 SWAP1 PUSH2 0x1493 JUMP JUMPDEST DUP2 SLOAD DUP2 LT PUSH2 0xEB9 JUMPI PUSH2 0xEB9 PUSH2 0x1238 JUMP JUMPDEST SWAP1 PUSH0 MSTORE PUSH1 0x20 PUSH0 KECCAK256 SWAP1 PUSH1 0x6 MUL ADD PUSH1 0x40 MLOAD DUP1 PUSH1 0xC0 ADD PUSH1 0x40 MSTORE SWAP1 DUP2 PUSH0 DUP3 ADD SLOAD DUP2 MSTORE PUSH1 0x20 ADD PUSH1 0x1 DUP3 ADD SLOAD DUP2 MSTORE PUSH1 0x20 ADD PUSH1 0x2 DUP3 ADD SLOAD DUP2 MSTORE PUSH1 0x20 ADD PUSH1 0x3 DUP3 ADD SLOAD DUP2 MSTORE PUSH1 0x20 ADD PUSH1 0x4 DUP3 ADD DUP1 SLOAD PUSH2 0xF07 SWAP1 PUSH2 0x124C JUMP JUMPDEST DUP1 PUSH1 0x1F ADD PUSH1 0x20 DUP1 SWAP2 DIV MUL PUSH1 0x20 ADD PUSH1 0x40 MLOAD SWAP1 DUP2 ADD PUSH1 0x40 MSTORE DUP1 SWAP3 SWAP2 SWAP1 DUP2 DUP2 MSTORE PUSH1 0x20 ADD DUP3 DUP1 SLOAD PUSH2 0xF33 SWAP1 PUSH2 0x124C JUMP JUMPDEST DUP1 ISZERO PUSH2 0xF7E JUMPI DUP1 PUSH1 0x1F LT PUSH2 0xF55 JUMPI PUSH2 0x100 DUP1 DUP4 SLOAD DIV MUL DUP4 MSTORE SWAP2 PUSH1 0x20 ADD SWAP2 PUSH2 0xF7E JUMP JUMPDEST DUP3 ADD SWAP2 SWAP1 PUSH0 MSTORE PUSH1 0x20 PUSH0 KECCAK256 SWAP1 JUMPDEST DUP2 SLOAD DUP2 MSTORE SWAP1 PUSH1 0x1 ADD SWAP1 PUSH1 0x20 ADD DUP1 DUP4 GT PUSH2 0xF61 JUMPI DUP3 SWAP1 SUB PUSH1 0x1F AND DUP3 ADD SWAP2 JUMPDEST POP POP POP SWAP2 DUP4 MSTORE POP POP PUSH1 0x5 SWAP2 SWAP1 SWAP2 ADD SLOAD PUSH1 0xFF AND ISZERO ISZERO PUSH1 0x20 SWAP1 SWAP2 ADD MSTORE SWAP3 SWAP2 POP POP JUMP JUMPDEST DUP1 CALLDATALOAD PUSH1 0x1 PUSH1 0x1 PUSH1 0xA0 SHL SUB DUP2 AND DUP2 EQ PUSH2 0xFB4 JUMPI PUSH0 DUP1 REVERT JUMPDEST SWAP2 SWAP1 POP JUMP JUMPDEST PUSH0 PUSH1 0x20 DUP3 DUP5 SUB SLT ISZERO PUSH2 0xFC9 JUMPI PUSH0 DUP1 REVERT JUMPDEST PUSH2 0xFD2 DUP3 PUSH2 0xF9E JUMP JUMPDEST SWAP4 SWAP3 POP POP POP JUMP JUMPDEST PUSH0 DUP1 PUSH1 0x40 DUP4 DUP6 SUB SLT ISZERO PUSH2 0xFEA JUMPI PUSH0 DUP1 REVERT JUMPDEST PUSH2 0xFF3 DUP4 PUSH2 0xF9E JUMP JUMPDEST SWAP5 PUSH1 0x20 SWAP4 SWAP1 SWAP4 ADD CALLDATALOAD SWAP4 POP POP POP JUMP JUMPDEST PUSH0 DUP2 MLOAD DUP1 DUP5 MSTORE DUP1 PUSH1 0x20 DUP5 ADD PUSH1 0x20 DUP7 ADD MCOPY PUSH0 PUSH1 0x20 DUP3 DUP7 ADD ADD MSTORE PUSH1 0x20 PUSH1 0x1F NOT PUSH1 0x1F DUP4 ADD AND DUP6 ADD ADD SWAP2 POP POP SWAP3 SWAP2 POP POP JUMP JUMPDEST DUP7 DUP2 MSTORE DUP6 PUSH1 0x20 DUP3 ADD MSTORE DUP5 PUSH1 0x40 DUP3 ADD MSTORE DUP4 PUSH1 0x60 DUP3 ADD MSTORE PUSH1 0xC0 PUSH1 0x80 DUP3 ADD MSTORE PUSH0 PUSH2 0x1059 PUSH1 0xC0 DUP4 ADD DUP6 PUSH2 0x1001 JUMP JUMPDEST SWAP1 POP DUP3 ISZERO ISZERO PUSH1 0xA0 DUP4 ADD MSTORE SWAP8 SWAP7 POP POP POP POP POP POP POP JUMP JUMPDEST DUP1 MLOAD DUP3 MSTORE PUSH1 0x20 DUP2 ADD MLOAD PUSH1 0x20 DUP4 ADD MSTORE PUSH1 0x40 DUP2 ADD MLOAD PUSH1 0x40 DUP4 ADD MSTORE PUSH1 0x60 DUP2 ADD MLOAD PUSH1 0x60 DUP4 ADD MSTORE PUSH0 PUSH1 0x80 DUP3 ADD MLOAD PUSH1 0xC0 PUSH1 0x80 DUP6 ADD MSTORE PUSH2 0x10AA PUSH1 0xC0 DUP6 ADD DUP3 PUSH2 0x1001 JUMP JUMPDEST PUSH1 0xA0 SWAP4 DUP5 ADD MLOAD ISZERO ISZERO SWAP5 SWAP1 SWAP4 ADD SWAP4 SWAP1 SWAP4 MSTORE POP SWAP2 SWAP1 POP JUMP JUMPDEST PUSH0 PUSH1 0x20 DUP1 DUP4 ADD PUSH1 0x20 DUP5 MSTORE DUP1 DUP6 MLOAD DUP1 DUP4 MSTORE PUSH1 0x40 DUP7 ADD SWAP2 POP PUSH1 0x40 DUP2 PUSH1 0x5 SHL DUP8 ADD ADD SWAP3 POP PUSH1 0x20 DUP8 ADD PUSH0 JUMPDEST DUP3 DUP2 LT ISZERO PUSH2 0x1115 JUMPI PUSH1 0x3F NOT DUP9 DUP7 SUB ADD DUP5 MSTORE PUSH2 0x1103 DUP6 DUP4 MLOAD PUSH2 0x106E JUMP JUMPDEST SWAP5 POP SWAP3 DUP6 ADD SWAP3 SWAP1 DUP6 ADD SWAP1 PUSH1 0x1 ADD PUSH2 0x10E7 JUMP JUMPDEST POP SWAP3 SWAP8 SWAP7 POP POP POP POP POP POP POP JUMP JUMPDEST PUSH4 0x4E487B71 PUSH1 0xE0 SHL PUSH0 MSTORE PUSH1 0x41 PUSH1 0x4 MSTORE PUSH1 0x24 PUSH0 REVERT JUMPDEST PUSH0 DUP1 PUSH0 DUP1 PUSH1 0x80 DUP6 DUP8 SUB SLT ISZERO PUSH2 0x1149 JUMPI PUSH0 DUP1 REVERT JUMPDEST DUP5 CALLDATALOAD SWAP4 POP PUSH1 0x20 DUP6 ADD CALLDATALOAD SWAP3 POP PUSH1 0x40 DUP6 ADD CALLDATALOAD SWAP2 POP PUSH1 0x60 DUP6 ADD CALLDATALOAD PUSH8 0xFFFFFFFFFFFFFFFF DUP1 DUP3 GT ISZERO PUSH2 0x1175 JUMPI PUSH0 DUP1 REVERT JUMPDEST DUP2 DUP8 ADD SWAP2 POP DUP8 PUSH1 0x1F DUP4 ADD SLT PUSH2 0x1188 JUMPI PUSH0 DUP1 REVERT JUMPDEST DUP2 CALLDATALOAD DUP2 DUP2 GT ISZERO PUSH2 0x119A JUMPI PUSH2 0x119A PUSH2 0x1122 JUMP JUMPDEST PUSH1 0x40 MLOAD PUSH1 0x1F DUP3 ADD PUSH1 0x1F NOT SWAP1 DUP2 AND PUSH1 0x3F ADD AND DUP2 ADD SWAP1 DUP4 DUP3 GT DUP2 DUP4 LT OR ISZERO PUSH2 0x11C2 JUMPI PUSH2 0x11C2 PUSH2 0x1122 JUMP JUMPDEST DUP2 PUSH1 0x40 MSTORE DUP3 DUP2 MSTORE DUP11 PUSH1 0x20 DUP5 DUP8 ADD ADD GT ISZERO PUSH2 0x11DA JUMPI PUSH0 DUP1 REVERT JUMPDEST DUP3 PUSH1 0x20 DUP7 ADD PUSH1 0x20 DUP4 ADD CALLDATACOPY PUSH0 PUSH1 0x20 DUP5 DUP4 ADD ADD MSTORE DUP1 SWAP6 POP POP POP POP POP POP SWAP3 SWAP6 SWAP2 SWAP5 POP SWAP3 POP JUMP JUMPDEST PUSH0 PUSH1 0x20 DUP3 DUP5 SUB SLT ISZERO PUSH2 0x120D JUMPI PUSH0 DUP1 REVERT JUMPDEST POP CALLDATALOAD SWAP2 SWAP1 POP JUMP JUMPDEST PUSH1 0x20 DUP2 MSTORE PUSH0 PUSH2 0xFD2 PUSH1 0x20 DUP4 ADD DUP5 PUSH2 0x1001 JUMP JUMPDEST PUSH1 0x20 DUP2 MSTORE PUSH0 PUSH2 0xFD2 PUSH1 0x20 DUP4 ADD DUP5 PUSH2 0x106E JUMP JUMPDEST PUSH4 0x4E487B71 PUSH1 0xE0 SHL PUSH0 MSTORE PUSH1 0x32 PUSH1 0x4 MSTORE PUSH1 0x24 PUSH0 REVERT JUMPDEST PUSH1 0x1 DUP2 DUP2 SHR SWAP1 DUP3 AND DUP1 PUSH2 0x1260 JUMPI PUSH1 0x7F DUP3 AND SWAP2 POP JUMPDEST PUSH1 0x20 DUP3 LT DUP2 SUB PUSH2 0x127E JUMPI PUSH4 0x4E487B71 PUSH1 0xE0 SHL PUSH0 MSTORE PUSH1 0x22 PUSH1 0x4 MSTORE PUSH1 0x24 PUSH0 REVERT JUMPDEST POP SWAP2 SWAP1 POP JUMP JUMPDEST PUSH4 0x4E487B71 PUSH1 0xE0 SHL PUSH0 MSTORE PUSH1 0x11 PUSH1 0x4 MSTORE PUSH1 0x24 PUSH0 REVERT JUMPDEST PUSH0 PUSH1 0x1 DUP3 ADD PUSH2 0x12A9 JUMPI PUSH2 0x12A9 PUSH2 0x1284 JUMP JUMPDEST POP PUSH1 0x1 ADD SWAP1 JUMP JUMPDEST DUP5 DUP2 MSTORE DUP4 PUSH1 0x20 DUP3 ADD MSTORE PUSH1 0x80 PUSH1 0x40 DUP3 ADD MSTORE PUSH0 PUSH2 0x12CE PUSH1 0x80 DUP4 ADD DUP6 PUSH2 0x1001 JUMP JUMPDEST SWAP1 POP DUP3 PUSH1 0x60 DUP4 ADD MSTORE SWAP6 SWAP5 POP POP POP POP POP JUMP JUMPDEST PUSH1 0x1F DUP3 GT ISZERO PUSH2 0x1326 JUMPI DUP1 PUSH0 MSTORE PUSH1 0x20 PUSH0 KECCAK256 PUSH1 0x1F DUP5 ADD PUSH1 0x5 SHR DUP2 ADD PUSH1 0x20 DUP6 LT ISZERO PUSH2 0x1304 JUMPI POP DUP1 JUMPDEST PUSH1 0x1F DUP5 ADD PUSH1 0x5 SHR DUP3 ADD SWAP2 POP JUMPDEST DUP2 DUP2 LT ISZERO PUSH2 0x1323 JUMPI PUSH0 DUP2 SSTORE PUSH1 0x1 ADD PUSH2 0x1310 JUMP JUMPDEST POP POP JUMPDEST POP POP POP JUMP JUMPDEST DUP2 MLOAD PUSH8 0xFFFFFFFFFFFFFFFF DUP2 GT ISZERO PUSH2 0x1345 JUMPI PUSH2 0x1345 PUSH2 0x1122 JUMP JUMPDEST PUSH2 0x1359 DUP2 PUSH2 0x1353 DUP5 SLOAD PUSH2 0x124C JUMP JUMPDEST DUP5 PUSH2 0x12DF JUMP JUMPDEST PUSH1 0x20 DUP1 PUSH1 0x1F DUP4 GT PUSH1 0x1 DUP2 EQ PUSH2 0x138C JUMPI PUSH0 DUP5 ISZERO PUSH2 0x1375 JUMPI POP DUP6 DUP4 ADD MLOAD JUMPDEST PUSH0 NOT PUSH1 0x3 DUP7 SWAP1 SHL SHR NOT AND PUSH1 0x1 DUP6 SWAP1 SHL OR DUP6 SSTORE PUSH2 0x13E3 JUMP JUMPDEST PUSH0 DUP6 DUP2 MSTORE PUSH1 0x20 DUP2 KECCAK256 PUSH1 0x1F NOT DUP7 AND SWAP2 JUMPDEST DUP3 DUP2 LT ISZERO PUSH2 0x13BA JUMPI DUP9 DUP7 ADD MLOAD DUP3 SSTORE SWAP5 DUP5 ADD SWAP5 PUSH1 0x1 SWAP1 SWAP2 ADD SWAP1 DUP5 ADD PUSH2 0x139B JUMP JUMPDEST POP DUP6 DUP3 LT ISZERO PUSH2 0x13D7 JUMPI DUP8 DUP6 ADD MLOAD PUSH0 NOT PUSH1 0x3 DUP9 SWAP1 SHL PUSH1 0xF8 AND SHR NOT AND DUP2 SSTORE JUMPDEST POP POP PUSH1 0x1 DUP5 PUSH1 0x1 SHL ADD DUP6 SSTORE JUMPDEST POP POP POP POP POP POP JUMP JUMPDEST DUP6 DUP2 MSTORE DUP5 PUSH1 0x20 DUP3 ADD MSTORE PUSH1 0xA0 PUSH1 0x40 DUP3 ADD MSTORE PUSH0 PUSH2 0x1409 PUSH1 0xA0 DUP4 ADD DUP7 PUSH2 0x1001 JUMP JUMPDEST PUSH1 0x60 DUP4 ADD SWAP5 SWAP1 SWAP5 MSTORE POP SWAP1 ISZERO ISZERO PUSH1 0x80 SWAP1 SWAP2 ADD MSTORE SWAP4 SWAP3 POP POP POP JUMP JUMPDEST DUP6 DUP2 MSTORE PUSH1 0xA0 PUSH1 0x20 DUP3 ADD MSTORE PUSH0 PUSH2 0x143A PUSH1 0xA0 DUP4 ADD DUP8 PUSH2 0x1001 JUMP JUMPDEST SWAP5 ISZERO ISZERO PUSH1 0x40 DUP4 ADD MSTORE POP SWAP2 ISZERO ISZERO PUSH1 0x60 DUP4 ADD MSTORE PUSH1 0x80 SWAP1 SWAP2 ADD MSTORE SWAP3 SWAP2 POP POP JUMP JUMPDEST DUP7 DUP2 MSTORE DUP6 PUSH1 0x20 DUP3 ADD MSTORE PUSH1 0xC0 PUSH1 0x40 DUP3 ADD MSTORE PUSH0 PUSH2 0x1475 PUSH1 0xC0 DUP4 ADD DUP8 PUSH2 0x1001 JUMP JUMPDEST SWAP5 ISZERO ISZERO PUSH1 0x60 DUP4 ADD MSTORE POP SWAP2 ISZERO ISZERO PUSH1 0x80 DUP4 ADD MSTORE PUSH1 0xA0 SWAP1 SWAP2 ADD MSTORE SWAP4 SWAP3 POP POP POP JUMP JUMPDEST DUP2 DUP2 SUB DUP2 DUP2 GT ISZERO PUSH2 0x4E3 JUMPI PUSH2 0x4E3 PUSH2 0x1284 JUMP INVALID LOG2 PUSH5 0x6970667358 0x22 SLT KECCAK256 0xE9 0xCD 0xD3 PUSH8 0x36E08835813E7B0F POP PUSH8 0x8D4710B358B5AB49 SWAP3 PUSH31 0xEEE86000A3F7CE8164736F6C63430008190033000000000000000000000000 "
    },
    "gasEstimates": {
      "creation": {
        "codeDepositCost": "1068000",
        "executionCost": "25340",
        "totalCost": "1093340"
      },
      "external": {
        "badgeMinterContract()": "2381",
        "getBadgeLevelForScore(uint256)": "infinite",
        "getContractStats()": "4472",
        "getLatestQuizResult(address)": "infinite",
        "getUserBestScore(address,uint256)": "2729",
        "getUserQuizCount(address)": "2550",
        "getUserQuizResults(address)": "infinite",
        "hasPlayedQuiz(address)": "2573",
        "hasUserAttemptedQuiz(address,uint256)": "2688",
        "hasUserPlayedQuiz(address,uint256)": "2734",
        "markBadgeAsMinted(address,uint256)": "33435",
        "owner()": "2403",
        "setBadgeMinterContract(address)": "26738",
        "submitQuizResult(uint256,uint256,uint256,string)": "infinite",
        "totalQuizzesTaken()": "2329",
        "totalUsers()": "2350",
        "userBestScores(address,uint256)": "2644",
        "userQuizResults(address,uint256)": "infinite"
      }
    },
    "methodIdentifiers": {
      "badgeMinterContract()": "8cfea35d",
      "getBadgeLevelForScore(uint256)": "b03cffd1",
      "getContractStats()": "dfe6b5d6",
      "getLatestQuizResult(address)": "fc4f59b9",
      "getUserBestScore(address,uint256)": "446aeb7e",
      "getUserQuizCount(address)": "2cc71fc1",
      "getUserQuizResults(address)": "88a3c332",
      "hasPlayedQuiz(address)": "69074273",
      "hasUserAttemptedQuiz(address,uint256)": "706f0436",
      "hasUserPlayedQuiz(address,uint256)": "9af909b5",
      "markBadgeAsMinted(address,uint256)": "3d15d682",
      "owner()": "8da5cb5b",
      "setBadgeMinterContract(address)": "c64251b9",
      "submitQuizResult(uint256,uint256,uint256,string)": "8a7675b7",
      "totalQuizzesTaken()": "4d1052fb",
      "totalUsers()": "bff1f9e1",
      "userBestScores(address,uint256)": "36249916",
      "userQuizResults(address,uint256)": "52173b39"
    }
  },
  "storageLayout": {
    "storage": [
      {
        "astId": 36,
        "contract": "QuizProgress.sol:QuizProgress",
        "label": "userQuizResults",
        "offset": 0,
        "slot": "0",
        "type": "t_mapping(t_address,t_array(t_struct(QuizResult)30_storage)dyn_storage)"
      },
      {
        "astId": 42,
        "contract": "QuizProgress.sol:QuizProgress",
        "label": "userBestScores",
        "offset": 0,
        "slot": "1",
        "type": "t_mapping(t_address,t_mapping(t_uint256,t_uint256))"
      },
      {
        "astId": 48,
        "contract": "QuizProgress.sol:QuizProgress",
        "label": "hasUserAttemptedQuiz",
        "offset": 0,
        "slot": "2",
        "type": "t_mapping(t_address,t_mapping(t_uint256,t_bool))"
      },
      {
        "astId": 50,
        "contract": "QuizProgress.sol:QuizProgress",
        "label": "totalQuizzesTaken",
        "offset": 0,
        "slot": "3",
        "type": "t_uint256"
      },
      {
        "astId": 52,
        "contract": "QuizProgress.sol:QuizProgress",
        "label": "totalUsers",
        "offset": 0,
        "slot": "4",
        "type": "t_uint256"
      },
      {
        "astId": 56,
        "contract": "QuizProgress.sol:QuizProgress",
        "label": "hasPlayedQuiz",
        "offset": 0,
        "slot": "5",
        "type": "t_mapping(t_address,t_bool)"
      },
      {
        "astId": 58,
        "contract": "QuizProgress.sol:QuizProgress",
        "label": "badgeMinterContract",
        "offset": 0,
        "slot": "6",
        "type": "t_address"
      },
      {
        "astId": 60,
        "contract": "QuizProgress.sol:QuizProgress",
        "label": "owner",
        "offset": 0,
        "slot": "7",
        "type": "t_address"
      }
    ],
    "types": {
      "t_address": {
        "encoding": "inplace",
        "label": "address",
        "numberOfBytes": "20"
      },
      "t_array(t_struct(QuizResult)30_storage)dyn_storage": {
        "base": "t_struct(QuizResult)30_storage",
        "encoding": "dynamic_array",
        "label": "struct QuizProgress.QuizResult[]",
        "numberOfBytes": "32"
      },
      "t_bool": {
        "encoding": "inplace",
        "label": "bool",
        "numberOfBytes": "1"
      },
      "t_mapping(t_address,t_array(t_struct(QuizResult)30_storage)dyn_storage)": {
        "encoding": "mapping",
        "key": "t_address",
        "label": "mapping(address => struct QuizProgress.QuizResult[])",
        "numberOfBytes": "32",
        "value": "t_array(t_struct(QuizResult)30_storage)dyn_storage"
      },
      "t_mapping(t_address,t_bool)": {
        "encoding": "mapping",
        "key": "t_address",
        "label": "mapping(address => bool)",
        "numberOfBytes": "32",
        "value": "t_bool"
      },
      "t_mapping(t_address,t_mapping(t_uint256,t_bool))": {
        "encoding": "mapping",
        "key": "t_address",
        "label": "mapping(address => mapping(uint256 => bool))",
        "numberOfBytes": "32",
        "value": "t_mapping(t_uint256,t_bool)"
      },
      "t_mapping(t_address,t_mapping(t_uint256,t_uint256))": {
        "encoding": "mapping",
        "key": "t_address",
        "label": "mapping(address => mapping(uint256 => uint256))",
        "numberOfBytes": "32",
        "value": "t_mapping(t_uint256,t_uint256)"
      },
      "t_mapping(t_uint256,t_bool)": {
        "encoding": "mapping",
        "key": "t_uint256",
        "label": "mapping(uint256 => bool)",
        "numberOfBytes": "32",
        "value": "t_bool"
      },
      "t_mapping(t_uint256,t_uint256)": {
        "encoding": "mapping",
        "key": "t_uint256",
        "label": "mapping(uint256 => uint256)",
        "numberOfBytes": "32",
        "value": "t_uint256"
      },
      "t_string_storage": {
        "encoding": "bytes",
        "label": "string",
        "numberOfBytes": "32"
      },
      "t_struct(QuizResult)30_storage": {
        "encoding": "inplace",
        "label": "struct QuizProgress.QuizResult",
        "members": [
          {
            "astId": 19,
            "contract": "QuizProgress.sol:QuizProgress",
            "label": "quizId",
            "offset": 0,
            "slot": "0",
            "type": "t_uint256"
          },
          {
            "astId": 21,
            "contract": "QuizProgress.sol:QuizProgress",
            "label": "score",
            "offset": 0,
            "slot": "1",
            "type": "t_uint256"
          },
          {
            "astId": 23,
            "contract": "QuizProgress.sol:QuizProgress",
            "label": "totalQuestions",
            "offset": 0,
            "slot": "2",
            "type": "t_uint256"
          },
          {
            "astId": 25,
            "contract": "QuizProgress.sol:QuizProgress",
            "label": "timestamp",
            "offset": 0,
            "slot": "3",
            "type": "t_uint256"
          },
          {
            "astId": 27,
            "contract": "QuizProgress.sol:QuizProgress",
            "label": "badgeLevel",
            "offset": 0,
            "slot": "4",
            "type": "t_string_storage"
          },
          {
            "astId": 29,
            "contract": "QuizProgress.sol:QuizProgress",
            "label": "badgeMinted",
            "offset": 0,
            "slot": "5",
            "type": "t_bool"
          }
        ],
        "numberOfBytes": "192"
      },
      "t_uint256": {
        "encoding": "inplace",
        "label": "uint256",
        "numberOfBytes": "32"
      }
    }
  },
  "userdoc": {
    "kind": "user",
    "methods": {},
    "version": 1
  }
}