{
  "abi": [
    {
      "inputs": [],
      "stateMutability": "nonpayable",
      "type": "constructor"
    },
    {
      "anonymous": false,
      "inputs": [
        {
          "indexed": true,
          "internalType": "address",
          "name": "to",
          "type": "address"
        },
        {
          "indexed": true,
          "internalType": "uint256",
          "name": "tokenId",
          "type": "uint256"
        },
        {
          "indexed": true,
          "internalType": "uint256",
          "name": "quizId",
          "type": "uint256"
        },
        {
          "indexed": false,
          "internalType": "uint256",
          "name": "score",
          "type": "uint256"
        },
        {
          "indexed": false,
          "internalType": "string",
          "name": "badgeLevel",
          "type": "string"
        },
        {
          "indexed": false,
          "internalType": "bool",
          "name": "isHighScore",
          "type": "bool"
        },
        {
          "indexed": false,
          "internalType": "bool",
          "name": "isFirstAttempt",
          "type": "bool"
        },
        {
          "indexed": false,
          "internalType": "uint256",
          "name": "timestamp",
          "type": "uint256"
        }
      ],
      "name": "BadgeMinted",
      "type": "event"
    },
    {
      "anonymous": false,
      "inputs": [
        {
          "indexed": true,
          "internalType": "address",
          "name": "user",
          "type": "address"
        },
        {
          "indexed": true,
          "internalType": "uint256",
          "name": "quizId",
          "type": "uint256"
        },
        {
          "indexed": true,
          "internalType": "uint256",
          "name": "tokenId",
          "type": "uint256"
        },
        {
          "indexed": false,
          "internalType": "string",
          "name": "badgeLevel",
          "type": "string"
        },
        {
          "indexed": false,
          "internalType": "uint256",
          "name": "timestamp",
          "type": "uint256"
        }
      ],
      "name": "KwalaBadgeProcessed",
      "type": "event"
    },
    {
      "inputs": [
        {
          "internalType": "uint256",
          "name": "",
          "type": "uint256"
        }
      ],
      "name": "badges",
      "outputs": [
        {
          "internalType": "uint256",
          "name": "quizId",
          "type": "uint256"
        },
        {
          "internalType": "uint256",
          "name": "score",
          "type": "uint256"
        },
        {
          "internalType": "uint256",
          "name": "totalQuestions",
          "type": "uint256"
        },
        {
          "internalType": "string",
          "name": "badgeLevel",
          "type": "string"
        },
        {
          "internalType": "uint256",
          "name": "timestamp",
          "type": "uint256"
        },
        {
          "internalType": "bool",
          "name": "isHighScore",
          "type": "bool"
        },
        {
          "internalType": "bool",
          "name": "isFirstAttempt",
          "type": "bool"
        },
        {
          "internalType": "address",
          "name": "badgeOwner",
          "type": "address"
        },
        {
          "internalType": "string",
          "name": "metadataURI",
          "type": "string"
        }
      ],
      "stateMutability": "view",
      "type": "function"
    },
    {
      "inputs": [
        {
          "internalType": "uint256",
          "name": "tokenId",
          "type": "uint256"
        }
      ],
      "name": "getBadgeInfo",
      "outputs": [
        {
          "components": [
            {
              "internalType": "uint256",
              "name": "quizId",
              "type": "uint256"
            },
            {
              "internalType": "uint256",
              "name": "score",
              "type": "uint256"
            },
            {
              "internalType": "uint256",
              "name": "totalQuestions",
              "type": "uint256"
            },
            {
              "internalType": "string",
              "name": "badgeLevel",
              "type": "string"
            },
            {
              "internalType": "uint256",
              "name": "timestamp",
              "type": "uint256"
            },
            {
              "internalType": "bool",
              "name": "isHighScore",
              "type": "bool"
            },
            {
              "internalType": "bool",
              "name": "isFirstAttempt",
              "type": "bool"
            },
            {
              "internalType": "address",
              "name": "badgeOwner",
              "type": "address"
            },
            {
              "internalType": "string",
              "name": "metadataURI",
              "type": "string"
            }
          ],
          "internalType": "struct SimpleBadgeMinter.Badge",
          "name": "",
          "type": "tuple"
        }
      ],
      "stateMutability": "view",
      "type": "function"
    },
    {
      "inputs": [
        {
          "internalType": "uint256",
          "name": "tokenId",
          "type": "uint256"
        }
      ],
      "name": "getBadgeMetadataURI",
      "outputs": [
        {
          "internalType": "string",
          "name": "",
          "type": "string"
        }
      ],
      "stateMutability": "view",
      "type": "function"
    },
    {
      "inputs": [
        {
          "internalType": "uint256",
          "name": "tokenId",
          "type": "uint256"
        }
      ],
      "name": "getBadgeOwner",
      "outputs": [
        {
          "internalType": "address",
          "name": "",
          "type": "address"
        }
      ],
      "stateMutability": "view",
      "type": "function"
    },
    {
      "inputs": [],
      "name": "getTotalBadgesMinted",
      "outputs": [
        {
          "internalType": "uint256",
          "name": "",
          "type": "uint256"
        }
      ],
      "stateMutability": "view",
      "type": "function"
    },
    {
      "inputs": [
        {
          "internalType": "address",
          "name": "user",
          "type": "address"
        }
      ],
      "name": "getUserBadgeCount",
      "outputs": [
        {
          "internalType": "uint256",
          "name": "",
          "type": "uint256"
        }
      ],
      "stateMutability": "view",
      "type": "function"
    },
    {
      "inputs": [
        {
          "internalType": "address",
          "name": "user",
          "type": "address"
        }
      ],
      "name": "getUserBadges",
      "outputs": [
        {
          "internalType": "uint256[]",
          "name": "",
          "type": "uint256[]"
        }
      ],
      "stateMutability": "view",
      "type": "function"
    },
    {
      "inputs": [
        {
          "internalType": "address",
          "name": "user",
          "type": "address"
        },
        {
          "internalType": "uint256",
          "name": "quizId",
          "type": "uint256"
        }
      ],
      "name": "getUserQuizBadges",
      "outputs": [
        {
          "internalType": "uint256[]",
          "name": "",
          "type": "uint256[]"
        }
      ],
      "stateMutability": "view",
      "type": "function"
    },
    {
      "inputs": [],
      "name": "kwalaOperator",
      "outputs": [
        {
          "internalType": "address",
          "name": "",
          "type": "address"
        }
      ],
      "stateMutability": "view",
      "type": "function"
    },
    {
      "inputs": [
        {
          "internalType": "address",
          "name": "to",
          "type": "address"
        },
        {
          "internalType": "uint256",
          "name": "quizId",
          "type": "uint256"
        },
        {
          "internalType": "uint256",
          "name": "score",
          "type": "uint256"
        },
        {
          "internalType": "uint256",
          "name": "totalQuestions",
          "type": "uint256"
        },
        {
          "internalType": "string",
          "name": "badgeLevel",
          "type": "string"
        },
        {
          "internalType": "bool",
          "name": "isHighScore",
          "type": "bool"
        },
        {
          "internalType": "bool",
          "name": "isFirstAttempt",
          "type": "bool"
        },
        {
          "internalType": "string",
          "name": "metadataURI",
          "type": "string"
        }
      ],
      "name": "mintBadge",
      "outputs": [
        {
          "internalType": "uint256",
          "name": "",
          "type": "uint256"
        }
      ],
      "stateMutability": "nonpayable",
      "type": "function"
    },
    {
      "inputs": [],
      "name": "nextTokenId",
      "outputs": [
        {
          "internalType": "uint256",
          "name": "",
          "type": "uint256"
        }
      ],
      "stateMutability": "view",
      "type": "function"
    },
    {
      "inputs": [],
      "name": "owner",
      "outputs": [
        {
          "internalType": "address",
          "name": "",
          "type": "address"
        }
      ],
      "stateMutability": "view",
      "type": "function"
    },
    {
      "inputs": [
        {
          "internalType": "address",
          "name": "",
          "type": "address"
        },
        {
          "internalType": "uint256",
          "name": "",
          "type": "uint256"
        },
        {
          "internalType": "uint256",
          "name": "",
          "type": "uint256"
        }
      ],
      "name": "quizBadges",
      "outputs": [
        {
          "internalType": "uint256",
          "name": "",
          "type": "uint256"
        }
      ],
      "stateMutability": "view",
      "type": "function"
    },
    {
      "inputs": [],
      "name": "quizProgressContract",
      "outputs": [
        {
          "internalType": "address",
          "name": "",
          "type": "address"
        }
      ],
      "stateMutability": "view",
      "type": "function"
    },
    {
      "inputs": [
        {
          "internalType": "address",
          "name": "_kwalaOperator",
          "type": "address"
        }
      ],
      "name": "setKwalaOperator",
      "outputs": [],
      "stateMutability": "nonpayable",
      "type": "function"
    },
    {
      "inputs": [
        {
          "internalType": "address",
          "name": "_quizProgress",
          "type": "address"
        }
      ],
      "name": "setQuizProgressContract",
      "outputs": [],
      "stateMutability": "nonpayable",
      "type": "function"
    },
    {
      "inputs": [
        {
          "internalType": "uint256",
          "name": "tokenId",
          "type": "uint256"
        },
        {
          "internalType": "address",
          "name": "newOwner",
          "type": "address"
        }
      ],
      "name": "transferBadge",
      "outputs": [],
      "stateMutability": "nonpayable",
      "type": "function"
    },
    {
      "inputs": [
        {
          "internalType": "uint256",
          "name": "tokenId",
          "type": "uint256"
        },
        {
          "internalType": "string",
          "name": "newURI",
          "type": "string"
        }
      ],
      "name": "updateBadgeMetadata",
      "outputs": [],
      "stateMutability": "nonpayable",
      "type": "function"
    },
    {
      "inputs": [
        {
          "internalType": "address",
          "name": "",
          "type": "address"
        },
        {
          "internalType": "uint256",
          "name": "",
          "type": "uint256"
        }
      ],
      "name": "userBadges",
      "outputs": [
        {
          "internalType": "uint256",
          "name": "",
          "type": "uint256"
        }
      ],
      "stateMutability": "view",
      "type": "function"
    }
  ],
  "devdoc": {
    "kind": "dev",
    "methods": {},
    "version": 1
  },
  "evm": {
    "assembly": "    /* \"SimpleBadgeMinter.sol\":57:5881  contract SimpleBadgeMinter {... */\n  mstore(0x40, 0x80)\n    /* \"SimpleBadgeMinter.sol\":599:600  1 */\n  0x01\n    /* \"SimpleBadgeMinter.sol\":570:600  uint256 public nextTokenId = 1 */\n  0x03\n  sstore\n    /* \"SimpleBadgeMinter.sol\":1449:1498  constructor() {... */\n  callvalue\n  dup1\n  iszero\n  tag_1\n  jumpi\n  0x00\n  dup1\n  revert\ntag_1:\n  pop\n    /* \"SimpleBadgeMinter.sol\":1473:1478  owner */\n  0x04\n    /* \"SimpleBadgeMinter.sol\":1473:1491  owner = msg.sender */\n  dup1\n  sload\n  not(sub(shl(0xa0, 0x01), 0x01))\n  and\n    /* \"SimpleBadgeMinter.sol\":1481:1491  msg.sender */\n  caller\n    /* \"SimpleBadgeMinter.sol\":1473:1491  owner = msg.sender */\n  or\n  swap1\n  sstore\n    /* \"SimpleBadgeMinter.sol\":57:5881  contract SimpleBadgeMinter {... */\n  dataSize(sub_0)\n  dup1\n  dataOffset(sub_0)\n  0x00\n  codecopy\n  0x00\n  return\nstop\n\nsub_0: assembly {\n        /* \"SimpleBadgeMinter.sol\":57:5881  contract SimpleBadgeMinter {... */\n      mstore(0x40, 0x80)\n      callvalue\n      dup1\n      iszero\n      tag_1\n      jumpi\n      0x00\n      dup1\n      revert\n    tag_1:\n      pop\n      jumpi(tag_2, lt(calldatasize, 0x04))\n      shr(0xe0, calldataload(0x00))\n      dup1\n      0x75794a3c\n      gt\n      tag_22\n      jumpi\n      dup1\n      0xcc3ab868\n      gt\n      tag_23\n      jumpi\n      dup1\n      0xe2045b5e\n      gt\n      tag_24\n      jumpi\n      dup1\n      0xe2045b5e\n      eq\n      tag_19\n      jumpi\n      dup1\n      0xf94fe13f\n      eq\n      tag_20\n      jumpi\n      dup1\n      0xfbd1d6cf\n      eq\n      tag_21\n      jumpi\n      0x00\n      dup1\n      revert\n    tag_24:\n      dup1\n      0xcc3ab868\n      eq\n      tag_17\n      jumpi\n      dup1\n      0xdf91cc23\n      eq\n      tag_18\n      jumpi\n      0x00\n      dup1\n      revert\n    tag_23:\n      dup1\n      0x98e36d8b\n      gt\n      tag_25\n      jumpi\n      dup1\n      0x98e36d8b\n      eq\n      tag_14\n      jumpi\n      dup1\n      0xa36fa572\n      eq\n      tag_15\n      jumpi\n      dup1\n      0xb10b22f4\n      eq\n      tag_16\n      jumpi\n      0x00\n      dup1\n      revert\n    tag_25:\n      dup1\n      0x75794a3c\n      eq\n      tag_12\n      jumpi\n      dup1\n      0x8da5cb5b\n      eq\n      tag_13\n      jumpi\n      0x00\n      dup1\n      revert\n    tag_22:\n      dup1\n      0x4c2708a9\n      gt\n      tag_26\n      jumpi\n      dup1\n      0x55c062c8\n      gt\n      tag_27\n      jumpi\n      dup1\n      0x55c062c8\n      eq\n      tag_9\n      jumpi\n      dup1\n      0x680890c6\n      eq\n      tag_10\n      jumpi\n      dup1\n      0x69679575\n      eq\n      tag_11\n      jumpi\n      0x00\n      dup1\n      revert\n    tag_27:\n      dup1\n      0x4c2708a9\n      eq\n      tag_7\n      jumpi\n      dup1\n      0x4d2bd0ff\n      eq\n      tag_8\n      jumpi\n      0x00\n      dup1\n      revert\n    tag_26:\n      dup1\n      0x14d4fcad\n      eq\n      tag_3\n      jumpi\n      dup1\n      0x363dc449\n      eq\n      tag_4\n      jumpi\n      dup1\n      0x37c245fe\n      eq\n      tag_5\n      jumpi\n      dup1\n      0x47461b40\n      eq\n      tag_6\n      jumpi\n    tag_2:\n      0x00\n      dup1\n      revert\n        /* \"SimpleBadgeMinter.sol\":462:529  mapping(address => mapping(uint256 => uint256[])) public quizBadges */\n    tag_3:\n      tag_28\n      tag_29\n      calldatasize\n      0x04\n      tag_30\n      jump\t// in\n    tag_29:\n      tag_31\n      jump\t// in\n    tag_28:\n      mload(0x40)\n        /* \"#utility.yul\":688:713   */\n      swap1\n      dup2\n      mstore\n        /* \"#utility.yul\":676:678   */\n      0x20\n        /* \"#utility.yul\":661:679   */\n      add\n        /* \"SimpleBadgeMinter.sol\":462:529  mapping(address => mapping(uint256 => uint256[])) public quizBadges */\n    tag_32:\n      mload(0x40)\n      dup1\n      swap2\n      sub\n      swap1\n      return\n        /* \"SimpleBadgeMinter.sol\":1772:3005  function mintBadge(... */\n    tag_4:\n      tag_28\n      tag_35\n      calldatasize\n      0x04\n      tag_36\n      jump\t// in\n    tag_35:\n      tag_37\n      jump\t// in\n        /* \"SimpleBadgeMinter.sol\":3015:3133  function getUserBadges(address user) external view returns (uint256[] memory) {... */\n    tag_5:\n      tag_39\n      tag_40\n      calldatasize\n      0x04\n      tag_41\n      jump\t// in\n    tag_40:\n      tag_42\n      jump\t// in\n    tag_39:\n      mload(0x40)\n      tag_32\n      swap2\n      swap1\n      tag_44\n      jump\t// in\n        /* \"SimpleBadgeMinter.sol\":4241:4468  function updateBadgeMetadata(uint256 tokenId, string memory newURI) external onlyKwalaOperator {... */\n    tag_6:\n      tag_45\n      tag_46\n      calldatasize\n      0x04\n      tag_47\n      jump\t// in\n    tag_46:\n      tag_48\n      jump\t// in\n    tag_45:\n      stop\n        /* \"SimpleBadgeMinter.sol\":1634:1762  function setQuizProgressContract(address _quizProgress) external onlyOwner {... */\n    tag_7:\n      tag_45\n      tag_50\n      calldatasize\n      0x04\n      tag_41\n      jump\t// in\n    tag_50:\n      tag_51\n      jump\t// in\n        /* \"SimpleBadgeMinter.sol\":632:660  address public kwalaOperator */\n    tag_8:\n      sload(0x05)\n      tag_52\n      swap1\n      sub(shl(0xa0, 0x01), 0x01)\n      and\n      dup2\n      jump\n    tag_52:\n      mload(0x40)\n      sub(shl(0xa0, 0x01), 0x01)\n        /* \"#utility.yul\":4231:4286   */\n      swap1\n      swap2\n      and\n        /* \"#utility.yul\":4213:4287   */\n      dup2\n      mstore\n        /* \"#utility.yul\":4201:4203   */\n      0x20\n        /* \"#utility.yul\":4186:4204   */\n      add\n        /* \"SimpleBadgeMinter.sol\":632:660  address public kwalaOperator */\n      tag_32\n        /* \"#utility.yul\":4067:4293   */\n      jump\n        /* \"SimpleBadgeMinter.sol\":4544:5879  function transferBadge(uint256 tokenId, address newOwner) external {... */\n    tag_9:\n      tag_45\n      tag_57\n      calldatasize\n      0x04\n      tag_58\n      jump\t// in\n    tag_57:\n      tag_59\n      jump\t// in\n        /* \"SimpleBadgeMinter.sol\":1508:1624  function setKwalaOperator(address _kwalaOperator) external onlyOwner {... */\n    tag_10:\n      tag_45\n      tag_61\n      calldatasize\n      0x04\n      tag_41\n      jump\t// in\n    tag_61:\n      tag_62\n      jump\t// in\n        /* \"SimpleBadgeMinter.sol\":3616:3736  function getUserBadgeCount(address user) external view returns (uint256) {... */\n    tag_11:\n      tag_28\n      tag_64\n      calldatasize\n      0x04\n      tag_41\n      jump\t// in\n    tag_64:\n      sub(shl(0xa0, 0x01), 0x01)\n        /* \"SimpleBadgeMinter.sol\":3706:3722  userBadges[user] */\n      and\n        /* \"SimpleBadgeMinter.sol\":3680:3687  uint256 */\n      0x00\n        /* \"SimpleBadgeMinter.sol\":3706:3722  userBadges[user] */\n      swap1\n      dup2\n      mstore\n        /* \"SimpleBadgeMinter.sol\":3706:3716  userBadges */\n      0x01\n        /* \"SimpleBadgeMinter.sol\":3706:3722  userBadges[user] */\n      0x20\n      mstore\n      0x40\n      swap1\n      keccak256\n        /* \"SimpleBadgeMinter.sol\":3706:3729  userBadges[user].length */\n      sload\n      swap1\n        /* \"SimpleBadgeMinter.sol\":3616:3736  function getUserBadgeCount(address user) external view returns (uint256) {... */\n      jump\n        /* \"SimpleBadgeMinter.sol\":570:600  uint256 public nextTokenId = 1 */\n    tag_12:\n      tag_28\n      sload(0x03)\n      dup2\n      jump\n        /* \"SimpleBadgeMinter.sol\":606:626  address public owner */\n    tag_13:\n      sload(0x04)\n      tag_52\n      swap1\n      sub(shl(0xa0, 0x01), 0x01)\n      and\n      dup2\n      jump\n        /* \"SimpleBadgeMinter.sol\":364:403  mapping(uint256 => Badge) public badges */\n    tag_14:\n      tag_73\n      tag_74\n      calldatasize\n      0x04\n      tag_75\n      jump\t// in\n    tag_74:\n      tag_76\n      jump\t// in\n    tag_73:\n      mload(0x40)\n      tag_32\n      swap10\n      swap9\n      swap8\n      swap7\n      swap6\n      swap5\n      swap4\n      swap3\n      swap2\n      swap1\n      tag_78\n      jump\t// in\n        /* \"SimpleBadgeMinter.sol\":3143:3289  function getUserQuizBadges(address user, uint256 quizId) external view returns (uint256[] memory) {... */\n    tag_15:\n      tag_39\n      tag_80\n      calldatasize\n      0x04\n      tag_81\n      jump\t// in\n    tag_80:\n      tag_82\n      jump\t// in\n        /* \"SimpleBadgeMinter.sol\":3503:3606  function getTotalBadgesMinted() external view returns (uint256) {... */\n    tag_16:\n      tag_28\n      tag_85\n      jump\t// in\n        /* \"SimpleBadgeMinter.sol\":3957:4171  function getBadgeMetadataURI(uint256 tokenId) external view returns (string memory) {... */\n    tag_17:\n      tag_87\n      tag_88\n      calldatasize\n      0x04\n      tag_75\n      jump\t// in\n    tag_88:\n      tag_89\n      jump\t// in\n    tag_87:\n      mload(0x40)\n      tag_32\n      swap2\n      swap1\n      tag_91\n      jump\t// in\n        /* \"SimpleBadgeMinter.sol\":409:456  mapping(address => uint256[]) public userBadges */\n    tag_18:\n      tag_28\n      tag_93\n      calldatasize\n      0x04\n      tag_81\n      jump\t// in\n    tag_93:\n      tag_94\n      jump\t// in\n        /* \"SimpleBadgeMinter.sol\":3299:3493  function getBadgeInfo(uint256 tokenId) external view returns (Badge memory) {... */\n    tag_19:\n      tag_96\n      tag_97\n      calldatasize\n      0x04\n      tag_75\n      jump\t// in\n    tag_97:\n      tag_98\n      jump\t// in\n    tag_96:\n      mload(0x40)\n      tag_32\n      swap2\n      swap1\n      tag_100\n      jump\t// in\n        /* \"SimpleBadgeMinter.sol\":666:701  address public quizProgressContract */\n    tag_20:\n      sload(0x06)\n      tag_52\n      swap1\n      sub(shl(0xa0, 0x01), 0x01)\n      and\n      dup2\n      jump\n        /* \"SimpleBadgeMinter.sol\":3746:3947  function getBadgeOwner(uint256 tokenId) external view returns (address) {... */\n    tag_21:\n      tag_52\n      tag_105\n      calldatasize\n      0x04\n      tag_75\n      jump\t// in\n    tag_105:\n      tag_106\n      jump\t// in\n        /* \"SimpleBadgeMinter.sol\":462:529  mapping(address => mapping(uint256 => uint256[])) public quizBadges */\n    tag_31:\n      mstore(0x20, 0x02)\n      dup3\n      0x00\n      mstore\n      mstore(0x20, keccak256(0x00, 0x40))\n      dup2\n      0x00\n      mstore\n      keccak256(0x00, 0x40)\n      dup2\n      dup2\n      sload\n      dup2\n      lt\n      tag_108\n      jumpi\n      0x00\n      dup1\n      revert\n    tag_108:\n      swap1\n      0x00\n      mstore\n      keccak256(0x00, 0x20)\n      add\n      0x00\n      swap3\n      pop\n      swap3\n      pop\n      pop\n      pop\n      sload\n      dup2\n      jump\t// out\n        /* \"SimpleBadgeMinter.sol\":1772:3005  function mintBadge(... */\n    tag_37:\n        /* \"SimpleBadgeMinter.sol\":897:910  kwalaOperator */\n      sload(0x05)\n        /* \"SimpleBadgeMinter.sol\":2056:2063  uint256 */\n      0x00\n      swap1\n      sub(shl(0xa0, 0x01), 0x01)\n        /* \"SimpleBadgeMinter.sol\":897:910  kwalaOperator */\n      and\n        /* \"SimpleBadgeMinter.sol\":883:893  msg.sender */\n      caller\n        /* \"SimpleBadgeMinter.sol\":883:910  msg.sender == kwalaOperator */\n      eq\n      dup1\n        /* \"SimpleBadgeMinter.sol\":883:933  msg.sender == kwalaOperator || msg.sender == owner */\n      tag_111\n      jumpi\n      pop\n        /* \"SimpleBadgeMinter.sol\":928:933  owner */\n      and(sub(shl(0xa0, 0x01), 0x01), sload(0x04))\n        /* \"SimpleBadgeMinter.sol\":914:924  msg.sender */\n      caller\n        /* \"SimpleBadgeMinter.sol\":914:933  msg.sender == owner */\n      eq\n        /* \"SimpleBadgeMinter.sol\":883:933  msg.sender == kwalaOperator || msg.sender == owner */\n    tag_111:\n        /* \"SimpleBadgeMinter.sol\":875:971  require(msg.sender == kwalaOperator || msg.sender == owner, \"Only Kwala operator can call this\") */\n      tag_112\n      jumpi\n      mload(0x40)\n      shl(0xe5, 0x461bcd)\n      dup2\n      mstore\n        /* \"#utility.yul\":7959:7961   */\n      0x20\n        /* \"SimpleBadgeMinter.sol\":875:971  require(msg.sender == kwalaOperator || msg.sender == owner, \"Only Kwala operator can call this\") */\n      0x04\n      dup3\n      add\n        /* \"#utility.yul\":7941:7962   */\n      mstore\n        /* \"#utility.yul\":7998:8000   */\n      0x21\n        /* \"#utility.yul\":7978:7996   */\n      0x24\n      dup3\n      add\n        /* \"#utility.yul\":7971:8001   */\n      mstore\n        /* \"#utility.yul\":8037:8071   */\n      0x4f6e6c79204b77616c61206f70657261746f722063616e2063616c6c20746869\n        /* \"#utility.yul\":8017:8035   */\n      0x44\n      dup3\n      add\n        /* \"#utility.yul\":8010:8072   */\n      mstore\n      shl(0xf8, 0x73)\n        /* \"#utility.yul\":8088:8106   */\n      0x64\n      dup3\n      add\n        /* \"#utility.yul\":8081:8112   */\n      mstore\n        /* \"#utility.yul\":8129:8148   */\n      0x84\n      add\n        /* \"SimpleBadgeMinter.sol\":875:971  require(msg.sender == kwalaOperator || msg.sender == owner, \"Only Kwala operator can call this\") */\n    tag_113:\n      mload(0x40)\n      dup1\n      swap2\n      sub\n      swap1\n      revert\n    tag_112:\n        /* \"SimpleBadgeMinter.sol\":2093:2104  nextTokenId */\n      0x03\n        /* \"SimpleBadgeMinter.sol\":2093:2106  nextTokenId++ */\n      dup1\n      sload\n        /* \"SimpleBadgeMinter.sol\":2075:2090  uint256 tokenId */\n      0x00\n      swap2\n      dup3\n        /* \"SimpleBadgeMinter.sol\":2093:2106  nextTokenId++ */\n      tag_116\n      dup4\n      tag_117\n      jump\t// in\n    tag_116:\n      swap2\n      swap1\n      pop\n      sstore\n        /* \"SimpleBadgeMinter.sol\":2075:2106  uint256 tokenId = nextTokenId++ */\n      swap1\n      pop\n        /* \"SimpleBadgeMinter.sol\":2143:2482  Badge({... */\n      mload(0x40)\n      dup1\n      0x0120\n      add\n      0x40\n      mstore\n      dup1\n        /* \"SimpleBadgeMinter.sol\":2171:2177  quizId */\n      dup11\n        /* \"SimpleBadgeMinter.sol\":2143:2482  Badge({... */\n      dup2\n      mstore\n      0x20\n      add\n        /* \"SimpleBadgeMinter.sol\":2198:2203  score */\n      dup10\n        /* \"SimpleBadgeMinter.sol\":2143:2482  Badge({... */\n      dup2\n      mstore\n      0x20\n      add\n        /* \"SimpleBadgeMinter.sol\":2233:2247  totalQuestions */\n      dup9\n        /* \"SimpleBadgeMinter.sol\":2143:2482  Badge({... */\n      dup2\n      mstore\n      0x20\n      add\n        /* \"SimpleBadgeMinter.sol\":2273:2283  badgeLevel */\n      dup8\n        /* \"SimpleBadgeMinter.sol\":2143:2482  Badge({... */\n      dup2\n      mstore\n      0x20\n      add\n        /* \"SimpleBadgeMinter.sol\":2308:2323  block.timestamp */\n      timestamp\n        /* \"SimpleBadgeMinter.sol\":2143:2482  Badge({... */\n      dup2\n      mstore\n      0x20\n      add\n        /* \"SimpleBadgeMinter.sol\":2350:2361  isHighScore */\n      dup7\n        /* \"SimpleBadgeMinter.sol\":2143:2482  Badge({... */\n      iszero\n      iszero\n      dup2\n      mstore\n      0x20\n      add\n        /* \"SimpleBadgeMinter.sol\":2391:2405  isFirstAttempt */\n      dup6\n        /* \"SimpleBadgeMinter.sol\":2143:2482  Badge({... */\n      iszero\n      iszero\n      dup2\n      mstore\n      0x20\n      add\n        /* \"SimpleBadgeMinter.sol\":2431:2433  to */\n      dup12\n      sub(shl(0xa0, 0x01), 0x01)\n        /* \"SimpleBadgeMinter.sol\":2143:2482  Badge({... */\n      and\n      dup2\n      mstore\n      0x20\n      add\n        /* \"SimpleBadgeMinter.sol\":2460:2471  metadataURI */\n      dup5\n        /* \"SimpleBadgeMinter.sol\":2143:2482  Badge({... */\n      dup2\n      mstore\n      pop\n        /* \"SimpleBadgeMinter.sol\":2125:2131  badges */\n      0x00\n        /* \"SimpleBadgeMinter.sol\":2125:2140  badges[tokenId] */\n      dup1\n        /* \"SimpleBadgeMinter.sol\":2132:2139  tokenId */\n      dup4\n        /* \"SimpleBadgeMinter.sol\":2125:2140  badges[tokenId] */\n      dup2\n      mstore\n      0x20\n      add\n      swap1\n      dup2\n      mstore\n      0x20\n      add\n      0x00\n      keccak256\n        /* \"SimpleBadgeMinter.sol\":2125:2482  badges[tokenId] = Badge({... */\n      0x00\n      dup3\n      add\n      mload\n      dup2\n      0x00\n      add\n      sstore\n      0x20\n      dup3\n      add\n      mload\n      dup2\n      0x01\n      add\n      sstore\n      0x40\n      dup3\n      add\n      mload\n      dup2\n      0x02\n      add\n      sstore\n      0x60\n      dup3\n      add\n      mload\n      dup2\n      0x03\n      add\n      swap1\n      dup2\n      tag_118\n      swap2\n      swap1\n      tag_119\n      jump\t// in\n    tag_118:\n      pop\n      0x80\n      dup3\n      add\n      mload\n      0x04\n      dup3\n      add\n      sstore\n      0xa0\n      dup3\n      add\n      mload\n      0x05\n      dup3\n      add\n      dup1\n      sload\n      0xc0\n      dup6\n      add\n      mload\n      0xe0\n      dup7\n      add\n      mload\n      not(0xffff)\n      swap1\n      swap3\n      and\n      swap4\n      iszero\n      iszero\n      not(0xff00)\n      and\n      swap4\n      swap1\n      swap4\n      or\n      0x0100\n      swap4\n      iszero\n      iszero\n      dup5\n      mul\n      or\n      not(0xffffffffffffffffffffffffffffffffffffffff0000)\n      and\n      0x010000\n      sub(shl(0xa0, 0x01), 0x01)\n      swap1\n      swap3\n      and\n      swap2\n      swap1\n      swap2\n      mul\n      or\n      swap1\n      sstore\n      dup3\n      add\n      mload\n      0x06\n      dup3\n      add\n      swap1\n      tag_120\n      swap1\n      dup3\n      tag_119\n      jump\t// in\n    tag_120:\n      pop\n      pop\n      pop\n      sub(shl(0xa0, 0x01), 0x01)\n        /* \"SimpleBadgeMinter.sol\":2501:2515  userBadges[to] */\n      dup11\n      and\n      0x00\n      dup2\n      dup2\n      mstore\n        /* \"SimpleBadgeMinter.sol\":2501:2511  userBadges */\n      0x01\n        /* \"SimpleBadgeMinter.sol\":2501:2515  userBadges[to] */\n      0x20\n      dup2\n      dup2\n      mstore\n      0x40\n      dup1\n      dup5\n      keccak256\n        /* \"SimpleBadgeMinter.sol\":2501:2529  userBadges[to].push(tokenId) */\n      dup1\n      sload\n      dup1\n      dup6\n      add\n      dup3\n      sstore\n      swap1\n      dup6\n      mstore\n      dup3\n      dup6\n      keccak256\n      add\n      dup7\n      swap1\n      sstore\n        /* \"SimpleBadgeMinter.sol\":2539:2553  quizBadges[to] */\n      dup5\n      dup5\n      mstore\n        /* \"SimpleBadgeMinter.sol\":2539:2549  quizBadges */\n      0x02\n        /* \"SimpleBadgeMinter.sol\":2539:2553  quizBadges[to] */\n      dup3\n      mstore\n      dup1\n      dup5\n      keccak256\n        /* \"SimpleBadgeMinter.sol\":2539:2561  quizBadges[to][quizId] */\n      dup15\n      dup6\n      mstore\n      dup3\n      mstore\n      dup1\n      dup5\n      keccak256\n        /* \"SimpleBadgeMinter.sol\":2539:2575  quizBadges[to][quizId].push(tokenId) */\n      dup1\n      sload\n      swap4\n      dup5\n      add\n      dup2\n      sstore\n      dup5\n      mstore\n      swap3\n      keccak256\n      add\n      dup4\n      swap1\n      sstore\n        /* \"SimpleBadgeMinter.sol\":2599:2802  BadgeMinted(... */\n      mload\n        /* \"SimpleBadgeMinter.sol\":2554:2560  quizId */\n      dup11\n      swap2\n        /* \"SimpleBadgeMinter.sol\":2521:2528  tokenId */\n      dup4\n      swap2\n        /* \"SimpleBadgeMinter.sol\":2599:2802  BadgeMinted(... */\n      0xb98cbbea4f07631a4572e0e086738214181d160c822aab0b9c8b4ef9884f9383\n      swap1\n      tag_123\n      swap1\n        /* \"SimpleBadgeMinter.sol\":2681:2686  score */\n      dup14\n      swap1\n        /* \"SimpleBadgeMinter.sol\":2700:2710  badgeLevel */\n      dup13\n      swap1\n        /* \"SimpleBadgeMinter.sol\":2724:2735  isHighScore */\n      dup13\n      swap1\n        /* \"SimpleBadgeMinter.sol\":2749:2763  isFirstAttempt */\n      dup13\n      swap1\n        /* \"SimpleBadgeMinter.sol\":2777:2792  block.timestamp */\n      timestamp\n      swap1\n        /* \"SimpleBadgeMinter.sol\":2599:2802  BadgeMinted(... */\n      tag_124\n      jump\t// in\n    tag_123:\n      mload(0x40)\n      dup1\n      swap2\n      sub\n      swap1\n      log4\n        /* \"SimpleBadgeMinter.sol\":2895:2902  tokenId */\n      dup1\n        /* \"SimpleBadgeMinter.sol\":2875:2881  quizId */\n      dup10\n        /* \"SimpleBadgeMinter.sol\":2859:2861  to */\n      dup12\n      sub(shl(0xa0, 0x01), 0x01)\n        /* \"SimpleBadgeMinter.sol\":2826:2965  KwalaBadgeProcessed(... */\n      and\n      0x7bc7f4f026f6fb35cc947124c8922724524b20d7b3f03c452aff33788a8390a6\n        /* \"SimpleBadgeMinter.sol\":2916:2926  badgeLevel */\n      dup10\n        /* \"SimpleBadgeMinter.sol\":2940:2955  block.timestamp */\n      timestamp\n        /* \"SimpleBadgeMinter.sol\":2826:2965  KwalaBadgeProcessed(... */\n      mload(0x40)\n      tag_125\n      swap3\n      swap2\n      swap1\n      tag_126\n      jump\t// in\n    tag_125:\n      mload(0x40)\n      dup1\n      swap2\n      sub\n      swap1\n      log4\n        /* \"SimpleBadgeMinter.sol\":2991:2998  tokenId */\n      swap10\n        /* \"SimpleBadgeMinter.sol\":1772:3005  function mintBadge(... */\n      swap9\n      pop\n      pop\n      pop\n      pop\n      pop\n      pop\n      pop\n      pop\n      pop\n      jump\t// out\n        /* \"SimpleBadgeMinter.sol\":3015:3133  function getUserBadges(address user) external view returns (uint256[] memory) {... */\n    tag_42:\n      sub(shl(0xa0, 0x01), 0x01)\n        /* \"SimpleBadgeMinter.sol\":3110:3126  userBadges[user] */\n      dup2\n      and\n      0x00\n      swap1\n      dup2\n      mstore\n        /* \"SimpleBadgeMinter.sol\":3110:3120  userBadges */\n      0x01\n        /* \"SimpleBadgeMinter.sol\":3110:3126  userBadges[user] */\n      0x20\n      swap1\n      dup2\n      mstore\n      0x40\n      swap2\n      dup3\n      swap1\n      keccak256\n        /* \"SimpleBadgeMinter.sol\":3103:3126  return userBadges[user] */\n      dup1\n      sload\n      dup4\n      mload\n      dup2\n      dup5\n      mul\n      dup2\n      add\n      dup5\n      add\n      swap1\n      swap5\n      mstore\n      dup1\n      dup5\n      mstore\n        /* \"SimpleBadgeMinter.sol\":3075:3091  uint256[] memory */\n      0x60\n      swap4\n        /* \"SimpleBadgeMinter.sol\":3103:3126  return userBadges[user] */\n      swap3\n      dup4\n      add\n        /* \"SimpleBadgeMinter.sol\":3110:3126  userBadges[user] */\n      dup3\n        /* \"SimpleBadgeMinter.sol\":3103:3126  return userBadges[user] */\n      dup3\n      dup1\n      iszero\n      tag_128\n      jumpi\n      0x20\n      mul\n      dup3\n      add\n      swap2\n      swap1\n      0x00\n      mstore\n      keccak256(0x00, 0x20)\n      swap1\n    tag_129:\n      dup2\n      sload\n      dup2\n      mstore\n      0x20\n      add\n      swap1\n      0x01\n      add\n      swap1\n      dup1\n      dup4\n      gt\n      tag_129\n      jumpi\n    tag_128:\n      pop\n      pop\n      pop\n      pop\n      pop\n      swap1\n      pop\n        /* \"SimpleBadgeMinter.sol\":3015:3133  function getUserBadges(address user) external view returns (uint256[] memory) {... */\n      swap2\n      swap1\n      pop\n      jump\t// out\n        /* \"SimpleBadgeMinter.sol\":4241:4468  function updateBadgeMetadata(uint256 tokenId, string memory newURI) external onlyKwalaOperator {... */\n    tag_48:\n        /* \"SimpleBadgeMinter.sol\":897:910  kwalaOperator */\n      and(sub(shl(0xa0, 0x01), 0x01), sload(0x05))\n        /* \"SimpleBadgeMinter.sol\":883:893  msg.sender */\n      caller\n        /* \"SimpleBadgeMinter.sol\":883:910  msg.sender == kwalaOperator */\n      eq\n      dup1\n        /* \"SimpleBadgeMinter.sol\":883:933  msg.sender == kwalaOperator || msg.sender == owner */\n      tag_131\n      jumpi\n      pop\n        /* \"SimpleBadgeMinter.sol\":928:933  owner */\n      and(sub(shl(0xa0, 0x01), 0x01), sload(0x04))\n        /* \"SimpleBadgeMinter.sol\":914:924  msg.sender */\n      caller\n        /* \"SimpleBadgeMinter.sol\":914:933  msg.sender == owner */\n      eq\n        /* \"SimpleBadgeMinter.sol\":883:933  msg.sender == kwalaOperator || msg.sender == owner */\n    tag_131:\n        /* \"SimpleBadgeMinter.sol\":875:971  require(msg.sender == kwalaOperator || msg.sender == owner, \"Only Kwala operator can call this\") */\n      tag_132\n      jumpi\n      mload(0x40)\n      shl(0xe5, 0x461bcd)\n      dup2\n      mstore\n        /* \"#utility.yul\":7959:7961   */\n      0x20\n        /* \"SimpleBadgeMinter.sol\":875:971  require(msg.sender == kwalaOperator || msg.sender == owner, \"Only Kwala operator can call this\") */\n      0x04\n      dup3\n      add\n        /* \"#utility.yul\":7941:7962   */\n      mstore\n        /* \"#utility.yul\":7998:8000   */\n      0x21\n        /* \"#utility.yul\":7978:7996   */\n      0x24\n      dup3\n      add\n        /* \"#utility.yul\":7971:8001   */\n      mstore\n        /* \"#utility.yul\":8037:8071   */\n      0x4f6e6c79204b77616c61206f70657261746f722063616e2063616c6c20746869\n        /* \"#utility.yul\":8017:8035   */\n      0x44\n      dup3\n      add\n        /* \"#utility.yul\":8010:8072   */\n      mstore\n      shl(0xf8, 0x73)\n        /* \"#utility.yul\":8088:8106   */\n      0x64\n      dup3\n      add\n        /* \"#utility.yul\":8081:8112   */\n      mstore\n        /* \"#utility.yul\":8129:8148   */\n      0x84\n      add\n        /* \"SimpleBadgeMinter.sol\":875:971  require(msg.sender == kwalaOperator || msg.sender == owner, \"Only Kwala operator can call this\") */\n      tag_113\n        /* \"#utility.yul\":7757:8154   */\n      jump\n        /* \"SimpleBadgeMinter.sol\":875:971  require(msg.sender == kwalaOperator || msg.sender == owner, \"Only Kwala operator can call this\") */\n    tag_132:\n        /* \"SimpleBadgeMinter.sol\":4364:4375  nextTokenId */\n      sload(0x03)\n        /* \"SimpleBadgeMinter.sol\":4354:4361  tokenId */\n      dup3\n        /* \"SimpleBadgeMinter.sol\":4354:4375  tokenId < nextTokenId */\n      lt\n        /* \"SimpleBadgeMinter.sol\":4354:4390  tokenId < nextTokenId && tokenId > 0 */\n      dup1\n      iszero\n      tag_135\n      jumpi\n      pop\n        /* \"SimpleBadgeMinter.sol\":4389:4390  0 */\n      0x00\n        /* \"SimpleBadgeMinter.sol\":4379:4386  tokenId */\n      dup3\n        /* \"SimpleBadgeMinter.sol\":4379:4390  tokenId > 0 */\n      gt\n        /* \"SimpleBadgeMinter.sol\":4354:4390  tokenId < nextTokenId && tokenId > 0 */\n    tag_135:\n        /* \"SimpleBadgeMinter.sol\":4346:4415  require(tokenId < nextTokenId && tokenId > 0, \"Badge does not exist\") */\n      tag_136\n      jumpi\n      mload(0x40)\n      shl(0xe5, 0x461bcd)\n      dup2\n      mstore\n        /* \"#utility.yul\":12016:12018   */\n      0x20\n        /* \"SimpleBadgeMinter.sol\":4346:4415  require(tokenId < nextTokenId && tokenId > 0, \"Badge does not exist\") */\n      0x04\n      dup3\n      add\n        /* \"#utility.yul\":11998:12019   */\n      mstore\n        /* \"#utility.yul\":12055:12057   */\n      0x14\n        /* \"#utility.yul\":12035:12053   */\n      0x24\n      dup3\n      add\n        /* \"#utility.yul\":12028:12058   */\n      mstore\n      shl(0x62, 0x10985919d948191bd95cc81b9bdd08195e1a5cdd)\n        /* \"#utility.yul\":12074:12092   */\n      0x44\n      dup3\n      add\n        /* \"#utility.yul\":12067:12117   */\n      mstore\n        /* \"#utility.yul\":12134:12152   */\n      0x64\n      add\n        /* \"SimpleBadgeMinter.sol\":4346:4415  require(tokenId < nextTokenId && tokenId > 0, \"Badge does not exist\") */\n      tag_113\n        /* \"#utility.yul\":11814:12158   */\n      jump\n        /* \"SimpleBadgeMinter.sol\":4346:4415  require(tokenId < nextTokenId && tokenId > 0, \"Badge does not exist\") */\n    tag_136:\n        /* \"SimpleBadgeMinter.sol\":4425:4431  badges */\n      0x00\n        /* \"SimpleBadgeMinter.sol\":4425:4440  badges[tokenId] */\n      dup3\n      dup2\n      mstore\n      0x20\n      dup2\n      swap1\n      mstore\n      0x40\n      swap1\n      keccak256\n        /* \"SimpleBadgeMinter.sol\":4425:4452  badges[tokenId].metadataURI */\n      0x06\n      add\n        /* \"SimpleBadgeMinter.sol\":4425:4461  badges[tokenId].metadataURI = newURI */\n      tag_139\n        /* \"SimpleBadgeMinter.sol\":4455:4461  newURI */\n      dup3\n        /* \"SimpleBadgeMinter.sol\":4425:4452  badges[tokenId].metadataURI */\n      dup3\n        /* \"SimpleBadgeMinter.sol\":4425:4461  badges[tokenId].metadataURI = newURI */\n      tag_119\n      jump\t// in\n    tag_139:\n      pop\n        /* \"SimpleBadgeMinter.sol\":4241:4468  function updateBadgeMetadata(uint256 tokenId, string memory newURI) external onlyKwalaOperator {... */\n      pop\n      pop\n      jump\t// out\n        /* \"SimpleBadgeMinter.sol\":1634:1762  function setQuizProgressContract(address _quizProgress) external onlyOwner {... */\n    tag_51:\n        /* \"SimpleBadgeMinter.sol\":765:770  owner */\n      and(sub(shl(0xa0, 0x01), 0x01), sload(0x04))\n        /* \"SimpleBadgeMinter.sol\":751:761  msg.sender */\n      caller\n        /* \"SimpleBadgeMinter.sol\":751:770  msg.sender == owner */\n      eq\n        /* \"SimpleBadgeMinter.sol\":743:808  require(msg.sender == owner, \"Only owner can call this function\") */\n      tag_141\n      jumpi\n      mload(0x40)\n      shl(0xe5, 0x461bcd)\n      dup2\n      mstore\n        /* \"#utility.yul\":12365:12367   */\n      0x20\n        /* \"SimpleBadgeMinter.sol\":743:808  require(msg.sender == owner, \"Only owner can call this function\") */\n      0x04\n      dup3\n      add\n        /* \"#utility.yul\":12347:12368   */\n      mstore\n        /* \"#utility.yul\":12404:12406   */\n      0x21\n        /* \"#utility.yul\":12384:12402   */\n      0x24\n      dup3\n      add\n        /* \"#utility.yul\":12377:12407   */\n      mstore\n        /* \"#utility.yul\":12443:12477   */\n      0x4f6e6c79206f776e65722063616e2063616c6c20746869732066756e6374696f\n        /* \"#utility.yul\":12423:12441   */\n      0x44\n      dup3\n      add\n        /* \"#utility.yul\":12416:12478   */\n      mstore\n      shl(0xf9, 0x37)\n        /* \"#utility.yul\":12494:12512   */\n      0x64\n      dup3\n      add\n        /* \"#utility.yul\":12487:12518   */\n      mstore\n        /* \"#utility.yul\":12535:12554   */\n      0x84\n      add\n        /* \"SimpleBadgeMinter.sol\":743:808  require(msg.sender == owner, \"Only owner can call this function\") */\n      tag_113\n        /* \"#utility.yul\":12163:12560   */\n      jump\n        /* \"SimpleBadgeMinter.sol\":743:808  require(msg.sender == owner, \"Only owner can call this function\") */\n    tag_141:\n        /* \"SimpleBadgeMinter.sol\":1719:1739  quizProgressContract */\n      0x06\n        /* \"SimpleBadgeMinter.sol\":1719:1755  quizProgressContract = _quizProgress */\n      dup1\n      sload\n      not(0xffffffffffffffffffffffffffffffffffffffff)\n      and\n      sub(shl(0xa0, 0x01), 0x01)\n      swap3\n      swap1\n      swap3\n      and\n      swap2\n      swap1\n      swap2\n      or\n      swap1\n      sstore\n        /* \"SimpleBadgeMinter.sol\":1634:1762  function setQuizProgressContract(address _quizProgress) external onlyOwner {... */\n      jump\t// out\n        /* \"SimpleBadgeMinter.sol\":4544:5879  function transferBadge(uint256 tokenId, address newOwner) external {... */\n    tag_59:\n        /* \"SimpleBadgeMinter.sol\":4639:4650  nextTokenId */\n      sload(0x03)\n        /* \"SimpleBadgeMinter.sol\":4629:4636  tokenId */\n      dup3\n        /* \"SimpleBadgeMinter.sol\":4629:4650  tokenId < nextTokenId */\n      lt\n        /* \"SimpleBadgeMinter.sol\":4629:4665  tokenId < nextTokenId && tokenId > 0 */\n      dup1\n      iszero\n      tag_146\n      jumpi\n      pop\n        /* \"SimpleBadgeMinter.sol\":4664:4665  0 */\n      0x00\n        /* \"SimpleBadgeMinter.sol\":4654:4661  tokenId */\n      dup3\n        /* \"SimpleBadgeMinter.sol\":4654:4665  tokenId > 0 */\n      gt\n        /* \"SimpleBadgeMinter.sol\":4629:4665  tokenId < nextTokenId && tokenId > 0 */\n    tag_146:\n        /* \"SimpleBadgeMinter.sol\":4621:4690  require(tokenId < nextTokenId && tokenId > 0, \"Badge does not exist\") */\n      tag_147\n      jumpi\n      mload(0x40)\n      shl(0xe5, 0x461bcd)\n      dup2\n      mstore\n        /* \"#utility.yul\":12016:12018   */\n      0x20\n        /* \"SimpleBadgeMinter.sol\":4621:4690  require(tokenId < nextTokenId && tokenId > 0, \"Badge does not exist\") */\n      0x04\n      dup3\n      add\n        /* \"#utility.yul\":11998:12019   */\n      mstore\n        /* \"#utility.yul\":12055:12057   */\n      0x14\n        /* \"#utility.yul\":12035:12053   */\n      0x24\n      dup3\n      add\n        /* \"#utility.yul\":12028:12058   */\n      mstore\n      shl(0x62, 0x10985919d948191bd95cc81b9bdd08195e1a5cdd)\n        /* \"#utility.yul\":12074:12092   */\n      0x44\n      dup3\n      add\n        /* \"#utility.yul\":12067:12117   */\n      mstore\n        /* \"#utility.yul\":12134:12152   */\n      0x64\n      add\n        /* \"SimpleBadgeMinter.sol\":4621:4690  require(tokenId < nextTokenId && tokenId > 0, \"Badge does not exist\") */\n      tag_113\n        /* \"#utility.yul\":11814:12158   */\n      jump\n        /* \"SimpleBadgeMinter.sol\":4621:4690  require(tokenId < nextTokenId && tokenId > 0, \"Badge does not exist\") */\n    tag_147:\n        /* \"SimpleBadgeMinter.sol\":4722:4728  badges */\n      0x00\n        /* \"SimpleBadgeMinter.sol\":4722:4737  badges[tokenId] */\n      dup3\n      dup2\n      mstore\n      0x20\n      dup2\n      swap1\n      mstore\n      0x40\n      swap1\n      keccak256\n        /* \"SimpleBadgeMinter.sol\":4722:4748  badges[tokenId].badgeOwner */\n      0x05\n      add\n      sload\n      0x010000\n      swap1\n      div\n      sub(shl(0xa0, 0x01), 0x01)\n      and\n        /* \"SimpleBadgeMinter.sol\":4708:4718  msg.sender */\n      caller\n        /* \"SimpleBadgeMinter.sol\":4708:4748  msg.sender == badges[tokenId].badgeOwner */\n      eq\n      dup1\n        /* \"SimpleBadgeMinter.sol\":4708:4771  msg.sender == badges[tokenId].badgeOwner || msg.sender == owner */\n      tag_149\n      jumpi\n      pop\n        /* \"SimpleBadgeMinter.sol\":4766:4771  owner */\n      and(sub(shl(0xa0, 0x01), 0x01), sload(0x04))\n        /* \"SimpleBadgeMinter.sol\":4752:4762  msg.sender */\n      caller\n        /* \"SimpleBadgeMinter.sol\":4752:4771  msg.sender == owner */\n      eq\n        /* \"SimpleBadgeMinter.sol\":4708:4771  msg.sender == badges[tokenId].badgeOwner || msg.sender == owner */\n    tag_149:\n        /* \"SimpleBadgeMinter.sol\":4700:4790  require(msg.sender == badges[tokenId].badgeOwner || msg.sender == owner, \"Not authorized\") */\n      tag_150\n      jumpi\n      mload(0x40)\n      shl(0xe5, 0x461bcd)\n      dup2\n      mstore\n        /* \"#utility.yul\":12767:12769   */\n      0x20\n        /* \"SimpleBadgeMinter.sol\":4700:4790  require(msg.sender == badges[tokenId].badgeOwner || msg.sender == owner, \"Not authorized\") */\n      0x04\n      dup3\n      add\n        /* \"#utility.yul\":12749:12770   */\n      mstore\n        /* \"#utility.yul\":12806:12808   */\n      0x0e\n        /* \"#utility.yul\":12786:12804   */\n      0x24\n      dup3\n      add\n        /* \"#utility.yul\":12779:12809   */\n      mstore\n        /* \"#utility.yul\":12845:12861   */\n      0x4e6f7420617574686f72697a6564000000000000000000000000000000000000\n        /* \"#utility.yul\":12825:12843   */\n      0x44\n      dup3\n      add\n        /* \"#utility.yul\":12818:12862   */\n      mstore\n        /* \"#utility.yul\":12879:12897   */\n      0x64\n      add\n        /* \"SimpleBadgeMinter.sol\":4700:4790  require(msg.sender == badges[tokenId].badgeOwner || msg.sender == owner, \"Not authorized\") */\n      tag_113\n        /* \"#utility.yul\":12565:12903   */\n      jump\n        /* \"SimpleBadgeMinter.sol\":4700:4790  require(msg.sender == badges[tokenId].badgeOwner || msg.sender == owner, \"Not authorized\") */\n    tag_150:\n        /* \"SimpleBadgeMinter.sol\":4809:4825  address oldOwner */\n      0x00\n        /* \"SimpleBadgeMinter.sol\":4828:4843  badges[tokenId] */\n      dup3\n      dup2\n      mstore\n      0x20\n      dup2\n      dup2\n      mstore\n      0x40\n      dup1\n      dup4\n      keccak256\n        /* \"SimpleBadgeMinter.sol\":4828:4854  badges[tokenId].badgeOwner */\n      0x05\n      add\n      dup1\n      sload\n      sub(shl(0xa0, 0x01), 0x01)\n        /* \"SimpleBadgeMinter.sol\":4864:4901  badges[tokenId].badgeOwner = newOwner */\n      dup7\n      dup2\n      and\n        /* \"SimpleBadgeMinter.sol\":4828:4854  badges[tokenId].badgeOwner */\n      0x010000\n        /* \"SimpleBadgeMinter.sol\":4864:4901  badges[tokenId].badgeOwner = newOwner */\n      swap1\n      dup2\n      mul\n      not(0xffffffffffffffffffffffffffffffffffffffff0000)\n      dup5\n      and\n      or\n      swap1\n      swap4\n      sstore\n        /* \"SimpleBadgeMinter.sol\":4828:4854  badges[tokenId].badgeOwner */\n      swap2\n      swap1\n      div\n      and\n        /* \"SimpleBadgeMinter.sol\":4997:5017  userBadges[oldOwner] */\n      dup1\n      dup5\n      mstore\n      0x01\n      swap1\n      swap3\n      mstore\n      dup3\n      keccak256\n        /* \"SimpleBadgeMinter.sol\":4828:4854  badges[tokenId].badgeOwner */\n      swap1\n      swap2\n        /* \"SimpleBadgeMinter.sol\":5027:5292  for (uint256 i = 0; i < oldOwnerBadges.length; i++) {... */\n    tag_153:\n        /* \"SimpleBadgeMinter.sol\":5051:5072  oldOwnerBadges.length */\n      dup2\n      sload\n        /* \"SimpleBadgeMinter.sol\":5047:5072  i < oldOwnerBadges.length */\n      dup2\n      lt\n        /* \"SimpleBadgeMinter.sol\":5027:5292  for (uint256 i = 0; i < oldOwnerBadges.length; i++) {... */\n      iszero\n      tag_154\n      jumpi\n        /* \"SimpleBadgeMinter.sol\":5118:5125  tokenId */\n      dup5\n        /* \"SimpleBadgeMinter.sol\":5097:5111  oldOwnerBadges */\n      dup3\n        /* \"SimpleBadgeMinter.sol\":5112:5113  i */\n      dup3\n        /* \"SimpleBadgeMinter.sol\":5097:5114  oldOwnerBadges[i] */\n      dup2\n      sload\n      dup2\n      lt\n      tag_157\n      jumpi\n      tag_157\n      tag_158\n      jump\t// in\n    tag_157:\n      swap1\n      0x00\n      mstore\n      keccak256(0x00, 0x20)\n      add\n      sload\n        /* \"SimpleBadgeMinter.sol\":5097:5125  oldOwnerBadges[i] == tokenId */\n      sub\n        /* \"SimpleBadgeMinter.sol\":5093:5282  if (oldOwnerBadges[i] == tokenId) {... */\n      tag_160\n      jumpi\n        /* \"SimpleBadgeMinter.sol\":5180:5201  oldOwnerBadges.length */\n      dup2\n      sload\n        /* \"SimpleBadgeMinter.sol\":5165:5179  oldOwnerBadges */\n      dup3\n      swap1\n        /* \"SimpleBadgeMinter.sol\":5180:5205  oldOwnerBadges.length - 1 */\n      tag_161\n      swap1\n        /* \"SimpleBadgeMinter.sol\":5204:5205  1 */\n      0x01\n      swap1\n        /* \"SimpleBadgeMinter.sol\":5180:5205  oldOwnerBadges.length - 1 */\n      tag_162\n      jump\t// in\n    tag_161:\n        /* \"SimpleBadgeMinter.sol\":5165:5206  oldOwnerBadges[oldOwnerBadges.length - 1] */\n      dup2\n      sload\n      dup2\n      lt\n      tag_164\n      jumpi\n      tag_164\n      tag_158\n      jump\t// in\n    tag_164:\n      swap1\n      0x00\n      mstore\n      keccak256(0x00, 0x20)\n      add\n      sload\n        /* \"SimpleBadgeMinter.sol\":5145:5159  oldOwnerBadges */\n      dup3\n        /* \"SimpleBadgeMinter.sol\":5160:5161  i */\n      dup3\n        /* \"SimpleBadgeMinter.sol\":5145:5162  oldOwnerBadges[i] */\n      dup2\n      sload\n      dup2\n      lt\n      tag_167\n      jumpi\n      tag_167\n      tag_158\n      jump\t// in\n    tag_167:\n      swap1\n      0x00\n      mstore\n      keccak256(0x00, 0x20)\n      add\n        /* \"SimpleBadgeMinter.sol\":5145:5206  oldOwnerBadges[i] = oldOwnerBadges[oldOwnerBadges.length - 1] */\n      dup2\n      swap1\n      sstore\n      pop\n        /* \"SimpleBadgeMinter.sol\":5224:5238  oldOwnerBadges */\n      dup2\n        /* \"SimpleBadgeMinter.sol\":5224:5244  oldOwnerBadges.pop() */\n      dup1\n      sload\n      dup1\n      tag_170\n      jumpi\n      tag_170\n      tag_171\n      jump\t// in\n    tag_170:\n      0x01\n      swap1\n      sub\n      dup2\n      dup2\n      swap1\n      0x00\n      mstore\n      keccak256(0x00, 0x20)\n      add\n      0x00\n      swap1\n      sstore\n      swap1\n      sstore\n        /* \"SimpleBadgeMinter.sol\":5262:5267  break */\n      jump(tag_154)\n        /* \"SimpleBadgeMinter.sol\":5093:5282  if (oldOwnerBadges[i] == tokenId) {... */\n    tag_160:\n        /* \"SimpleBadgeMinter.sol\":5074:5077  i++ */\n      0x01\n      add\n        /* \"SimpleBadgeMinter.sol\":5027:5292  for (uint256 i = 0; i < oldOwnerBadges.length; i++) {... */\n      jump(tag_153)\n    tag_154:\n      pop\n      sub(shl(0xa0, 0x01), 0x01)\n        /* \"SimpleBadgeMinter.sol\":5347:5367  userBadges[newOwner] */\n      dup1\n      dup5\n      and\n      0x00\n      swap1\n      dup2\n      mstore\n        /* \"SimpleBadgeMinter.sol\":5347:5357  userBadges */\n      0x01\n        /* \"SimpleBadgeMinter.sol\":5347:5367  userBadges[newOwner] */\n      0x20\n      dup2\n      dup2\n      mstore\n      0x40\n      dup1\n      dup5\n      keccak256\n        /* \"SimpleBadgeMinter.sol\":5347:5381  userBadges[newOwner].push(tokenId) */\n      dup1\n      sload\n      swap4\n      dup5\n      add\n      dup2\n      sstore\n      dup5\n      mstore\n      dup2\n      dup5\n      keccak256\n      swap1\n      swap3\n      add\n      dup9\n      swap1\n      sstore\n        /* \"SimpleBadgeMinter.sol\":5458:5473  badges[tokenId] */\n      dup8\n      dup4\n      mstore\n      dup3\n      dup2\n      mstore\n      dup2\n      dup4\n      keccak256\n        /* \"SimpleBadgeMinter.sol\":5458:5480  badges[tokenId].quizId */\n      sload\n        /* \"SimpleBadgeMinter.sol\":5524:5544  quizBadges[oldOwner] */\n      swap4\n      dup7\n      and\n      dup4\n      mstore\n        /* \"SimpleBadgeMinter.sol\":5524:5534  quizBadges */\n      0x02\n        /* \"SimpleBadgeMinter.sol\":5524:5544  quizBadges[oldOwner] */\n      dup2\n      mstore\n      dup2\n      dup4\n      keccak256\n        /* \"SimpleBadgeMinter.sol\":5524:5552  quizBadges[oldOwner][quizId] */\n      dup5\n      dup5\n      mstore\n      swap1\n      mstore\n      dup2\n      keccak256\n      swap1\n        /* \"SimpleBadgeMinter.sol\":5562:5821  for (uint256 i = 0; i < oldQuizBadges.length; i++) {... */\n    tag_174:\n        /* \"SimpleBadgeMinter.sol\":5586:5606  oldQuizBadges.length */\n      dup2\n      sload\n        /* \"SimpleBadgeMinter.sol\":5582:5606  i < oldQuizBadges.length */\n      dup2\n      lt\n        /* \"SimpleBadgeMinter.sol\":5562:5821  for (uint256 i = 0; i < oldQuizBadges.length; i++) {... */\n      iszero\n      tag_175\n      jumpi\n        /* \"SimpleBadgeMinter.sol\":5651:5658  tokenId */\n      dup7\n        /* \"SimpleBadgeMinter.sol\":5631:5644  oldQuizBadges */\n      dup3\n        /* \"SimpleBadgeMinter.sol\":5645:5646  i */\n      dup3\n        /* \"SimpleBadgeMinter.sol\":5631:5647  oldQuizBadges[i] */\n      dup2\n      sload\n      dup2\n      lt\n      tag_178\n      jumpi\n      tag_178\n      tag_158\n      jump\t// in\n    tag_178:\n      swap1\n      0x00\n      mstore\n      keccak256(0x00, 0x20)\n      add\n      sload\n        /* \"SimpleBadgeMinter.sol\":5631:5658  oldQuizBadges[i] == tokenId */\n      sub\n        /* \"SimpleBadgeMinter.sol\":5627:5811  if (oldQuizBadges[i] == tokenId) {... */\n      tag_180\n      jumpi\n        /* \"SimpleBadgeMinter.sol\":5711:5731  oldQuizBadges.length */\n      dup2\n      sload\n        /* \"SimpleBadgeMinter.sol\":5697:5710  oldQuizBadges */\n      dup3\n      swap1\n        /* \"SimpleBadgeMinter.sol\":5711:5735  oldQuizBadges.length - 1 */\n      tag_181\n      swap1\n        /* \"SimpleBadgeMinter.sol\":5734:5735  1 */\n      0x01\n      swap1\n        /* \"SimpleBadgeMinter.sol\":5711:5735  oldQuizBadges.length - 1 */\n      tag_162\n      jump\t// in\n    tag_181:\n        /* \"SimpleBadgeMinter.sol\":5697:5736  oldQuizBadges[oldQuizBadges.length - 1] */\n      dup2\n      sload\n      dup2\n      lt\n      tag_183\n      jumpi\n      tag_183\n      tag_158\n      jump\t// in\n    tag_183:\n      swap1\n      0x00\n      mstore\n      keccak256(0x00, 0x20)\n      add\n      sload\n        /* \"SimpleBadgeMinter.sol\":5678:5691  oldQuizBadges */\n      dup3\n        /* \"SimpleBadgeMinter.sol\":5692:5693  i */\n      dup3\n        /* \"SimpleBadgeMinter.sol\":5678:5694  oldQuizBadges[i] */\n      dup2\n      sload\n      dup2\n      lt\n      tag_186\n      jumpi\n      tag_186\n      tag_158\n      jump\t// in\n    tag_186:\n      swap1\n      0x00\n      mstore\n      keccak256(0x00, 0x20)\n      add\n        /* \"SimpleBadgeMinter.sol\":5678:5736  oldQuizBadges[i] = oldQuizBadges[oldQuizBadges.length - 1] */\n      dup2\n      swap1\n      sstore\n      pop\n        /* \"SimpleBadgeMinter.sol\":5754:5767  oldQuizBadges */\n      dup2\n        /* \"SimpleBadgeMinter.sol\":5754:5773  oldQuizBadges.pop() */\n      dup1\n      sload\n      dup1\n      tag_189\n      jumpi\n      tag_189\n      tag_171\n      jump\t// in\n    tag_189:\n      0x01\n      swap1\n      sub\n      dup2\n      dup2\n      swap1\n      0x00\n      mstore\n      keccak256(0x00, 0x20)\n      add\n      0x00\n      swap1\n      sstore\n      swap1\n      sstore\n        /* \"SimpleBadgeMinter.sol\":5791:5796  break */\n      jump(tag_175)\n        /* \"SimpleBadgeMinter.sol\":5627:5811  if (oldQuizBadges[i] == tokenId) {... */\n    tag_180:\n        /* \"SimpleBadgeMinter.sol\":5608:5611  i++ */\n      0x01\n      add\n        /* \"SimpleBadgeMinter.sol\":5562:5821  for (uint256 i = 0; i < oldQuizBadges.length; i++) {... */\n      jump(tag_174)\n    tag_175:\n      pop\n      pop\n      sub(shl(0xa0, 0x01), 0x01)\n        /* \"SimpleBadgeMinter.sol\":5830:5850  quizBadges[newOwner] */\n      swap1\n      swap4\n      and\n      0x00\n      swap1\n      dup2\n      mstore\n        /* \"SimpleBadgeMinter.sol\":5830:5840  quizBadges */\n      0x02\n        /* \"SimpleBadgeMinter.sol\":5830:5850  quizBadges[newOwner] */\n      0x20\n      swap1\n      dup2\n      mstore\n      0x40\n      dup1\n      dup4\n      keccak256\n        /* \"SimpleBadgeMinter.sol\":5830:5858  quizBadges[newOwner][quizId] */\n      swap6\n      dup4\n      mstore\n      swap5\n      dup2\n      mstore\n      swap4\n      dup2\n      keccak256\n        /* \"SimpleBadgeMinter.sol\":5830:5872  quizBadges[newOwner][quizId].push(tokenId) */\n      dup1\n      sload\n      0x01\n      dup2\n      add\n      dup3\n      sstore\n      swap1\n      dup3\n      mstore\n      swap4\n      swap1\n      keccak256\n      swap1\n      swap3\n      add\n      swap3\n      swap1\n      swap3\n      sstore\n      pop\n      pop\n        /* \"SimpleBadgeMinter.sol\":4544:5879  function transferBadge(uint256 tokenId, address newOwner) external {... */\n      jump\t// out\n        /* \"SimpleBadgeMinter.sol\":1508:1624  function setKwalaOperator(address _kwalaOperator) external onlyOwner {... */\n    tag_62:\n        /* \"SimpleBadgeMinter.sol\":765:770  owner */\n      and(sub(shl(0xa0, 0x01), 0x01), sload(0x04))\n        /* \"SimpleBadgeMinter.sol\":751:761  msg.sender */\n      caller\n        /* \"SimpleBadgeMinter.sol\":751:770  msg.sender == owner */\n      eq\n        /* \"SimpleBadgeMinter.sol\":743:808  require(msg.sender == owner, \"Only owner can call this function\") */\n      tag_193\n      jumpi\n      mload(0x40)\n      shl(0xe5, 0x461bcd)\n      dup2\n      mstore\n        /* \"#utility.yul\":12365:12367   */\n      0x20\n        /* \"SimpleBadgeMinter.sol\":743:808  require(msg.sender == owner, \"Only owner can call this function\") */\n      0x04\n      dup3\n      add\n        /* \"#utility.yul\":12347:12368   */\n      mstore\n        /* \"#utility.yul\":12404:12406   */\n      0x21\n        /* \"#utility.yul\":12384:12402   */\n      0x24\n      dup3\n      add\n        /* \"#utility.yul\":12377:12407   */\n      mstore\n        /* \"#utility.yul\":12443:12477   */\n      0x4f6e6c79206f776e65722063616e2063616c6c20746869732066756e6374696f\n        /* \"#utility.yul\":12423:12441   */\n      0x44\n      dup3\n      add\n        /* \"#utility.yul\":12416:12478   */\n      mstore\n      shl(0xf9, 0x37)\n        /* \"#utility.yul\":12494:12512   */\n      0x64\n      dup3\n      add\n        /* \"#utility.yul\":12487:12518   */\n      mstore\n        /* \"#utility.yul\":12535:12554   */\n      0x84\n      add\n        /* \"SimpleBadgeMinter.sol\":743:808  require(msg.sender == owner, \"Only owner can call this function\") */\n      tag_113\n        /* \"#utility.yul\":12163:12560   */\n      jump\n        /* \"SimpleBadgeMinter.sol\":743:808  require(msg.sender == owner, \"Only owner can call this function\") */\n    tag_193:\n        /* \"SimpleBadgeMinter.sol\":1587:1600  kwalaOperator */\n      0x05\n        /* \"SimpleBadgeMinter.sol\":1587:1617  kwalaOperator = _kwalaOperator */\n      dup1\n      sload\n      not(0xffffffffffffffffffffffffffffffffffffffff)\n      and\n      sub(shl(0xa0, 0x01), 0x01)\n      swap3\n      swap1\n      swap3\n      and\n      swap2\n      swap1\n      swap2\n      or\n      swap1\n      sstore\n        /* \"SimpleBadgeMinter.sol\":1508:1624  function setKwalaOperator(address _kwalaOperator) external onlyOwner {... */\n      jump\t// out\n        /* \"SimpleBadgeMinter.sol\":364:403  mapping(uint256 => Badge) public badges */\n    tag_76:\n      0x00\n      0x20\n      dup2\n      swap1\n      mstore\n      swap1\n      dup2\n      mstore\n      0x40\n      swap1\n      keccak256\n      dup1\n      sload\n      0x01\n      dup3\n      add\n      sload\n      0x02\n      dup4\n      add\n      sload\n      0x03\n      dup5\n      add\n      dup1\n      sload\n      swap4\n      swap5\n      swap3\n      swap4\n      swap2\n      swap3\n      swap2\n      tag_197\n      swap1\n      tag_198\n      jump\t// in\n    tag_197:\n      dup1\n      0x1f\n      add\n      0x20\n      dup1\n      swap2\n      div\n      mul\n      0x20\n      add\n      mload(0x40)\n      swap1\n      dup2\n      add\n      0x40\n      mstore\n      dup1\n      swap3\n      swap2\n      swap1\n      dup2\n      dup2\n      mstore\n      0x20\n      add\n      dup3\n      dup1\n      sload\n      tag_199\n      swap1\n      tag_198\n      jump\t// in\n    tag_199:\n      dup1\n      iszero\n      tag_200\n      jumpi\n      dup1\n      0x1f\n      lt\n      tag_201\n      jumpi\n      0x0100\n      dup1\n      dup4\n      sload\n      div\n      mul\n      dup4\n      mstore\n      swap2\n      0x20\n      add\n      swap2\n      jump(tag_200)\n    tag_201:\n      dup3\n      add\n      swap2\n      swap1\n      0x00\n      mstore\n      keccak256(0x00, 0x20)\n      swap1\n    tag_202:\n      dup2\n      sload\n      dup2\n      mstore\n      swap1\n      0x01\n      add\n      swap1\n      0x20\n      add\n      dup1\n      dup4\n      gt\n      tag_202\n      jumpi\n      dup3\n      swap1\n      sub\n      0x1f\n      and\n      dup3\n      add\n      swap2\n    tag_200:\n      pop\n      pop\n      pop\n      pop\n      0x04\n      dup4\n      add\n      sload\n      0x05\n      dup5\n      add\n      sload\n      0x06\n      dup6\n      add\n      dup1\n      sload\n      swap5\n      swap6\n      swap3\n      swap5\n      0xff\n      dup1\n      dup5\n      and\n      swap6\n      pop\n      0x0100\n      dup5\n      div\n      and\n      swap4\n      0x010000\n      swap1\n      swap4\n      div\n      sub(shl(0xa0, 0x01), 0x01)\n      and\n      swap3\n      swap2\n      swap1\n      tag_203\n      swap1\n      tag_198\n      jump\t// in\n    tag_203:\n      dup1\n      0x1f\n      add\n      0x20\n      dup1\n      swap2\n      div\n      mul\n      0x20\n      add\n      mload(0x40)\n      swap1\n      dup2\n      add\n      0x40\n      mstore\n      dup1\n      swap3\n      swap2\n      swap1\n      dup2\n      dup2\n      mstore\n      0x20\n      add\n      dup3\n      dup1\n      sload\n      tag_204\n      swap1\n      tag_198\n      jump\t// in\n    tag_204:\n      dup1\n      iszero\n      tag_205\n      jumpi\n      dup1\n      0x1f\n      lt\n      tag_206\n      jumpi\n      0x0100\n      dup1\n      dup4\n      sload\n      div\n      mul\n      dup4\n      mstore\n      swap2\n      0x20\n      add\n      swap2\n      jump(tag_205)\n    tag_206:\n      dup3\n      add\n      swap2\n      swap1\n      0x00\n      mstore\n      keccak256(0x00, 0x20)\n      swap1\n    tag_207:\n      dup2\n      sload\n      dup2\n      mstore\n      swap1\n      0x01\n      add\n      swap1\n      0x20\n      add\n      dup1\n      dup4\n      gt\n      tag_207\n      jumpi\n      dup3\n      swap1\n      sub\n      0x1f\n      and\n      dup3\n      add\n      swap2\n    tag_205:\n      pop\n      pop\n      pop\n      pop\n      pop\n      swap1\n      pop\n      dup10\n      jump\t// out\n        /* \"SimpleBadgeMinter.sol\":3143:3289  function getUserQuizBadges(address user, uint256 quizId) external view returns (uint256[] memory) {... */\n    tag_82:\n      sub(shl(0xa0, 0x01), 0x01)\n        /* \"SimpleBadgeMinter.sol\":3258:3274  quizBadges[user] */\n      dup3\n      and\n      0x00\n      swap1\n      dup2\n      mstore\n        /* \"SimpleBadgeMinter.sol\":3258:3268  quizBadges */\n      0x02\n        /* \"SimpleBadgeMinter.sol\":3258:3274  quizBadges[user] */\n      0x20\n      swap1\n      dup2\n      mstore\n      0x40\n      dup1\n      dup4\n      keccak256\n        /* \"SimpleBadgeMinter.sol\":3258:3282  quizBadges[user][quizId] */\n      dup5\n      dup5\n      mstore\n      dup3\n      mstore\n      swap2\n      dup3\n      swap1\n      keccak256\n        /* \"SimpleBadgeMinter.sol\":3251:3282  return quizBadges[user][quizId] */\n      dup1\n      sload\n      dup4\n      mload\n      dup2\n      dup5\n      mul\n      dup2\n      add\n      dup5\n      add\n      swap1\n      swap5\n      mstore\n      dup1\n      dup5\n      mstore\n        /* \"SimpleBadgeMinter.sol\":3223:3239  uint256[] memory */\n      0x60\n      swap4\n        /* \"SimpleBadgeMinter.sol\":3251:3282  return quizBadges[user][quizId] */\n      swap3\n      dup4\n      add\n        /* \"SimpleBadgeMinter.sol\":3258:3282  quizBadges[user][quizId] */\n      dup3\n        /* \"SimpleBadgeMinter.sol\":3251:3282  return quizBadges[user][quizId] */\n      dup3\n      dup1\n      iszero\n      tag_209\n      jumpi\n      0x20\n      mul\n      dup3\n      add\n      swap2\n      swap1\n      0x00\n      mstore\n      keccak256(0x00, 0x20)\n      swap1\n    tag_210:\n      dup2\n      sload\n      dup2\n      mstore\n      0x20\n      add\n      swap1\n      0x01\n      add\n      swap1\n      dup1\n      dup4\n      gt\n      tag_210\n      jumpi\n    tag_209:\n      pop\n      pop\n      pop\n      pop\n      pop\n      swap1\n      pop\n        /* \"SimpleBadgeMinter.sol\":3143:3289  function getUserQuizBadges(address user, uint256 quizId) external view returns (uint256[] memory) {... */\n    tag_208:\n      swap3\n      swap2\n      pop\n      pop\n      jump\t// out\n        /* \"SimpleBadgeMinter.sol\":3503:3606  function getTotalBadgesMinted() external view returns (uint256) {... */\n    tag_85:\n        /* \"SimpleBadgeMinter.sol\":3558:3565  uint256 */\n      0x00\n        /* \"SimpleBadgeMinter.sol\":3598:3599  1 */\n      0x01\n        /* \"SimpleBadgeMinter.sol\":3584:3595  nextTokenId */\n      sload(0x03)\n        /* \"SimpleBadgeMinter.sol\":3584:3599  nextTokenId - 1 */\n      tag_212\n      swap2\n      swap1\n      tag_162\n      jump\t// in\n    tag_212:\n        /* \"SimpleBadgeMinter.sol\":3577:3599  return nextTokenId - 1 */\n      swap1\n      pop\n        /* \"SimpleBadgeMinter.sol\":3503:3606  function getTotalBadgesMinted() external view returns (uint256) {... */\n      swap1\n      jump\t// out\n        /* \"SimpleBadgeMinter.sol\":3957:4171  function getBadgeMetadataURI(uint256 tokenId) external view returns (string memory) {... */\n    tag_89:\n        /* \"SimpleBadgeMinter.sol\":4026:4039  string memory */\n      0x60\n        /* \"SimpleBadgeMinter.sol\":4069:4080  nextTokenId */\n      sload(0x03)\n        /* \"SimpleBadgeMinter.sol\":4059:4066  tokenId */\n      dup3\n        /* \"SimpleBadgeMinter.sol\":4059:4080  tokenId < nextTokenId */\n      lt\n        /* \"SimpleBadgeMinter.sol\":4059:4095  tokenId < nextTokenId && tokenId > 0 */\n      dup1\n      iszero\n      tag_214\n      jumpi\n      pop\n        /* \"SimpleBadgeMinter.sol\":4094:4095  0 */\n      0x00\n        /* \"SimpleBadgeMinter.sol\":4084:4091  tokenId */\n      dup3\n        /* \"SimpleBadgeMinter.sol\":4084:4095  tokenId > 0 */\n      gt\n        /* \"SimpleBadgeMinter.sol\":4059:4095  tokenId < nextTokenId && tokenId > 0 */\n    tag_214:\n        /* \"SimpleBadgeMinter.sol\":4051:4120  require(tokenId < nextTokenId && tokenId > 0, \"Badge does not exist\") */\n      tag_215\n      jumpi\n      mload(0x40)\n      shl(0xe5, 0x461bcd)\n      dup2\n      mstore\n        /* \"#utility.yul\":12016:12018   */\n      0x20\n        /* \"SimpleBadgeMinter.sol\":4051:4120  require(tokenId < nextTokenId && tokenId > 0, \"Badge does not exist\") */\n      0x04\n      dup3\n      add\n        /* \"#utility.yul\":11998:12019   */\n      mstore\n        /* \"#utility.yul\":12055:12057   */\n      0x14\n        /* \"#utility.yul\":12035:12053   */\n      0x24\n      dup3\n      add\n        /* \"#utility.yul\":12028:12058   */\n      mstore\n      shl(0x62, 0x10985919d948191bd95cc81b9bdd08195e1a5cdd)\n        /* \"#utility.yul\":12074:12092   */\n      0x44\n      dup3\n      add\n        /* \"#utility.yul\":12067:12117   */\n      mstore\n        /* \"#utility.yul\":12134:12152   */\n      0x64\n      add\n        /* \"SimpleBadgeMinter.sol\":4051:4120  require(tokenId < nextTokenId && tokenId > 0, \"Badge does not exist\") */\n      tag_113\n        /* \"#utility.yul\":11814:12158   */\n      jump\n        /* \"SimpleBadgeMinter.sol\":4051:4120  require(tokenId < nextTokenId && tokenId > 0, \"Badge does not exist\") */\n    tag_215:\n        /* \"SimpleBadgeMinter.sol\":4137:4143  badges */\n      0x00\n        /* \"SimpleBadgeMinter.sol\":4137:4152  badges[tokenId] */\n      dup3\n      dup2\n      mstore\n      0x20\n      dup2\n      swap1\n      mstore\n      0x40\n      swap1\n      keccak256\n        /* \"SimpleBadgeMinter.sol\":4137:4164  badges[tokenId].metadataURI */\n      0x06\n      add\n        /* \"SimpleBadgeMinter.sol\":4130:4164  return badges[tokenId].metadataURI */\n      dup1\n      sload\n      tag_217\n      swap1\n      tag_198\n      jump\t// in\n    tag_217:\n      dup1\n      0x1f\n      add\n      0x20\n      dup1\n      swap2\n      div\n      mul\n      0x20\n      add\n      mload(0x40)\n      swap1\n      dup2\n      add\n      0x40\n      mstore\n      dup1\n      swap3\n      swap2\n      swap1\n      dup2\n      dup2\n      mstore\n      0x20\n      add\n      dup3\n      dup1\n      sload\n      tag_218\n      swap1\n      tag_198\n      jump\t// in\n    tag_218:\n      dup1\n      iszero\n      tag_128\n      jumpi\n      dup1\n      0x1f\n      lt\n      tag_220\n      jumpi\n      0x0100\n      dup1\n      dup4\n      sload\n      div\n      mul\n      dup4\n      mstore\n      swap2\n      0x20\n      add\n      swap2\n      jump(tag_128)\n    tag_220:\n      dup3\n      add\n      swap2\n      swap1\n      0x00\n      mstore\n      keccak256(0x00, 0x20)\n      swap1\n    tag_221:\n      dup2\n      sload\n      dup2\n      mstore\n      swap1\n      0x01\n      add\n      swap1\n      0x20\n      add\n      dup1\n      dup4\n      gt\n      tag_221\n      jumpi\n      pop\n      swap4\n      swap7\n        /* \"SimpleBadgeMinter.sol\":3957:4171  function getBadgeMetadataURI(uint256 tokenId) external view returns (string memory) {... */\n      swap6\n      pop\n      pop\n      pop\n      pop\n      pop\n      pop\n      jump\t// out\n        /* \"SimpleBadgeMinter.sol\":409:456  mapping(address => uint256[]) public userBadges */\n    tag_94:\n      mstore(0x20, 0x01)\n      dup2\n      0x00\n      mstore\n      keccak256(0x00, 0x40)\n      dup2\n      dup2\n      sload\n      dup2\n      lt\n      tag_222\n      jumpi\n      0x00\n      dup1\n      revert\n    tag_222:\n      swap1\n      0x00\n      mstore\n      keccak256(0x00, 0x20)\n      add\n      0x00\n      swap2\n      pop\n      swap2\n      pop\n      pop\n      sload\n      dup2\n      jump\t// out\n        /* \"SimpleBadgeMinter.sol\":3299:3493  function getBadgeInfo(uint256 tokenId) external view returns (Badge memory) {... */\n    tag_98:\n        /* \"SimpleBadgeMinter.sol\":3361:3373  Badge memory */\n      tag_224\n      mload(0x40)\n      dup1\n      0x0120\n      add\n      0x40\n      mstore\n      dup1\n      0x00\n      dup2\n      mstore\n      0x20\n      add\n      0x00\n      dup2\n      mstore\n      0x20\n      add\n      0x00\n      dup2\n      mstore\n      0x20\n      add\n      0x60\n      dup2\n      mstore\n      0x20\n      add\n      0x00\n      dup2\n      mstore\n      0x20\n      add\n      iszero(iszero(0x00))\n      dup2\n      mstore\n      0x20\n      add\n      iszero(iszero(0x00))\n      dup2\n      mstore\n      0x20\n      add\n      and(sub(shl(0xa0, 0x01), 0x01), 0x00)\n      dup2\n      mstore\n      0x20\n      add\n      0x60\n      dup2\n      mstore\n      pop\n      swap1\n      jump\n    tag_224:\n        /* \"SimpleBadgeMinter.sol\":3403:3414  nextTokenId */\n      sload(0x03)\n        /* \"SimpleBadgeMinter.sol\":3393:3400  tokenId */\n      dup3\n        /* \"SimpleBadgeMinter.sol\":3393:3414  tokenId < nextTokenId */\n      lt\n        /* \"SimpleBadgeMinter.sol\":3393:3429  tokenId < nextTokenId && tokenId > 0 */\n      dup1\n      iszero\n      tag_227\n      jumpi\n      pop\n        /* \"SimpleBadgeMinter.sol\":3428:3429  0 */\n      0x00\n        /* \"SimpleBadgeMinter.sol\":3418:3425  tokenId */\n      dup3\n        /* \"SimpleBadgeMinter.sol\":3418:3429  tokenId > 0 */\n      gt\n        /* \"SimpleBadgeMinter.sol\":3393:3429  tokenId < nextTokenId && tokenId > 0 */\n    tag_227:\n        /* \"SimpleBadgeMinter.sol\":3385:3454  require(tokenId < nextTokenId && tokenId > 0, \"Badge does not exist\") */\n      tag_228\n      jumpi\n      mload(0x40)\n      shl(0xe5, 0x461bcd)\n      dup2\n      mstore\n        /* \"#utility.yul\":12016:12018   */\n      0x20\n        /* \"SimpleBadgeMinter.sol\":3385:3454  require(tokenId < nextTokenId && tokenId > 0, \"Badge does not exist\") */\n      0x04\n      dup3\n      add\n        /* \"#utility.yul\":11998:12019   */\n      mstore\n        /* \"#utility.yul\":12055:12057   */\n      0x14\n        /* \"#utility.yul\":12035:12053   */\n      0x24\n      dup3\n      add\n        /* \"#utility.yul\":12028:12058   */\n      mstore\n      shl(0x62, 0x10985919d948191bd95cc81b9bdd08195e1a5cdd)\n        /* \"#utility.yul\":12074:12092   */\n      0x44\n      dup3\n      add\n        /* \"#utility.yul\":12067:12117   */\n      mstore\n        /* \"#utility.yul\":12134:12152   */\n      0x64\n      add\n        /* \"SimpleBadgeMinter.sol\":3385:3454  require(tokenId < nextTokenId && tokenId > 0, \"Badge does not exist\") */\n      tag_113\n        /* \"#utility.yul\":11814:12158   */\n      jump\n        /* \"SimpleBadgeMinter.sol\":3385:3454  require(tokenId < nextTokenId && tokenId > 0, \"Badge does not exist\") */\n    tag_228:\n        /* \"SimpleBadgeMinter.sol\":3471:3477  badges */\n      0x00\n        /* \"SimpleBadgeMinter.sol\":3471:3486  badges[tokenId] */\n      dup1\n        /* \"SimpleBadgeMinter.sol\":3478:3485  tokenId */\n      dup4\n        /* \"SimpleBadgeMinter.sol\":3471:3486  badges[tokenId] */\n      dup2\n      mstore\n      0x20\n      add\n      swap1\n      dup2\n      mstore\n      0x20\n      add\n      0x00\n      keccak256\n        /* \"SimpleBadgeMinter.sol\":3464:3486  return badges[tokenId] */\n      mload(0x40)\n      dup1\n      0x0120\n      add\n      0x40\n      mstore\n      swap1\n      dup2\n      0x00\n      dup3\n      add\n      sload\n      dup2\n      mstore\n      0x20\n      add\n      0x01\n      dup3\n      add\n      sload\n      dup2\n      mstore\n      0x20\n      add\n      0x02\n      dup3\n      add\n      sload\n      dup2\n      mstore\n      0x20\n      add\n      0x03\n      dup3\n      add\n      dup1\n      sload\n      tag_230\n      swap1\n      tag_198\n      jump\t// in\n    tag_230:\n      dup1\n      0x1f\n      add\n      0x20\n      dup1\n      swap2\n      div\n      mul\n      0x20\n      add\n      mload(0x40)\n      swap1\n      dup2\n      add\n      0x40\n      mstore\n      dup1\n      swap3\n      swap2\n      swap1\n      dup2\n      dup2\n      mstore\n      0x20\n      add\n      dup3\n      dup1\n      sload\n      tag_231\n      swap1\n      tag_198\n      jump\t// in\n    tag_231:\n      dup1\n      iszero\n      tag_232\n      jumpi\n      dup1\n      0x1f\n      lt\n      tag_233\n      jumpi\n      0x0100\n      dup1\n      dup4\n      sload\n      div\n      mul\n      dup4\n      mstore\n      swap2\n      0x20\n      add\n      swap2\n      jump(tag_232)\n    tag_233:\n      dup3\n      add\n      swap2\n      swap1\n      0x00\n      mstore\n      keccak256(0x00, 0x20)\n      swap1\n    tag_234:\n      dup2\n      sload\n      dup2\n      mstore\n      swap1\n      0x01\n      add\n      swap1\n      0x20\n      add\n      dup1\n      dup4\n      gt\n      tag_234\n      jumpi\n      dup3\n      swap1\n      sub\n      0x1f\n      and\n      dup3\n      add\n      swap2\n    tag_232:\n      pop\n      pop\n      pop\n      swap2\n      dup4\n      mstore\n      pop\n      pop\n      0x04\n      dup3\n      add\n      sload\n      0x20\n      dup3\n      add\n      mstore\n      0x05\n      dup3\n      add\n      sload\n      0xff\n      dup1\n      dup3\n      and\n      iszero\n      iszero\n      0x40\n      dup5\n      add\n      mstore\n      0x0100\n      dup3\n      div\n      and\n      iszero\n      iszero\n      0x60\n      dup4\n      add\n      mstore\n      0x010000\n      swap1\n      div\n      sub(shl(0xa0, 0x01), 0x01)\n      and\n      0x80\n      dup3\n      add\n      mstore\n      0x06\n      dup3\n      add\n      dup1\n      sload\n      0xa0\n      swap1\n      swap3\n      add\n      swap2\n      tag_235\n      swap1\n      tag_198\n      jump\t// in\n    tag_235:\n      dup1\n      0x1f\n      add\n      0x20\n      dup1\n      swap2\n      div\n      mul\n      0x20\n      add\n      mload(0x40)\n      swap1\n      dup2\n      add\n      0x40\n      mstore\n      dup1\n      swap3\n      swap2\n      swap1\n      dup2\n      dup2\n      mstore\n      0x20\n      add\n      dup3\n      dup1\n      sload\n      tag_236\n      swap1\n      tag_198\n      jump\t// in\n    tag_236:\n      dup1\n      iszero\n      tag_237\n      jumpi\n      dup1\n      0x1f\n      lt\n      tag_238\n      jumpi\n      0x0100\n      dup1\n      dup4\n      sload\n      div\n      mul\n      dup4\n      mstore\n      swap2\n      0x20\n      add\n      swap2\n      jump(tag_237)\n    tag_238:\n      dup3\n      add\n      swap2\n      swap1\n      0x00\n      mstore\n      keccak256(0x00, 0x20)\n      swap1\n    tag_239:\n      dup2\n      sload\n      dup2\n      mstore\n      swap1\n      0x01\n      add\n      swap1\n      0x20\n      add\n      dup1\n      dup4\n      gt\n      tag_239\n      jumpi\n      dup3\n      swap1\n      sub\n      0x1f\n      and\n      dup3\n      add\n      swap2\n    tag_237:\n      pop\n      pop\n      pop\n      pop\n      pop\n      dup2\n      mstore\n      pop\n      pop\n      swap1\n      pop\n        /* \"SimpleBadgeMinter.sol\":3299:3493  function getBadgeInfo(uint256 tokenId) external view returns (Badge memory) {... */\n      swap2\n      swap1\n      pop\n      jump\t// out\n        /* \"SimpleBadgeMinter.sol\":3746:3947  function getBadgeOwner(uint256 tokenId) external view returns (address) {... */\n    tag_106:\n        /* \"SimpleBadgeMinter.sol\":3809:3816  address */\n      0x00\n        /* \"SimpleBadgeMinter.sol\":3846:3857  nextTokenId */\n      sload(0x03)\n        /* \"SimpleBadgeMinter.sol\":3836:3843  tokenId */\n      dup3\n        /* \"SimpleBadgeMinter.sol\":3836:3857  tokenId < nextTokenId */\n      lt\n        /* \"SimpleBadgeMinter.sol\":3836:3872  tokenId < nextTokenId && tokenId > 0 */\n      dup1\n      iszero\n      tag_241\n      jumpi\n      pop\n        /* \"SimpleBadgeMinter.sol\":3871:3872  0 */\n      0x00\n        /* \"SimpleBadgeMinter.sol\":3861:3868  tokenId */\n      dup3\n        /* \"SimpleBadgeMinter.sol\":3861:3872  tokenId > 0 */\n      gt\n        /* \"SimpleBadgeMinter.sol\":3836:3872  tokenId < nextTokenId && tokenId > 0 */\n    tag_241:\n        /* \"SimpleBadgeMinter.sol\":3828:3897  require(tokenId < nextTokenId && tokenId > 0, \"Badge does not exist\") */\n      tag_242\n      jumpi\n      mload(0x40)\n      shl(0xe5, 0x461bcd)\n      dup2\n      mstore\n        /* \"#utility.yul\":12016:12018   */\n      0x20\n        /* \"SimpleBadgeMinter.sol\":3828:3897  require(tokenId < nextTokenId && tokenId > 0, \"Badge does not exist\") */\n      0x04\n      dup3\n      add\n        /* \"#utility.yul\":11998:12019   */\n      mstore\n        /* \"#utility.yul\":12055:12057   */\n      0x14\n        /* \"#utility.yul\":12035:12053   */\n      0x24\n      dup3\n      add\n        /* \"#utility.yul\":12028:12058   */\n      mstore\n      shl(0x62, 0x10985919d948191bd95cc81b9bdd08195e1a5cdd)\n        /* \"#utility.yul\":12074:12092   */\n      0x44\n      dup3\n      add\n        /* \"#utility.yul\":12067:12117   */\n      mstore\n        /* \"#utility.yul\":12134:12152   */\n      0x64\n      add\n        /* \"SimpleBadgeMinter.sol\":3828:3897  require(tokenId < nextTokenId && tokenId > 0, \"Badge does not exist\") */\n      tag_113\n        /* \"#utility.yul\":11814:12158   */\n      jump\n        /* \"SimpleBadgeMinter.sol\":3828:3897  require(tokenId < nextTokenId && tokenId > 0, \"Badge does not exist\") */\n    tag_242:\n      pop\n        /* \"SimpleBadgeMinter.sol\":3914:3920  badges */\n      0x00\n        /* \"SimpleBadgeMinter.sol\":3914:3929  badges[tokenId] */\n      swap1\n      dup2\n      mstore\n      0x20\n      dup2\n      swap1\n      mstore\n      0x40\n      swap1\n      keccak256\n        /* \"SimpleBadgeMinter.sol\":3914:3940  badges[tokenId].badgeOwner */\n      0x05\n      add\n      sload\n      0x010000\n      swap1\n      div\n      sub(shl(0xa0, 0x01), 0x01)\n      and\n      swap1\n        /* \"SimpleBadgeMinter.sol\":3746:3947  function getBadgeOwner(uint256 tokenId) external view returns (address) {... */\n      jump\t// out\n        /* \"#utility.yul\":14:210   */\n    tag_244:\n        /* \"#utility.yul\":82:102   */\n      dup1\n      calldataload\n      sub(shl(0xa0, 0x01), 0x01)\n        /* \"#utility.yul\":131:185   */\n      dup2\n      and\n        /* \"#utility.yul\":121:186   */\n      dup2\n      eq\n        /* \"#utility.yul\":111:204   */\n      tag_257\n      jumpi\n        /* \"#utility.yul\":200:201   */\n      0x00\n        /* \"#utility.yul\":197:198   */\n      dup1\n        /* \"#utility.yul\":190:202   */\n      revert\n        /* \"#utility.yul\":111:204   */\n    tag_257:\n        /* \"#utility.yul\":14:210   */\n      swap2\n      swap1\n      pop\n      jump\t// out\n        /* \"#utility.yul\":215:537   */\n    tag_30:\n        /* \"#utility.yul\":292:298   */\n      0x00\n        /* \"#utility.yul\":300:306   */\n      dup1\n        /* \"#utility.yul\":308:314   */\n      0x00\n        /* \"#utility.yul\":361:363   */\n      0x60\n        /* \"#utility.yul\":349:358   */\n      dup5\n        /* \"#utility.yul\":340:347   */\n      dup7\n        /* \"#utility.yul\":336:359   */\n      sub\n        /* \"#utility.yul\":332:364   */\n      slt\n        /* \"#utility.yul\":329:381   */\n      iszero\n      tag_259\n      jumpi\n        /* \"#utility.yul\":377:378   */\n      0x00\n        /* \"#utility.yul\":374:375   */\n      dup1\n        /* \"#utility.yul\":367:379   */\n      revert\n        /* \"#utility.yul\":329:381   */\n    tag_259:\n        /* \"#utility.yul\":400:429   */\n      tag_260\n        /* \"#utility.yul\":419:428   */\n      dup5\n        /* \"#utility.yul\":400:429   */\n      tag_244\n      jump\t// in\n    tag_260:\n        /* \"#utility.yul\":390:429   */\n      swap6\n        /* \"#utility.yul\":476:478   */\n      0x20\n        /* \"#utility.yul\":461:479   */\n      dup6\n      add\n        /* \"#utility.yul\":448:480   */\n      calldataload\n      swap6\n      pop\n        /* \"#utility.yul\":527:529   */\n      0x40\n        /* \"#utility.yul\":512:530   */\n      swap1\n      swap5\n      add\n        /* \"#utility.yul\":499:531   */\n      calldataload\n      swap4\n        /* \"#utility.yul\":215:537   */\n      swap3\n      pop\n      pop\n      pop\n      jump\t// out\n        /* \"#utility.yul\":724:851   */\n    tag_245:\n        /* \"#utility.yul\":785:795   */\n      0x4e487b71\n        /* \"#utility.yul\":780:783   */\n      0xe0\n        /* \"#utility.yul\":776:796   */\n      shl\n        /* \"#utility.yul\":773:774   */\n      0x00\n        /* \"#utility.yul\":766:797   */\n      mstore\n        /* \"#utility.yul\":816:820   */\n      0x41\n        /* \"#utility.yul\":813:814   */\n      0x04\n        /* \"#utility.yul\":806:821   */\n      mstore\n        /* \"#utility.yul\":840:844   */\n      0x24\n        /* \"#utility.yul\":837:838   */\n      0x00\n        /* \"#utility.yul\":830:845   */\n      revert\n        /* \"#utility.yul\":856:1575   */\n    tag_246:\n        /* \"#utility.yul\":899:904   */\n      0x00\n        /* \"#utility.yul\":952:955   */\n      dup3\n        /* \"#utility.yul\":945:949   */\n      0x1f\n        /* \"#utility.yul\":937:943   */\n      dup4\n        /* \"#utility.yul\":933:950   */\n      add\n        /* \"#utility.yul\":929:956   */\n      slt\n        /* \"#utility.yul\":919:974   */\n      tag_264\n      jumpi\n        /* \"#utility.yul\":970:971   */\n      0x00\n        /* \"#utility.yul\":967:968   */\n      dup1\n        /* \"#utility.yul\":960:972   */\n      revert\n        /* \"#utility.yul\":919:974   */\n    tag_264:\n        /* \"#utility.yul\":1006:1012   */\n      dup2\n        /* \"#utility.yul\":993:1013   */\n      calldataload\n        /* \"#utility.yul\":1032:1050   */\n      0xffffffffffffffff\n        /* \"#utility.yul\":1069:1071   */\n      dup1\n        /* \"#utility.yul\":1065:1067   */\n      dup3\n        /* \"#utility.yul\":1062:1072   */\n      gt\n        /* \"#utility.yul\":1059:1095   */\n      iszero\n      tag_266\n      jumpi\n        /* \"#utility.yul\":1075:1093   */\n      tag_266\n      tag_245\n      jump\t// in\n    tag_266:\n        /* \"#utility.yul\":1150:1152   */\n      0x40\n        /* \"#utility.yul\":1144:1153   */\n      mload\n        /* \"#utility.yul\":1118:1120   */\n      0x1f\n        /* \"#utility.yul\":1204:1217   */\n      dup4\n      add\n      not(0x1f)\n        /* \"#utility.yul\":1200:1222   */\n      swap1\n      dup2\n      and\n        /* \"#utility.yul\":1224:1226   */\n      0x3f\n        /* \"#utility.yul\":1196:1227   */\n      add\n        /* \"#utility.yul\":1192:1232   */\n      and\n        /* \"#utility.yul\":1180:1233   */\n      dup2\n      add\n      swap1\n        /* \"#utility.yul\":1248:1266   */\n      dup3\n      dup3\n      gt\n        /* \"#utility.yul\":1268:1290   */\n      dup2\n      dup4\n      lt\n        /* \"#utility.yul\":1245:1291   */\n      or\n        /* \"#utility.yul\":1242:1314   */\n      iszero\n      tag_268\n      jumpi\n        /* \"#utility.yul\":1294:1312   */\n      tag_268\n      tag_245\n      jump\t// in\n    tag_268:\n        /* \"#utility.yul\":1334:1344   */\n      dup2\n        /* \"#utility.yul\":1330:1332   */\n      0x40\n        /* \"#utility.yul\":1323:1345   */\n      mstore\n        /* \"#utility.yul\":1369:1371   */\n      dup4\n        /* \"#utility.yul\":1361:1367   */\n      dup2\n        /* \"#utility.yul\":1354:1372   */\n      mstore\n        /* \"#utility.yul\":1415:1418   */\n      dup7\n        /* \"#utility.yul\":1408:1412   */\n      0x20\n        /* \"#utility.yul\":1403:1405   */\n      dup6\n        /* \"#utility.yul\":1395:1401   */\n      dup9\n        /* \"#utility.yul\":1391:1406   */\n      add\n        /* \"#utility.yul\":1387:1413   */\n      add\n        /* \"#utility.yul\":1384:1419   */\n      gt\n        /* \"#utility.yul\":1381:1436   */\n      iszero\n      tag_269\n      jumpi\n        /* \"#utility.yul\":1432:1433   */\n      0x00\n        /* \"#utility.yul\":1429:1430   */\n      dup1\n        /* \"#utility.yul\":1422:1434   */\n      revert\n        /* \"#utility.yul\":1381:1436   */\n    tag_269:\n        /* \"#utility.yul\":1496:1498   */\n      dup4\n        /* \"#utility.yul\":1489:1493   */\n      0x20\n        /* \"#utility.yul\":1481:1487   */\n      dup8\n        /* \"#utility.yul\":1477:1494   */\n      add\n        /* \"#utility.yul\":1470:1474   */\n      0x20\n        /* \"#utility.yul\":1462:1468   */\n      dup4\n        /* \"#utility.yul\":1458:1475   */\n      add\n        /* \"#utility.yul\":1445:1499   */\n      calldatacopy\n        /* \"#utility.yul\":1543:1544   */\n      0x00\n        /* \"#utility.yul\":1536:1540   */\n      0x20\n        /* \"#utility.yul\":1531:1533   */\n      dup6\n        /* \"#utility.yul\":1523:1529   */\n      dup4\n        /* \"#utility.yul\":1519:1534   */\n      add\n        /* \"#utility.yul\":1515:1541   */\n      add\n        /* \"#utility.yul\":1508:1545   */\n      mstore\n        /* \"#utility.yul\":1563:1569   */\n      dup1\n        /* \"#utility.yul\":1554:1569   */\n      swap5\n      pop\n      pop\n      pop\n      pop\n      pop\n        /* \"#utility.yul\":856:1575   */\n      swap3\n      swap2\n      pop\n      pop\n      jump\t// out\n        /* \"#utility.yul\":1580:1740   */\n    tag_247:\n        /* \"#utility.yul\":1645:1665   */\n      dup1\n      calldataload\n        /* \"#utility.yul\":1701:1714   */\n      dup1\n      iszero\n        /* \"#utility.yul\":1694:1715   */\n      iszero\n        /* \"#utility.yul\":1684:1716   */\n      dup2\n      eq\n        /* \"#utility.yul\":1674:1734   */\n      tag_257\n      jumpi\n        /* \"#utility.yul\":1730:1731   */\n      0x00\n        /* \"#utility.yul\":1727:1728   */\n      dup1\n        /* \"#utility.yul\":1720:1732   */\n      revert\n        /* \"#utility.yul\":1745:2707   */\n    tag_36:\n        /* \"#utility.yul\":1881:1887   */\n      0x00\n        /* \"#utility.yul\":1889:1895   */\n      dup1\n        /* \"#utility.yul\":1897:1903   */\n      0x00\n        /* \"#utility.yul\":1905:1911   */\n      dup1\n        /* \"#utility.yul\":1913:1919   */\n      0x00\n        /* \"#utility.yul\":1921:1927   */\n      dup1\n        /* \"#utility.yul\":1929:1935   */\n      0x00\n        /* \"#utility.yul\":1937:1943   */\n      dup1\n        /* \"#utility.yul\":1990:1993   */\n      0x0100\n        /* \"#utility.yul\":1978:1987   */\n      dup10\n        /* \"#utility.yul\":1969:1976   */\n      dup12\n        /* \"#utility.yul\":1965:1988   */\n      sub\n        /* \"#utility.yul\":1961:1994   */\n      slt\n        /* \"#utility.yul\":1958:2011   */\n      iszero\n      tag_273\n      jumpi\n        /* \"#utility.yul\":2007:2008   */\n      0x00\n        /* \"#utility.yul\":2004:2005   */\n      dup1\n        /* \"#utility.yul\":1997:2009   */\n      revert\n        /* \"#utility.yul\":1958:2011   */\n    tag_273:\n        /* \"#utility.yul\":2030:2059   */\n      tag_274\n        /* \"#utility.yul\":2049:2058   */\n      dup10\n        /* \"#utility.yul\":2030:2059   */\n      tag_244\n      jump\t// in\n    tag_274:\n        /* \"#utility.yul\":2020:2059   */\n      swap8\n      pop\n        /* \"#utility.yul\":2106:2108   */\n      0x20\n        /* \"#utility.yul\":2095:2104   */\n      dup10\n        /* \"#utility.yul\":2091:2109   */\n      add\n        /* \"#utility.yul\":2078:2110   */\n      calldataload\n        /* \"#utility.yul\":2068:2110   */\n      swap7\n      pop\n        /* \"#utility.yul\":2157:2159   */\n      0x40\n        /* \"#utility.yul\":2146:2155   */\n      dup10\n        /* \"#utility.yul\":2142:2160   */\n      add\n        /* \"#utility.yul\":2129:2161   */\n      calldataload\n        /* \"#utility.yul\":2119:2161   */\n      swap6\n      pop\n        /* \"#utility.yul\":2208:2210   */\n      0x60\n        /* \"#utility.yul\":2197:2206   */\n      dup10\n        /* \"#utility.yul\":2193:2211   */\n      add\n        /* \"#utility.yul\":2180:2212   */\n      calldataload\n        /* \"#utility.yul\":2170:2212   */\n      swap5\n      pop\n        /* \"#utility.yul\":2263:2266   */\n      0x80\n        /* \"#utility.yul\":2252:2261   */\n      dup10\n        /* \"#utility.yul\":2248:2267   */\n      add\n        /* \"#utility.yul\":2235:2268   */\n      calldataload\n        /* \"#utility.yul\":2287:2305   */\n      0xffffffffffffffff\n        /* \"#utility.yul\":2328:2330   */\n      dup1\n        /* \"#utility.yul\":2320:2326   */\n      dup3\n        /* \"#utility.yul\":2317:2331   */\n      gt\n        /* \"#utility.yul\":2314:2348   */\n      iszero\n      tag_275\n      jumpi\n        /* \"#utility.yul\":2344:2345   */\n      0x00\n        /* \"#utility.yul\":2341:2342   */\n      dup1\n        /* \"#utility.yul\":2334:2346   */\n      revert\n        /* \"#utility.yul\":2314:2348   */\n    tag_275:\n        /* \"#utility.yul\":2367:2417   */\n      tag_276\n        /* \"#utility.yul\":2409:2416   */\n      dup13\n        /* \"#utility.yul\":2400:2406   */\n      dup4\n        /* \"#utility.yul\":2389:2398   */\n      dup14\n        /* \"#utility.yul\":2385:2407   */\n      add\n        /* \"#utility.yul\":2367:2417   */\n      tag_246\n      jump\t// in\n    tag_276:\n        /* \"#utility.yul\":2357:2417   */\n      swap6\n      pop\n        /* \"#utility.yul\":2436:2472   */\n      tag_277\n        /* \"#utility.yul\":2467:2470   */\n      0xa0\n        /* \"#utility.yul\":2456:2465   */\n      dup13\n        /* \"#utility.yul\":2452:2471   */\n      add\n        /* \"#utility.yul\":2436:2472   */\n      tag_247\n      jump\t// in\n    tag_277:\n        /* \"#utility.yul\":2426:2472   */\n      swap5\n      pop\n        /* \"#utility.yul\":2491:2527   */\n      tag_278\n        /* \"#utility.yul\":2522:2525   */\n      0xc0\n        /* \"#utility.yul\":2511:2520   */\n      dup13\n        /* \"#utility.yul\":2507:2526   */\n      add\n        /* \"#utility.yul\":2491:2527   */\n      tag_247\n      jump\t// in\n    tag_278:\n        /* \"#utility.yul\":2481:2527   */\n      swap4\n      pop\n        /* \"#utility.yul\":2580:2583   */\n      0xe0\n        /* \"#utility.yul\":2569:2578   */\n      dup12\n        /* \"#utility.yul\":2565:2584   */\n      add\n        /* \"#utility.yul\":2552:2585   */\n      calldataload\n        /* \"#utility.yul\":2536:2585   */\n      swap2\n      pop\n        /* \"#utility.yul\":2610:2612   */\n      dup1\n        /* \"#utility.yul\":2600:2608   */\n      dup3\n        /* \"#utility.yul\":2597:2613   */\n      gt\n        /* \"#utility.yul\":2594:2630   */\n      iszero\n      tag_279\n      jumpi\n        /* \"#utility.yul\":2626:2627   */\n      0x00\n        /* \"#utility.yul\":2623:2624   */\n      dup1\n        /* \"#utility.yul\":2616:2628   */\n      revert\n        /* \"#utility.yul\":2594:2630   */\n    tag_279:\n      pop\n        /* \"#utility.yul\":2649:2701   */\n      tag_280\n        /* \"#utility.yul\":2693:2700   */\n      dup12\n        /* \"#utility.yul\":2682:2690   */\n      dup3\n        /* \"#utility.yul\":2671:2680   */\n      dup13\n        /* \"#utility.yul\":2667:2691   */\n      add\n        /* \"#utility.yul\":2649:2701   */\n      tag_246\n      jump\t// in\n    tag_280:\n        /* \"#utility.yul\":2639:2701   */\n      swap2\n      pop\n      pop\n        /* \"#utility.yul\":1745:2707   */\n      swap3\n      swap6\n      swap9\n      pop\n      swap3\n      swap6\n      swap9\n      swap1\n      swap4\n      swap7\n      pop\n      jump\t// out\n        /* \"#utility.yul\":2712:2898   */\n    tag_41:\n        /* \"#utility.yul\":2771:2777   */\n      0x00\n        /* \"#utility.yul\":2824:2826   */\n      0x20\n        /* \"#utility.yul\":2812:2821   */\n      dup3\n        /* \"#utility.yul\":2803:2810   */\n      dup5\n        /* \"#utility.yul\":2799:2822   */\n      sub\n        /* \"#utility.yul\":2795:2827   */\n      slt\n        /* \"#utility.yul\":2792:2844   */\n      iszero\n      tag_282\n      jumpi\n        /* \"#utility.yul\":2840:2841   */\n      0x00\n        /* \"#utility.yul\":2837:2838   */\n      dup1\n        /* \"#utility.yul\":2830:2842   */\n      revert\n        /* \"#utility.yul\":2792:2844   */\n    tag_282:\n        /* \"#utility.yul\":2863:2892   */\n      tag_283\n        /* \"#utility.yul\":2882:2891   */\n      dup3\n        /* \"#utility.yul\":2863:2892   */\n      tag_244\n      jump\t// in\n    tag_283:\n        /* \"#utility.yul\":2853:2892   */\n      swap4\n        /* \"#utility.yul\":2712:2898   */\n      swap3\n      pop\n      pop\n      pop\n      jump\t// out\n        /* \"#utility.yul\":2903:3535   */\n    tag_44:\n        /* \"#utility.yul\":3074:3076   */\n      0x20\n        /* \"#utility.yul\":3126:3147   */\n      dup1\n      dup3\n      mstore\n        /* \"#utility.yul\":3196:3209   */\n      dup3\n      mload\n        /* \"#utility.yul\":3099:3117   */\n      dup3\n      dup3\n      add\n        /* \"#utility.yul\":3218:3240   */\n      dup2\n      swap1\n      mstore\n        /* \"#utility.yul\":3045:3049   */\n      0x00\n      swap2\n        /* \"#utility.yul\":3074:3076   */\n      swap1\n        /* \"#utility.yul\":3297:3312   */\n      dup5\n      dup3\n      add\n      swap1\n        /* \"#utility.yul\":3271:3273   */\n      0x40\n        /* \"#utility.yul\":3256:3274   */\n      dup6\n      add\n      swap1\n        /* \"#utility.yul\":3045:3049   */\n      dup5\n        /* \"#utility.yul\":3340:3509   */\n    tag_285:\n        /* \"#utility.yul\":3354:3360   */\n      dup2\n        /* \"#utility.yul\":3351:3352   */\n      dup2\n        /* \"#utility.yul\":3348:3361   */\n      lt\n        /* \"#utility.yul\":3340:3509   */\n      iszero\n      tag_287\n      jumpi\n        /* \"#utility.yul\":3415:3428   */\n      dup4\n      mload\n        /* \"#utility.yul\":3403:3429   */\n      dup4\n      mstore\n        /* \"#utility.yul\":3484:3499   */\n      swap3\n      dup5\n      add\n      swap3\n        /* \"#utility.yul\":3449:3461   */\n      swap2\n      dup5\n      add\n      swap2\n        /* \"#utility.yul\":3376:3377   */\n      0x01\n        /* \"#utility.yul\":3369:3378   */\n      add\n        /* \"#utility.yul\":3340:3509   */\n      jump(tag_285)\n    tag_287:\n      pop\n        /* \"#utility.yul\":3526:3529   */\n      swap1\n      swap7\n        /* \"#utility.yul\":2903:3535   */\n      swap6\n      pop\n      pop\n      pop\n      pop\n      pop\n      pop\n      jump\t// out\n        /* \"#utility.yul\":3540:3930   */\n    tag_47:\n        /* \"#utility.yul\":3618:3624   */\n      0x00\n        /* \"#utility.yul\":3626:3632   */\n      dup1\n        /* \"#utility.yul\":3679:3681   */\n      0x40\n        /* \"#utility.yul\":3667:3676   */\n      dup4\n        /* \"#utility.yul\":3658:3665   */\n      dup6\n        /* \"#utility.yul\":3654:3677   */\n      sub\n        /* \"#utility.yul\":3650:3682   */\n      slt\n        /* \"#utility.yul\":3647:3699   */\n      iszero\n      tag_289\n      jumpi\n        /* \"#utility.yul\":3695:3696   */\n      0x00\n        /* \"#utility.yul\":3692:3693   */\n      dup1\n        /* \"#utility.yul\":3685:3697   */\n      revert\n        /* \"#utility.yul\":3647:3699   */\n    tag_289:\n        /* \"#utility.yul\":3731:3740   */\n      dup3\n        /* \"#utility.yul\":3718:3741   */\n      calldataload\n        /* \"#utility.yul\":3708:3741   */\n      swap2\n      pop\n        /* \"#utility.yul\":3792:3794   */\n      0x20\n        /* \"#utility.yul\":3781:3790   */\n      dup4\n        /* \"#utility.yul\":3777:3795   */\n      add\n        /* \"#utility.yul\":3764:3796   */\n      calldataload\n        /* \"#utility.yul\":3819:3837   */\n      0xffffffffffffffff\n        /* \"#utility.yul\":3811:3817   */\n      dup2\n        /* \"#utility.yul\":3808:3838   */\n      gt\n        /* \"#utility.yul\":3805:3855   */\n      iszero\n      tag_290\n      jumpi\n        /* \"#utility.yul\":3851:3852   */\n      0x00\n        /* \"#utility.yul\":3848:3849   */\n      dup1\n        /* \"#utility.yul\":3841:3853   */\n      revert\n        /* \"#utility.yul\":3805:3855   */\n    tag_290:\n        /* \"#utility.yul\":3874:3924   */\n      tag_291\n        /* \"#utility.yul\":3916:3923   */\n      dup6\n        /* \"#utility.yul\":3907:3913   */\n      dup3\n        /* \"#utility.yul\":3896:3905   */\n      dup7\n        /* \"#utility.yul\":3892:3914   */\n      add\n        /* \"#utility.yul\":3874:3924   */\n      tag_246\n      jump\t// in\n    tag_291:\n        /* \"#utility.yul\":3864:3924   */\n      swap2\n      pop\n      pop\n        /* \"#utility.yul\":3540:3930   */\n      swap3\n      pop\n      swap3\n      swap1\n      pop\n      jump\t// out\n        /* \"#utility.yul\":4298:4552   */\n    tag_58:\n        /* \"#utility.yul\":4366:4372   */\n      0x00\n        /* \"#utility.yul\":4374:4380   */\n      dup1\n        /* \"#utility.yul\":4427:4429   */\n      0x40\n        /* \"#utility.yul\":4415:4424   */\n      dup4\n        /* \"#utility.yul\":4406:4413   */\n      dup6\n        /* \"#utility.yul\":4402:4425   */\n      sub\n        /* \"#utility.yul\":4398:4430   */\n      slt\n        /* \"#utility.yul\":4395:4447   */\n      iszero\n      tag_295\n      jumpi\n        /* \"#utility.yul\":4443:4444   */\n      0x00\n        /* \"#utility.yul\":4440:4441   */\n      dup1\n        /* \"#utility.yul\":4433:4445   */\n      revert\n        /* \"#utility.yul\":4395:4447   */\n    tag_295:\n        /* \"#utility.yul\":4479:4488   */\n      dup3\n        /* \"#utility.yul\":4466:4489   */\n      calldataload\n        /* \"#utility.yul\":4456:4489   */\n      swap2\n      pop\n        /* \"#utility.yul\":4508:4546   */\n      tag_296\n        /* \"#utility.yul\":4542:4544   */\n      0x20\n        /* \"#utility.yul\":4531:4540   */\n      dup5\n        /* \"#utility.yul\":4527:4545   */\n      add\n        /* \"#utility.yul\":4508:4546   */\n      tag_244\n      jump\t// in\n    tag_296:\n        /* \"#utility.yul\":4498:4546   */\n      swap1\n      pop\n        /* \"#utility.yul\":4298:4552   */\n      swap3\n      pop\n      swap3\n      swap1\n      pop\n      jump\t// out\n        /* \"#utility.yul\":4557:4737   */\n    tag_75:\n        /* \"#utility.yul\":4616:4622   */\n      0x00\n        /* \"#utility.yul\":4669:4671   */\n      0x20\n        /* \"#utility.yul\":4657:4666   */\n      dup3\n        /* \"#utility.yul\":4648:4655   */\n      dup5\n        /* \"#utility.yul\":4644:4667   */\n      sub\n        /* \"#utility.yul\":4640:4672   */\n      slt\n        /* \"#utility.yul\":4637:4689   */\n      iszero\n      tag_298\n      jumpi\n        /* \"#utility.yul\":4685:4686   */\n      0x00\n        /* \"#utility.yul\":4682:4683   */\n      dup1\n        /* \"#utility.yul\":4675:4687   */\n      revert\n        /* \"#utility.yul\":4637:4689   */\n    tag_298:\n      pop\n        /* \"#utility.yul\":4708:4731   */\n      calldataload\n      swap2\n        /* \"#utility.yul\":4557:4737   */\n      swap1\n      pop\n      jump\t// out\n        /* \"#utility.yul\":4742:5031   */\n    tag_249:\n        /* \"#utility.yul\":4784:4787   */\n      0x00\n        /* \"#utility.yul\":4822:4827   */\n      dup2\n        /* \"#utility.yul\":4816:4828   */\n      mload\n        /* \"#utility.yul\":4849:4855   */\n      dup1\n        /* \"#utility.yul\":4844:4847   */\n      dup5\n        /* \"#utility.yul\":4837:4856   */\n      mstore\n        /* \"#utility.yul\":4905:4911   */\n      dup1\n        /* \"#utility.yul\":4898:4902   */\n      0x20\n        /* \"#utility.yul\":4891:4896   */\n      dup5\n        /* \"#utility.yul\":4887:4903   */\n      add\n        /* \"#utility.yul\":4880:4884   */\n      0x20\n        /* \"#utility.yul\":4875:4878   */\n      dup7\n        /* \"#utility.yul\":4871:4885   */\n      add\n        /* \"#utility.yul\":4865:4912   */\n      mcopy\n        /* \"#utility.yul\":4957:4958   */\n      0x00\n        /* \"#utility.yul\":4950:4954   */\n      0x20\n        /* \"#utility.yul\":4941:4947   */\n      dup3\n        /* \"#utility.yul\":4936:4939   */\n      dup7\n        /* \"#utility.yul\":4932:4948   */\n      add\n        /* \"#utility.yul\":4928:4955   */\n      add\n        /* \"#utility.yul\":4921:4959   */\n      mstore\n        /* \"#utility.yul\":5020:5024   */\n      0x20\n        /* \"#utility.yul\":5013:5015   */\n      0x1f\n        /* \"#utility.yul\":5009:5016   */\n      not\n        /* \"#utility.yul\":5004:5006   */\n      0x1f\n        /* \"#utility.yul\":4996:5002   */\n      dup4\n        /* \"#utility.yul\":4992:5007   */\n      add\n        /* \"#utility.yul\":4988:5017   */\n      and\n        /* \"#utility.yul\":4983:4986   */\n      dup6\n        /* \"#utility.yul\":4979:5018   */\n      add\n        /* \"#utility.yul\":4975:5025   */\n      add\n        /* \"#utility.yul\":4968:5025   */\n      swap2\n      pop\n      pop\n        /* \"#utility.yul\":4742:5031   */\n      swap3\n      swap2\n      pop\n      pop\n      jump\t// out\n        /* \"#utility.yul\":5132:6108   */\n    tag_78:\n        /* \"#utility.yul\":5476:5480   */\n      0x00\n        /* \"#utility.yul\":5505:5508   */\n      0x0120\n        /* \"#utility.yul\":5535:5541   */\n      dup12\n        /* \"#utility.yul\":5524:5533   */\n      dup4\n        /* \"#utility.yul\":5517:5542   */\n      mstore\n        /* \"#utility.yul\":5578:5584   */\n      dup11\n        /* \"#utility.yul\":5573:5575   */\n      0x20\n        /* \"#utility.yul\":5562:5571   */\n      dup5\n        /* \"#utility.yul\":5558:5576   */\n      add\n        /* \"#utility.yul\":5551:5585   */\n      mstore\n        /* \"#utility.yul\":5621:5627   */\n      dup10\n        /* \"#utility.yul\":5616:5618   */\n      0x40\n        /* \"#utility.yul\":5605:5614   */\n      dup5\n        /* \"#utility.yul\":5601:5619   */\n      add\n        /* \"#utility.yul\":5594:5628   */\n      mstore\n        /* \"#utility.yul\":5664:5666   */\n      dup1\n        /* \"#utility.yul\":5659:5661   */\n      0x60\n        /* \"#utility.yul\":5648:5657   */\n      dup5\n        /* \"#utility.yul\":5644:5662   */\n      add\n        /* \"#utility.yul\":5637:5667   */\n      mstore\n        /* \"#utility.yul\":5690:5735   */\n      tag_302\n        /* \"#utility.yul\":5731:5733   */\n      dup2\n        /* \"#utility.yul\":5720:5729   */\n      dup5\n        /* \"#utility.yul\":5716:5734   */\n      add\n        /* \"#utility.yul\":5708:5714   */\n      dup11\n        /* \"#utility.yul\":5690:5735   */\n      tag_249\n      jump\t// in\n    tag_302:\n        /* \"#utility.yul\":5676:5735   */\n      swap1\n      pop\n        /* \"#utility.yul\":5772:5778   */\n      dup8\n        /* \"#utility.yul\":5766:5769   */\n      0x80\n        /* \"#utility.yul\":5755:5764   */\n      dup5\n        /* \"#utility.yul\":5751:5770   */\n      add\n        /* \"#utility.yul\":5744:5779   */\n      mstore\n        /* \"#utility.yul\":5830:5836   */\n      dup7\n        /* \"#utility.yul\":5823:5837   */\n      iszero\n        /* \"#utility.yul\":5816:5838   */\n      iszero\n        /* \"#utility.yul\":5810:5813   */\n      0xa0\n        /* \"#utility.yul\":5799:5808   */\n      dup5\n        /* \"#utility.yul\":5795:5814   */\n      add\n        /* \"#utility.yul\":5788:5839   */\n      mstore\n        /* \"#utility.yul\":5890:5896   */\n      dup6\n        /* \"#utility.yul\":5883:5897   */\n      iszero\n        /* \"#utility.yul\":5876:5898   */\n      iszero\n        /* \"#utility.yul\":5870:5873   */\n      0xc0\n        /* \"#utility.yul\":5859:5868   */\n      dup5\n        /* \"#utility.yul\":5855:5874   */\n      add\n        /* \"#utility.yul\":5848:5899   */\n      mstore\n      sub(shl(0xa0, 0x01), 0x01)\n        /* \"#utility.yul\":5940:5946   */\n      dup6\n        /* \"#utility.yul\":5936:5991   */\n      and\n        /* \"#utility.yul\":5930:5933   */\n      0xe0\n        /* \"#utility.yul\":5919:5928   */\n      dup5\n        /* \"#utility.yul\":5915:5934   */\n      add\n        /* \"#utility.yul\":5908:5992   */\n      mstore\n        /* \"#utility.yul\":6041:6050   */\n      dup3\n        /* \"#utility.yul\":6033:6039   */\n      dup2\n        /* \"#utility.yul\":6029:6051   */\n      sub\n        /* \"#utility.yul\":6023:6026   */\n      0x0100\n        /* \"#utility.yul\":6012:6021   */\n      dup5\n        /* \"#utility.yul\":6008:6027   */\n      add\n        /* \"#utility.yul\":6001:6052   */\n      mstore\n        /* \"#utility.yul\":6069:6102   */\n      tag_303\n        /* \"#utility.yul\":6095:6101   */\n      dup2\n        /* \"#utility.yul\":6087:6093   */\n      dup6\n        /* \"#utility.yul\":6069:6102   */\n      tag_249\n      jump\t// in\n    tag_303:\n        /* \"#utility.yul\":6061:6102   */\n      swap13\n        /* \"#utility.yul\":5132:6108   */\n      swap12\n      pop\n      pop\n      pop\n      pop\n      pop\n      pop\n      pop\n      pop\n      pop\n      pop\n      pop\n      pop\n      jump\t// out\n        /* \"#utility.yul\":6113:6367   */\n    tag_81:\n        /* \"#utility.yul\":6181:6187   */\n      0x00\n        /* \"#utility.yul\":6189:6195   */\n      dup1\n        /* \"#utility.yul\":6242:6244   */\n      0x40\n        /* \"#utility.yul\":6230:6239   */\n      dup4\n        /* \"#utility.yul\":6221:6228   */\n      dup6\n        /* \"#utility.yul\":6217:6240   */\n      sub\n        /* \"#utility.yul\":6213:6245   */\n      slt\n        /* \"#utility.yul\":6210:6262   */\n      iszero\n      tag_305\n      jumpi\n        /* \"#utility.yul\":6258:6259   */\n      0x00\n        /* \"#utility.yul\":6255:6256   */\n      dup1\n        /* \"#utility.yul\":6248:6260   */\n      revert\n        /* \"#utility.yul\":6210:6262   */\n    tag_305:\n        /* \"#utility.yul\":6281:6310   */\n      tag_306\n        /* \"#utility.yul\":6300:6309   */\n      dup4\n        /* \"#utility.yul\":6281:6310   */\n      tag_244\n      jump\t// in\n    tag_306:\n        /* \"#utility.yul\":6271:6310   */\n      swap5\n        /* \"#utility.yul\":6357:6359   */\n      0x20\n        /* \"#utility.yul\":6342:6360   */\n      swap4\n      swap1\n      swap4\n      add\n        /* \"#utility.yul\":6329:6361   */\n      calldataload\n      swap4\n      pop\n      pop\n      pop\n        /* \"#utility.yul\":6113:6367   */\n      jump\t// out\n        /* \"#utility.yul\":6372:6592   */\n    tag_91:\n        /* \"#utility.yul\":6521:6523   */\n      0x20\n        /* \"#utility.yul\":6510:6519   */\n      dup2\n        /* \"#utility.yul\":6503:6524   */\n      mstore\n        /* \"#utility.yul\":6484:6488   */\n      0x00\n        /* \"#utility.yul\":6541:6586   */\n      tag_283\n        /* \"#utility.yul\":6582:6584   */\n      0x20\n        /* \"#utility.yul\":6571:6580   */\n      dup4\n        /* \"#utility.yul\":6567:6585   */\n      add\n        /* \"#utility.yul\":6559:6565   */\n      dup5\n        /* \"#utility.yul\":6541:6586   */\n      tag_249\n      jump\t// in\n        /* \"#utility.yul\":6597:7752   */\n    tag_100:\n        /* \"#utility.yul\":6770:6772   */\n      0x20\n        /* \"#utility.yul\":6759:6768   */\n      dup2\n        /* \"#utility.yul\":6752:6773   */\n      mstore\n        /* \"#utility.yul\":6815:6821   */\n      dup2\n        /* \"#utility.yul\":6809:6822   */\n      mload\n        /* \"#utility.yul\":6804:6806   */\n      0x20\n        /* \"#utility.yul\":6793:6802   */\n      dup3\n        /* \"#utility.yul\":6789:6807   */\n      add\n        /* \"#utility.yul\":6782:6823   */\n      mstore\n        /* \"#utility.yul\":6877:6879   */\n      0x20\n        /* \"#utility.yul\":6869:6875   */\n      dup3\n        /* \"#utility.yul\":6865:6880   */\n      add\n        /* \"#utility.yul\":6859:6881   */\n      mload\n        /* \"#utility.yul\":6854:6856   */\n      0x40\n        /* \"#utility.yul\":6843:6852   */\n      dup3\n        /* \"#utility.yul\":6839:6857   */\n      add\n        /* \"#utility.yul\":6832:6882   */\n      mstore\n        /* \"#utility.yul\":6936:6938   */\n      0x40\n        /* \"#utility.yul\":6928:6934   */\n      dup3\n        /* \"#utility.yul\":6924:6939   */\n      add\n        /* \"#utility.yul\":6918:6940   */\n      mload\n        /* \"#utility.yul\":6913:6915   */\n      0x60\n        /* \"#utility.yul\":6902:6911   */\n      dup3\n        /* \"#utility.yul\":6898:6916   */\n      add\n        /* \"#utility.yul\":6891:6941   */\n      mstore\n        /* \"#utility.yul\":6733:6737   */\n      0x00\n        /* \"#utility.yul\":6988:6990   */\n      0x60\n        /* \"#utility.yul\":6980:6986   */\n      dup4\n        /* \"#utility.yul\":6976:6991   */\n      add\n        /* \"#utility.yul\":6970:6992   */\n      mload\n        /* \"#utility.yul\":7011:7017   */\n      0x0120\n        /* \"#utility.yul\":7054:7056   */\n      dup1\n        /* \"#utility.yul\":7048:7051   */\n      0x80\n        /* \"#utility.yul\":7037:7046   */\n      dup6\n        /* \"#utility.yul\":7033:7052   */\n      add\n        /* \"#utility.yul\":7026:7057   */\n      mstore\n        /* \"#utility.yul\":7080:7132   */\n      tag_310\n        /* \"#utility.yul\":7127:7130   */\n      0x0140\n        /* \"#utility.yul\":7116:7125   */\n      dup6\n        /* \"#utility.yul\":7112:7131   */\n      add\n        /* \"#utility.yul\":7098:7110   */\n      dup4\n        /* \"#utility.yul\":7080:7132   */\n      tag_249\n      jump\t// in\n    tag_310:\n        /* \"#utility.yul\":7066:7132   */\n      swap2\n      pop\n        /* \"#utility.yul\":7187:7190   */\n      0x80\n        /* \"#utility.yul\":7179:7185   */\n      dup6\n        /* \"#utility.yul\":7175:7191   */\n      add\n        /* \"#utility.yul\":7169:7192   */\n      mload\n        /* \"#utility.yul\":7163:7166   */\n      0xa0\n        /* \"#utility.yul\":7152:7161   */\n      dup6\n        /* \"#utility.yul\":7148:7167   */\n      add\n        /* \"#utility.yul\":7141:7193   */\n      mstore\n        /* \"#utility.yul\":7242:7245   */\n      0xa0\n        /* \"#utility.yul\":7234:7240   */\n      dup6\n        /* \"#utility.yul\":7230:7246   */\n      add\n        /* \"#utility.yul\":7224:7247   */\n      mload\n        /* \"#utility.yul\":7256:7308   */\n      tag_311\n        /* \"#utility.yul\":7303:7306   */\n      0xc0\n        /* \"#utility.yul\":7292:7301   */\n      dup7\n        /* \"#utility.yul\":7288:7307   */\n      add\n        /* \"#utility.yul\":7272:7286   */\n      dup3\n        /* \"#utility.yul\":5106:5119   */\n      iszero\n        /* \"#utility.yul\":5099:5120   */\n      iszero\n        /* \"#utility.yul\":5087:5121   */\n      swap1\n      mstore\n        /* \"#utility.yul\":5036:5127   */\n      jump\n        /* \"#utility.yul\":7256:7308   */\n    tag_311:\n      pop\n        /* \"#utility.yul\":7357:7360   */\n      0xc0\n        /* \"#utility.yul\":7345:7361   */\n      dup6\n      add\n        /* \"#utility.yul\":7339:7362   */\n      mload\n        /* \"#utility.yul\":5106:5119   */\n      dup1\n      iszero\n        /* \"#utility.yul\":5099:5120   */\n      iszero\n        /* \"#utility.yul\":7418:7421   */\n      0xe0\n        /* \"#utility.yul\":7403:7422   */\n      dup7\n      add\n        /* \"#utility.yul\":5087:5121   */\n      mstore\n        /* \"#utility.yul\":7371:7423   */\n      pop\n        /* \"#utility.yul\":7472:7475   */\n      0xe0\n        /* \"#utility.yul\":7464:7470   */\n      dup6\n        /* \"#utility.yul\":7460:7476   */\n      add\n        /* \"#utility.yul\":7454:7477   */\n      mload\n        /* \"#utility.yul\":7496:7499   */\n      0x0100\n        /* \"#utility.yul\":7508:7562   */\n      tag_313\n        /* \"#utility.yul\":7558:7560   */\n      dup2\n        /* \"#utility.yul\":7547:7556   */\n      dup8\n        /* \"#utility.yul\":7543:7561   */\n      add\n        /* \"#utility.yul\":7527:7541   */\n      dup4\n      sub(shl(0xa0, 0x01), 0x01)\n        /* \"#utility.yul\":4001:4055   */\n      and\n        /* \"#utility.yul\":3989:4056   */\n      swap1\n      mstore\n        /* \"#utility.yul\":3935:4062   */\n      jump\n        /* \"#utility.yul\":7508:7562   */\n    tag_313:\n        /* \"#utility.yul\":7599:7614   */\n      dup7\n      add\n        /* \"#utility.yul\":7593:7615   */\n      mload\n        /* \"#utility.yul\":7655:7677   */\n      dup6\n      dup5\n      sub\n      not(0x1f)\n        /* \"#utility.yul\":7651:7687   */\n      add\n        /* \"#utility.yul\":7631:7649   */\n      dup4\n      dup8\n      add\n        /* \"#utility.yul\":7624:7688   */\n      mstore\n        /* \"#utility.yul\":7593:7615   */\n      swap1\n      pop\n        /* \"#utility.yul\":7705:7746   */\n      tag_314\n        /* \"#utility.yul\":7659:7665   */\n      dup4\n        /* \"#utility.yul\":7593:7615   */\n      dup3\n        /* \"#utility.yul\":7705:7746   */\n      tag_249\n      jump\t// in\n    tag_314:\n        /* \"#utility.yul\":7697:7746   */\n      swap7\n        /* \"#utility.yul\":6597:7752   */\n      swap6\n      pop\n      pop\n      pop\n      pop\n      pop\n      pop\n      jump\t// out\n        /* \"#utility.yul\":8159:8286   */\n    tag_251:\n        /* \"#utility.yul\":8220:8230   */\n      0x4e487b71\n        /* \"#utility.yul\":8215:8218   */\n      0xe0\n        /* \"#utility.yul\":8211:8231   */\n      shl\n        /* \"#utility.yul\":8208:8209   */\n      0x00\n        /* \"#utility.yul\":8201:8232   */\n      mstore\n        /* \"#utility.yul\":8251:8255   */\n      0x11\n        /* \"#utility.yul\":8248:8249   */\n      0x04\n        /* \"#utility.yul\":8241:8256   */\n      mstore\n        /* \"#utility.yul\":8275:8279   */\n      0x24\n        /* \"#utility.yul\":8272:8273   */\n      0x00\n        /* \"#utility.yul\":8265:8280   */\n      revert\n        /* \"#utility.yul\":8291:8426   */\n    tag_117:\n        /* \"#utility.yul\":8330:8333   */\n      0x00\n        /* \"#utility.yul\":8351:8368   */\n      0x01\n      dup3\n      add\n        /* \"#utility.yul\":8348:8391   */\n      tag_319\n      jumpi\n        /* \"#utility.yul\":8371:8389   */\n      tag_319\n      tag_251\n      jump\t// in\n    tag_319:\n      pop\n        /* \"#utility.yul\":8418:8419   */\n      0x01\n        /* \"#utility.yul\":8407:8420   */\n      add\n      swap1\n        /* \"#utility.yul\":8291:8426   */\n      jump\t// out\n        /* \"#utility.yul\":8431:8811   */\n    tag_198:\n        /* \"#utility.yul\":8510:8511   */\n      0x01\n        /* \"#utility.yul\":8506:8518   */\n      dup2\n      dup2\n      shr\n      swap1\n        /* \"#utility.yul\":8553:8565   */\n      dup3\n      and\n      dup1\n        /* \"#utility.yul\":8574:8635   */\n      tag_321\n      jumpi\n        /* \"#utility.yul\":8628:8632   */\n      0x7f\n        /* \"#utility.yul\":8620:8626   */\n      dup3\n        /* \"#utility.yul\":8616:8633   */\n      and\n        /* \"#utility.yul\":8606:8633   */\n      swap2\n      pop\n        /* \"#utility.yul\":8574:8635   */\n    tag_321:\n        /* \"#utility.yul\":8681:8683   */\n      0x20\n        /* \"#utility.yul\":8673:8679   */\n      dup3\n        /* \"#utility.yul\":8670:8684   */\n      lt\n        /* \"#utility.yul\":8650:8668   */\n      dup2\n        /* \"#utility.yul\":8647:8685   */\n      sub\n        /* \"#utility.yul\":8644:8805   */\n      tag_322\n      jumpi\n        /* \"#utility.yul\":8727:8737   */\n      0x4e487b71\n        /* \"#utility.yul\":8722:8725   */\n      0xe0\n        /* \"#utility.yul\":8718:8738   */\n      shl\n        /* \"#utility.yul\":8715:8716   */\n      0x00\n        /* \"#utility.yul\":8708:8739   */\n      mstore\n        /* \"#utility.yul\":8762:8766   */\n      0x22\n        /* \"#utility.yul\":8759:8760   */\n      0x04\n        /* \"#utility.yul\":8752:8767   */\n      mstore\n        /* \"#utility.yul\":8790:8794   */\n      0x24\n        /* \"#utility.yul\":8787:8788   */\n      0x00\n        /* \"#utility.yul\":8780:8795   */\n      revert\n        /* \"#utility.yul\":8644:8805   */\n    tag_322:\n      pop\n        /* \"#utility.yul\":8431:8811   */\n      swap2\n      swap1\n      pop\n      jump\t// out\n        /* \"#utility.yul\":8942:9460   */\n    tag_253:\n        /* \"#utility.yul\":9044:9046   */\n      0x1f\n        /* \"#utility.yul\":9039:9042   */\n      dup3\n        /* \"#utility.yul\":9036:9047   */\n      gt\n        /* \"#utility.yul\":9033:9454   */\n      iszero\n      tag_139\n      jumpi\n        /* \"#utility.yul\":9080:9085   */\n      dup1\n        /* \"#utility.yul\":9077:9078   */\n      0x00\n        /* \"#utility.yul\":9070:9086   */\n      mstore\n        /* \"#utility.yul\":9124:9128   */\n      0x20\n        /* \"#utility.yul\":9121:9122   */\n      0x00\n        /* \"#utility.yul\":9111:9129   */\n      keccak256\n        /* \"#utility.yul\":9194:9196   */\n      0x1f\n        /* \"#utility.yul\":9182:9192   */\n      dup5\n        /* \"#utility.yul\":9178:9197   */\n      add\n        /* \"#utility.yul\":9175:9176   */\n      0x05\n        /* \"#utility.yul\":9171:9198   */\n      shr\n        /* \"#utility.yul\":9165:9169   */\n      dup2\n        /* \"#utility.yul\":9161:9199   */\n      add\n        /* \"#utility.yul\":9230:9234   */\n      0x20\n        /* \"#utility.yul\":9218:9228   */\n      dup6\n        /* \"#utility.yul\":9215:9235   */\n      lt\n        /* \"#utility.yul\":9212:9259   */\n      iszero\n      tag_326\n      jumpi\n      pop\n        /* \"#utility.yul\":9253:9257   */\n      dup1\n        /* \"#utility.yul\":9212:9259   */\n    tag_326:\n        /* \"#utility.yul\":9308:9310   */\n      0x1f\n        /* \"#utility.yul\":9303:9306   */\n      dup5\n        /* \"#utility.yul\":9299:9311   */\n      add\n        /* \"#utility.yul\":9296:9297   */\n      0x05\n        /* \"#utility.yul\":9292:9312   */\n      shr\n        /* \"#utility.yul\":9286:9290   */\n      dup3\n        /* \"#utility.yul\":9282:9313   */\n      add\n        /* \"#utility.yul\":9272:9313   */\n      swap2\n      pop\n        /* \"#utility.yul\":9363:9444   */\n    tag_327:\n        /* \"#utility.yul\":9381:9383   */\n      dup2\n        /* \"#utility.yul\":9374:9379   */\n      dup2\n        /* \"#utility.yul\":9371:9384   */\n      lt\n        /* \"#utility.yul\":9363:9444   */\n      iszero\n      tag_329\n      jumpi\n        /* \"#utility.yul\":9440:9441   */\n      0x00\n        /* \"#utility.yul\":9426:9442   */\n      dup2\n      sstore\n        /* \"#utility.yul\":9407:9408   */\n      0x01\n        /* \"#utility.yul\":9396:9409   */\n      add\n        /* \"#utility.yul\":9363:9444   */\n      jump(tag_327)\n    tag_329:\n        /* \"#utility.yul\":9367:9370   */\n      pop\n      pop\n        /* \"#utility.yul\":8942:9460   */\n      pop\n      pop\n      pop\n      jump\t// out\n        /* \"#utility.yul\":9636:10981   */\n    tag_119:\n        /* \"#utility.yul\":9762:9765   */\n      dup2\n        /* \"#utility.yul\":9756:9766   */\n      mload\n        /* \"#utility.yul\":9789:9807   */\n      0xffffffffffffffff\n        /* \"#utility.yul\":9781:9787   */\n      dup2\n        /* \"#utility.yul\":9778:9808   */\n      gt\n        /* \"#utility.yul\":9775:9831   */\n      iszero\n      tag_333\n      jumpi\n        /* \"#utility.yul\":9811:9829   */\n      tag_333\n      tag_245\n      jump\t// in\n    tag_333:\n        /* \"#utility.yul\":9840:9937   */\n      tag_334\n        /* \"#utility.yul\":9930:9936   */\n      dup2\n        /* \"#utility.yul\":9890:9928   */\n      tag_335\n        /* \"#utility.yul\":9922:9926   */\n      dup5\n        /* \"#utility.yul\":9916:9927   */\n      sload\n        /* \"#utility.yul\":9890:9928   */\n      tag_198\n      jump\t// in\n    tag_335:\n        /* \"#utility.yul\":9884:9888   */\n      dup5\n        /* \"#utility.yul\":9840:9937   */\n      tag_253\n      jump\t// in\n    tag_334:\n        /* \"#utility.yul\":9992:9996   */\n      0x20\n      dup1\n        /* \"#utility.yul\":10049:10051   */\n      0x1f\n        /* \"#utility.yul\":10038:10052   */\n      dup4\n      gt\n        /* \"#utility.yul\":10066:10067   */\n      0x01\n        /* \"#utility.yul\":10061:10724   */\n      dup2\n      eq\n      tag_337\n      jumpi\n        /* \"#utility.yul\":10768:10769   */\n      0x00\n        /* \"#utility.yul\":10785:10791   */\n      dup5\n        /* \"#utility.yul\":10782:10871   */\n      iszero\n      tag_338\n      jumpi\n      pop\n        /* \"#utility.yul\":10837:10856   */\n      dup6\n      dup4\n      add\n        /* \"#utility.yul\":10831:10857   */\n      mload\n        /* \"#utility.yul\":10782:10871   */\n    tag_338:\n      not(0x00)\n        /* \"#utility.yul\":9593:9594   */\n      0x03\n        /* \"#utility.yul\":9589:9600   */\n      dup7\n      swap1\n      shl\n        /* \"#utility.yul\":9585:9609   */\n      shr\n        /* \"#utility.yul\":9581:9610   */\n      not\n        /* \"#utility.yul\":9571:9611   */\n      and\n        /* \"#utility.yul\":9617:9618   */\n      0x01\n        /* \"#utility.yul\":9613:9624   */\n      dup6\n      swap1\n      shl\n        /* \"#utility.yul\":9568:9625   */\n      or\n        /* \"#utility.yul\":10884:10965   */\n      dup6\n      sstore\n        /* \"#utility.yul\":10031:10975   */\n      jump(tag_336)\n        /* \"#utility.yul\":10061:10724   */\n    tag_337:\n        /* \"#utility.yul\":8889:8890   */\n      0x00\n        /* \"#utility.yul\":8882:8896   */\n      dup6\n      dup2\n      mstore\n        /* \"#utility.yul\":8926:8930   */\n      0x20\n        /* \"#utility.yul\":8913:8931   */\n      dup2\n      keccak256\n      not(0x1f)\n        /* \"#utility.yul\":10097:10117   */\n      dup7\n      and\n      swap2\n        /* \"#utility.yul\":10215:10451   */\n    tag_341:\n        /* \"#utility.yul\":10229:10236   */\n      dup3\n        /* \"#utility.yul\":10226:10227   */\n      dup2\n        /* \"#utility.yul\":10223:10237   */\n      lt\n        /* \"#utility.yul\":10215:10451   */\n      iszero\n      tag_343\n      jumpi\n        /* \"#utility.yul\":10318:10337   */\n      dup9\n      dup7\n      add\n        /* \"#utility.yul\":10312:10338   */\n      mload\n        /* \"#utility.yul\":10297:10339   */\n      dup3\n      sstore\n        /* \"#utility.yul\":10410:10437   */\n      swap5\n      dup5\n      add\n      swap5\n        /* \"#utility.yul\":10378:10379   */\n      0x01\n        /* \"#utility.yul\":10366:10380   */\n      swap1\n      swap2\n      add\n      swap1\n        /* \"#utility.yul\":10245:10264   */\n      dup5\n      add\n        /* \"#utility.yul\":10215:10451   */\n      jump(tag_341)\n    tag_343:\n        /* \"#utility.yul\":10219:10222   */\n      pop\n        /* \"#utility.yul\":10479:10485   */\n      dup6\n        /* \"#utility.yul\":10470:10477   */\n      dup3\n        /* \"#utility.yul\":10467:10486   */\n      lt\n        /* \"#utility.yul\":10464:10665   */\n      iszero\n      tag_344\n      jumpi\n        /* \"#utility.yul\":10540:10559   */\n      dup8\n      dup6\n      add\n        /* \"#utility.yul\":10534:10560   */\n      mload\n      not(0x00)\n        /* \"#utility.yul\":10623:10624   */\n      0x03\n        /* \"#utility.yul\":10619:10633   */\n      dup9\n      swap1\n      shl\n        /* \"#utility.yul\":10635:10638   */\n      0xf8\n        /* \"#utility.yul\":10615:10639   */\n      and\n        /* \"#utility.yul\":10611:10648   */\n      shr\n        /* \"#utility.yul\":10607:10649   */\n      not\n        /* \"#utility.yul\":10592:10650   */\n      and\n        /* \"#utility.yul\":10577:10651   */\n      dup2\n      sstore\n        /* \"#utility.yul\":10464:10665   */\n    tag_344:\n      pop\n      pop\n        /* \"#utility.yul\":10711:10712   */\n      0x01\n        /* \"#utility.yul\":10702:10708   */\n      dup5\n        /* \"#utility.yul\":10699:10700   */\n      0x01\n        /* \"#utility.yul\":10695:10709   */\n      shl\n        /* \"#utility.yul\":10691:10713   */\n      add\n        /* \"#utility.yul\":10685:10689   */\n      dup6\n        /* \"#utility.yul\":10678:10714   */\n      sstore\n        /* \"#utility.yul\":10031:10975   */\n    tag_336:\n      pop\n      pop\n      pop\n      pop\n        /* \"#utility.yul\":9636:10981   */\n      pop\n      pop\n      jump\t// out\n        /* \"#utility.yul\":10986:11513   */\n    tag_124:\n        /* \"#utility.yul\":11235:11241   */\n      dup6\n        /* \"#utility.yul\":11224:11233   */\n      dup2\n        /* \"#utility.yul\":11217:11242   */\n      mstore\n        /* \"#utility.yul\":11278:11281   */\n      0xa0\n        /* \"#utility.yul\":11273:11275   */\n      0x20\n        /* \"#utility.yul\":11262:11271   */\n      dup3\n        /* \"#utility.yul\":11258:11276   */\n      add\n        /* \"#utility.yul\":11251:11282   */\n      mstore\n        /* \"#utility.yul\":11198:11202   */\n      0x00\n        /* \"#utility.yul\":11299:11345   */\n      tag_346\n        /* \"#utility.yul\":11340:11343   */\n      0xa0\n        /* \"#utility.yul\":11329:11338   */\n      dup4\n        /* \"#utility.yul\":11325:11344   */\n      add\n        /* \"#utility.yul\":11317:11323   */\n      dup8\n        /* \"#utility.yul\":11299:11345   */\n      tag_249\n      jump\t// in\n    tag_346:\n        /* \"#utility.yul\":11388:11402   */\n      swap5\n      iszero\n        /* \"#utility.yul\":11381:11403   */\n      iszero\n        /* \"#utility.yul\":11376:11378   */\n      0x40\n        /* \"#utility.yul\":11361:11379   */\n      dup4\n      add\n        /* \"#utility.yul\":11354:11404   */\n      mstore\n      pop\n        /* \"#utility.yul\":11447:11461   */\n      swap2\n      iszero\n        /* \"#utility.yul\":11440:11462   */\n      iszero\n        /* \"#utility.yul\":11435:11437   */\n      0x60\n        /* \"#utility.yul\":11420:11438   */\n      dup4\n      add\n        /* \"#utility.yul\":11413:11463   */\n      mstore\n        /* \"#utility.yul\":11494:11497   */\n      0x80\n        /* \"#utility.yul\":11479:11498   */\n      swap1\n      swap2\n      add\n        /* \"#utility.yul\":11472:11507   */\n      mstore\n        /* \"#utility.yul\":11291:11345   */\n      swap3\n        /* \"#utility.yul\":10986:11513   */\n      swap2\n      pop\n      pop\n      jump\t// out\n        /* \"#utility.yul\":11518:11809   */\n    tag_126:\n        /* \"#utility.yul\":11695:11697   */\n      0x40\n        /* \"#utility.yul\":11684:11693   */\n      dup2\n        /* \"#utility.yul\":11677:11698   */\n      mstore\n        /* \"#utility.yul\":11658:11662   */\n      0x00\n        /* \"#utility.yul\":11715:11760   */\n      tag_348\n        /* \"#utility.yul\":11756:11758   */\n      0x40\n        /* \"#utility.yul\":11745:11754   */\n      dup4\n        /* \"#utility.yul\":11741:11759   */\n      add\n        /* \"#utility.yul\":11733:11739   */\n      dup6\n        /* \"#utility.yul\":11715:11760   */\n      tag_249\n      jump\t// in\n    tag_348:\n        /* \"#utility.yul\":11707:11760   */\n      swap1\n      pop\n        /* \"#utility.yul\":11796:11802   */\n      dup3\n        /* \"#utility.yul\":11791:11793   */\n      0x20\n        /* \"#utility.yul\":11780:11789   */\n      dup4\n        /* \"#utility.yul\":11776:11794   */\n      add\n        /* \"#utility.yul\":11769:11803   */\n      mstore\n        /* \"#utility.yul\":11518:11809   */\n      swap4\n      swap3\n      pop\n      pop\n      pop\n      jump\t// out\n        /* \"#utility.yul\":12908:13035   */\n    tag_158:\n        /* \"#utility.yul\":12969:12979   */\n      0x4e487b71\n        /* \"#utility.yul\":12964:12967   */\n      0xe0\n        /* \"#utility.yul\":12960:12980   */\n      shl\n        /* \"#utility.yul\":12957:12958   */\n      0x00\n        /* \"#utility.yul\":12950:12981   */\n      mstore\n        /* \"#utility.yul\":13000:13004   */\n      0x32\n        /* \"#utility.yul\":12997:12998   */\n      0x04\n        /* \"#utility.yul\":12990:13005   */\n      mstore\n        /* \"#utility.yul\":13024:13028   */\n      0x24\n        /* \"#utility.yul\":13021:13022   */\n      0x00\n        /* \"#utility.yul\":13014:13029   */\n      revert\n        /* \"#utility.yul\":13040:13168   */\n    tag_162:\n        /* \"#utility.yul\":13107:13116   */\n      dup2\n      dup2\n      sub\n        /* \"#utility.yul\":13128:13139   */\n      dup2\n      dup2\n      gt\n        /* \"#utility.yul\":13125:13162   */\n      iszero\n      tag_208\n      jumpi\n        /* \"#utility.yul\":13142:13160   */\n      tag_208\n      tag_251\n      jump\t// in\n        /* \"#utility.yul\":13173:13300   */\n    tag_171:\n        /* \"#utility.yul\":13234:13244   */\n      0x4e487b71\n        /* \"#utility.yul\":13229:13232   */\n      0xe0\n        /* \"#utility.yul\":13225:13245   */\n      shl\n        /* \"#utility.yul\":13222:13223   */\n      0x00\n        /* \"#utility.yul\":13215:13246   */\n      mstore\n        /* \"#utility.yul\":13265:13269   */\n      0x31\n        /* \"#utility.yul\":13262:13263   */\n      0x04\n        /* \"#utility.yul\":13255:13270   */\n      mstore\n        /* \"#utility.yul\":13289:13293   */\n      0x24\n        /* \"#utility.yul\":13286:13287   */\n      0x00\n        /* \"#utility.yul\":13279:13294   */\n      revert\n\n    auxdata: 0xa26469706673582212209e86cfb38b340ebde82cd67ed59f4df3fea1f0730b73c62ec59a04d9f4ab6ffd64736f6c63430008190033\n}\n",
    "bytecode": {
      "linkReferences": {},
      "object": "608060405260016003553480156013575f80fd5b50600480546001600160a01b03191633179055611752806100335f395ff3fe608060405234801561000f575f80fd5b5060043610610149575f3560e01c806375794a3c116100c7578063cc3ab8681161007d578063e2045b5e11610063578063e2045b5e146102d9578063f94fe13f146102f9578063fbd1d6cf1461030c575f80fd5b8063cc3ab868146102a6578063df91cc23146102c6575f80fd5b806398e36d8b116100ad57806398e36d8b14610263578063a36fa5721461028b578063b10b22f41461029e575f80fd5b806375794a3c146102475780638da5cb5b14610250575f80fd5b80634c2708a91161011c57806355c062c81161010257806355c062c8146101f9578063680890c61461020c578063696795751461021f575f80fd5b80634c2708a9146101bb5780634d2bd0ff146101ce575f80fd5b806314d4fcad1461014d578063363dc4491461017357806337c245fe1461018657806347461b40146101a6575b5f80fd5b61016061015b36600461112b565b61031f565b6040519081526020015b60405180910390f35b610160610181366004611207565b610355565b6101996101943660046112b3565b6105d9565b60405161016a91906112d3565b6101b96101b4366004611316565b610642565b005b6101b96101c93660046112b3565b61072d565b6005546101e1906001600160a01b031681565b6040516001600160a01b03909116815260200161016a565b6101b961020736600461135a565b6107c0565b6101b961021a3660046112b3565b610ab8565b61016061022d3660046112b3565b6001600160a01b03165f9081526001602052604090205490565b61016060035481565b6004546101e1906001600160a01b031681565b610276610271366004611384565b610b4b565b60405161016a999897969594939291906113c9565b610199610299366004611438565b610cb4565b610160610d27565b6102b96102b4366004611384565b610d3c565b60405161016a9190611460565b6101606102d4366004611438565b610e25565b6102ec6102e7366004611384565b610e50565b60405161016a9190611472565b6006546101e1906001600160a01b031681565b6101e161031a366004611384565b611098565b6002602052825f5260405f20602052815f5260405f208181548110610342575f80fd5b905f5260205f20015f9250925050505481565b6005545f906001600160a01b031633148061037a57506004546001600160a01b031633145b6103d55760405162461bcd60e51b815260206004820152602160248201527f4f6e6c79204b77616c61206f70657261746f722063616e2063616c6c207468696044820152607360f81b60648201526084015b60405180910390fd5b600380545f91826103e583611530565b9190505590506040518061012001604052808a8152602001898152602001888152602001878152602001428152602001861515815260200185151581526020018b6001600160a01b03168152602001848152505f808381526020019081526020015f205f820151815f01556020820151816001015560408201518160020155606082015181600301908161047991906115cb565b506080820151600482015560a082015160058201805460c085015160e086015161ffff1990921693151561ff0019169390931761010093151584021775ffffffffffffffffffffffffffffffffffffffff00001916620100006001600160a01b039092169190910217905582015160068201906104f690826115cb565b5050506001600160a01b038a165f8181526001602081815260408084208054808501825590855282852001869055848452600282528084208e85528252808420805493840181558452922001839055518a9183917fb98cbbea4f07631a4572e0e086738214181d160c822aab0b9c8b4ef9884f93839061057f908d908c908c908c90429061168b565b60405180910390a480898b6001600160a01b03167f7bc7f4f026f6fb35cc947124c8922724524b20d7b3f03c452aff33788a8390a689426040516105c49291906116c0565b60405180910390a49998505050505050505050565b6001600160a01b0381165f9081526001602090815260409182902080548351818402810184019094528084526060939283018282801561063657602002820191905f5260205f20905b815481526020019060010190808311610622575b50505050509050919050565b6005546001600160a01b031633148061066557506004546001600160a01b031633145b6106bb5760405162461bcd60e51b815260206004820152602160248201527f4f6e6c79204b77616c61206f70657261746f722063616e2063616c6c207468696044820152607360f81b60648201526084016103cc565b600354821080156106cb57505f82115b61070e5760405162461bcd60e51b815260206004820152601460248201527310985919d948191bd95cc81b9bdd08195e1a5cdd60621b60448201526064016103cc565b5f82815260208190526040902060060161072882826115cb565b505050565b6004546001600160a01b031633146107915760405162461bcd60e51b815260206004820152602160248201527f4f6e6c79206f776e65722063616e2063616c6c20746869732066756e6374696f6044820152603760f91b60648201526084016103cc565b6006805473ffffffffffffffffffffffffffffffffffffffff19166001600160a01b0392909216919091179055565b600354821080156107d057505f82115b6108135760405162461bcd60e51b815260206004820152601460248201527310985919d948191bd95cc81b9bdd08195e1a5cdd60621b60448201526064016103cc565b5f828152602081905260409020600501546201000090046001600160a01b031633148061084a57506004546001600160a01b031633145b6108965760405162461bcd60e51b815260206004820152600e60248201527f4e6f7420617574686f72697a656400000000000000000000000000000000000060448201526064016103cc565b5f8281526020818152604080832060050180546001600160a01b038681166201000090810275ffffffffffffffffffffffffffffffffffffffff000019841617909355919004168084526001909252822090915b815481101561098b5784828281548110610906576109066116e1565b905f5260205f200154036109835781548290610924906001906116f5565b81548110610934576109346116e1565b905f5260205f20015482828154811061094f5761094f6116e1565b905f5260205f2001819055508180548061096b5761096b611708565b600190038181905f5260205f20015f9055905561098b565b6001016108ea565b506001600160a01b038084165f9081526001602081815260408084208054938401815584528184209092018890558783528281528183205493861683526002815281832084845290528120905b8154811015610a7957868282815481106109f4576109f46116e1565b905f5260205f20015403610a715781548290610a12906001906116f5565b81548110610a2257610a226116e1565b905f5260205f200154828281548110610a3d57610a3d6116e1565b905f5260205f20018190555081805480610a5957610a59611708565b600190038181905f5260205f20015f90559055610a79565b6001016109d8565b50506001600160a01b039093165f9081526002602090815260408083209583529481529381208054600181018255908252939020909201929092555050565b6004546001600160a01b03163314610b1c5760405162461bcd60e51b815260206004820152602160248201527f4f6e6c79206f776e65722063616e2063616c6c20746869732066756e6374696f6044820152603760f91b60648201526084016103cc565b6005805473ffffffffffffffffffffffffffffffffffffffff19166001600160a01b0392909216919091179055565b5f60208190529081526040902080546001820154600283015460038401805493949293919291610b7a90611548565b80601f0160208091040260200160405190810160405280929190818152602001828054610ba690611548565b8015610bf15780601f10610bc857610100808354040283529160200191610bf1565b820191905f5260205f20905b815481529060010190602001808311610bd457829003601f168201915b50505050600483015460058401546006850180549495929460ff808416955061010084041693620100009093046001600160a01b0316929190610c3390611548565b80601f0160208091040260200160405190810160405280929190818152602001828054610c5f90611548565b8015610caa5780601f10610c8157610100808354040283529160200191610caa565b820191905f5260205f20905b815481529060010190602001808311610c8d57829003601f168201915b5050505050905089565b6001600160a01b0382165f908152600260209081526040808320848452825291829020805483518184028101840190945280845260609392830182828015610d1957602002820191905f5260205f20905b815481526020019060010190808311610d05575b505050505090505b92915050565b5f6001600354610d3791906116f5565b905090565b606060035482108015610d4e57505f82115b610d915760405162461bcd60e51b815260206004820152601460248201527310985919d948191bd95cc81b9bdd08195e1a5cdd60621b60448201526064016103cc565b5f8281526020819052604090206006018054610dac90611548565b80601f0160208091040260200160405190810160405280929190818152602001828054610dd890611548565b80156106365780601f10610dfa57610100808354040283529160200191610636565b820191905f5260205f20905b815481529060010190602001808311610e065750939695505050505050565b6001602052815f5260405f208181548110610e3e575f80fd5b905f5260205f20015f91509150505481565b610ea56040518061012001604052805f81526020015f81526020015f8152602001606081526020015f81526020015f151581526020015f151581526020015f6001600160a01b03168152602001606081525090565b60035482108015610eb557505f82115b610ef85760405162461bcd60e51b815260206004820152601460248201527310985919d948191bd95cc81b9bdd08195e1a5cdd60621b60448201526064016103cc565b5f808381526020019081526020015f20604051806101200160405290815f82015481526020016001820154815260200160028201548152602001600382018054610f4190611548565b80601f0160208091040260200160405190810160405280929190818152602001828054610f6d90611548565b8015610fb85780601f10610f8f57610100808354040283529160200191610fb8565b820191905f5260205f20905b815481529060010190602001808311610f9b57829003601f168201915b505050918352505060048201546020820152600582015460ff80821615156040840152610100820416151560608301526201000090046001600160a01b0316608082015260068201805460a09092019161101190611548565b80601f016020809104026020016040519081016040528092919081815260200182805461103d90611548565b80156110885780601f1061105f57610100808354040283529160200191611088565b820191905f5260205f20905b81548152906001019060200180831161106b57829003601f168201915b5050505050815250509050919050565b5f600354821080156110a957505f82115b6110ec5760405162461bcd60e51b815260206004820152601460248201527310985919d948191bd95cc81b9bdd08195e1a5cdd60621b60448201526064016103cc565b505f908152602081905260409020600501546201000090046001600160a01b031690565b80356001600160a01b0381168114611126575f80fd5b919050565b5f805f6060848603121561113d575f80fd5b61114684611110565b95602085013595506040909401359392505050565b634e487b7160e01b5f52604160045260245ffd5b5f82601f83011261117e575f80fd5b813567ffffffffffffffff808211156111995761119961115b565b604051601f8301601f19908116603f011681019082821181831017156111c1576111c161115b565b816040528381528660208588010111156111d9575f80fd5b836020870160208301375f602085830101528094505050505092915050565b80358015158114611126575f80fd5b5f805f805f805f80610100898b03121561121f575f80fd5b61122889611110565b9750602089013596506040890135955060608901359450608089013567ffffffffffffffff80821115611259575f80fd5b6112658c838d0161116f565b955061127360a08c016111f8565b945061128160c08c016111f8565b935060e08b0135915080821115611296575f80fd5b506112a38b828c0161116f565b9150509295985092959890939650565b5f602082840312156112c3575f80fd5b6112cc82611110565b9392505050565b602080825282518282018190525f9190848201906040850190845b8181101561130a578351835292840192918401916001016112ee565b50909695505050505050565b5f8060408385031215611327575f80fd5b82359150602083013567ffffffffffffffff811115611344575f80fd5b6113508582860161116f565b9150509250929050565b5f806040838503121561136b575f80fd5b8235915061137b60208401611110565b90509250929050565b5f60208284031215611394575f80fd5b5035919050565b5f81518084528060208401602086015e5f602082860101526020601f19601f83011685010191505092915050565b5f6101208b83528a60208401528960408401528060608401526113ee8184018a61139b565b905087608084015286151560a084015285151560c08401526001600160a01b03851660e0840152828103610100840152611428818561139b565b9c9b505050505050505050505050565b5f8060408385031215611449575f80fd5b61145283611110565b946020939093013593505050565b602081525f6112cc602083018461139b565b602081528151602082015260208201516040820152604082015160608201525f60608301516101208060808501526114ae61014085018361139b565b9150608085015160a085015260a08501516114cd60c086018215159052565b5060c085015180151560e08601525060e08501516101006114f8818701836001600160a01b03169052565b860151858403601f1901838701529050611512838261139b565b9695505050505050565b634e487b7160e01b5f52601160045260245ffd5b5f600182016115415761154161151c565b5060010190565b600181811c9082168061155c57607f821691505b60208210810361157a57634e487b7160e01b5f52602260045260245ffd5b50919050565b601f82111561072857805f5260205f20601f840160051c810160208510156115a55750805b601f840160051c820191505b818110156115c4575f81556001016115b1565b5050505050565b815167ffffffffffffffff8111156115e5576115e561115b565b6115f9816115f38454611548565b84611580565b602080601f83116001811461162c575f84156116155750858301515b5f19600386901b1c1916600185901b178555611683565b5f85815260208120601f198616915b8281101561165a5788860151825594840194600190910190840161163b565b508582101561167757878501515f19600388901b60f8161c191681555b505060018460011b0185555b505050505050565b85815260a060208201525f6116a360a083018761139b565b941515604083015250911515606083015260809091015292915050565b604081525f6116d2604083018561139b565b90508260208301529392505050565b634e487b7160e01b5f52603260045260245ffd5b81810381811115610d2157610d2161151c565b634e487b7160e01b5f52603160045260245ffdfea26469706673582212209e86cfb38b340ebde82cd67ed59f4df3fea1f0730b73c62ec59a04d9f4ab6ffd64736f6c63430008190033",
      "opcodes": "PUSH1 0x80 PUSH1 0x40 MSTORE PUSH1 0x1 PUSH1 0x3 SSTORE CALLVALUE DUP1 ISZERO PUSH1 0x13 JUMPI PUSH0 DUP1 REVERT JUMPDEST POP PUSH1 0x4 DUP1 SLOAD PUSH1 0x1 PUSH1 0x1 PUSH1 0xA0 SHL SUB NOT AND CALLER OR SWAP1 SSTORE PUSH2 0x1752 DUP1 PUSH2 0x33 PUSH0 CODECOPY PUSH0 RETURN INVALID PUSH1 0x80 PUSH1 0x40 MSTORE CALLVALUE DUP1 ISZERO PUSH2 0xF JUMPI PUSH0 DUP1 REVERT JUMPDEST POP PUSH1 0x4 CALLDATASIZE LT PUSH2 0x149 JUMPI PUSH0 CALLDATALOAD PUSH1 0xE0 SHR DUP1 PUSH4 0x75794A3C GT PUSH2 0xC7 JUMPI DUP1 PUSH4 0xCC3AB868 GT PUSH2 0x7D JUMPI DUP1 PUSH4 0xE2045B5E GT PUSH2 0x63 JUMPI DUP1 PUSH4 0xE2045B5E EQ PUSH2 0x2D9 JUMPI DUP1 PUSH4 0xF94FE13F EQ PUSH2 0x2F9 JUMPI DUP1 PUSH4 0xFBD1D6CF EQ PUSH2 0x30C JUMPI PUSH0 DUP1 REVERT JUMPDEST DUP1 PUSH4 0xCC3AB868 EQ PUSH2 0x2A6 JUMPI DUP1 PUSH4 0xDF91CC23 EQ PUSH2 0x2C6 JUMPI PUSH0 DUP1 REVERT JUMPDEST DUP1 PUSH4 0x98E36D8B GT PUSH2 0xAD JUMPI DUP1 PUSH4 0x98E36D8B EQ PUSH2 0x263 JUMPI DUP1 PUSH4 0xA36FA572 EQ PUSH2 0x28B JUMPI DUP1 PUSH4 0xB10B22F4 EQ PUSH2 0x29E JUMPI PUSH0 DUP1 REVERT JUMPDEST DUP1 PUSH4 0x75794A3C EQ PUSH2 0x247 JUMPI DUP1 PUSH4 0x8DA5CB5B EQ PUSH2 0x250 JUMPI PUSH0 DUP1 REVERT JUMPDEST DUP1 PUSH4 0x4C2708A9 GT PUSH2 0x11C JUMPI DUP1 PUSH4 0x55C062C8 GT PUSH2 0x102 JUMPI DUP1 PUSH4 0x55C062C8 EQ PUSH2 0x1F9 JUMPI DUP1 PUSH4 0x680890C6 EQ PUSH2 0x20C JUMPI DUP1 PUSH4 0x69679575 EQ PUSH2 0x21F JUMPI PUSH0 DUP1 REVERT JUMPDEST DUP1 PUSH4 0x4C2708A9 EQ PUSH2 0x1BB JUMPI DUP1 PUSH4 0x4D2BD0FF EQ PUSH2 0x1CE JUMPI PUSH0 DUP1 REVERT JUMPDEST DUP1 PUSH4 0x14D4FCAD EQ PUSH2 0x14D JUMPI DUP1 PUSH4 0x363DC449 EQ PUSH2 0x173 JUMPI DUP1 PUSH4 0x37C245FE EQ PUSH2 0x186 JUMPI DUP1 PUSH4 0x47461B40 EQ PUSH2 0x1A6 JUMPI JUMPDEST PUSH0 DUP1 REVERT JUMPDEST PUSH2 0x160 PUSH2 0x15B CALLDATASIZE PUSH1 0x4 PUSH2 0x112B JUMP JUMPDEST PUSH2 0x31F JUMP JUMPDEST PUSH1 0x40 MLOAD SWAP1 DUP2 MSTORE PUSH1 0x20 ADD JUMPDEST PUSH1 0x40 MLOAD DUP1 SWAP2 SUB SWAP1 RETURN JUMPDEST PUSH2 0x160 PUSH2 0x181 CALLDATASIZE PUSH1 0x4 PUSH2 0x1207 JUMP JUMPDEST PUSH2 0x355 JUMP JUMPDEST PUSH2 0x199 PUSH2 0x194 CALLDATASIZE PUSH1 0x4 PUSH2 0x12B3 JUMP JUMPDEST PUSH2 0x5D9 JUMP JUMPDEST PUSH1 0x40 MLOAD PUSH2 0x16A SWAP2 SWAP1 PUSH2 0x12D3 JUMP JUMPDEST PUSH2 0x1B9 PUSH2 0x1B4 CALLDATASIZE PUSH1 0x4 PUSH2 0x1316 JUMP JUMPDEST PUSH2 0x642 JUMP JUMPDEST STOP JUMPDEST PUSH2 0x1B9 PUSH2 0x1C9 CALLDATASIZE PUSH1 0x4 PUSH2 0x12B3 JUMP JUMPDEST PUSH2 0x72D JUMP JUMPDEST PUSH1 0x5 SLOAD PUSH2 0x1E1 SWAP1 PUSH1 0x1 PUSH1 0x1 PUSH1 0xA0 SHL SUB AND DUP2 JUMP JUMPDEST PUSH1 0x40 MLOAD PUSH1 0x1 PUSH1 0x1 PUSH1 0xA0 SHL SUB SWAP1 SWAP2 AND DUP2 MSTORE PUSH1 0x20 ADD PUSH2 0x16A JUMP JUMPDEST PUSH2 0x1B9 PUSH2 0x207 CALLDATASIZE PUSH1 0x4 PUSH2 0x135A JUMP JUMPDEST PUSH2 0x7C0 JUMP JUMPDEST PUSH2 0x1B9 PUSH2 0x21A CALLDATASIZE PUSH1 0x4 PUSH2 0x12B3 JUMP JUMPDEST PUSH2 0xAB8 JUMP JUMPDEST PUSH2 0x160 PUSH2 0x22D CALLDATASIZE PUSH1 0x4 PUSH2 0x12B3 JUMP JUMPDEST PUSH1 0x1 PUSH1 0x1 PUSH1 0xA0 SHL SUB AND PUSH0 SWAP1 DUP2 MSTORE PUSH1 0x1 PUSH1 0x20 MSTORE PUSH1 0x40 SWAP1 KECCAK256 SLOAD SWAP1 JUMP JUMPDEST PUSH2 0x160 PUSH1 0x3 SLOAD DUP2 JUMP JUMPDEST PUSH1 0x4 SLOAD PUSH2 0x1E1 SWAP1 PUSH1 0x1 PUSH1 0x1 PUSH1 0xA0 SHL SUB AND DUP2 JUMP JUMPDEST PUSH2 0x276 PUSH2 0x271 CALLDATASIZE PUSH1 0x4 PUSH2 0x1384 JUMP JUMPDEST PUSH2 0xB4B JUMP JUMPDEST PUSH1 0x40 MLOAD PUSH2 0x16A SWAP10 SWAP9 SWAP8 SWAP7 SWAP6 SWAP5 SWAP4 SWAP3 SWAP2 SWAP1 PUSH2 0x13C9 JUMP JUMPDEST PUSH2 0x199 PUSH2 0x299 CALLDATASIZE PUSH1 0x4 PUSH2 0x1438 JUMP JUMPDEST PUSH2 0xCB4 JUMP JUMPDEST PUSH2 0x160 PUSH2 0xD27 JUMP JUMPDEST PUSH2 0x2B9 PUSH2 0x2B4 CALLDATASIZE PUSH1 0x4 PUSH2 0x1384 JUMP JUMPDEST PUSH2 0xD3C JUMP JUMPDEST PUSH1 0x40 MLOAD PUSH2 0x16A SWAP2 SWAP1 PUSH2 0x1460 JUMP JUMPDEST PUSH2 0x160 PUSH2 0x2D4 CALLDATASIZE PUSH1 0x4 PUSH2 0x1438 JUMP JUMPDEST PUSH2 0xE25 JUMP JUMPDEST PUSH2 0x2EC PUSH2 0x2E7 CALLDATASIZE PUSH1 0x4 PUSH2 0x1384 JUMP JUMPDEST PUSH2 0xE50 JUMP JUMPDEST PUSH1 0x40 MLOAD PUSH2 0x16A SWAP2 SWAP1 PUSH2 0x1472 JUMP JUMPDEST PUSH1 0x6 SLOAD PUSH2 0x1E1 SWAP1 PUSH1 0x1 PUSH1 0x1 PUSH1 0xA0 SHL SUB AND DUP2 JUMP JUMPDEST PUSH2 0x1E1 PUSH2 0x31A CALLDATASIZE PUSH1 0x4 PUSH2 0x1384 JUMP JUMPDEST PUSH2 0x1098 JUMP JUMPDEST PUSH1 0x2 PUSH1 0x20 MSTORE DUP3 PUSH0 MSTORE PUSH1 0x40 PUSH0 KECCAK256 PUSH1 0x20 MSTORE DUP2 PUSH0 MSTORE PUSH1 0x40 PUSH0 KECCAK256 DUP2 DUP2 SLOAD DUP2 LT PUSH2 0x342 JUMPI PUSH0 DUP1 REVERT JUMPDEST SWAP1 PUSH0 MSTORE PUSH1 0x20 PUSH0 KECCAK256 ADD PUSH0 SWAP3 POP SWAP3 POP POP POP SLOAD DUP2 JUMP JUMPDEST PUSH1 0x5 SLOAD PUSH0 SWAP1 PUSH1 0x1 PUSH1 0x1 PUSH1 0xA0 SHL SUB AND CALLER EQ DUP1 PUSH2 0x37A JUMPI POP PUSH1 0x4 SLOAD PUSH1 0x1 PUSH1 0x1 PUSH1 0xA0 SHL SUB AND CALLER EQ JUMPDEST PUSH2 0x3D5 JUMPI PUSH1 0x40 MLOAD PUSH3 0x461BCD PUSH1 0xE5 SHL DUP2 MSTORE PUSH1 0x20 PUSH1 0x4 DUP3 ADD MSTORE PUSH1 0x21 PUSH1 0x24 DUP3 ADD MSTORE PUSH32 0x4F6E6C79204B77616C61206F70657261746F722063616E2063616C6C20746869 PUSH1 0x44 DUP3 ADD MSTORE PUSH1 0x73 PUSH1 0xF8 SHL PUSH1 0x64 DUP3 ADD MSTORE PUSH1 0x84 ADD JUMPDEST PUSH1 0x40 MLOAD DUP1 SWAP2 SUB SWAP1 REVERT JUMPDEST PUSH1 0x3 DUP1 SLOAD PUSH0 SWAP2 DUP3 PUSH2 0x3E5 DUP4 PUSH2 0x1530 JUMP JUMPDEST SWAP2 SWAP1 POP SSTORE SWAP1 POP PUSH1 0x40 MLOAD DUP1 PUSH2 0x120 ADD PUSH1 0x40 MSTORE DUP1 DUP11 DUP2 MSTORE PUSH1 0x20 ADD DUP10 DUP2 MSTORE PUSH1 0x20 ADD DUP9 DUP2 MSTORE PUSH1 0x20 ADD DUP8 DUP2 MSTORE PUSH1 0x20 ADD TIMESTAMP DUP2 MSTORE PUSH1 0x20 ADD DUP7 ISZERO ISZERO DUP2 MSTORE PUSH1 0x20 ADD DUP6 ISZERO ISZERO DUP2 MSTORE PUSH1 0x20 ADD DUP12 PUSH1 0x1 PUSH1 0x1 PUSH1 0xA0 SHL SUB AND DUP2 MSTORE PUSH1 0x20 ADD DUP5 DUP2 MSTORE POP PUSH0 DUP1 DUP4 DUP2 MSTORE PUSH1 0x20 ADD SWAP1 DUP2 MSTORE PUSH1 0x20 ADD PUSH0 KECCAK256 PUSH0 DUP3 ADD MLOAD DUP2 PUSH0 ADD SSTORE PUSH1 0x20 DUP3 ADD MLOAD DUP2 PUSH1 0x1 ADD SSTORE PUSH1 0x40 DUP3 ADD MLOAD DUP2 PUSH1 0x2 ADD SSTORE PUSH1 0x60 DUP3 ADD MLOAD DUP2 PUSH1 0x3 ADD SWAP1 DUP2 PUSH2 0x479 SWAP2 SWAP1 PUSH2 0x15CB JUMP JUMPDEST POP PUSH1 0x80 DUP3 ADD MLOAD PUSH1 0x4 DUP3 ADD SSTORE PUSH1 0xA0 DUP3 ADD MLOAD PUSH1 0x5 DUP3 ADD DUP1 SLOAD PUSH1 0xC0 DUP6 ADD MLOAD PUSH1 0xE0 DUP7 ADD MLOAD PUSH2 0xFFFF NOT SWAP1 SWAP3 AND SWAP4 ISZERO ISZERO PUSH2 0xFF00 NOT AND SWAP4 SWAP1 SWAP4 OR PUSH2 0x100 SWAP4 ISZERO ISZERO DUP5 MUL OR PUSH22 0xFFFFFFFFFFFFFFFFFFFFFFFFFFFFFFFFFFFFFFFF0000 NOT AND PUSH3 0x10000 PUSH1 0x1 PUSH1 0x1 PUSH1 0xA0 SHL SUB SWAP1 SWAP3 AND SWAP2 SWAP1 SWAP2 MUL OR SWAP1 SSTORE DUP3 ADD MLOAD PUSH1 0x6 DUP3 ADD SWAP1 PUSH2 0x4F6 SWAP1 DUP3 PUSH2 0x15CB JUMP JUMPDEST POP POP POP PUSH1 0x1 PUSH1 0x1 PUSH1 0xA0 SHL SUB DUP11 AND PUSH0 DUP2 DUP2 MSTORE PUSH1 0x1 PUSH1 0x20 DUP2 DUP2 MSTORE PUSH1 0x40 DUP1 DUP5 KECCAK256 DUP1 SLOAD DUP1 DUP6 ADD DUP3 SSTORE SWAP1 DUP6 MSTORE DUP3 DUP6 KECCAK256 ADD DUP7 SWAP1 SSTORE DUP5 DUP5 MSTORE PUSH1 0x2 DUP3 MSTORE DUP1 DUP5 KECCAK256 DUP15 DUP6 MSTORE DUP3 MSTORE DUP1 DUP5 KECCAK256 DUP1 SLOAD SWAP4 DUP5 ADD DUP2 SSTORE DUP5 MSTORE SWAP3 KECCAK256 ADD DUP4 SWAP1 SSTORE MLOAD DUP11 SWAP2 DUP4 SWAP2 PUSH32 0xB98CBBEA4F07631A4572E0E086738214181D160C822AAB0B9C8B4EF9884F9383 SWAP1 PUSH2 0x57F SWAP1 DUP14 SWAP1 DUP13 SWAP1 DUP13 SWAP1 DUP13 SWAP1 TIMESTAMP SWAP1 PUSH2 0x168B JUMP JUMPDEST PUSH1 0x40 MLOAD DUP1 SWAP2 SUB SWAP1 LOG4 DUP1 DUP10 DUP12 PUSH1 0x1 PUSH1 0x1 PUSH1 0xA0 SHL SUB AND PUSH32 0x7BC7F4F026F6FB35CC947124C8922724524B20D7B3F03C452AFF33788A8390A6 DUP10 TIMESTAMP PUSH1 0x40 MLOAD PUSH2 0x5C4 SWAP3 SWAP2 SWAP1 PUSH2 0x16C0 JUMP JUMPDEST PUSH1 0x40 MLOAD DUP1 SWAP2 SUB SWAP1 LOG4 SWAP10 SWAP9 POP POP POP POP POP POP POP POP POP JUMP JUMPDEST PUSH1 0x1 PUSH1 0x1 PUSH1 0xA0 SHL SUB DUP2 AND PUSH0 SWAP1 DUP2 MSTORE PUSH1 0x1 PUSH1 0x20 SWAP1 DUP2 MSTORE PUSH1 0x40 SWAP2 DUP3 SWAP1 KECCAK256 DUP1 SLOAD DUP4 MLOAD DUP2 DUP5 MUL DUP2 ADD DUP5 ADD SWAP1 SWAP5 MSTORE DUP1 DUP5 MSTORE PUSH1 0x60 SWAP4 SWAP3 DUP4 ADD DUP3 DUP3 DUP1 ISZERO PUSH2 0x636 JUMPI PUSH1 0x20 MUL DUP3 ADD SWAP2 SWAP1 PUSH0 MSTORE PUSH1 0x20 PUSH0 KECCAK256 SWAP1 JUMPDEST DUP2 SLOAD DUP2 MSTORE PUSH1 0x20 ADD SWAP1 PUSH1 0x1 ADD SWAP1 DUP1 DUP4 GT PUSH2 0x622 JUMPI JUMPDEST POP POP POP POP POP SWAP1 POP SWAP2 SWAP1 POP JUMP JUMPDEST PUSH1 0x5 SLOAD PUSH1 0x1 PUSH1 0x1 PUSH1 0xA0 SHL SUB AND CALLER EQ DUP1 PUSH2 0x665 JUMPI POP PUSH1 0x4 SLOAD PUSH1 0x1 PUSH1 0x1 PUSH1 0xA0 SHL SUB AND CALLER EQ JUMPDEST PUSH2 0x6BB JUMPI PUSH1 0x40 MLOAD PUSH3 0x461BCD PUSH1 0xE5 SHL DUP2 MSTORE PUSH1 0x20 PUSH1 0x4 DUP3 ADD MSTORE PUSH1 0x21 PUSH1 0x24 DUP3 ADD MSTORE PUSH32 0x4F6E6C79204B77616C61206F70657261746F722063616E2063616C6C20746869 PUSH1 0x44 DUP3 ADD MSTORE PUSH1 0x73 PUSH1 0xF8 SHL PUSH1 0x64 DUP3 ADD MSTORE PUSH1 0x84 ADD PUSH2 0x3CC JUMP JUMPDEST PUSH1 0x3 SLOAD DUP3 LT DUP1 ISZERO PUSH2 0x6CB JUMPI POP PUSH0 DUP3 GT JUMPDEST PUSH2 0x70E JUMPI PUSH1 0x40 MLOAD PUSH3 0x461BCD PUSH1 0xE5 SHL DUP2 MSTORE PUSH1 0x20 PUSH1 0x4 DUP3 ADD MSTORE PUSH1 0x14 PUSH1 0x24 DUP3 ADD MSTORE PUSH20 0x10985919D948191BD95CC81B9BDD08195E1A5CDD PUSH1 0x62 SHL PUSH1 0x44 DUP3 ADD MSTORE PUSH1 0x64 ADD PUSH2 0x3CC JUMP JUMPDEST PUSH0 DUP3 DUP2 MSTORE PUSH1 0x20 DUP2 SWAP1 MSTORE PUSH1 0x40 SWAP1 KECCAK256 PUSH1 0x6 ADD PUSH2 0x728 DUP3 DUP3 PUSH2 0x15CB JUMP JUMPDEST POP POP POP JUMP JUMPDEST PUSH1 0x4 SLOAD PUSH1 0x1 PUSH1 0x1 PUSH1 0xA0 SHL SUB AND CALLER EQ PUSH2 0x791 JUMPI PUSH1 0x40 MLOAD PUSH3 0x461BCD PUSH1 0xE5 SHL DUP2 MSTORE PUSH1 0x20 PUSH1 0x4 DUP3 ADD MSTORE PUSH1 0x21 PUSH1 0x24 DUP3 ADD MSTORE PUSH32 0x4F6E6C79206F776E65722063616E2063616C6C20746869732066756E6374696F PUSH1 0x44 DUP3 ADD MSTORE PUSH1 0x37 PUSH1 0xF9 SHL PUSH1 0x64 DUP3 ADD MSTORE PUSH1 0x84 ADD PUSH2 0x3CC JUMP JUMPDEST PUSH1 0x6 DUP1 SLOAD PUSH20 0xFFFFFFFFFFFFFFFFFFFFFFFFFFFFFFFFFFFFFFFF NOT AND PUSH1 0x1 PUSH1 0x1 PUSH1 0xA0 SHL SUB SWAP3 SWAP1 SWAP3 AND SWAP2 SWAP1 SWAP2 OR SWAP1 SSTORE JUMP JUMPDEST PUSH1 0x3 SLOAD DUP3 LT DUP1 ISZERO PUSH2 0x7D0 JUMPI POP PUSH0 DUP3 GT JUMPDEST PUSH2 0x813 JUMPI PUSH1 0x40 MLOAD PUSH3 0x461BCD PUSH1 0xE5 SHL DUP2 MSTORE PUSH1 0x20 PUSH1 0x4 DUP3 ADD MSTORE PUSH1 0x14 PUSH1 0x24 DUP3 ADD MSTORE PUSH20 0x10985919D948191BD95CC81B9BDD08195E1A5CDD PUSH1 0x62 SHL PUSH1 0x44 DUP3 ADD MSTORE PUSH1 0x64 ADD PUSH2 0x3CC JUMP JUMPDEST PUSH0 DUP3 DUP2 MSTORE PUSH1 0x20 DUP2 SWAP1 MSTORE PUSH1 0x40 SWAP1 KECCAK256 PUSH1 0x5 ADD SLOAD PUSH3 0x10000 SWAP1 DIV PUSH1 0x1 PUSH1 0x1 PUSH1 0xA0 SHL SUB AND CALLER EQ DUP1 PUSH2 0x84A JUMPI POP PUSH1 0x4 SLOAD PUSH1 0x1 PUSH1 0x1 PUSH1 0xA0 SHL SUB AND CALLER EQ JUMPDEST PUSH2 0x896 JUMPI PUSH1 0x40 MLOAD PUSH3 0x461BCD PUSH1 0xE5 SHL DUP2 MSTORE PUSH1 0x20 PUSH1 0x4 DUP3 ADD MSTORE PUSH1 0xE PUSH1 0x24 DUP3 ADD MSTORE PUSH32 0x4E6F7420617574686F72697A6564000000000000000000000000000000000000 PUSH1 0x44 DUP3 ADD MSTORE PUSH1 0x64 ADD PUSH2 0x3CC JUMP JUMPDEST PUSH0 DUP3 DUP2 MSTORE PUSH1 0x20 DUP2 DUP2 MSTORE PUSH1 0x40 DUP1 DUP4 KECCAK256 PUSH1 0x5 ADD DUP1 SLOAD PUSH1 0x1 PUSH1 0x1 PUSH1 0xA0 SHL SUB DUP7 DUP2 AND PUSH3 0x10000 SWAP1 DUP2 MUL PUSH22 0xFFFFFFFFFFFFFFFFFFFFFFFFFFFFFFFFFFFFFFFF0000 NOT DUP5 AND OR SWAP1 SWAP4 SSTORE SWAP2 SWAP1 DIV AND DUP1 DUP5 MSTORE PUSH1 0x1 SWAP1 SWAP3 MSTORE DUP3 KECCAK256 SWAP1 SWAP2 JUMPDEST DUP2 SLOAD DUP2 LT ISZERO PUSH2 0x98B JUMPI DUP5 DUP3 DUP3 DUP2 SLOAD DUP2 LT PUSH2 0x906 JUMPI PUSH2 0x906 PUSH2 0x16E1 JUMP JUMPDEST SWAP1 PUSH0 MSTORE PUSH1 0x20 PUSH0 KECCAK256 ADD SLOAD SUB PUSH2 0x983 JUMPI DUP2 SLOAD DUP3 SWAP1 PUSH2 0x924 SWAP1 PUSH1 0x1 SWAP1 PUSH2 0x16F5 JUMP JUMPDEST DUP2 SLOAD DUP2 LT PUSH2 0x934 JUMPI PUSH2 0x934 PUSH2 0x16E1 JUMP JUMPDEST SWAP1 PUSH0 MSTORE PUSH1 0x20 PUSH0 KECCAK256 ADD SLOAD DUP3 DUP3 DUP2 SLOAD DUP2 LT PUSH2 0x94F JUMPI PUSH2 0x94F PUSH2 0x16E1 JUMP JUMPDEST SWAP1 PUSH0 MSTORE PUSH1 0x20 PUSH0 KECCAK256 ADD DUP2 SWAP1 SSTORE POP DUP2 DUP1 SLOAD DUP1 PUSH2 0x96B JUMPI PUSH2 0x96B PUSH2 0x1708 JUMP JUMPDEST PUSH1 0x1 SWAP1 SUB DUP2 DUP2 SWAP1 PUSH0 MSTORE PUSH1 0x20 PUSH0 KECCAK256 ADD PUSH0 SWAP1 SSTORE SWAP1 SSTORE PUSH2 0x98B JUMP JUMPDEST PUSH1 0x1 ADD PUSH2 0x8EA JUMP JUMPDEST POP PUSH1 0x1 PUSH1 0x1 PUSH1 0xA0 SHL SUB DUP1 DUP5 AND PUSH0 SWAP1 DUP2 MSTORE PUSH1 0x1 PUSH1 0x20 DUP2 DUP2 MSTORE PUSH1 0x40 DUP1 DUP5 KECCAK256 DUP1 SLOAD SWAP4 DUP5 ADD DUP2 SSTORE DUP5 MSTORE DUP2 DUP5 KECCAK256 SWAP1 SWAP3 ADD DUP9 SWAP1 SSTORE DUP8 DUP4 MSTORE DUP3 DUP2 MSTORE DUP2 DUP4 KECCAK256 SLOAD SWAP4 DUP7 AND DUP4 MSTORE PUSH1 0x2 DUP2 MSTORE DUP2 DUP4 KECCAK256 DUP5 DUP5 MSTORE SWAP1 MSTORE DUP2 KECCAK256 SWAP1 JUMPDEST DUP2 SLOAD DUP2 LT ISZERO PUSH2 0xA79 JUMPI DUP7 DUP3 DUP3 DUP2 SLOAD DUP2 LT PUSH2 0x9F4 JUMPI PUSH2 0x9F4 PUSH2 0x16E1 JUMP JUMPDEST SWAP1 PUSH0 MSTORE PUSH1 0x20 PUSH0 KECCAK256 ADD SLOAD SUB PUSH2 0xA71 JUMPI DUP2 SLOAD DUP3 SWAP1 PUSH2 0xA12 SWAP1 PUSH1 0x1 SWAP1 PUSH2 0x16F5 JUMP JUMPDEST DUP2 SLOAD DUP2 LT PUSH2 0xA22 JUMPI PUSH2 0xA22 PUSH2 0x16E1 JUMP JUMPDEST SWAP1 PUSH0 MSTORE PUSH1 0x20 PUSH0 KECCAK256 ADD SLOAD DUP3 DUP3 DUP2 SLOAD DUP2 LT PUSH2 0xA3D JUMPI PUSH2 0xA3D PUSH2 0x16E1 JUMP JUMPDEST SWAP1 PUSH0 MSTORE PUSH1 0x20 PUSH0 KECCAK256 ADD DUP2 SWAP1 SSTORE POP DUP2 DUP1 SLOAD DUP1 PUSH2 0xA59 JUMPI PUSH2 0xA59 PUSH2 0x1708 JUMP JUMPDEST PUSH1 0x1 SWAP1 SUB DUP2 DUP2 SWAP1 PUSH0 MSTORE PUSH1 0x20 PUSH0 KECCAK256 ADD PUSH0 SWAP1 SSTORE SWAP1 SSTORE PUSH2 0xA79 JUMP JUMPDEST PUSH1 0x1 ADD PUSH2 0x9D8 JUMP JUMPDEST POP POP PUSH1 0x1 PUSH1 0x1 PUSH1 0xA0 SHL SUB SWAP1 SWAP4 AND PUSH0 SWAP1 DUP2 MSTORE PUSH1 0x2 PUSH1 0x20 SWAP1 DUP2 MSTORE PUSH1 0x40 DUP1 DUP4 KECCAK256 SWAP6 DUP4 MSTORE SWAP5 DUP2 MSTORE SWAP4 DUP2 KECCAK256 DUP1 SLOAD PUSH1 0x1 DUP2 ADD DUP3 SSTORE SWAP1 DUP3 MSTORE SWAP4 SWAP1 KECCAK256 SWAP1 SWAP3 ADD SWAP3 SWAP1 SWAP3 SSTORE POP POP JUMP JUMPDEST PUSH1 0x4 SLOAD PUSH1 0x1 PUSH1 0x1 PUSH1 0xA0 SHL SUB AND CALLER EQ PUSH2 0xB1C JUMPI PUSH1 0x40 MLOAD PUSH3 0x461BCD PUSH1 0xE5 SHL DUP2 MSTORE PUSH1 0x20 PUSH1 0x4 DUP3 ADD MSTORE PUSH1 0x21 PUSH1 0x24 DUP3 ADD MSTORE PUSH32 0x4F6E6C79206F776E65722063616E2063616C6C20746869732066756E6374696F PUSH1 0x44 DUP3 ADD MSTORE PUSH1 0x37 PUSH1 0xF9 SHL PUSH1 0x64 DUP3 ADD MSTORE PUSH1 0x84 ADD PUSH2 0x3CC JUMP JUMPDEST PUSH1 0x5 DUP1 SLOAD PUSH20 0xFFFFFFFFFFFFFFFFFFFFFFFFFFFFFFFFFFFFFFFF NOT AND PUSH1 0x1 PUSH1 0x1 PUSH1 0xA0 SHL SUB SWAP3 SWAP1 SWAP3 AND SWAP2 SWAP1 SWAP2 OR SWAP1 SSTORE JUMP JUMPDEST PUSH0 PUSH1 0x20 DUP2 SWAP1 MSTORE SWAP1 DUP2 MSTORE PUSH1 0x40 SWAP1 KECCAK256 DUP1 SLOAD PUSH1 0x1 DUP3 ADD SLOAD PUSH1 0x2 DUP4 ADD SLOAD PUSH1 0x3 DUP5 ADD DUP1 SLOAD SWAP4 SWAP5 SWAP3 SWAP4 SWAP2 SWAP3 SWAP2 PUSH2 0xB7A SWAP1 PUSH2 0x1548 JUMP JUMPDEST DUP1 PUSH1 0x1F ADD PUSH1 0x20 DUP1 SWAP2 DIV MUL PUSH1 0x20 ADD PUSH1 0x40 MLOAD SWAP1 DUP2 ADD PUSH1 0x40 MSTORE DUP1 SWAP3 SWAP2 SWAP1 DUP2 DUP2 MSTORE PUSH1 0x20 ADD DUP3 DUP1 SLOAD PUSH2 0xBA6 SWAP1 PUSH2 0x1548 JUMP JUMPDEST DUP1 ISZERO PUSH2 0xBF1 JUMPI DUP1 PUSH1 0x1F LT PUSH2 0xBC8 JUMPI PUSH2 0x100 DUP1 DUP4 SLOAD DIV MUL DUP4 MSTORE SWAP2 PUSH1 0x20 ADD SWAP2 PUSH2 0xBF1 JUMP JUMPDEST DUP3 ADD SWAP2 SWAP1 PUSH0 MSTORE PUSH1 0x20 PUSH0 KECCAK256 SWAP1 JUMPDEST DUP2 SLOAD DUP2 MSTORE SWAP1 PUSH1 0x1 ADD SWAP1 PUSH1 0x20 ADD DUP1 DUP4 GT PUSH2 0xBD4 JUMPI DUP3 SWAP1 SUB PUSH1 0x1F AND DUP3 ADD SWAP2 JUMPDEST POP POP POP POP PUSH1 0x4 DUP4 ADD SLOAD PUSH1 0x5 DUP5 ADD SLOAD PUSH1 0x6 DUP6 ADD DUP1 SLOAD SWAP5 SWAP6 SWAP3 SWAP5 PUSH1 0xFF DUP1 DUP5 AND SWAP6 POP PUSH2 0x100 DUP5 DIV AND SWAP4 PUSH3 0x10000 SWAP1 SWAP4 DIV PUSH1 0x1 PUSH1 0x1 PUSH1 0xA0 SHL SUB AND SWAP3 SWAP2 SWAP1 PUSH2 0xC33 SWAP1 PUSH2 0x1548 JUMP JUMPDEST DUP1 PUSH1 0x1F ADD PUSH1 0x20 DUP1 SWAP2 DIV MUL PUSH1 0x20 ADD PUSH1 0x40 MLOAD SWAP1 DUP2 ADD PUSH1 0x40 MSTORE DUP1 SWAP3 SWAP2 SWAP1 DUP2 DUP2 MSTORE PUSH1 0x20 ADD DUP3 DUP1 SLOAD PUSH2 0xC5F SWAP1 PUSH2 0x1548 JUMP JUMPDEST DUP1 ISZERO PUSH2 0xCAA JUMPI DUP1 PUSH1 0x1F LT PUSH2 0xC81 JUMPI PUSH2 0x100 DUP1 DUP4 SLOAD DIV MUL DUP4 MSTORE SWAP2 PUSH1 0x20 ADD SWAP2 PUSH2 0xCAA JUMP JUMPDEST DUP3 ADD SWAP2 SWAP1 PUSH0 MSTORE PUSH1 0x20 PUSH0 KECCAK256 SWAP1 JUMPDEST DUP2 SLOAD DUP2 MSTORE SWAP1 PUSH1 0x1 ADD SWAP1 PUSH1 0x20 ADD DUP1 DUP4 GT PUSH2 0xC8D JUMPI DUP3 SWAP1 SUB PUSH1 0x1F AND DUP3 ADD SWAP2 JUMPDEST POP POP POP POP POP SWAP1 POP DUP10 JUMP JUMPDEST PUSH1 0x1 PUSH1 0x1 PUSH1 0xA0 SHL SUB DUP3 AND PUSH0 SWAP1 DUP2 MSTORE PUSH1 0x2 PUSH1 0x20 SWAP1 DUP2 MSTORE PUSH1 0x40 DUP1 DUP4 KECCAK256 DUP5 DUP5 MSTORE DUP3 MSTORE SWAP2 DUP3 SWAP1 KECCAK256 DUP1 SLOAD DUP4 MLOAD DUP2 DUP5 MUL DUP2 ADD DUP5 ADD SWAP1 SWAP5 MSTORE DUP1 DUP5 MSTORE PUSH1 0x60 SWAP4 SWAP3 DUP4 ADD DUP3 DUP3 DUP1 ISZERO PUSH2 0xD19 JUMPI PUSH1 0x20 MUL DUP3 ADD SWAP2 SWAP1 PUSH0 MSTORE PUSH1 0x20 PUSH0 KECCAK256 SWAP1 JUMPDEST DUP2 SLOAD DUP2 MSTORE PUSH1 0x20 ADD SWAP1 PUSH1 0x1 ADD SWAP1 DUP1 DUP4 GT PUSH2 0xD05 JUMPI JUMPDEST POP POP POP POP POP SWAP1 POP JUMPDEST SWAP3 SWAP2 POP POP JUMP JUMPDEST PUSH0 PUSH1 0x1 PUSH1 0x3 SLOAD PUSH2 0xD37 SWAP2 SWAP1 PUSH2 0x16F5 JUMP JUMPDEST SWAP1 POP SWAP1 JUMP JUMPDEST PUSH1 0x60 PUSH1 0x3 SLOAD DUP3 LT DUP1 ISZERO PUSH2 0xD4E JUMPI POP PUSH0 DUP3 GT JUMPDEST PUSH2 0xD91 JUMPI PUSH1 0x40 MLOAD PUSH3 0x461BCD PUSH1 0xE5 SHL DUP2 MSTORE PUSH1 0x20 PUSH1 0x4 DUP3 ADD MSTORE PUSH1 0x14 PUSH1 0x24 DUP3 ADD MSTORE PUSH20 0x10985919D948191BD95CC81B9BDD08195E1A5CDD PUSH1 0x62 SHL PUSH1 0x44 DUP3 ADD MSTORE PUSH1 0x64 ADD PUSH2 0x3CC JUMP JUMPDEST PUSH0 DUP3 DUP2 MSTORE PUSH1 0x20 DUP2 SWAP1 MSTORE PUSH1 0x40 SWAP1 KECCAK256 PUSH1 0x6 ADD DUP1 SLOAD PUSH2 0xDAC SWAP1 PUSH2 0x1548 JUMP JUMPDEST DUP1 PUSH1 0x1F ADD PUSH1 0x20 DUP1 SWAP2 DIV MUL PUSH1 0x20 ADD PUSH1 0x40 MLOAD SWAP1 DUP2 ADD PUSH1 0x40 MSTORE DUP1 SWAP3 SWAP2 SWAP1 DUP2 DUP2 MSTORE PUSH1 0x20 ADD DUP3 DUP1 SLOAD PUSH2 0xDD8 SWAP1 PUSH2 0x1548 JUMP JUMPDEST DUP1 ISZERO PUSH2 0x636 JUMPI DUP1 PUSH1 0x1F LT PUSH2 0xDFA JUMPI PUSH2 0x100 DUP1 DUP4 SLOAD DIV MUL DUP4 MSTORE SWAP2 PUSH1 0x20 ADD SWAP2 PUSH2 0x636 JUMP JUMPDEST DUP3 ADD SWAP2 SWAP1 PUSH0 MSTORE PUSH1 0x20 PUSH0 KECCAK256 SWAP1 JUMPDEST DUP2 SLOAD DUP2 MSTORE SWAP1 PUSH1 0x1 ADD SWAP1 PUSH1 0x20 ADD DUP1 DUP4 GT PUSH2 0xE06 JUMPI POP SWAP4 SWAP7 SWAP6 POP POP POP POP POP POP JUMP JUMPDEST PUSH1 0x1 PUSH1 0x20 MSTORE DUP2 PUSH0 MSTORE PUSH1 0x40 PUSH0 KECCAK256 DUP2 DUP2 SLOAD DUP2 LT PUSH2 0xE3E JUMPI PUSH0 DUP1 REVERT JUMPDEST SWAP1 PUSH0 MSTORE PUSH1 0x20 PUSH0 KECCAK256 ADD PUSH0 SWAP2 POP SWAP2 POP POP SLOAD DUP2 JUMP JUMPDEST PUSH2 0xEA5 PUSH1 0x40 MLOAD DUP1 PUSH2 0x120 ADD PUSH1 0x40 MSTORE DUP1 PUSH0 DUP2 MSTORE PUSH1 0x20 ADD PUSH0 DUP2 MSTORE PUSH1 0x20 ADD PUSH0 DUP2 MSTORE PUSH1 0x20 ADD PUSH1 0x60 DUP2 MSTORE PUSH1 0x20 ADD PUSH0 DUP2 MSTORE PUSH1 0x20 ADD PUSH0 ISZERO ISZERO DUP2 MSTORE PUSH1 0x20 ADD PUSH0 ISZERO ISZERO DUP2 MSTORE PUSH1 0x20 ADD PUSH0 PUSH1 0x1 PUSH1 0x1 PUSH1 0xA0 SHL SUB AND DUP2 MSTORE PUSH1 0x20 ADD PUSH1 0x60 DUP2 MSTORE POP SWAP1 JUMP JUMPDEST PUSH1 0x3 SLOAD DUP3 LT DUP1 ISZERO PUSH2 0xEB5 JUMPI POP PUSH0 DUP3 GT JUMPDEST PUSH2 0xEF8 JUMPI PUSH1 0x40 MLOAD PUSH3 0x461BCD PUSH1 0xE5 SHL DUP2 MSTORE PUSH1 0x20 PUSH1 0x4 DUP3 ADD MSTORE PUSH1 0x14 PUSH1 0x24 DUP3 ADD MSTORE PUSH20 0x10985919D948191BD95CC81B9BDD08195E1A5CDD PUSH1 0x62 SHL PUSH1 0x44 DUP3 ADD MSTORE PUSH1 0x64 ADD PUSH2 0x3CC JUMP JUMPDEST PUSH0 DUP1 DUP4 DUP2 MSTORE PUSH1 0x20 ADD SWAP1 DUP2 MSTORE PUSH1 0x20 ADD PUSH0 KECCAK256 PUSH1 0x40 MLOAD DUP1 PUSH2 0x120 ADD PUSH1 0x40 MSTORE SWAP1 DUP2 PUSH0 DUP3 ADD SLOAD DUP2 MSTORE PUSH1 0x20 ADD PUSH1 0x1 DUP3 ADD SLOAD DUP2 MSTORE PUSH1 0x20 ADD PUSH1 0x2 DUP3 ADD SLOAD DUP2 MSTORE PUSH1 0x20 ADD PUSH1 0x3 DUP3 ADD DUP1 SLOAD PUSH2 0xF41 SWAP1 PUSH2 0x1548 JUMP JUMPDEST DUP1 PUSH1 0x1F ADD PUSH1 0x20 DUP1 SWAP2 DIV MUL PUSH1 0x20 ADD PUSH1 0x40 MLOAD SWAP1 DUP2 ADD PUSH1 0x40 MSTORE DUP1 SWAP3 SWAP2 SWAP1 DUP2 DUP2 MSTORE PUSH1 0x20 ADD DUP3 DUP1 SLOAD PUSH2 0xF6D SWAP1 PUSH2 0x1548 JUMP JUMPDEST DUP1 ISZERO PUSH2 0xFB8 JUMPI DUP1 PUSH1 0x1F LT PUSH2 0xF8F JUMPI PUSH2 0x100 DUP1 DUP4 SLOAD DIV MUL DUP4 MSTORE SWAP2 PUSH1 0x20 ADD SWAP2 PUSH2 0xFB8 JUMP JUMPDEST DUP3 ADD SWAP2 SWAP1 PUSH0 MSTORE PUSH1 0x20 PUSH0 KECCAK256 SWAP1 JUMPDEST DUP2 SLOAD DUP2 MSTORE SWAP1 PUSH1 0x1 ADD SWAP1 PUSH1 0x20 ADD DUP1 DUP4 GT PUSH2 0xF9B JUMPI DUP3 SWAP1 SUB PUSH1 0x1F AND DUP3 ADD SWAP2 JUMPDEST POP POP POP SWAP2 DUP4 MSTORE POP POP PUSH1 0x4 DUP3 ADD SLOAD PUSH1 0x20 DUP3 ADD MSTORE PUSH1 0x5 DUP3 ADD SLOAD PUSH1 0xFF DUP1 DUP3 AND ISZERO ISZERO PUSH1 0x40 DUP5 ADD MSTORE PUSH2 0x100 DUP3 DIV AND ISZERO ISZERO PUSH1 0x60 DUP4 ADD MSTORE PUSH3 0x10000 SWAP1 DIV PUSH1 0x1 PUSH1 0x1 PUSH1 0xA0 SHL SUB AND PUSH1 0x80 DUP3 ADD MSTORE PUSH1 0x6 DUP3 ADD DUP1 SLOAD PUSH1 0xA0 SWAP1 SWAP3 ADD SWAP2 PUSH2 0x1011 SWAP1 PUSH2 0x1548 JUMP JUMPDEST DUP1 PUSH1 0x1F ADD PUSH1 0x20 DUP1 SWAP2 DIV MUL PUSH1 0x20 ADD PUSH1 0x40 MLOAD SWAP1 DUP2 ADD PUSH1 0x40 MSTORE DUP1 SWAP3 SWAP2 SWAP1 DUP2 DUP2 MSTORE PUSH1 0x20 ADD DUP3 DUP1 SLOAD PUSH2 0x103D SWAP1 PUSH2 0x1548 JUMP JUMPDEST DUP1 ISZERO PUSH2 0x1088 JUMPI DUP1 PUSH1 0x1F LT PUSH2 0x105F JUMPI PUSH2 0x100 DUP1 DUP4 SLOAD DIV MUL DUP4 MSTORE SWAP2 PUSH1 0x20 ADD SWAP2 PUSH2 0x1088 JUMP JUMPDEST DUP3 ADD SWAP2 SWAP1 PUSH0 MSTORE PUSH1 0x20 PUSH0 KECCAK256 SWAP1 JUMPDEST DUP2 SLOAD DUP2 MSTORE SWAP1 PUSH1 0x1 ADD SWAP1 PUSH1 0x20 ADD DUP1 DUP4 GT PUSH2 0x106B JUMPI DUP3 SWAP1 SUB PUSH1 0x1F AND DUP3 ADD SWAP2 JUMPDEST POP POP POP POP POP DUP2 MSTORE POP POP SWAP1 POP SWAP2 SWAP1 POP JUMP JUMPDEST PUSH0 PUSH1 0x3 SLOAD DUP3 LT DUP1 ISZERO PUSH2 0x10A9 JUMPI POP PUSH0 DUP3 GT JUMPDEST PUSH2 0x10EC JUMPI PUSH1 0x40 MLOAD PUSH3 0x461BCD PUSH1 0xE5 SHL DUP2 MSTORE PUSH1 0x20 PUSH1 0x4 DUP3 ADD MSTORE PUSH1 0x14 PUSH1 0x24 DUP3 ADD MSTORE PUSH20 0x10985919D948191BD95CC81B9BDD08195E1A5CDD PUSH1 0x62 SHL PUSH1 0x44 DUP3 ADD MSTORE PUSH1 0x64 ADD PUSH2 0x3CC JUMP JUMPDEST POP PUSH0 SWAP1 DUP2 MSTORE PUSH1 0x20 DUP2 SWAP1 MSTORE PUSH1 0x40 SWAP1 KECCAK256 PUSH1 0x5 ADD SLOAD PUSH3 0x10000 SWAP1 DIV PUSH1 0x1 PUSH1 0x1 PUSH1 0xA0 SHL SUB AND SWAP1 JUMP JUMPDEST DUP1 CALLDATALOAD PUSH1 0x1 PUSH1 0x1 PUSH1 0xA0 SHL SUB DUP2 AND DUP2 EQ PUSH2 0x1126 JUMPI PUSH0 DUP1 REVERT JUMPDEST SWAP2 SWAP1 POP JUMP JUMPDEST PUSH0 DUP1 PUSH0 PUSH1 0x60 DUP5 DUP7 SUB SLT ISZERO PUSH2 0x113D JUMPI PUSH0 DUP1 REVERT JUMPDEST PUSH2 0x1146 DUP5 PUSH2 0x1110 JUMP JUMPDEST SWAP6 PUSH1 0x20 DUP6 ADD CALLDATALOAD SWAP6 POP PUSH1 0x40 SWAP1 SWAP5 ADD CALLDATALOAD SWAP4 SWAP3 POP POP POP JUMP JUMPDEST PUSH4 0x4E487B71 PUSH1 0xE0 SHL PUSH0 MSTORE PUSH1 0x41 PUSH1 0x4 MSTORE PUSH1 0x24 PUSH0 REVERT JUMPDEST PUSH0 DUP3 PUSH1 0x1F DUP4 ADD SLT PUSH2 0x117E JUMPI PUSH0 DUP1 REVERT JUMPDEST DUP2 CALLDATALOAD PUSH8 0xFFFFFFFFFFFFFFFF DUP1 DUP3 GT ISZERO PUSH2 0x1199 JUMPI PUSH2 0x1199 PUSH2 0x115B JUMP JUMPDEST PUSH1 0x40 MLOAD PUSH1 0x1F DUP4 ADD PUSH1 0x1F NOT SWAP1 DUP2 AND PUSH1 0x3F ADD AND DUP2 ADD SWAP1 DUP3 DUP3 GT DUP2 DUP4 LT OR ISZERO PUSH2 0x11C1 JUMPI PUSH2 0x11C1 PUSH2 0x115B JUMP JUMPDEST DUP2 PUSH1 0x40 MSTORE DUP4 DUP2 MSTORE DUP7 PUSH1 0x20 DUP6 DUP9 ADD ADD GT ISZERO PUSH2 0x11D9 JUMPI PUSH0 DUP1 REVERT JUMPDEST DUP4 PUSH1 0x20 DUP8 ADD PUSH1 0x20 DUP4 ADD CALLDATACOPY PUSH0 PUSH1 0x20 DUP6 DUP4 ADD ADD MSTORE DUP1 SWAP5 POP POP POP POP POP SWAP3 SWAP2 POP POP JUMP JUMPDEST DUP1 CALLDATALOAD DUP1 ISZERO ISZERO DUP2 EQ PUSH2 0x1126 JUMPI PUSH0 DUP1 REVERT JUMPDEST PUSH0 DUP1 PUSH0 DUP1 PUSH0 DUP1 PUSH0 DUP1 PUSH2 0x100 DUP10 DUP12 SUB SLT ISZERO PUSH2 0x121F JUMPI PUSH0 DUP1 REVERT JUMPDEST PUSH2 0x1228 DUP10 PUSH2 0x1110 JUMP JUMPDEST SWAP8 POP PUSH1 0x20 DUP10 ADD CALLDATALOAD SWAP7 POP PUSH1 0x40 DUP10 ADD CALLDATALOAD SWAP6 POP PUSH1 0x60 DUP10 ADD CALLDATALOAD SWAP5 POP PUSH1 0x80 DUP10 ADD CALLDATALOAD PUSH8 0xFFFFFFFFFFFFFFFF DUP1 DUP3 GT ISZERO PUSH2 0x1259 JUMPI PUSH0 DUP1 REVERT JUMPDEST PUSH2 0x1265 DUP13 DUP4 DUP14 ADD PUSH2 0x116F JUMP JUMPDEST SWAP6 POP PUSH2 0x1273 PUSH1 0xA0 DUP13 ADD PUSH2 0x11F8 JUMP JUMPDEST SWAP5 POP PUSH2 0x1281 PUSH1 0xC0 DUP13 ADD PUSH2 0x11F8 JUMP JUMPDEST SWAP4 POP PUSH1 0xE0 DUP12 ADD CALLDATALOAD SWAP2 POP DUP1 DUP3 GT ISZERO PUSH2 0x1296 JUMPI PUSH0 DUP1 REVERT JUMPDEST POP PUSH2 0x12A3 DUP12 DUP3 DUP13 ADD PUSH2 0x116F JUMP JUMPDEST SWAP2 POP POP SWAP3 SWAP6 SWAP9 POP SWAP3 SWAP6 SWAP9 SWAP1 SWAP4 SWAP7 POP JUMP JUMPDEST PUSH0 PUSH1 0x20 DUP3 DUP5 SUB SLT ISZERO PUSH2 0x12C3 JUMPI PUSH0 DUP1 REVERT JUMPDEST PUSH2 0x12CC DUP3 PUSH2 0x1110 JUMP JUMPDEST SWAP4 SWAP3 POP POP POP JUMP JUMPDEST PUSH1 0x20 DUP1 DUP3 MSTORE DUP3 MLOAD DUP3 DUP3 ADD DUP2 SWAP1 MSTORE PUSH0 SWAP2 SWAP1 DUP5 DUP3 ADD SWAP1 PUSH1 0x40 DUP6 ADD SWAP1 DUP5 JUMPDEST DUP2 DUP2 LT ISZERO PUSH2 0x130A JUMPI DUP4 MLOAD DUP4 MSTORE SWAP3 DUP5 ADD SWAP3 SWAP2 DUP5 ADD SWAP2 PUSH1 0x1 ADD PUSH2 0x12EE JUMP JUMPDEST POP SWAP1 SWAP7 SWAP6 POP POP POP POP POP POP JUMP JUMPDEST PUSH0 DUP1 PUSH1 0x40 DUP4 DUP6 SUB SLT ISZERO PUSH2 0x1327 JUMPI PUSH0 DUP1 REVERT JUMPDEST DUP3 CALLDATALOAD SWAP2 POP PUSH1 0x20 DUP4 ADD CALLDATALOAD PUSH8 0xFFFFFFFFFFFFFFFF DUP2 GT ISZERO PUSH2 0x1344 JUMPI PUSH0 DUP1 REVERT JUMPDEST PUSH2 0x1350 DUP6 DUP3 DUP7 ADD PUSH2 0x116F JUMP JUMPDEST SWAP2 POP POP SWAP3 POP SWAP3 SWAP1 POP JUMP JUMPDEST PUSH0 DUP1 PUSH1 0x40 DUP4 DUP6 SUB SLT ISZERO PUSH2 0x136B JUMPI PUSH0 DUP1 REVERT JUMPDEST DUP3 CALLDATALOAD SWAP2 POP PUSH2 0x137B PUSH1 0x20 DUP5 ADD PUSH2 0x1110 JUMP JUMPDEST SWAP1 POP SWAP3 POP SWAP3 SWAP1 POP JUMP JUMPDEST PUSH0 PUSH1 0x20 DUP3 DUP5 SUB SLT ISZERO PUSH2 0x1394 JUMPI PUSH0 DUP1 REVERT JUMPDEST POP CALLDATALOAD SWAP2 SWAP1 POP JUMP JUMPDEST PUSH0 DUP2 MLOAD DUP1 DUP5 MSTORE DUP1 PUSH1 0x20 DUP5 ADD PUSH1 0x20 DUP7 ADD MCOPY PUSH0 PUSH1 0x20 DUP3 DUP7 ADD ADD MSTORE PUSH1 0x20 PUSH1 0x1F NOT PUSH1 0x1F DUP4 ADD AND DUP6 ADD ADD SWAP2 POP POP SWAP3 SWAP2 POP POP JUMP JUMPDEST PUSH0 PUSH2 0x120 DUP12 DUP4 MSTORE DUP11 PUSH1 0x20 DUP5 ADD MSTORE DUP10 PUSH1 0x40 DUP5 ADD MSTORE DUP1 PUSH1 0x60 DUP5 ADD MSTORE PUSH2 0x13EE DUP2 DUP5 ADD DUP11 PUSH2 0x139B JUMP JUMPDEST SWAP1 POP DUP8 PUSH1 0x80 DUP5 ADD MSTORE DUP7 ISZERO ISZERO PUSH1 0xA0 DUP5 ADD MSTORE DUP6 ISZERO ISZERO PUSH1 0xC0 DUP5 ADD MSTORE PUSH1 0x1 PUSH1 0x1 PUSH1 0xA0 SHL SUB DUP6 AND PUSH1 0xE0 DUP5 ADD MSTORE DUP3 DUP2 SUB PUSH2 0x100 DUP5 ADD MSTORE PUSH2 0x1428 DUP2 DUP6 PUSH2 0x139B JUMP JUMPDEST SWAP13 SWAP12 POP POP POP POP POP POP POP POP POP POP POP POP JUMP JUMPDEST PUSH0 DUP1 PUSH1 0x40 DUP4 DUP6 SUB SLT ISZERO PUSH2 0x1449 JUMPI PUSH0 DUP1 REVERT JUMPDEST PUSH2 0x1452 DUP4 PUSH2 0x1110 JUMP JUMPDEST SWAP5 PUSH1 0x20 SWAP4 SWAP1 SWAP4 ADD CALLDATALOAD SWAP4 POP POP POP JUMP JUMPDEST PUSH1 0x20 DUP2 MSTORE PUSH0 PUSH2 0x12CC PUSH1 0x20 DUP4 ADD DUP5 PUSH2 0x139B JUMP JUMPDEST PUSH1 0x20 DUP2 MSTORE DUP2 MLOAD PUSH1 0x20 DUP3 ADD MSTORE PUSH1 0x20 DUP3 ADD MLOAD PUSH1 0x40 DUP3 ADD MSTORE PUSH1 0x40 DUP3 ADD MLOAD PUSH1 0x60 DUP3 ADD MSTORE PUSH0 PUSH1 0x60 DUP4 ADD MLOAD PUSH2 0x120 DUP1 PUSH1 0x80 DUP6 ADD MSTORE PUSH2 0x14AE PUSH2 0x140 DUP6 ADD DUP4 PUSH2 0x139B JUMP JUMPDEST SWAP2 POP PUSH1 0x80 DUP6 ADD MLOAD PUSH1 0xA0 DUP6 ADD MSTORE PUSH1 0xA0 DUP6 ADD MLOAD PUSH2 0x14CD PUSH1 0xC0 DUP7 ADD DUP3 ISZERO ISZERO SWAP1 MSTORE JUMP JUMPDEST POP PUSH1 0xC0 DUP6 ADD MLOAD DUP1 ISZERO ISZERO PUSH1 0xE0 DUP7 ADD MSTORE POP PUSH1 0xE0 DUP6 ADD MLOAD PUSH2 0x100 PUSH2 0x14F8 DUP2 DUP8 ADD DUP4 PUSH1 0x1 PUSH1 0x1 PUSH1 0xA0 SHL SUB AND SWAP1 MSTORE JUMP JUMPDEST DUP7 ADD MLOAD DUP6 DUP5 SUB PUSH1 0x1F NOT ADD DUP4 DUP8 ADD MSTORE SWAP1 POP PUSH2 0x1512 DUP4 DUP3 PUSH2 0x139B JUMP JUMPDEST SWAP7 SWAP6 POP POP POP POP POP POP JUMP JUMPDEST PUSH4 0x4E487B71 PUSH1 0xE0 SHL PUSH0 MSTORE PUSH1 0x11 PUSH1 0x4 MSTORE PUSH1 0x24 PUSH0 REVERT JUMPDEST PUSH0 PUSH1 0x1 DUP3 ADD PUSH2 0x1541 JUMPI PUSH2 0x1541 PUSH2 0x151C JUMP JUMPDEST POP PUSH1 0x1 ADD SWAP1 JUMP JUMPDEST PUSH1 0x1 DUP2 DUP2 SHR SWAP1 DUP3 AND DUP1 PUSH2 0x155C JUMPI PUSH1 0x7F DUP3 AND SWAP2 POP JUMPDEST PUSH1 0x20 DUP3 LT DUP2 SUB PUSH2 0x157A JUMPI PUSH4 0x4E487B71 PUSH1 0xE0 SHL PUSH0 MSTORE PUSH1 0x22 PUSH1 0x4 MSTORE PUSH1 0x24 PUSH0 REVERT JUMPDEST POP SWAP2 SWAP1 POP JUMP JUMPDEST PUSH1 0x1F DUP3 GT ISZERO PUSH2 0x728 JUMPI DUP1 PUSH0 MSTORE PUSH1 0x20 PUSH0 KECCAK256 PUSH1 0x1F DUP5 ADD PUSH1 0x5 SHR DUP2 ADD PUSH1 0x20 DUP6 LT ISZERO PUSH2 0x15A5 JUMPI POP DUP1 JUMPDEST PUSH1 0x1F DUP5 ADD PUSH1 0x5 SHR DUP3 ADD SWAP2 POP JUMPDEST DUP2 DUP2 LT ISZERO PUSH2 0x15C4 JUMPI PUSH0 DUP2 SSTORE PUSH1 0x1 ADD PUSH2 0x15B1 JUMP JUMPDEST POP POP POP POP POP JUMP JUMPDEST DUP2 MLOAD PUSH8 0xFFFFFFFFFFFFFFFF DUP2 GT ISZERO PUSH2 0x15E5 JUMPI PUSH2 0x15E5 PUSH2 0x115B JUMP JUMPDEST PUSH2 0x15F9 DUP2 PUSH2 0x15F3 DUP5 SLOAD PUSH2 0x1548 JUMP JUMPDEST DUP5 PUSH2 0x1580 JUMP JUMPDEST PUSH1 0x20 DUP1 PUSH1 0x1F DUP4 GT PUSH1 0x1 DUP2 EQ PUSH2 0x162C JUMPI PUSH0 DUP5 ISZERO PUSH2 0x1615 JUMPI POP DUP6 DUP4 ADD MLOAD JUMPDEST PUSH0 NOT PUSH1 0x3 DUP7 SWAP1 SHL SHR NOT AND PUSH1 0x1 DUP6 SWAP1 SHL OR DUP6 SSTORE PUSH2 0x1683 JUMP JUMPDEST PUSH0 DUP6 DUP2 MSTORE PUSH1 0x20 DUP2 KECCAK256 PUSH1 0x1F NOT DUP7 AND SWAP2 JUMPDEST DUP3 DUP2 LT ISZERO PUSH2 0x165A JUMPI DUP9 DUP7 ADD MLOAD DUP3 SSTORE SWAP5 DUP5 ADD SWAP5 PUSH1 0x1 SWAP1 SWAP2 ADD SWAP1 DUP5 ADD PUSH2 0x163B JUMP JUMPDEST POP DUP6 DUP3 LT ISZERO PUSH2 0x1677 JUMPI DUP8 DUP6 ADD MLOAD PUSH0 NOT PUSH1 0x3 DUP9 SWAP1 SHL PUSH1 0xF8 AND SHR NOT AND DUP2 SSTORE JUMPDEST POP POP PUSH1 0x1 DUP5 PUSH1 0x1 SHL ADD DUP6 SSTORE JUMPDEST POP POP POP POP POP POP JUMP JUMPDEST DUP6 DUP2 MSTORE PUSH1 0xA0 PUSH1 0x20 DUP3 ADD MSTORE PUSH0 PUSH2 0x16A3 PUSH1 0xA0 DUP4 ADD DUP8 PUSH2 0x139B JUMP JUMPDEST SWAP5 ISZERO ISZERO PUSH1 0x40 DUP4 ADD MSTORE POP SWAP2 ISZERO ISZERO PUSH1 0x60 DUP4 ADD MSTORE PUSH1 0x80 SWAP1 SWAP2 ADD MSTORE SWAP3 SWAP2 POP POP JUMP JUMPDEST PUSH1 0x40 DUP2 MSTORE PUSH0 PUSH2 0x16D2 PUSH1 0x40 DUP4 ADD DUP6 PUSH2 0x139B JUMP JUMPDEST SWAP1 POP DUP3 PUSH1 0x20 DUP4 ADD MSTORE SWAP4 SWAP3 POP POP POP JUMP JUMPDEST PUSH4 0x4E487B71 PUSH1 0xE0 SHL PUSH0 MSTORE PUSH1 0x32 PUSH1 0x4 MSTORE PUSH1 0x24 PUSH0 REVERT JUMPDEST DUP2 DUP2 SUB DUP2 DUP2 GT ISZERO PUSH2 0xD21 JUMPI PUSH2 0xD21 PUSH2 0x151C JUMP JUMPDEST PUSH4 0x4E487B71 PUSH1 0xE0 SHL PUSH0 MSTORE PUSH1 0x31 PUSH1 0x4 MSTORE PUSH1 0x24 PUSH0 REVERT INVALID LOG2 PUSH5 0x6970667358 0x22 SLT KECCAK256 SWAP15 DUP7 0xCF 0xB3 DUP12 CALLVALUE 0xE 0xBD 0xE8 0x2C 0xD6 PUSH31 0xD59F4DF3FEA1F0730B73C62EC59A04D9F4AB6FFD64736F6C63430008190033 "
    },
    "gasEstimates": {
      "creation": {
        "codeDepositCost": "1194000",
        "executionCost": "47580",
        "totalCost": "1241580"
      },
      "external": {
        "badges(uint256)": "infinite",
        "getBadgeInfo(uint256)": "infinite",
        "getBadgeMetadataURI(uint256)": "infinite",
        "getBadgeOwner(uint256)": "4751",
        "getTotalBadgesMinted()": "2469",
        "getUserBadgeCount(address)": "2612",
        "getUserBadges(address)": "infinite",
        "getUserQuizBadges(address,uint256)": "infinite",
        "kwalaOperator()": "2404",
        "mintBadge(address,uint256,uint256,uint256,string,bool,bool,string)": "infinite",
        "nextTokenId()": "2329",
        "owner()": "2404",
        "quizBadges(address,uint256,uint256)": "4832",
        "quizProgressContract()": "2402",
        "setKwalaOperator(address)": "26764",
        "setQuizProgressContract(address)": "26743",
        "transferBadge(uint256,address)": "infinite",
        "updateBadgeMetadata(uint256,string)": "infinite",
        "userBadges(address,uint256)": "4793"
      }
    },
    "methodIdentifiers": {
      "badges(uint256)": "98e36d8b",
      "getBadgeInfo(uint256)": "e2045b5e",
      "getBadgeMetadataURI(uint256)": "cc3ab868",
      "getBadgeOwner(uint256)": "fbd1d6cf",
      "getTotalBadgesMinted()": "b10b22f4",
      "getUserBadgeCount(address)": "69679575",
      "getUserBadges(address)": "37c245fe",
      "getUserQuizBadges(address,uint256)": "a36fa572",
      "kwalaOperator()": "4d2bd0ff",
      "mintBadge(address,uint256,uint256,uint256,string,bool,bool,string)": "363dc449",
      "nextTokenId()": "75794a3c",
      "owner()": "8da5cb5b",
      "quizBadges(address,uint256,uint256)": "14d4fcad",
      "quizProgressContract()": "f94fe13f",
      "setKwalaOperator(address)": "680890c6",
      "setQuizProgressContract(address)": "4c2708a9",
      "transferBadge(uint256,address)": "55c062c8",
      "updateBadgeMetadata(uint256,string)": "47461b40",
      "userBadges(address,uint256)": "df91cc23"
    }
  },
  "storageLayout": {
    "storage": [
      {
        "astId": 580,
        "contract": "SimpleBadgeMinter.sol:SimpleBadgeMinter",
        "label": "badges",
        "offset": 0,
        "slot": "0",
        "type": "t_mapping(t_uint256,t_struct(Badge)575_storage)"
      },
      {
        "astId": 585,
        "contract": "SimpleBadgeMinter.sol:SimpleBadgeMinter",
        "label": "userBadges",
        "offset": 0,
        "slot": "1",
        "type": "t_mapping(t_address,t_array(t_uint256)dyn_storage)"
      },
      {
        "astId": 592,
        "contract": "SimpleBadgeMinter.sol:SimpleBadgeMinter",
        "label": "quizBadges",
        "offset": 0,
        "slot": "2",
        "type": "t_mapping(t_address,t_mapping(t_uint256,t_array(t_uint256)dyn_storage))"
      },
      {
        "astId": 595,
        "contract": "SimpleBadgeMinter.sol:SimpleBadgeMinter",
        "label": "nextTokenId",
        "offset": 0,
        "slot": "3",
        "type": "t_uint256"
      },
      {
        "astId": 597,
        "contract": "SimpleBadgeMinter.sol:SimpleBadgeMinter",
        "label": "owner",
        "offset": 0,
        "slot": "4",
        "type": "t_address"
      },
      {
        "astId": 599,
        "contract": "SimpleBadgeMinter.sol:SimpleBadgeMinter",
        "label": "kwalaOperator",
        "offset": 0,
        "slot": "5",
        "type": "t_address"
      },
      {
        "astId": 601,
        "contract": "SimpleBadgeMinter.sol:SimpleBadgeMinter",
        "label": "quizProgressContract",
        "offset": 0,
        "slot": "6",
        "type": "t_address"
      }
    ],
    "types": {
      "t_address": {
        "encoding": "inplace",
        "label": "address",
        "numberOfBytes": "20"
      },
      "t_array(t_uint256)dyn_storage": {
        "base": "t_uint256",
        "encoding": "dynamic_array",
        "label": "uint256[]",
        "numberOfBytes": "32"
      },
      "t_bool": {
        "encoding": "inplace",
        "label": "bool",
        "numberOfBytes": "1"
      },
      "t_mapping(t_address,t_array(t_uint256)dyn_storage)": {
        "encoding": "mapping",
        "key": "t_address",
        "label": "mapping(address => uint256[])",
        "numberOfBytes": "32",
        "value": "t_array(t_uint256)dyn_storage"
      },
      "t_mapping(t_address,t_mapping(t_uint256,t_array(t_uint256)dyn_storage))": {
        "encoding": "mapping",
        "key": "t_address",
        "label": "mapping(address => mapping(uint256 => uint256[]))",
        "numberOfBytes": "32",
        "value": "t_mapping(t_uint256,t_array(t_uint256)dyn_storage)"
      },
      "t_mapping(t_uint256,t_array(t_uint256)dyn_storage)": {
        "encoding": "mapping",
        "key": "t_uint256",
        "label": "mapping(uint256 => uint256[])",
        "numberOfBytes": "32",
        "value": "t_array(t_uint256)dyn_storage"
      },
      "t_mapping(t_uint256,t_struct(Badge)575_storage)": {
        "encoding": "mapping",
        "key": "t_uint256",
        "label": "mapping(uint256 => struct SimpleBadgeMinter.Badge)",
        "numberOfBytes": "32",
        "value": "t_struct(Badge)575_storage"
      },
      "t_string_storage": {
        "encoding": "bytes",
        "label": "string",
        "numberOfBytes": "32"
      },
      "t_struct(Badge)575_storage": {
        "encoding": "inplace",
        "label": "struct SimpleBadgeMinter.Badge",
        "members": [
          {
            "astId": 558,
            "contract": "SimpleBadgeMinter.sol:SimpleBadgeMinter",
            "label": "quizId",
            "offset": 0,
            "slot": "0",
            "type": "t_uint256"
          },
          {
            "astId": 560,
            "contract": "SimpleBadgeMinter.sol:SimpleBadgeMinter",
            "label": "score",
            "offset": 0,
            "slot": "1",
            "type": "t_uint256"
          },
          {
            "astId": 562,
            "contract": "SimpleBadgeMinter.sol:SimpleBadgeMinter",
            "label": "totalQuestions",
            "offset": 0,
            "slot": "2",
            "type": "t_uint256"
          },
          {
            "astId": 564,
            "contract": "SimpleBadgeMinter.sol:SimpleBadgeMinter",
            "label": "badgeLevel",
            "offset": 0,
            "slot": "3",
            "type": "t_string_storage"
          },
          {
            "astId": 566,
            "contract": "SimpleBadgeMinter.sol:SimpleBadgeMinter",
            "label": "timestamp",
            "offset": 0,
            "slot": "4",
            "type": "t_uint256"
          },
          {
            "astId": 568,
            "contract": "SimpleBadgeMinter.sol:SimpleBadgeMinter",
            "label": "isHighScore",
            "offset": 0,
            "slot": "5",
            "type": "t_bool"
          },
          {
            "astId": 570,
            "contract": "SimpleBadgeMinter.sol:SimpleBadgeMinter",
            "label": "isFirstAttempt",
            "offset": 1,
            "slot": "5",
            "type": "t_bool"
          },
          {
            "astId": 572,
            "contract": "SimpleBadgeMinter.sol:SimpleBadgeMinter",
            "label": "badgeOwner",
            "offset": 2,
            "slot": "5",
            "type": "t_address"
          },
          {
            "astId": 574,
            "contract": "SimpleBadgeMinter.sol:SimpleBadgeMinter",
            "label": "metadataURI",
            "offset": 0,
            "slot": "6",
            "type": "t_string_storage"
          }
        ],
        "numberOfBytes": "224"
      },
      "t_uint256": {
        "encoding": "inplace",
        "label": "uint256",
        "numberOfBytes": "32"
      }
    }
  },
  "userdoc": {
    "kind": "user",
    "methods": {},
    "version": 1
  }
}